:100000000C941D050C943A050C943A050C94A12A05
:100010000C943A050C943A050C943A050C943A0564
:100020000C943A050C943A050C94801A0C943519EA
:100030000C94021C0C943A050C943A050C943A0565
:100040000C943A050C943A050C943A050C943A0534
:100050000C943A050C94B51B0C943A050C943A0593
:100060000C943A050C943A050C943A050C943A0514
:100070000C943A050C943A050C943A050C943A0504
:100080000C943A050C943A050C943A050C943A05F4
:100090000C943A050C943A050C943A050C943A05E4
:1000A0000C943A050C943A050C943A05CD09CD0907
:1000B000FF09FF09710A190C190C190C8D0A6B0B39
:1000C0007C0B7C0B6C2493242B2693242B26DB2483
:1000D000FE242B26ED25002600DA0281FFD9F1DB74
:1000E00020A4A62EAF00A0C000A1C800AED580A855
:1000F0001FD300408D1420000004643214783C1E8D
:10010000808182838485868788898A8B8C8D8E8F77
:100110009091929394A0A1A2A3A4A5A6A7A8A9AAEE
:10012000ABACADAEAFB0B1B2B3B4C0C1C2C3C4C565
:10013000C6C7C8C9CACBCCCDCECFD0D1D2D3D400BC
:100140000A000A00959600B5B600979800B7B80067
:1001500035001E001F0020002100220000002B009F
:1001600014001A000800150017000000E000040049
:100170001600070009000A000000E1001D001B0036
:100180000600190005002F004C002C01E200E300DE
:10019000115029002A002D002700260025002400E8
:1001A000230000003100130012000C0018001C0096
:1001B0000000340033000F000E000D000B000000A3
:1001C0002E003800370036001000110030004F00BC
:1001D000520051005000125028002C0035021E021F
:1001E0001F02200221022202000035021E021F020D
:1001F000200221022202000001003A003B003C00E4
:100200003D003E000000010040004100420043006C
:10021000440026020100010001000100AA00A9001B
:10022000A800010027022602250224022302000062
:1002300001002702260225022402230200003102C7
:1002400030022F022E022D023F0000000100FA00B2
:10025000F9000100010045002702F000EE00ED006A
:10026000EF0001000100010035001E001F0020000A
:1002700021002200000035001E001F002000210088
:100280002200000001003A003B003C003D003E001F
:1002900000000100400041004200430044002602EB
:1002A00001000100010001000100010001002A001D
:1002B0002700260025002400230000004C00270012
:1002C00026002500240023000000310030002F000C
:1002D0002E022D023F0000004D004E004B004A0050
:1002E000010045002702C35CC75CC65C0100D05C0E
:1002F000CF5CCE5C00AF00AE05010980A101850393
:1003000019012AB700150126B70095017510810063
:10031000C0050C0901A101850419012AA0021501DB
:1003200026A002950175108100C005010906A101F2
:10033000050719E029E715002501950875018102D7
:100340009501750881010507190029FF150026FF91
:1003500000950675088100050819012905950575A0
:10036000019102950175039101C009023B00020150
:1003700000A0FA0904000001030101000921110194
:100380000001224000070581030800010904010063
:1003900001030000000921110100012232000705BC
:1003A00082032000011201000200000008653203F0
:1003B000000100010200012203480065006C006991
:1003C00000780020007200650076003300200035C0
:1003D0000072006F0077007300000014037900754D
:1003E000007300680061006B006F0062006F000026
:1003F00000040309040000000000003E5B4F5B3E68
:10040000003E6B4F6B3E001C3E7C3E1C00183C7E49
:100410003C18001C577D571C001C5E7F5E1C0000B2
:10042000183C180000FFE7C3E7FF0000182418007D
:1004300000FFE7DBE7FF0030483A060E0026297987
:10044000292600407F05050700407F05253F005A0B
:100450003CE73C5A007F3E1C1C0800081C1C3E7FE9
:100460000014227F2214005F5F005F5F0006097F97
:10047000017F00006689956A00606060606000949A
:10048000A2FFA2940008047E04080010207E201021
:100490000008082A1C0800081C2A0808001E101062
:1004A0001010000C1E0C1E0C0030383E38300006B8
:1004B0000E3E0E060000000000000000005F00007D
:1004C00000000700070000147F147F1400242A7F17
:1004D0002A12002313086462003649562050000097
:1004E0000807030000001C224100000041221C00FC
:1004F000002A1C7F1C2A0008083E080800008070A3
:1005000030000008080808080000006060000020B3
:1005100010080402003E5149453E0000427F400061
:10052000007249494946002141494D3300181412CF
:100530007F10002745454539003C4A494931004173
:100540002111090700364949493600464949291E03
:1005500000000014000000004034000000000814F7
:100560002241001414141414000041221408000243
:1005700001590906003E415D594E007C1211127C62
:10058000007F49494936003E41414122007F4141B7
:10059000413E007F49494941007F09090901003E68
:1005A00041415173007F0808087F0000417F4100EE
:1005B000002040413F01007F08142241007F40405D
:1005C0004040007F021C027F007F0408107F003E35
:1005D0004141413E007F09090906003E4151215E2B
:1005E000007F091929460026494949320003017F45
:1005F0000103003F4040403F001F2040201F003FBC
:100600004038403F00631408146300030478040377
:10061000006159494D4300007F41414100020408F7
:10062000102000004141417F00040201020400400B
:100630004040404000000307080000205454784028
:10064000007F284444380038444444280038444457
:10065000287F0038545454180000087E09020018FE
:10066000A4A49C78007F080404780000447D400026
:10067000002040403D00007F102844000000417FE2
:100680004000007C04780478007C0804047800387A
:100690004444443800FC182424180018242418FC6E
:1006A000007C080404080048545454240004043F07
:1006B0004424003C4040207C001C2040201C003C86
:1006C0004030403C004428102844004C9090907CDE
:1006D000004464544C440000083641000000007798
:1006E0000000000041360800000201020402003C44
:1006F0002623263C0003071F7FFFFFFEF8F0C020E3
:10070000F8FEFFFE79271F7FFFFFFEF8F0C020F8FC
:10071000FEFFFF7F3F3F7FFFFEF8F0C000000000BC
:10072000FFFFFFFFFFFF00000000000000FF7F7FD2
:100730007FBFBFC0C0C0E0E0E0E0F0F0F0F8787844
:100740007C3C3CFEFEFEFFFFFF00000000000000BE
:100750000000008080BFBFDFDFEFEF0003071F7FD7
:10076000FFFFFFFEF8E0C0E0F8FEFFFFFF7F1F077E
:10077000030000E0F0F0F0E0ECEEF7F37020007C16
:100780007C7C7E007E7E7E7F7F7F000080C0E07E5E
:100790005B4F5BFEC00000C000DCD7DEDEDED7DCD6
:1007A00000C0000000000000000000000000000089
:1007B000000000000000000000C1F3CFBF7FFFFF7A
:1007C000FCFBE7810000000080E3CF3FFFFFFFFC60
:1007D000FBE7810000000081E7FFFFFFFF3C000016
:1007E000FFFFFFFFFFFFF8F8FC7C7E7E3EFEFFFF71
:1007F000FFFFFFF7F7F7FBFB7D7D7DBEBEBEDFDFB2
:10080000E0E000FFFFFFFFFFFF00FCFC7C7E7E3E80
:100810003E1F1F1F0FFFFFFFFFFFFF000000000034
:1008200081E7FFFFFFFFFFFFFFFFFFE78100000001
:100830000000000F1F3F7F7F7F7F7F3F1E0C001F48
:100840001F1F3F003F3F3F7F7F7F00307B7F78301F
:10085000202030787F3B0003000F7F0F0F0F7F0FAA
:100860000003000000000000000000000000000085
:10087000000000000060707C7F7F7F7F1F06010307
:100880000F3F7F7F7E7C7C7E7F7F7F1F0601070F6F
:100890003F7F7F7E7C7C7E7F7F3F0F0300000000D8
:1008A0007F7F7F7F7F7F000000000000007F7F7FD1
:1008B0007F7F7F7D7D3D3E1E1F1F1F0F0F07070798
:1008C0000303007F7F7F7F7F7F7C7C7C7C7C7C7CC4
:1008D0007C7C7C7C007F7F7F7F7F7F004070787E88
:1008E0007F7F7F3F0F0301030F3F7F7F7F7E787005
:1008F00040000000000000000000000000000000B8
:1009000000000000000000000000000000000000E7
:1009100000000000000000000000000000000000D7
:1009200000000000000000000000000000000000C7
:1009300000000000000001010101010101010102AC
:10094000020202020202020203030303030303037F
:10095000040404040404040505050505060606064A
:1009600006070707070708080808090909090A0A06
:100970000A0B0B0B0C0C0C0D0D0D0E0E0E0F0F0FAA
:100980001010111111121213131414151516161735
:1009900017181819191A1A1B1B1C1D1D1E1E1F20A3
:1009A00020212222232424252626272829292A2BF0
:1009B0002C2D2D2E2F303132323334353637383915
:1009C0003A3B3C3D3E3F404142434445464748490F
:1009D0004A4C4D4E4F50515354555658595A5B5DE1
:1009E0005E5F616264656668696B6C6D6F7072737F
:1009F0007577787A7B7D7E8082838587888A8C8EE6
:100A00008F91939596989A9C9EA0A2A3A5A7A9AB17
:100A1000ADAFB1B3B5B7BABCBEC0C2C4C6C9CBCD09
:100A2000CFD1D4D6D8DBDDDFE2E4E7E9EBEEF0F3BB
:100A3000F5F8FAFDFFFFAA7F554011241FBECFEF46
:100A4000DAE0DEBFCDBF11E0A0E0B1E0E4EEF8E512
:100A500002C005900D92A63DB107D9F725E0A6ED9D
:100A6000B1E001C01D92AD3EB207E1F70E94400D1A
:100A70000C94702C0C940000882321F00E943514F3
:100A80000C943C140895882339F09091AA02892B84
:100A90008093AA020C943C140895882309F453C04F
:100AA000682F823869F40E947E1C81FF4CC069E384
:100AB00083E392E00E94381C0E943C1469E30EC05C
:100AC000833891F40E947E1C80FF3DC063E583E380
:100AD00092E00E94381C0E943C1463E583E392E09C
:100AE0000E942B1C0C943C14843869F40E947E1CD8
:100AF00082FF29C067E483E392E00E94381C0E94D1
:100B00003C1467E4EBCF8CEF860F813A38F380E238
:100B1000860F883048F4677081E001C0880F6A95BD
:100B2000EAF70E943514DECF8BE5860F833020F480
:100B300080E090E00C94681C685A673120F480E0F3
:100B400090E00C94521C0895CF93882309F496C02A
:100B5000C82F8238B1F40E947E1C81FD8FC069E3EA
:100B600083E392E00E94381C0E943C142FEF81EE38
:100B700094E0215080409040E1F700C0000069E31C
:100B800017C08338E1F40E947E1C80FD77C063E5C6
:100B900083E392E00E94381C0E943C142FEF81EE08
:100BA00094E0215080409040E1F700C0000063E5F0
:100BB00083E392E00E942B1CCF910C943C14843868
:100BC000B1F40E947E1C82FD59C067E483E392E089
:100BD0000E94381C0E943C142FEF81EE94E02150BB
:100BE00080409040E1F700C0000067E4E1CF8CEF67
:100BF0008C0F813A80F4E5E3F2E08BE392E02191FF
:100C0000C217A1F18E179F07D1F76C2F83E392E0F3
:100C10000E94381CD1CF80E28C0F883068F4C770F6
:100C200081E090E001C0880FCA95EAF79091AA028E
:100C3000892B8093AA02C0CFEBE5EC0FE33040F4A0
:100C4000F0E0E357FE4F808190E0CF910C94681C58
:100C5000C85AC73198F4EC2FF0E0EE0FFF1FE057B1
:100C6000FE4F80819181CF910C94521C6C2F83E3B5
:100C700092E00E942B1C0E943C14C7CFCF91089594
:100C80001F93CF93DF93CDB7DEB767970FB6F89476
:100C9000DEBF0FBECDBF4B8B5C8B6D8B7E8B8F8B86
:100CA00061111092A90286E09E01235F3F4FD90196
:100CB000E82F1D92EA95E9F795E0FE017396D901B8
:100CC00001900D929A95E1F79C894E895F897B8905
:100CD0007D879E876F87598B488BF901DE011796B8
:100CE00001900D928A95E1F7CE0107960E948F152B
:100CF00081113EC086E0FE013796DE01119601901B
:100D00000D928A95E1F7FF81E8856A857B856115FB
:100D1000710531F0EF3F31F481E0FF3F19F403C07A
:100D200081E001C080E080FD23C020916E0230E0B0
:100D3000C90101968770992740919F0250E084175E
:100D4000950779F1F983EA837D836C8396E0929F1E
:100D5000D001939FB00D1124A159BD4FFE013196D2
:100D600001900D929A95E1F780936E020E9484148F
:100D700016E080919F0290916E028917F9F0189FFA
:100D8000C001112481599D4F0E948F158823B1F015
:100D900080919F0290E001968770992780939F022F
:100DA000E8CF0E941B1810926E0210929F02E8E694
:100DB000F2E086E0DF011D928A95E9F767960FB6AB
:100DC000F894DEBF0FBECDBFDF91CF911F91089584
:100DD000CF93DF93FC01EB016A3071054CF0CB013E
:100DE0006AE070E00E94332CCF010E94E806FC010B
:100DF000CE016AE070E00E94332CDC01AB5ABE4F9A
:100E00008C9180831182CF010196DF91CF9108955B
:100E10008F929F92AF92BF92CF92DF92EF92FF920A
:100E20000F931F93CF93DF93CDB7DEB72A970FB6FB
:100E3000F894DEBF0FBECDBFFC010081D18083815D
:100E40009481892B39F01FEFD11206C091E00F3F3A
:100E500019F403C091E001C090E090FDFEC57F0150
:100E600085E0DE01169601900D928A95E1F7F70173
:100E700022818E819F81222349F00E94FA14182F2B
:100E8000682F8E819F810E945C1703C00E943017DB
:100E9000182F26E4129FF001112437E0D39EE00DB5
:100EA000F11D1124E00FF11DEE0FFF1FE05BFE4F5F
:100EB00005911491043F8CE5180759F190F4093D10
:100EC000ECE51E07E9F00A3DFCE51F07A1F1083D2E
:100ED0002CE51207B1F506E221EE41EE68ED7CE566
:100EE00014C0063F3CE5130701F1C8F0073F9CE53D
:100EF000190739F507E225EE46EE67EF7CE505C0F8
:100F000007E225EE45EE69ED7CE5C7010E948E1CE7
:100F1000E0C406E221EE40EE64EF7CE5F6CF07E2A6
:100F200025EE44EE65EF7CE5F0CF06E221EE42EEE1
:100F300066EF7CE5EACF08E221E045EE6AED7CE56C
:100F4000E4CFF7018281882309F45BC11092870303
:100F50000430FDE51F0758F40B3F2CE5120780F421
:100F6000C80182509C45449708F035C109C002363B
:100F70003DE5130729F0063A8DE5180709F02BC166
:100F80000E94B313909309028093080201319CE5FB
:100F9000190709F4C6C008F042C00930FCE51F0774
:100FA00009F49BC000F505303CE5130709F485C042
:100FB00078F403309CE5190709F478C008F07AC08A
:100FC00002301C4509F0F7C0809108028160F1C031
:100FD00007302CE5120709F478C008F07AC0809138
:100FE00008028061E6C00D308CE5180709F487C05F
:100FF00058F40B30ECE51E0709F479C008F07BC00B
:101000008091080288606FC00F302CE5120709F448
:1010100080C008F082C080910802877FCAC00E3F5E
:101020008CE5180709F471C000F50531ECE51E07E1
:1010300009F485C068F403312CE5120709F475C082
:1010400008F095C00E941B18809108028F77B1C0EC
:101050000C3F8CE51807A9F108F054C00B3F1C4564
:1010600009F0A9C08091090240C00230FDE51F07C8
:1010700009F489C058F401153DE5130709F45AC075
:1010800008F069C08091090282602FC002369DE598
:10109000190709F47EC0063AEDE51E0709F483C07E
:1010A00003301D4509F087C060E06EC080910802E2
:1010B00082607FC08091080216C08091080288601B
:1010C00078C08091090282604FC0809108028062DE
:1010D00070C08091080280646CC00E941B188091CF
:1010E0000802806866C0846064C081603DC08091F1
:1010F00008028E7F5EC0809108028D7F5AC0809169
:10110000080216C08091090218C0809109028D7FE3
:101110002BC0809108028F7E4CC0809108028F7D89
:1011200048C0809108028F7B44C080910802877F6D
:101130008B7F3FC0809109028D7F8E7F15C080918B
:10114000080282FB222720F991E0922790FB82F986
:1011500090FB83F92EC080910902982F9095917091
:101160008E7F892B90FB81F98093090224C00E9415
:101170001B188091080287FB222720F991E0922713
:1011800090FB87F916C061E08EE090E00E94F32B9F
:1011900012C08091080284FB222720F991E0922757
:1011A00090FB84F906C080910802982F909590FBDF
:1011B00080F980930802609108021091090284E08E
:1011C00090E00E94F32B612F82E290E00E94F32BCB
:1011D0000E941B187EC306312CE5120721F5809171
:1011E000AA028A7A91E009F490E09093D8018823CA
:1011F00011F065E301C069E283E392E00E94381CCC
:101200000FC00631FCE51F0709F04FC08091D801DF
:10121000882309F481C365E383E392E00E942B1CD9
:101220000E943C1456C30B35FDE51F07C1F158F46D
:1012300001153CE51307B9F00F3D1C4509F051C0FD
:101240000E94C41346C30C359DE5190751F10D35B5
:101250001D4509F046C08091090282FB882780F96C
:1012600091E089271FC00E941B18FFEF04E31CE0D8
:10127000F15000401040E1F700C0000087E797E719
:1012800090930108809300089AE088E10FB6F894E3
:10129000A895809360000FBE90936000FFCF81E01F
:1012A00001C080E00E94D3171CC08091AA02827204
:1012B0000C3C2CE5120709F4B4C308F0F7C2073C54
:1012C0009CE5190709F499C308F036C3043CFCE512
:1012D0001F0709F488C308F021C3033C1C4509F427
:1012E00058C3F70182810081D180882359F0802F73
:1012F0009D2D0E94FA14182F682F802F9D2D0E947B
:101300005C1705C0802F9D2D0E943017182F26E4F2
:10131000129FF001112437E0D39EE00DF11D11243E
:10132000E00FF11DEE0FFF1FE05BFE4F85919491E2
:101330000E9428128C01982EF701D280A580A294D9
:101340003FE0A3228091A0028770B9F0DD20A9F0D0
:10135000812F807F803421F080E2800F883068F018
:101360008091090282FD09C082E00E94B617809137
:10137000A0028770CC24C3948111C12CB12EB294E9
:101380009FE0B9228B2D90E08C30910508F051C27E
:10139000FC01EA5AFF4F0C94472C812F807F1F706D
:1013A000882311F01295107FDD20B9F0112309F484
:1013B0002DC280E2800F883010F0911006C080911D
:1013C000AA02182B1093AA0205C08091A902182B1B
:1013D0001093A9020E943C1419C2802F0E944D054F
:1013E000112309F426C2005E083078F1992069F1D2
:1013F00010958091A90218231093A90229C0812F6A
:10140000807F1F70803211F01295107F992021F09B
:10141000F1E09F16D9F149C08091090282FF1BC0FB
:10142000DD2069F0112339F08091AA02182B109366
:10143000AA020E943C1480E00E94A405FAC180E048
:101440000E944D05112309F4F4C1812F0E94351427
:101450000E943C14EEC1DD2081F08091AB02AA20F5
:1014600051F001E0A01207C0182B181709F4E1C1D0
:101470001093AB02DEC1812B10C0AA2021F021E025
:10148000A21609F4D6C10E942F1427C0DD2041F016
:1014900035E03A1508F4CDC1812F0E944305C9C13A
:1014A00084E08A1508F4C5C118C0DD2049F0AA20DF
:1014B00099F3F701858180FFA9C18F708583ECCFF7
:1014C000AA2059F0093309F0B1C1FFEF17EE23E06C
:1014D000F15010402040E1F7A7C1812F0E943C0548
:1014E000A8C1812F86958695837019F0813059F0B7
:1014F000A0C1DD2019F0C801937002C080E090E027
:101500000E94681C9CC1DD2019F0C801937002C0C4
:1015100080E090E00E94521C92C1812F837009F0FC
:1015200069C0D1108AC1902F929596959770990FA6
:10153000990F802F8F70882E912CA12CB12C092E01
:1015400004C0880C991CAA1CBB1C0A94D2F704FF87
:1015500012C04FE050E060E070E004C0440F551F3F
:10156000661F771F9A95D2F7DB01CA018095909587
:10157000A095B09503C080E090E0DC01169516952B
:10158000412F4370423019F1C8F40091AC02109120
:10159000AD022091AE023091AF02413059F088295E
:1015A0009929AA29BB29BC01CD016023712382237B
:1015B00093230AC0802A912AA22AB32ABC01CD0112
:1015C000682979298A299B290E94111836C18829FE
:1015D0009929AA29BB290091AC021091AD02209152
:1015E000AE023091AF02BC01CD0160277127822786
:1015F0009327EACFDD2019F0812F817001C08695F5
:10160000882309F41AC1902F929596959770990F97
:10161000990F802F8F70882E912CA12CB12C092E20
:1016200004C0880C991CAA1CBB1C0A94D2F704FFA6
:1016300012C04FE050E060E070E004C0440F551F5E
:10164000661F771F9A95D2F7DB01CA0180959095A6
:10165000A095B09503C080E090E0DC01169516954A
:10166000412F43704230D9F068F500910A02109181
:101670000B0220910C0230910D02413059F0882963
:101680009929AA29BB29BC01CD016023712382239A
:1016900093231EC0802A912AA22AB32A13C0882924
:1016A0009929AA29BB2900910A0210910B022091C5
:1016B0000C0230910D02BC01CD01602771278227F9
:1016C000932706C0BC01CD01682979298A299B2965
:1016D0000E948717B2C01F70DD2039F0812F0E9451
:1016E000F017802F0E944305A8C0802F0E943C0560
:1016F000812F0E949117A1C0802F32EF931609F419
:1017000043C0391538F090EF991659F0E1EF9E1665
:10171000B1F177C0F3EF9F16F1F124EF921659F172
:1017200070C0DD2019F134E03A1508F482C01F7151
:1017300081E090E0A0E0B0E0AC01BD0104C0440F46
:10174000551F661F771F1A95D2F780910A02909154
:101750000B02A0910C02B0910D028A019B01082797
:1017600019272A273B27C901B80125C025E02A15DA
:1017700008F45FC0DCCF8091090282FF23C0DD2026
:1017800029F0812F8F7130C0DD20D9F3812F8F7127
:101790000E9491174EC0DD2089F01F7181E090E01A
:1017A000A0E0B0E0BC01CD0104C0660F771F881F28
:1017B000991F1A95D2F70E9487173BC060E070E02E
:1017C000CB01F9CFDD2099F01F71812F0E94F01716
:1017D0008091090282FD07C038E0139FC0011124E7
:1017E00083608093A002812F0E94F01722C081E0C5
:1017F0000E94B61781E08A15E0F482E00E94B617D5
:1018000018C0DD2029F0AA2009F4BBCF802F14CE08
:10181000AA2009F4BBCF893349F49FEFE7EEF3E048
:101820009150E040F040E1F700C00000802F0E949E
:101830004D0588EF8B0D843010F40E947E1CCC2067
:10184000A9F08091A00280FD11C0F7011282859558
:10185000859585950E94F017C7010E940807809121
:10186000A0028595859585950E94911785E0F701E1
:10187000DE01119601900D928A95E1F789819A8196
:101880000E9430179A8106E4809FF001112417E02E
:10189000919FE00DF11D11248981E80FF11DEE0FDC
:1018A000FF1FE05BFE4F85919491D7C0013DECE5B1
:1018B0001E0709F4C5C008F05BC00E3C2CE51207FA
:1018C00009F4BBC008F4B2C00F3C8CE5180709F05E
:1018D00048C08091A002877009F4BFC0F7018281DF
:1018E000882309F4BAC08091090282FDB6C082E063
:1018F0002A960FB6F894DEBF0FBECDBFDF91CF9111
:101900001F910F91FF90EF90DF90CF90BF90AF901D
:101910009F908F900C94B61769E27ECC053C9CE5B5
:10192000190709F465C0063C1C4509F0DACC4AE801
:1019300058E263E978E27EC0093CFCE51F0709F440
:1019400066C008F45FC00A3C3CE5130709F464C0B4
:101950000B3C1C4509F0C5CC46E658E26AE578E246
:1019600069C0003D1C4509F0BCCC64E082E06DC05C
:10197000053DECE51E0709F466C008F4AACF063D54
:101980002CE5120709F464C00E351D4509F4A1CFFA
:10199000A8CC80917A0380FF20C08E7F80937A0349
:1019A00060917A0370917B0380917C0390917D0319
:1019B0000E94D4260E94881D8091B8028160809385
:1019C000B8028FEF90E7E2E081509040E040E1F70D
:1019D00000C000000E9453267CCF816080937A0370
:1019E00061E0869537C04CED58E265EE78E222C0A2
:1019F00045EE58E26CED78E21DC043E958E26AE832
:101A000078E218C042E758E26EE778E213C04EE78A
:101A100058E262E778E20EC04AE558E266E678E20C
:101A200009C046EE56E267EF76E204C047EF56E2A1
:101A300066EE76E20E94821D4CCF61E081E00AC032
:101A40006AE085E002C064E18BE00E94701D41CF36
:101A500061E085E10E949C283CCF2A960FB6F8945D
:101A6000DEBF0FBECDBFDF91CF911F910F91FF90D1
:101A7000EF90DF90CF90BF90AF909F908F900895A0
:101A8000CF93DF93CDB7DEB7A0970FB6F894DEBF44
:101A90000FBECDBF84B7877F84BF0FB6F894A895DB
:101AA00080916000886180936000109260000FBE9A
:101AB00090E080E80FB6F894809361009093610005
:101AC0000FBE85B7806885BF85B7806885BF8AEA05
:101AD0009DE19093D7018093D6010E9479190E94CD
:101AE0001F1A8091E20084608093E20078948091D4
:101AF000D8038823A1F01091E9001F709091EC00A9
:101B0000892F817090FD80E8182B1092E900809158
:101B1000E80083FD0E9486231F701093E90082E095
:101B200084BD93E095BD9AEF97BD80936E001092AF
:101B3000D9011092DA011092DB011092DC01229897
:101B40002A9A579A5F9825E02A95F1F7000083B109
:101B500082FB882780F957985F9A30EA3A95F1F727
:101B60008093000180910001882321F010921F01D1
:101B700080E203C080E280931F01809320010E94D5
:101B8000821F81110E945B2A8091000180910001D7
:101B9000811102C095E001C090E09093E80185E0DA
:101BA000891B8093E70109E611E06EE6E62E61E00D
:101BB000F62ED8018D918D018F3F11F00E941820D3
:101BC000E016F106B1F70EE611E055E7E52E51E01B
:101BD000F52EF80181918F018F3F11F00E9418209E
:101BE000E016F106B1F78AE0EBEEF1E0DF01282F15
:101BF0001D922A95E9F7EDEDF1E0DF011D928A953E
:101C0000E9F780E090E00E94ED2B893E9E4F11F0B5
:101C10000E94C41382E090E00E94DF2B8093F501C4
:101C20000E94B313909309028093080283E090E02E
:101C30000E94DF2B682F70E080E090E00E94111876
:101C400010922E0280E88093E2030E94EF286DE05C
:101C500070E08BEE90E00E943123892B09F043C0A5
:101C600080912E0263E070E081FD3AC088EE90E042
:101C70000E943123892BB9F56DE070E088ED90E08A
:101C80000E943123892B79F50E94EA1BDC01CB01EC
:101C9000805A9541AF4FBF4F80937F03909380034D
:101CA000A0938103B0938203E5EEF3E080E092E03D
:101CB000DF019C011D9221503040E1F7F093EC05CB
:101CC000E093EB058FEF9FEF9093E4038093E303A2
:101CD00081E0809384038093830310922F0203C0DA
:101CE00085EE90E0C5CF8091E90181113BC080E095
:101CF00090E00E94ED2B893E9E4F21F00E94C4137C
:101D00000E94082788E090E00E94E72B60937A0306
:101D100070937B0380937C0390937D038091B80242
:101D200083608093B8026E7F71F40E94082788E078
:101D300090E00E94E72B60937A0370937B0380937B
:101D40007C0390937D030E94BA260E94881D809197
:101D50007A0380FF04C060E086950E949C2881E0A1
:101D60008093E90126982E9A25982D9A8FE891E084
:101D70000197F1F700C0000083B186FB882780F946
:101D80001D9902C090E001C092E0892B8093070268
:101D90009091000181E0982790930602891B80931F
:101DA000EA010E94821F811102C00E945E2A81E026
:101DB00091E090938B0380938A0340E4642E80919A
:101DC000D803853009F046C000E112E18091D803C4
:101DD000853009F03BC08091D803843029F10E94FE
:101DE000191D10928E03A8E1B0E00FB6F894A895E3
:101DF000A09360000FBE6092600083B7817F846013
:101E000083BF83B7816083BF7894889583B78E7FC3
:101E100083BF0FB6F894A895809160008861809385
:101E20006000109260000FBE8091D703882309F4F0
:101E3000CDCF0E947B20EBEEF1E081918111F2C2C7
:101E400025EF31E02E173F07C1F7C0CF0E941B18C6
:101E50000E947E1C0E947B20C82E81110E94EA1BDA
:101E6000ABEEB1E0E6EFF1E000E010E0B02EDD9087
:101E700081918D2549F1E12CFF24F394982F9F2126
:101E8000F1F00E94821F882399F0ED8ABE8ADF203C
:101E900081E009F480E08F8B0E94F61B8160782F2F
:101EA000998F888F4D895E896F89898D0E94400640
:101EB000F801EA50FE4F8081F826F0821AC0E394C0
:101EC000FF0C37E0E312DACF0F5F1F4F0A30110526
:101ED00069F68FEF8A8F8B8F1C8E0E94F61B8160B4
:101EE000782F9E8F8D8F4A8D5B8D6C8D8E8D0E948D
:101EF00040060E94821F8091B702882309F483C0A4
:101F00008091B602E0917A03E695E81BE093B20275
:101F1000823059F4F0E0E350FF4FE4910E2F10E0CF
:101F20003BE8E32E38E1F32E1FC0853061F4E695DF
:101F3000F0E0E650FF4FE4910E2F10E027EFE22E85
:101F400028E1F22E11C0853149F4E8EFF0E0059167
:101F5000149197EBE92E98E1F92E06C000ED17E0F9
:101F600087E2E82E88E1F82E8091B302882361F0A1
:101F70001092B3020E9472209093B1028093B0023B
:101F80001092B5021092B4020E947220E091B00249
:101F9000F091B1029C012E1B3F0B2F3F3F4798F55C
:101FA000209102022223B1F010920202209100023D
:101FB00030910102821B930B8F3F9F4758F4205DA5
:101FC0003A4830930102209300028091B802886061
:101FD0008093B802A090B402B090B5020E0F1F1FFC
:101FE0001093B1020093B00280EB92E0F7010995E3
:101FF0008091B4029091B502892B29F4AB2819F095
:1020000081E08093020280910702E82FEE0FEE0F2D
:10201000E093070283B186FB222420F8312C1D991E
:1020200003C080E090E002C082E090E08229932922
:102030008E2B80930702909106028F70E82FF0E0BC
:10204000EB58FE4F208180910502820F84303CF0D6
:10205000E92FF0E0ED5FFD4F90819F5F08C08D3F5D
:1020600054F4E92FF0E0ED5FFD4F908191509083A3
:10207000DD24D39401C0D12C082E000C990B64E010
:1020800070E00E94332C80930502D1100E94B1139E
:1020900080918403882309F4B6C180913002909125
:1020A00031020E94DB1BC29708F4A8C00E94F61BF5
:1020B000909331028093300285EE93E09093EC058B
:1020C0008093EB050E94821F882309F493C08091BE
:1020D000080282FD0BC084E491E00E94232382E485
:1020E00091E00E94232387E491E00AC08AE491E012
:1020F0000E94232380E491E00E9423238DE491E059
:102100000E94232340910A0250910B0260910C021D
:1021100070910D02CB01AA27BB270097A105B1053D
:1021200021F0AC01BD0190E101C090E0052F162F18
:10213000272F3327011511052105310519F0985F67
:10214000B901A8018A019B01B4E03695279517953E
:102150000795BA95D1F7011511052105310519F03B
:102160009C5FB901A8018A019B01A2E036952795E1
:1021700017950795AA95D1F7011511052105310588
:1021800019F09E5FB901A801769567955795479517
:10219000452B462B472B09F09F5F692F70E020E607
:1021A00031E0AE014F5F5F4F8A01FA01D9018D9195
:1021B0009D01882321F0DA018D93AD01F6CF9A308D
:1021C00010F0108203C080E280833196CF010E941C
:1021D000E806F80101900020E9F79F01215031093C
:1021E00079010E151F0550F4D8018D918D010E94C3
:1021F0007722F7CF80E091E00E942323809184032F
:10220000882309F4E5C02091E3033091E40321150C
:10221000310509F4DDC080912F028111D9C0482E0B
:10222000512CEE24E394F12C082E02C0EE0CFF1C7E
:102230000A94E2F7A9014E215F21452B11F48F5F2B
:10224000EECF90912E02920175E0220F331F7A9506
:10225000E1F790FD12C08295880F807680930F0180
:10226000220F232F221F330B319520931201815E01
:10227000809310011092130112C055E036952795F6
:102280005A95E1F7220F220F220F20930F0110928F
:102290001201295F2093100183E08093130124E64B
:1022A00030E047E050E06DE071E088E70E94A62949
:1022B000892B09F08DC080912E0280FD23C0C201C0
:1022C00045E0880F991F4A95E1F7AC014B515C4FEF
:1022D00004E610E020E230E060E488E70E94CD29C7
:1022E000892B09F075C00E94331DE094F094809111
:1022F000E3039091E403E822F922F092E403E092F0
:10230000E30366C080E2EEE0F2E0DF011D928A9511
:10231000E9F735E0440C551C3A95E1F7E9E8F1E0BE
:10232000F8A3EF8F65E871E0AF8DB8A18D91B8A3E8
:10233000AF8FFB019191BF01A201490F511D4B517C
:102340005C4F90E0825F9D4FFC0127E0A22E9F0131
:10235000281B390B8824839401C0880C2A95EAF73E
:102360008A01912CD801BD908D01B8202A2D291900
:102370002770722E022E000C330BBB2D01C0BB0F39
:102380007A94EAF77B2E319521953109277033270E
:1023900001C0B6942A95EAF77B28B0807B2870822A
:1023A000939428E09212DECFAA9431963FEFA312C5
:1023B000CECF8DE891E0AF8DB8A18A179B0709F0C9
:1023C000B3CF04E610E020E230E04EE052E084CFEC
:1023D000809183038823B9F00E94EA1B00917F0358
:1023E000109180032091810330918203DC01CB01A5
:1023F000801B910BA20BB30B8F3F9F4FAF4FBF477B
:1024000010F40E94191DC11001C0D1100E94331D8B
:102410000E947E1C90913202891709F4D0CC8093DF
:102420003202CDCC09BD19BD09B400FEFDCF8091AB
:10243000D8008F7D8093D8008091E00082608093E7
:10244000E0008091E00081FDFCCF0E941B18BECC13
:10245000CF93DF938238910569F1B0F48133910510
:1024600009F46FC048F48932910509F465C08A32D5
:10247000910509F46BC08AC08533910509F457C0F2
:1024800089339105B9F082C0833E910571F138F42A
:10249000803E9105B1F0823E910511F177C0863EF4
:1024A0009105B9F1873E9105C9F1843E910509F086
:1024B0006DC024C02091080220FD53C021FD51C0F1
:1024C00065C08091080280FD46C08091090280FFAE
:1024D00048C08091080284FD3FC183EE90E03EC178
:1024E0008091080282FF3AC0F4CF8091080282FDF9
:1024F00035C08091090280FD34C0EBCF8091090284
:1025000081FF35C08091080284FD26C187EE90E0EE
:1025100025C18091080283FF27C0F4CF8091080273
:1025200083FD22C08091090281FD21C0EBCF809103
:10253000080285FD1FC021C08091080285FD1DC0D5
:1025400019C08091080286FD1BC01DC08091080241
:1025500086FD19C015C089E390E000C182EE90E0CD
:10256000FDC080EE90E0FAC086EE90E0F7C084EE09
:1025700090E0F4C089E290E0F1C085E390E0EEC025
:102580008AE290E0EBC081E390E0E8C0811532E59B
:10259000930708F069C0811541E5940728F0982F4A
:1025A0008827816F906ADAC0883E910568F5803E81
:1025B000910508F0D3C0883A9105B8F4853A9105A1
:1025C00048F0855AE82FF0E0E357FE4F808190E015
:1025D0009064C4C08130910509F4BBC008F4BCC04C
:1025E0008430910508F4B8C0B9C08F3B910508F05C
:1025F000B3C0885AE82FF0E0EE0FFF1FE057FE4F00
:10260000808191819464AAC0811520E59207F0F041
:102610009C0174E0369527957A95E1F7922F937097
:10262000482F437021E030E002C0220F331F4A954B
:10263000E2F73C68392B8F70982F9695969540E27B
:10264000949FC0011124822B932B88C0811530E404
:10265000930718F09F70906A81C09C013A952115EC
:102660003F4108F47BC078C0EC01C11586E5D8076E
:10267000E8F5C11525E5D20748F08C2F0E942F20E0
:102680008F7190E0982F8827906268C0C11534E55B
:10269000D30728F09C2F8827846F906A5FC0AE0113
:1026A000437055272C2F26952695C115D34578F4D0
:1026B00081E090E002C0880F991F4A95E2F740E25E
:1026C000249F90011124822B932B9C6847C081E0AA
:1026D00090E002C0880F991F4A95E2F740E2249FDC
:1026E00090011124822B932B9A6838C0C1152AE5DA
:1026F000D207F8F4C11539E5D30790F08C2F8F700D
:102700000E942F2094E0D695C7959A95E1F7CF7057
:10271000D0E0DC2FCC27D0699E01282BC9011EC038
:10272000C11548E5D407C0F09C2F8827806F906AB8
:1027300015C0CE0190568115904270F48D2F8F7187
:102740000E942F20282F2F71CE0199279062922B63
:1027500005C081E090E002C080E090E0DF91CF9181
:1027600008950C94EA1BCF9384E090E00E94DF2B45
:10277000C82F82E290E00E94DF2B2C2F30E0A901CD
:10278000582BCA01CF91089569EE7EEF80E090E06A
:102790000E94112C60E082E090E00E94F32B60E048
:1027A00083E090E00E94F32B1092AC021092AD02F5
:1027B0001092AE021092AF0260E084E090E00E94BE
:1027C000F32B60E082E290E00E94F32B60E085E072
:1027D00090E00E94F32B60E086E090E00E94F32BF3
:1027E0006FEF87E090E00E94F32B40E050E0BA01E9
:1027F00088E090E00E94052C60E08DE090E00E946F
:10280000F32B40E050E0BA0188E190E00E94052CF3
:1028100060E087E190E00E94F32B40E050E0BA01D5
:102820008CE190E00E94052C60E070E080E290E096
:102830000E94112C40E050E0BA0188E190E00E9433
:10284000052C40E050E0BA018FE090E00E94052C9A
:1028500040E050E0BA0183E190E00C94052C8091B7
:10286000AB0281111092AB02089580959091AA025B
:1028700089238093AA0208959091AA028091A902C7
:10288000982B909333028091AB02882389F0892B97
:1028900080933302E5E3F2E097E080E0915029F085
:1028A00021912223D9F38F5FF9CF81110E942F1438
:1028B00048E050E061EA72E083E392E00E945A2C23
:1028C000892BA9F088E0E3E3F2E0A1EAB2E001900D
:1028D0000D928A95E1F7E0918A03F0918B0330978E
:1028E00031F00280F381E02D83E392E009940895B2
:1028F00080E090E00E94681C80E090E00E94521C02
:102900001092A9020C943C1480919F0290916E0247
:10291000891719F08F5F8770FBCF08950F931F936E
:10292000CF93DF9380916D0282958F7009F05DC027
:1029300080916A02882309F458C080919F02109107
:102940006E026091680270916902C0916B02D09131
:102950006C0291E06F3F09F090E0292F06E08117AB
:1029600009F443C0209721F07F3F21F030E003C0FD
:1029700031E001C0322F90E030FD34C0089FF001FB
:10298000099FF00D1124DF01A159BD4F11963C9113
:102990001197371327C03C91361324C012963C91EF
:1029A000129731111FC013964D915C9114974C1BD7
:1029B0005D0B483C5105B0F480916D028F708061D1
:1029C00080936D02EC58FD4F80818F708061808311
:1029D00088E692E00E940807DF91CF911F910F9146
:1029E0000C94841401968770BACFDF91CF911F9118
:1029F0000F9108958F929F92AF92BF92DF92EF92C4
:102A0000FF920F931F93CF93DF9380900A029090D1
:102A10000B02A0900C02B0900D024091AC025091BC
:102A2000AD026091AE027091AF02842A952AA62A67
:102A3000B72ACFE1D0E027E0929F7001112496E4FD
:102A4000D92E082F10E0D501C4010C2E04C0B69574
:102A5000A795979587950A94D2F780FD04C0219792
:102A600090F780E014C0DC9EF001DD9EF00D112493
:102A7000EE0DFF1DE00FF11FEE0FFF1FE05BFE4F9D
:102A8000859194910E942812019749F38C2FDF9130
:102A9000CF911F910F91FF90EF90DF90BF90AF907B
:102AA0009F908F900895CF93DF93EC010E94FA14CA
:102AB00026E4829FC0011124FC0127E0D29FE00D93
:102AC000F11D1124EC0FF11DEE0FFF1FE05BFE4F17
:102AD000859194910E942812DF91CF910895FC0175
:102AE000808191810E94531592959F70963079F064
:102AF00010F4925001C09A50923068F4803F69F00F
:102B000018F4883E40F409C0843F29F406C0883E8A
:102B100020F0813F11F080E0089581E008959F92B8
:102B2000AF92BF92CF92DF92EF92FF920F931F93DB
:102B3000CF93DF93CDB7DEB761970FB6F894DEBFC2
:102B40000FBECDBF8C0185E0F801DE011D9601901E
:102B50000D928A95E1F7F801E28090916802609108
:102B6000690240916B0250916C024115510531F0A0
:102B70006F3F31F481E09F3F19F403C081E001C051
:102B800080E0F82FF1709F2E80FD1AC1F80130818E
:102B90002181C380D48088E6A82E82E0B82EF090F0
:102BA0006A02F601E41BF50BFF2009F4C6C0809110
:102BB0006D02E83CF10508F091C0482F407F09F014
:102BC00050C0621311C093130FC0FE2CE1100CC053
:102BD0008F70806180936D02C5010E94080780910B
:102BE0006D02F801858329C1CD2831F02F3F31F4E2
:102BF00081E03F3F19F403C081E001C080E080FD27
:102C000003C081E08E2502C080E090E0F82FF170D3
:102C1000FF2E80FF1CC080919F0240916E0256E003
:102C2000841709F4E8C090E0589FF001599FF00D17
:102C30001124E159FD4F6181261306C060816313A1
:102C400003C06281E61203C001968770E9CFFE2CB3
:102C5000EE2009F4F2C080916D02816080936D02D4
:102C600049C0621306C0931304C0E11002C0F8010A
:102C700086C0C8010E946F15882351F1EE2041F1F2
:102C800020916D02822F82958F7090E0029774F0F0
:102C9000809168029091690298878F831986DB86FC
:102CA000CA862C87CE0107960E94080786E0F801A5
:102CB000A8E6B2E001900D928A95E1F70E948E1489
:102CC0000AC06217C9F0C8010E946F1581111EC0A9
:102CD000C8010E940807FF24F394AFC0482F407F2B
:102CE00081F788E692E00E94080786E0F5011192DC
:102CF0008A95E9F7F12CA1C09313E5CFE110E3CF5A
:102D0000F8018583C8010E94080754C0EE2001F332
:102D100020916D02822F82958F7090E0029734F29D
:102D200080916802909169029A8389831B82DD8277
:102D3000CC822E83CE010196B7CFE83CF105D0F5C9
:102D4000FE2CEE2029F2621327C0931325C0209198
:102D50006D0220FD18C0822F82958F70482F50E0A1
:102D60004115510581F0F80125834F30510541F09F
:102D70008F5F982F9295907F822F8F70892B8583FC
:102D8000C8010E94080786E0F801A8E6B2E00190B9
:102D90000D928A95E1F751C0C8010E946F1581110B
:102DA00085CF80916D02816080936D02C8010E9481
:102DB000080743C086E0F50111928A95E9F73DC006
:102DC000EE2009F485CFC8010E946F15F82E8823E4
:102DD00009F47ECF86E0F801A8E6B2E001900D92FA
:102DE0008A95E1F780916802909169020E945315DB
:102DF0000E948E1422C03D872E878D859E850E945D
:102E00005315292F22952F70223028F49F7039F006
:102E1000811105C00BC0243028F49F7049F4805EF6
:102E2000883020F0C8010E9408079F2CF92C05C0AB
:102E3000F8019581907F99F7F9CF8F2D61960FB6A4
:102E4000F894DEBF0FBECDBFDF91CF911F910F91E0
:102E5000FF90EF90DF90CF90BF90AF909F9008953C
:102E600027E0929F800D1124682F669566956695E0
:102E7000982F977085E0689FB001112440E050E0E2
:102E800080E0FB01E40FF51FE55CFD4F208130E0A1
:102E9000092E02C0369527950A94E2F72170332750
:102EA000042E01C0220F0A94EAF7822B4F5F5F4F76
:102EB0004530510531F7089527E0929F800D112488
:102EC000E82FE695E695E695877051E001C0550F2D
:102ED0008A95EAF785E0E89FF0011124E55CFD4F53
:102EE00020E030E070E04081CB01022E02C09695D8
:102EF00087950A94E2F7817081958427852384273A
:102F000081932F5F3F4F2530310569F70895609316
:102F10000A0270930B0280930C0290930D020C94A2
:102F200078140F931F9341E050E060E070E004C01C
:102F3000440F551F661F771F8A95D2F7409550950D
:102F40006095709580910A0290910B02A0910C02FD
:102F5000B0910D028A019B01082319232A233B23E8
:102F6000C901B8011F910F910C9487172091A002FD
:102F7000809582238093A002982F977099F430E077
:102F8000482F082E000C550B2417350759F0909147
:102F9000090292FD07C08595859585950E94911738
:102FA0001092A0020895CF93C0910902C2FB992705
:102FB00090F9981799F080FBC2F9C09309026091CB
:102FC000080284E090E00E94F32B6C2F82E290E0F4
:102FD0000E94F32B82E0CF910C94B617CF91089505
:102FE0000F931F9341E050E060E070E004C0440F95
:102FF000551F661F771F8A95D2F780910A0290911C
:103000000B02A0910C02B0910D028A019B01082BCA
:10301000192B2A2B3B2BC901B8011F910F910C943E
:1030200087176093AC027093AD028093AE029093C9
:10303000AF020C9478141092AA0286E0E5E3F2E065
:10304000DF011D928A95E9F70C947814089508958C
:1030500008958091CD030895809393037093950311
:10306000609394038091D803843001F582E08093CB
:10307000E9008FEF9091E800815095FD06C095ED35
:103080009A95F1F700008111F5CF8091E80085FF56
:103090000DC040E050E063E070E083E993E00E94FF
:1030A0005A238091E8008E778093E8000895BC0150
:1030B00084E00C942C18BC0183E00C942C18CF9362
:1030C000DF9321E02093E9002FEF3091E8002150B9
:1030D00035FD06C035ED3A95F1F700002111F5CF29
:1030E0002091E80025FF14C0EC0140E050E068E0CA
:1030F00070E00E945A238091E8008E778093E80068
:1031000088E0FE01AEECB3E001900D928A95E1F704
:10311000DF91CF9108950F931F93CF93DF9300D04A
:103120001F92CDB7DEB78C0180917A0380FF13C068
:1031300040917D03493708F048E79E012F5F3F4FDC
:1031400060917C03F80184810E9420274B81698172
:103150008A810E949F26F80184818F5F84830F906B
:103160000F900F90DF91CF911F910F9108950F93C2
:103170001F93CF93DF9300D01F92CDB7DEB78C01A2
:103180008091790381110AC09E012F5F3F4F48E76C
:103190006FEF0E9420278A8180937903F801848150
:1031A000813051F028F0823061F4409179030AC0F7
:1031B0008091790340E007C06091790340E080E0AE
:1031C00003C040E080E060E00E949F26F801848117
:1031D00090E0019663E070E00E94332C84830F90AE
:1031E0000F900F90DF91CF911F910F910895FF9253
:1031F0000F931F93CF93DF93EC01F12C0FEF10E0AF
:1032000060912301F61608F5809121012F2D30E001
:10321000280F311DC901880F991F280F391F275406
:103220003D4F40917D03493708F048E770E0C80101
:103230000E94332C962F8C8160917C03F99E800D27
:1032400011240E942027F394DBCF0E9453269A81F9
:103250008C8190FF02C08F5F01C081508C83DF9111
:10326000CF911F910F91FF9008951F920F920FB66B
:103270000F9211242F933F934F935F936F937F93FC
:103280008F939F93AF93BF93CF93DF93EF93FF936E
:10329000C091E900CF708091EC00D82FD17080FDF3
:1032A000D0E81092E9008091F000877F8093F000D1
:1032B00078940E9486231092E9008091F000886043
:1032C0008093F000CD2BCF70C093E900FF91EF9178
:1032D000DF91CF91BF91AF919F918F917F916F912E
:1032E0005F914F913F912F910F900FBE0F901F90C4
:1032F0001895E8EDF0E080818E7F80831092E200E7
:103300001092DA001092E100A0EEB0E08C918160A2
:103310008C9380818F77808319BCA7EDB0E08C916E
:103320008E7F8C9380818F7E808310929603089588
:103330002091E4003091E50095E64091EC00842F67
:10334000817040FF23C08091E80080FD1DC0809106
:10335000D803882399F0853099F08091EB0085FDA2
:1033600011C04091E4005091E5002417350729F37E
:10337000915011F09A01E1CF84E0089582E0089520
:1033800083E0089581E0089580E008954091E80089
:1033900042FFDDCF08958091DA0387FF11C080914D
:1033A000E80082FD05C08091D8038111F8CF11C0DB
:1033B0008091E8008B770BC08091D803882349F077
:1033C0008091E80080FFF8CF8091E8008E778093AD
:1033D000E8000895982F973068F59093E9009817C2
:1033E00039F07091EC002091ED005091F00003C095
:1033F000242F762F50E021FD02C09F5FECCF30914B
:10340000EB003E7F3093EB003091ED003D7F309339
:10341000ED003091EB0031603093EB007093EC00E5
:103420002093ED005093F0002091EE0027FDE5CFB2
:1034300080E008958F708093E90081E00895CF9235
:10344000DF92EF92FF920F931F93CF93DF93C8ED1C
:10345000D0E088818F7E8883E7EDF0E08081816015
:10346000808384E082BF81E08093960388818E7F91
:10347000888302EE10E0F80110821092DA0081EEEB
:10348000C82ED12CF601108288818F77888388819D
:103490008068888388818F7D888319BC1092D803C7
:1034A0001092D9031092D7031092D60390EEE92E12
:1034B000F12CF70180818B7F8083888181608883F4
:1034C00042E060E080E00E94EA19F60180818E7F90
:1034D0008083F8018081816080838081886080831F
:1034E000F70180818E7F8083888180618883DF916E
:1034F000CF911F910F91FF90EF90DF90CF900895A3
:103500001F920F920FB60F9211242F933F934F9358
:103510005F936F937F938F939F93AF93BF93EF933B
:10352000FF938091E10082FF09C08091E20082FF59
:1035300005C08091E1008B7F8093E1008091DA00EB
:1035400080FF2AC08091D80080FF26C08091DA00D9
:103550008E7F8093DA008091D90080FF18C080E1CF
:1035600089BD82E189BD09B400FEFDCF81E0809371
:10357000D8038091960381110FC00E9479190E948F
:103580001F1A8091E20084608093E20005C019BC9C
:103590001092D803109296038091E10080FF17C02B
:1035A0008091E20080FF13C08091E2008E7F8093C3
:1035B000E2008091E20080618093E2008091D80077
:1035C00080628093D80019BC85E08093D8038091F5
:1035D000E10084FF30C08091E20084FF2CC080E1D4
:1035E00089BD82E189BD09B400FEFDCF8091D8007C
:1035F0008F7D8093D8008091E1008F7E8093E100E1
:103600008091E2008F7E8093E2008091E2008160F1
:103610008093E2008091D903882311F084E007C0F1
:103620008091E30087FD02C081E001C083E08093C8
:10363000D8038091D8038091E10083FF27C0809157
:10364000E20083FF23C08091E100877F8093E10047
:1036500082E08093D8031092D9038091E1008E7F9D
:103660008093E1008091E2008E7F8093E200809160
:10367000E20080618093E20042E060E080E00E942E
:10368000EA198091F00088608093F000FF91EF913B
:10369000BF91AF919F918F917F916F915F914F916A
:1036A0003F912F910F900FBE0F901F901895209172
:1036B000E0033091E1032617370748F061157105E3
:1036C00039F42091E8002E772093E80001C0B90179
:1036D000FC0120E06115710579F18091D803882300
:1036E000F1F18530F1F18091E80083FD3CC08091DB
:1036F000E80082FD2EC08091E80080FFEBCF209192
:10370000F3008091F20090E0922B6115710551F069
:103710008830910538F421912093F10061507109AE
:103720000196F3CF21E0089709F020E08091E800AE
:103730008E778093E800CECF2111CFCF0AC0809141
:10374000D803882361F0853061F08091E80083FD23
:103750000AC08091E80082FFF2CF80E0089582E005
:10376000089583E0089581E0089578941F920F9260
:103770000FB60F9211248F939F93AF93BF938091B5
:103780008F0390919003A0919103B09192030196C1
:10379000A11DB11D80938F0390939003A09391037B
:1037A000B0939203BF91AF919F918F910F900FBEF5
:1037B0000F901F9018959C014FB7F89480918F033C
:1037C00090919003A0919103B09192034FBF821BFF
:1037D000930B08952FB7F89460918F037091900325
:1037E00080919103909192032FBF08952FB7F89481
:1037F00080918F0390919003A0919103B0919203D7
:103800002FBF08951F920F920FB60F9211248F931E
:103810009F93AF93BF9380918E03811113C08091CA
:103820008F0390919003A0919103B09192034196E0
:10383000A11DB11D80938F0390939003A0939103DA
:10384000B0939203BF91AF919F918F910F900FBE54
:103850000F901F9018959C012A5F3F4FFC014281F9
:10386000461301C01282019682179307B9F7089593
:103870009C01FC0132969FEF80E04191461789F050
:103880009F3F19F4411101C0982F8F5F8630A9F72F
:103890009F3F39F0F901E90FF11D97FDFA95628319
:1038A0000895089520918C0330918D0328173907CE
:1038B00071F090938D0380938C03E0918A03F091D3
:1038C0008B03309721F00084F185E02D0994089551
:1038D00020918803309189032817390771F090935C
:1038E000890380938803E0918A03F0918B033097DA
:1038F00021F00680F781E02D099408950E94821F2F
:10390000882351F0E0918A03F0918B03309721F0E6
:103910000190F081E02D099480E00895EF92FF92EC
:103920000F93CF93DF93C42FD22FFC018281882382
:10393000D1F0409387030E94F61B909386038093F7
:10394000850380E28C0F883008F06DC0C77081E07D
:1039500001C0880FCA95EAF7DF91CF910F91FF90D0
:10396000EF900C9443058091870348134BC08091DE
:103970008503909186030E94DB1B883C910508F02B
:1039800041C0CD17C9F080E28C0F883040F4C77079
:1039900081E001C0880FCA95EAF70E943C0580E2E9
:1039A0008D0F883048F481E09D2F977001C0880FFB
:1039B0009A95EAF70E944305093319F0E12CF12C9E
:1039C00003C080E5E82EF12C802F0E94A405E114AD
:1039D000F10451F08FE99FE00197F1F700C000007A
:1039E00091E0E91AF108F3CF802F0E944D0580E2A3
:1039F0008D0F8830C0F4D77081E001C0880FDA9550
:103A0000EAF70AC080E28C0F883068F4C77081E062
:103A100001C0880FCA95EAF7DF91CF910F91FF900F
:103A2000EF900C943C05DF91CF910F91FF90EF90B8
:103A300008958091840390918303882389F09923CA
:103A400069F062E070E086EF92E00E943123892BFA
:103A500019F080918303089510928303909183035A
:103A600081E089270895809184038823F9F00E94DA
:103A7000EA1BDC01CB01805A9541AF4FBF4F8093C9
:103A80007F0390938003A0938103B093820380917E
:103A9000830381110BC062E070E084EF92E00E942A
:103AA0003123892B19F481E0809383038091830370
:103AB0000895FC01680F791F8FEF91E3E617F70770
:103AC00071F02191822728E030E087FF03C0880F42
:103AD000892701C0880F21503109B9F7EFCF089528
:103AE00090917A0390FF04C09695981740F003C018
:103AF000811105C090E0961710F40C94E52861E060
:103B00000C949C28882311F0FA0101C0FB01099450
:103B1000E6EBF2E0118282818460828308956091F5
:103B20007A03669570E04BE050E084E191E00E94FA
:103B30004D2C892B19F481E08093B7020E947220EA
:103B40009093B1028093B0028091B8028460809318
:103B5000B802089580E00895AF92BF92CF92DF92AD
:103B6000EF92FF920F931F93CF93DF937C015B0142
:103B70006A018091CB038A3018F001E010E002C0A6
:103B80000AE010E0C1E0D0E0F894B501C701F60109
:103B900009957894811115C021960C171D0794F092
:103BA000CC9F9001CD9F300D300D112480E090E02E
:103BB00045E34A95F1F70000019682179307C1F794
:103BC000E3CF81E0DF91CF911F910F91FF90EF90B4
:103BD000DF90CF90BF90AF900895CF93DF93CDB794
:103BE000DEB728970FB6F894DEBF0FBECDBF85E0D5
:103BF000EAE7F3E0DE01119601900D928A95E1F774
:103C00008091B6029091B702A091B8028E839F83F3
:103C1000A88728854091C7035091C8036091C903C4
:103C20007091CA033FB7F89480918F0390919003ED
:103C3000A0919103B09192033FBF841B950BA60BFB
:103C4000B70B84369105A105B10510F4222319F1B3
:103C500080914D0190914E018D549C4F40914C01AB
:103C600050E04930510510F048E050E0BE016F5F70
:103C70007F4F0E94672C85E090E00E94472B8823AD
:103C800069F00E94EA1B6093C7037093C803809396
:103C9000C9039093CA031092B80281E028960FB628
:103CA000F894DEBF0FBECDBFDF91CF9108956F9224
:103CB0007F928F929F92AF92BF92CF92DF92EF92BC
:103CC000FF920F931F93CF93DF931F92CDB7DEB771
:103CD000C62E4A015901682E880F7708C3010E9439
:103CE000472B882309F473C0C30123E0880F991F71
:103CF0002A95E1F7FC01EC5DFE4F438150E0411550
:103D0000510511F041E050E0FC01EC5DFE4F648193
:103D100075816D547C4FCE0101960E94672CF40191
:103D200040815181628173812FB7F89480918F0314
:103D300090919003A0919103B09192032FBF841BA7
:103D4000950BA60BB70B84369105A105B10538F488
:103D5000B701C8010E94591D99818917D1F10C2C16
:103D6000000CDD08C6010E94472B782E8823E1F065
:103D7000E114F104C9F0960183E0220F331F8A9504
:103D8000E1F7F901EC5DFE4F438150E0E416F506E2
:103D900008F4A701F901EC5DFE4F648175816D5453
:103DA0007C4FC5010E94672CB701C8010E94591DB4
:103DB00091E02981281390E0D92ED72089F00E9424
:103DC000EA1BF401608371838283938309C0D12C41
:103DD00002C0DD24D394A701B801C5010E94672C5D
:103DE0008D2D0F90DF91CF911F910F91FF90EF904C
:103DF000DF90CF90BF90AF909F908F907F906F900B
:103E00000895EF92FF920F931F93CF93DF931F922A
:103E1000CDB7DEB7EE24E394F12C0AEB13E09E015C
:103E20002F5F3F4F4BEA53E063E082E00E94571E52
:103E3000182F882309F1E091EA01F0E0ED5FFD4FD2
:103E400089819081891B282F90E0121634F421502B
:103E500090819F5F908391E0F8CF282F87FD20E02D
:103E6000821B882331F08F5F90819150908391E085
:103E7000F8CF91110E94B113812F0F90DF91CF9154
:103E80001F910F91FF90EF900895CF92DF92EF92E4
:103E9000FF920F931F93CF93DF9300D000D01F9218
:103EA000CDB7DEB76B0185E0E82EF12C04EB13E013
:103EB0009E012F5F3F4F47EA53E061E080E00E94A0
:103EC000571E882349F095E0FE013196A2EAB3E03F
:103ED00001900D929A95E1F795E0E2EAF3E0D601C0
:103EE00001900D929A95E1F70F900F900F900F901F
:103EF0000F90DF91CF911F910F91FF90EF90DF9086
:103F0000CF9008958091A103811118C08091D800AD
:103F100080618093D8008AE18A95F1F700C0809192
:103F2000D90080FD02C082E001C081E08093A1033E
:103F3000823021F40E9479191092D80381E0909187
:103F4000A103913009F080E008950F931F930E9420
:103F5000821F882321F01F910F910C94EA1B0E946D
:103F6000EA1B0091D9011091DA012091DB01309117
:103F7000DC01600F711F821F931F1F910F91089525
:103F8000CF93DF9300D000D0CDB7DEB74091AF0321
:103F90005091B0036091B1037091B2032FB7F894C0
:103FA00080918F0390919003A0919103B09192031F
:103FB0002FBF841B950BA60BB70B84369105A1056B
:103FC000B10570F10E94A51FDC01CB010296A11D75
:103FD000B11D89839A83AB83BC8380914501909105
:103FE00046018D549C4F4091440150E045305105AD
:103FF00010F044E050E0BE016F5F7F4F0E94672CDD
:1040000084E090E00E94472B882359F00E94EA1B2D
:104010006093AF037093B0038093B1039093B203A6
:1040200081E00F900F900F900F90DF91CF91089546
:10403000F894E82FE295EF70F0E031A1282F2F706F
:1040400081E090E001C0880F2A95EAF7982F9095BB
:10405000932391A392A1892B82A3789408959091A0
:10406000080292FF0DC0282F2871283019F4877F8D
:10407000846006C0282F2471243011F48B7F88605F
:1040800093FF0DC0282F2871283119F4877E846191
:1040900006C0282F2471243111F48B7E8861209171
:1040A000090220FF0DC0382F3871383019F4877F8E
:1040B000816006C0382F3171313011F48E7F8860F5
:1040C00021FF0DC0282F2871283119F4877E8161C6
:1040D00006C0282F2171213111F48E7E886194FD54
:1040E000877E08950E94821F81110C94F61B0E9406
:1040F000A51FCB0108955F926F927F928F929F923E
:10410000AF92BF92CF92DF92EF92FF920F931F93E5
:10411000CF93DF93CDB7DEB72F970FB6F894DEBFFE
:104120000FBECDBF9E012F5F3F4F79018AE0D901BD
:104130001D928A95E9F709E611E069018EE6682E7D
:1041400081E0782EAA24A394B12C25E7822E21E0C9
:10415000922EF80180818F3F09F440C0F894E82F37
:10416000E295EF70F0E021A18F70A50102C0440F2D
:10417000551F8A95E2F7CA01922F982B91A392A11D
:104180008095892382A3789400C0EEE6F1E0512C5B
:1041900031E021912F3F89F0A22FA295AF70B0E0BE
:1041A00090968C9190E02F7002C0959587952A95F6
:1041B000E2F780FD02C0832F01C080E0582A330F50
:1041C0008E169F0631F7D8018C918F3F11F00E9417
:1041D0001820B0EABA95F1F7F60150820F5F1F4F31
:1041E000FFEFCF1ADF0A6016710609F0B2CF4AE07E
:1041F00050E0B7018DED91E00E945A2C8C01892B83
:1042000041F08AE0F701ADEDB1E001900D928A95A1
:10421000E1F7F090E8010115110549F081E0809384
:1042200099030E94F61B90939803809397038091C3
:1042300099038823B9F080919703909198030E9485
:10424000DB1B059778F0ADEDB1E0EF2DF0E0E55127
:10425000FE4F82EE91E02D9121938A179B07D9F7AB
:10426000109299030115110509F028C10E94821FBF
:10427000E091E8019E01255F3F4F7901882309F411
:1042800075C085E0D9011D928A95E9F70E2F10E0DF
:1042900005511E4F8091CB038A3048F445E45FE11D
:1042A000B701C8010E94AC1D8823B1F10AC08091FA
:1042B0009A0390919B030E94DB1B843F914070F70F
:1042C0003CC041E05FE1B701C8010E94AC1D8823FA
:1042D00019F140EC5FE1B701C8010E94AC1D8823D1
:1042E000D9F04DEE5DE1B701C8010E94AC1D8823F5
:1042F00099F01092CB038091E70190E045E050E007
:10430000B70185519E4F0E945A2C21E02093A003B3
:10431000892BF1F400E0D4C08091CB038F3F19F0DA
:104320008F5F8093CB038091CB038A3020F30E9470
:10433000F61B90939B0380939A038091A00388239C
:1043400049F385E0F70111928A95E9F71092A003ED
:10435000A091E701B0E0A551BE4F85E0FE013B967C
:1043600001900D928A95E1F701E0AAC0F0E0E551D5
:10437000FE4FF89485E0A4EBB3E001900D928A958E
:10438000E1F765E070E084EB93E00E94591D8093B3
:10439000B3037894F894E0910602F0E0ED5FFD4FEE
:1043A00080818B878093BA0361E070E0C7010E942F
:1043B000591D8093B9037894F894C090BB03D090B2
:1043C000BC03E090BD03F090BE0380919C039091EC
:1043D0009D03A0919E03B0919F03C816D906EA06DB
:1043E000FB06D1F0C0929C03D0929D03E0929E0305
:1043F000F0929F030E94821F81110EC00E94EA1B4F
:10440000C61AD70AE80AF90AC092D901D092DA018D
:10441000E092DB01F092DC017894F8948091C6037D
:10442000882309F449C080FF24C09091BF03809184
:104430007A0390FF09C0816080937A0360E0892F3E
:1044400086950E949C2815C08E7F80937A030E94D7
:10445000881D8091B80281608093B802FFEF20E749
:1044600032E0F15020403040E1F700C000000E94EF
:1044700053268091C60381FF09C020E04091C2030A
:104480006091C1038091C0030E94B6278091C6034A
:1044900082FF09C08091C503882319F00E948F1DF7
:1044A00002C00E94881D8091C60383FF03C081E083
:1044B0008093B3021092C603789402C001E010E02A
:1044C000802F2F960FB6F894DEBF0FBECDBFDF91C1
:1044D000CF911F910F91FF90EF90DF90CF90BF9001
:1044E000AF909F908F907F906F905F900895CF9343
:1044F000DF93C091EB05D091EC058A30B1F42091A7
:10450000E203CE01855E9340622F70E00E94C22BD1
:10451000281B822F66E00E94272CC82FC15008F468
:104520008FC080E20E947722F9CF8D30E9F4C55E1A
:10453000D3402091E203622F70E0CE010E94C22B93
:10454000281B822F9E01280F311D2115324018F0A3
:1045500080E0C0E0D0E0C80FD11DCB51DC4FD0933C
:10456000EC05C093EB056CC096E0FE01A5EEB5E04E
:1045700001900D929A95E1F7803E30F086E0FE01C1
:1045800011928A95E9F70BC0F6E08F9FB0011124D4
:104590006B507C4F46E050E0CE010E94D62BC0917C
:1045A000EB05D091EC0546E050E0BE0185EE95E0CC
:1045B0000E945A2C892B49F19E01255E3340A901A6
:1045C00085E0569547958A95E1F781E090E0BC013A
:1045D00002C0660F771F4A95E2F74091E3035091BE
:1045E000E403462B572B2B5F3F4F65E0369527950D
:1045F0006A95E1F702C0880F991F2A95E2F7842B8C
:10460000952B9093E4038093E3039E012F5D334049
:104610004091E203642F70E0C9010E94C22B481B45
:10462000463010F4240F311D211582E0380710F0B8
:1046300020E030E02B513C4F3093EC052093EB050C
:10464000DF91CF910895CF93DF93EC01FE01849128
:10465000882321F00E9477222196F8CFDF91CF9115
:104660000895EF92FF920F931F93CF93DF93EC0186
:104670007B0164E670E088E70E94F5288C01EC0E6F
:10468000FD1ECE15DF0561F017FD0AC0FE01849105
:1046900064E670E00E9476298C012196892B89F3CB
:1046A0000E94FA29C801DF91CF911F910F91FF90CD
:1046B000EF900895EF92FF920F931F93CF93DF93A4
:1046C0007C018B010E949819811119C0E701011525
:1046D0001105A1F08091E80085FD0AC08091E800F5
:1046E0008E778093E8000E949819882381F307C091
:1046F00089918093F10001501109E9CF80E0DF91A9
:10470000CF911F910F91FF90EF9008951F93CF933A
:10471000DF93CDB7DEB7AA970FB6F894DEBF0FBE12
:10472000CDBFEAEDF3E082EE93E02091F10021931A
:104730008E179F07D1F78091DB03833009F461C0A6
:1047400030F4813071F0823009F49BC0B2C08A30FD
:1047500009F487C08B3009F46CC0893009F0A9C016
:1047600020C08091DA03813A09F0A3C08091E8006B
:10477000877F8093E8008091DE039091DF03892B8F
:1047800021F468E08EEC93E003C060E080E090E00C
:1047900070E00E94571B8091E8008B778093E800BF
:1047A00088C08091DA03813209F083C08091DE03F2
:1047B0009091DF03029708F07CC08091E800877F2A
:1047C0008093E8008091E80082FD05C08091D803C5
:1047D0008111F8CF6EC02091F3008091F20090E03B
:1047E000922B029731F48091F100813011F08630E4
:1047F00021F48091F1008093CD038091E8008B77C4
:1048000054C08091DA03813A09F053C08091DE03ED
:104810009091DF03892B09F04CC08091E800877FDD
:104820008093E8008091E80080FFFCCF80915401E4
:1048300037C08091DA038132E1F58091DE039091F7
:10484000DF03892BB1F58091E800877F8093E80032
:104850000E94CB198091DC03809354010E941B18A5
:1048600028C08091DA03813221F58091E800877FAA
:104870008093E8000E94CB198091DD038093CC03E4
:1048800018C08091DA03813AA1F48091E800877F13
:104890008093E8008091E80080FFFCCF8091CC03FA
:1048A0008093F1008091E8008E778093E8000E9469
:1048B000CB198091E80083FFCEC18091DA039091FB
:1048C000DB03492F50E04A30510508F0C4C1FA011A
:1048D000EE59FF4F0C94472C803821F0823809F0B4
:1048E000BAC108C08091D6039091D703992389F06B
:1048F00082600FC08091DE038F70873008F0ABC1FB
:104900008093E9008091EB0085FB882780F9109265
:10491000E9009091E800977F9093E8008093F10080
:104920001092F10065C1282F2D7F09F094C18823D2
:1049300019F0823061F08FC18091DC03813009F081
:104940008AC1933009F080E08093D7032EC0809114
:10495000DC0381112AC08091DE038F702FEF280FB6
:10496000263008F078C18093E9002091EB0020FF09
:104970001CC0933021F48091EB00806214C09091B0
:10498000EB0090619093EB0021E030E0A90102C0C0
:10499000440F551F8A95E2F74093EA001092EA000F
:1049A0008091EB0088608093EB001092E900809189
:1049B000E800877F20C181114EC11091DC031F7771
:1049C0008091E3008078812B8093E3008091E80060
:1049D000877F8093E8000E94CB198091E80080FFD8
:1049E000FCCF8091E30080688093E300111102C046
:1049F00082E001C083E08093D8032DC180588230CB
:104A000008F029C18091DC039091DD038C3D53E0D7
:104A1000950779F583E08A838AE289834FB7F89412
:104A2000DE01139620E03EE051E2E32FF0E05093E8
:104A30005700E49120FF03C0E295EF703F5FEF70F5
:104A40008E2F90E0EA3010F0C79601C0C0968D938B
:104A50009D932F5F243149F74FBF8091E800877FF6
:104A60008093E8006AE270E0CE0101960E94571B35
:104A7000AEC04091DE035091DF03292F332723304E
:104A80003105A9F068F42130310509F4F3C0223072
:104A9000310509F0E0C08BE390E0EAE6F3E044C0C2
:104AA0002132310521F12232310571F1D4C099272B
:104AB00081309105A1F058F0029709F0CCC0E7EBE6
:104AC000F3E0E4918E2F90E0E7EBF3E02AC0E1EF12
:104AD000F3E0E4918E2F90E0E1EFF3E022C0EBED04
:104AE000F3E0E4918E2F90E0EBEDF3E01AC0411576
:104AF000510509F4C4C04130510509F0ACC089E04A
:104B000090E0E5E9F3E010C04115510509F4BCC09F
:104B10004130510509F09FC082E390E0E8EFF2E0F8
:104B200003C0009709F497C02091E800277F2093E5
:104B3000E8002091E0033091E1038217930708F425
:104B40009C0140E02115310589F18091D80388232B
:104B500009F43DC08530D9F18091E80083FD37C06C
:104B60008091E80082FD2FC08091E80080FFEACFAD
:104B70004091F3008091F20090E0942B21153105D3
:104B800059F08830910540F444914093F1003196FA
:104B9000215031090196F2CF41E0089709F040E039
:104BA0008091E8008E778093E800CCCF4111CDCF83
:104BB0000AC08091D803882351F0853041F080915C
:104BC000E80083FD04C08091E80082FFF2CF80916D
:104BD000E8008B778093E8003EC08038E1F5809153
:104BE000E800877F8093E8008091D9038093F100EB
:104BF0008091E8008E778093E8000E94CB192BC04B
:104C0000811129C08091DC039091DD0399270297DF
:104C100014F58091E800877F8093E8001091DC0311
:104C20001093D9030E94CB19111106C08091E300A3
:104C300087FD02C081E001C084E08093D80342E098
:104C400061EC81E00E94EA1942E261EC82E00E949C
:104C5000EA198091D8038091E80083FF1AC08091FF
:104C6000E800877F8093E8008091EB00806280936A
:104C7000EB000FC082E190E0E5EAF3E055CF89E078
:104C800090E0ECE7F3E050CF80E490E0EAE2F3E07C
:104C90004BCFAA960FB6F894DEBF0FBECDBFDF9103
:104CA000CF911F9108953091200180917A0380FF68
:104CB00016C0E0911F0163E0E69FF0011124E75464
:104CC000FD4F539A8BB1877F9BB198602FB7F894B3
:104CD000AF0163E0369F400D511D112414C0809137
:104CE000210190912201891720F7E82FF0E0AF0110
:104CF000440F551FE40FF51FE754FD4F118210823A
:104D000012828F5FF0CFE417F50789F0319168E0E8
:104D10009BB9000000C037FF8BB9330F000000C003
:104D200000C000C08BB900C06A9591F7ECCF2FBFCF
:104D30008FE594E00197F1F700C00000089590918D
:104D40007A0390FF16C090912101209122019217C1
:104D500070F4E92FF0E0DF01AA0FBB1FEA0FFB1F81
:104D6000E754FD4F8183608342839F5FF0CF0C94B3
:104D70005326089580917A03282F269530E0211537
:104D8000310519F48170826005C02631310524F0A7
:104D900081708A6280937A0380917D03893718F04D
:104DA00088E780937D030895CF92DF92EF92FF9280
:104DB0006B017C010E94BA26B701A60188E090E051
:104DC000FF90EF90DF90CF900C94052C80917E03A4
:104DD000882319F0815080937E0360917A0370914B
:104DE0007B0380917C0390917D030C94D426809169
:104DF0007E03833018F48F5F80937E0360917A0383
:104E000070917B0380917C0390917D030C94D42658
:104E1000EAE7F3E083E0808311828FEF828388E703
:104E200083831482A6EBB2E012968C911297836072
:104E300012968C9360817181828193810C94D42627
:104E4000AF92BF92CF92DF92EF92FF920F931F9398
:104E5000CF93DF93E82EF62EE901E42FF0E0611105
:104E600006C0EB5CF64FE4914E2F2E2F71C0062F3B
:104E700010E0EB5CF64F4491F42FC42ED12C26E0C9
:104E8000829FC00111242FEF30E0B9010E94C22B94
:104E90005BEA5603C001579F900D11248E0D911DA2
:104EA0008E0D911D582F550F580FD901A01BB10B16
:104EB000AC9DC001AD9D900DBC9D900D1124E92FBE
:104EC000F59ED0011124AB2FBB277901EA1AFB0A0A
:104ED000EC9CD001ED9CB00DFC9CB00D112459014F
:104EE000A51AB108A09E7001A19EF00CB09EF00C16
:104EF0001124EF2CFF242E193F092C9D80012D9D9C
:104F0000100D3C9D100D1124212F6230710591F080
:104F100048F461157105E1F061307105B9F4242F91
:104F20004B2F16C06430710569F040F06630710592
:104F300079F00CC0242F492FE12F0AC0492FEF2F01
:104F40002B2F06C0292FE42F412F02C0292FEB2F32
:104F500049832883EA83DF91CF911F910F91FF90BE
:104F6000EF90DF90CF90BF90AF900895AF92BF9237
:104F7000CF92DF92EF92FF920F931F93CF93DF9325
:104F800000D01F92CDB7DEB7082FF62E142FE22ED9
:104F900080917A0380FF80C0E82FE695AE2FB0E0C5
:104FA000A054BE4F9C919093B6028E7F823081F4C4
:104FB000493708F048E79E012F5F3F4F6F2D802F44
:104FC0000E9420274B8169818A810E949F2641C0CF
:104FD000923019F400917B033CC09530D9F39B309B
:104FE000C1F5EB508E2F8170D82EE695F0E0EB5C8A
:104FF000F54FA590B490C12CBB2460912301C61637
:1050000030F52C2D30E0A29EC001A39E900DB29EE3
:10501000900D112470E00E94C22B802FD11002C08D
:10502000860F01C0861B90912101290F311DA90116
:10503000440F551F240F351F27543D4F412F19375B
:1050400008F048E76F2D0E942027C394D6CF0E9416
:10505000532680917B03081308C080917C03F812CB
:1050600004C080917D03181729F08091B8028260F6
:105070008093B80200937B03F0927C0310937D032E
:10508000EE2051F060917A0370917B0380917C0354
:1050900090917D030E94D4260F900F900F90DF9186
:1050A000CF911F910F91FF90EF90DF90CF90BF9025
:1050B000AF900895EAE7F3E0438121E1421B08F451
:1050C00040E021E0628181810C94B627EAE7F3E0B9
:1050D000438121E1420F08F44FEF21E06281818199
:1050E0000C94B627EAE7F3E0628121E1621B08F441
:1050F00060E021E0438181810C94B627EAE7F3E088
:10510000628121E1620F08F46FEF21E04381818128
:105110000C94B627EAE7F3E0818121E043816281C4
:1051200088500C94B627EAE7F3E0818121E04381BF
:105130006281885F0C94B62790917A0390FF3BC000
:105140009170811102C0926006C0863110F09A629F
:1051500002C0880F982B90937A038091B8028160E7
:105160008093B802662351F060917A0370917B03BB
:1051700080917C0390917D030E94D42660917A03F4
:10518000669570E04BE050E084E191E00E944D2C88
:10519000892B19F00E94881D02C00E948F1D81E09A
:1051A0008093B30220E040917D0360917C03809165
:1051B0007B030C94B627089580917A0386958150DD
:1051C00009F485E161E00C949C2880917A0386952E
:1051D0008F5F863108F081E061E00C949C2810928A
:1051E000B9008CE08093B80008959F92AF92BF926F
:1051F000CF92DF92EF92FF920F931F93CF93DF93A3
:10520000B82EEB010E94F61B6C01C431D10558F099
:10521000CF3F8FEFD80759F0CE0164E170E00E94D4
:10522000C22B7B0107C0EE24E394F12C03C025E0E0
:10523000E22EF12C84E8A82E94EA992E1092BC005C
:105240009092BC000E94F61B8C018091BC0087FDEF
:1052500008C00E94F61B801B910B8E159F05A8F3BA
:105260002AC08091B900887F883041F08091B900D0
:10527000887F803119F00FEF1FEF1FC0B092BB0085
:10528000A092BC000E94F61B8C018091BC0087FD9F
:1052900008C00E94F61B801B910B8E159F05A8F37A
:1052A0000AC08091B900887F883111F0803419F7E5
:1052B00000E010E00EC00EEF1FEFCF3F8FEFD807DA
:1052C00009F4BCCFC6010E94DB1B8C179D0708F4B4
:1052D000B5CFC801DF91CF911F910F91FF90EF9053
:1052E000DF90CF90BF90AF909F9008950F931F9342
:1052F000CF93DF93EB018093BB0084E88093BC00E5
:105300000E94F61B8C018091BC0087FD0EC0CF3F30
:105310008FEFD807C1F30E94F61B801B910B8C17EF
:105320009D0788F38EEF9FEF0CC02091B900287F76
:1053300081E090E0283211F480E090E09195819531
:105340009109DF91CF911F910F910895CF92DF9234
:10535000EF92FF920F931F93CF93DF936B018A011C
:105360007901B9010E94F528E6010C0D1D1DC01739
:10537000D10761F424E92093BC00DF91CF911F9104
:105380000F91FF90EF90DF90CF90089597FDF2CFAF
:10539000B70189910E947629EACFCF92DF92EF92EE
:1053A000FF920F931F93CF93DF93C62F6A0179016A
:1053B000B8010E94F52897FD11C0B8018C2F0E94FA
:1053C0007629E601EC0CFD1CCE15DF0539F097FDC2
:1053D00005C0B80189910E947629F6CF24E920936F
:1053E000BC00DF91CF911F910F91FF90EF90DF9064
:1053F000CF90089584E98093BC0008958EE14A9B84
:1054000002C08150E1F74A9BFECF08955A9880E28E
:105410008A95F1F75A9A0895FC012AE02A95F1F746
:1054200028E090E080E031E040E14A95F1F7880F14
:105430004A9B02C08160932700C0000040E14A956A
:10544000F1F7215089F720E12A95F1F729B100C041
:10545000000030E13A95F1F722FB222720F992274C
:105460002081920F90830895EF92FF920F931F93E4
:10547000CF93DF931F92CDB7DEB719828C017C01E9
:10548000E60EF11C0E151F0551F00E94FE29CE01FB
:1054900001960E940C2AF80181938F01F3CF81E0DD
:1054A0009981911180E00F90DF91CF911F910F9121
:1054B000FF90EF900895529A5A9A089552985A9AE6
:1054C000EA9AE9E6F0E080818F7C8083089561505C
:1054D00091E001C0990F6A95EAF720E031E0992345
:1054E00061F0492F482319F05A9A232701C05A988E
:1054F00040E24A95F1F79695F2CF222311F05A9A9D
:1055000001C05A9880E28A95F1F75A980895FF925F
:105510000F931F93CF93DF93EC018C01060F111DA6
:10552000C017D10741F0F9900E94062A68E08F2D3C
:105530000E94672AF5CFDF91CF911F910F91FF90C5
:1055400008951F920F920FB60F9211240F931F937D
:105550002F933F934F935F936F937F938F939F937B
:10556000AF93BF93EF93FF93CF93DF931F92CDB78A
:10557000DEB719820E94FE29CE0101960E940C2AF4
:10558000082F069506950695902F96959570202FD5
:105590002570920F292F237096959695920F8770FC
:1055A00089135FC0898181115CC0073008F059C040
:1055B00080E18A95F1F75A9A529A82E08A95F1F73A
:1055C00000C05A9888E0089F80011124D801AC5D82
:1055D000BE4F1696ED91FC9117973097A9F0609108
:1055E000BE017091BF0114962D913C911597260F25
:1055F000371F11968D919C911297680F791F139602
:105600004C9113978C910995F801EC5DFE4F6381E5
:10561000662351F08091BE019091BF0124813581B4
:10562000820F931F0E94872A0E94062A80E18A9592
:10563000F1F75A9852985A9A80E18A95F1F7F80151
:10564000EC5DFE4F6081662351F08091BE01909128
:10565000BF0121813281820F931F0E94342A0E9450
:10566000FE290F90DF91CF91FF91EF91BF91AF9104
:105670009F918F917F916F915F914F913F912F916A
:105680001F910F910F900FBE0F901F9018950F93C1
:105690001F93CF93DF93873091050CF06DC0EC0121
:1056A000F894529A5A9885E08A95F1F700009C2F59
:1056B000969595702C2F2570920F892F8370969553
:1056C000969523E0CC0FDD1F2A95E1F7980F8E0108
:1056D000092B0E94062A84E08A95F1F700C068E051
:1056E000802F0E94672A80E18A95F1F752985A9A92
:1056F0004A9902C000C0FCCF87E090E04A9B08C0F6
:10570000019721F4529A5A9A789436C000C0F6CF85
:10571000FE01EC5DFE4F6381662381F08091BE0146
:105720009091BF0124813581820F931F0E94342AFA
:10573000811104C0529A5A9A78941FC00E94FE297F
:1057400080E28A95F1F75A98529A80E18A95F1F7AA
:10575000CC5DDE4F6881662351F08091BE0190914F
:10576000BF0129813A81820F931F0E94872A0E94DC
:10577000062A789481E001C080E0DF91CF911F91EB
:105780000F910895AA1BBB1B51E107C0AA1FBB1FA5
:10579000A617B70710F0A61BB70B881F991F5A95BD
:1057A000A9F780959095BC01CD010895FB01DC011E
:1057B00002C005900D9241505040D8F70895F999D4
:1057C000FECF92BD81BDF89A992780B50895A6E1D4
:1057D000B0E044E050E00C94192CA8E1B0E042E0C5
:1057E00050E00C94192C262FF999FECF92BD81BD63
:1057F000F89A019700B4021639F01FBA20BD0FB60F
:10580000F894FA9AF99A0FBE08950396272F0E94EA
:10581000F42B0E94F32B252F0E94F42B242F0C94A1
:10582000F42B0196272F0E94F42B0C94F32BDC0110
:10583000CB01FC01F999FECF06C0F2BDE1BDF89A9B
:10584000319600B40D9241505040B8F70895991B1D
:1058500079E004C0991F961708F0961B881F7A9567
:10586000C9F78095089597FB072E16F4009407D08A
:1058700077FD09D00E94C22B07FC05D03EF490951D
:1058800081959F4F0895709561957F4F0895EE0F14
:10589000FF1F0590F491E02D0994FC014150504008
:1058A00030F001900616D1F73197CF01089588277F
:1058B00099270895FB01DC0104C08D9101908019A6
:1058C00021F441505040C8F7881B990B0895FB0103
:1058D000DC0102C001900D9241505040D8F708956C
:0458E000F894FFCF6A
:1058E4000129185F1828185B18571826180021007A
:1058F4007F220003010B0C0D0E0F10111213140064
:1059040040004040000000010000000000000005CD
:10591400010000000000000106000000000000017A
:10592400070000000408000000000000080C00004C
:105934000000000001303132333435363738390055
:10594400204C617965723A2000946697C634F4F568
:10595400F6F731333200FF0100010000FFFF0000C1
:10596400010001FF0000081018181008008182834C
:10597400E200E900EA00B500B600B700CD008301FB
:10598400CC008A01920194012102230224022502FF
:10599400260227022A02B300B4006F007000B3038A
:1059A40000010202020505050505050B0B0B0B0B97
:0659B4000B0B0B0B0B15A1
:00000001FF
