:100000000C94D3060C94F0060C94F0060C94A929D9
:100010000C94F0060C94F0060C94F0060C94F00688
:100020000C94F0060C94F0060C94361B0C94731A86
:100030000C94091D0C94F0060C94F0060C94F00638
:100040000C94F0060C94F0060C94F0060C94F00658
:100050000C94F0060C94BC1C0C94F0060C94F00666
:100060000C94F0060C94F0060C94F0060C94F00638
:100070000C94F0060C94F0060C94F0060C94F00628
:100080000C94F0060C94F0060C94F0060C94F00618
:100090000C94F0060C94F0060C94F0060C94F00608
:1000A0000C94F0060C94F0060C94F0069D0A9D0A40
:1000B000CF0ACF0ACD0CCD0CCD0CCD0C410B1F0CB3
:1000C000300C300C8620AD202D22AD202D22F520C5
:1000D00018212D22F52108220102E2600103E2002D
:1000E0000102E2600103E20035001E001F00200053
:1000F0002100220000002B0014001A000800150047
:1001000017000000E00004001600070009000A00C4
:100110000000E1001D001B000600190005002F0073
:100120004C00AE5DE300E200AA5D29002A002D002C
:1001300027002600250024002300000031001300C2
:1001400012000C0018001C000000340033000F00E7
:100150000E000D000B0000002E00380037003600A6
:100160001000110030004F00520051005000AB5DF4
:1001700028002C0035001E001F0020002100220056
:1001800000002B0014001A00090013000A000000F0
:10019000E000040015001600170007000000E10051
:1001A0001D001B000600190005002F00AC5D290092
:1001B000E200E300AE5DAA5D2C004C0027002600A3
:1001C00025002400230000002A0033001C00180032
:1001D0000F000D000000340012000C000800110098
:1001E0000B000000280038003700360010000E0019
:1001F00030004F00520051005000AF5DAB5D2C004D
:1002000035001E001F0020002100220000002B00EE
:1002100034003600370013001C000000E00004002A
:100220001200080018000C000000E1003300140068
:100230000D000E001B002F00AC5D2900E200E30062
:10024000AE5DAA5D2C002A002700260025002400B0
:10025000230000004C000F00150006000A000900F2
:10026000000038001600110017000B000700000006
:1002700028001D0019001A001000050030004F0072
:10028000520051005000AF5DAB5D2C0035021E02E4
:100290001F02200221022202000035021E021F025C
:1002A000200221022202000001003A003B003C0033
:1002B0003D003E00000001004000410042004300BC
:1002C000440026020100AE5D0100010001000100B2
:1002D0000100010027022602250224022302000059
:1002E0000100270226022502240223020000310217
:1002F00030022F022E022D023F00000001004D00AF
:100300004A000100010045002702AE00A900AA0032
:10031000AB0001000100010035001E001F0020009D
:1003200021002200000035001E001F0020002100D7
:100330002200000001003A003B003C003D003E006E
:100340000000010040004100420043004400010061
:100350000100AF5D010001000100010001002A0061
:100360002700260025002400230000004C00270061
:1003700026002500240023000000310030002F005B
:100380002E002D003F00000001004B004E00010038
:10039000010045000100AE00A900AA00AB00010069
:1003A000010001003A003B003C003D003E003F00E0
:1003B00000000100005CB05D0100010001000000D0
:1003C0000100010001001D5C1E5C135C00000100C7
:1003D0000100010001000100010001000100010015
:1003E000010001000100010001004500440043003C
:1003F00042004100400000004C00010001000100EB
:100400000100010000000100010001000100A75DE2
:100410000A5C0000CA5CC85CC65CC35C01000100E9
:100420000100CB5CC95CC75CC45C01000100010039
:1004300000DA0281FFD9F1DB20A4A62EAF00A0C014
:1004400000A1C800AED580A81FD300408D142000A5
:100450007F3F1F643214643214783C1E1E140A0558
:10046000202020200053434C4B000A000A0020208B
:100470002020004341505300202020202020200035
:100480004E554D4C4F434B0020000A000A009596F4
:1004900000B5B600979800B7B80080818283848544
:1004A000868788898A8B8C8D8E8F9091929394A069
:1004B000A1A2A3A4A5A6A7A8A9AAABACADAEAFB0B4
:1004C000B1B2B3B4C0C1C2C3C4C5C6C7C8C9CACB20
:1004D000CCCDCECFD0D1D2D3D400222325262829EB
:1004E0002A2C2D2F3032333536383A3B3D3E4042B0
:1004F000434547494A4C4E5051535557595A5C5EF3
:100500006062646668696B6D6F71737577797B7D06
:100510007F81838587898A8C8E90929496989A9C05
:100520009E9FA1A3A5A7A8AAACAEAFB1B3B4B6B81D
:10053000B9BBBCBEBFC1C2C3C5C6C7C9CACBCCCD7F
:10054000CED0D1D2D2D3D4D5D6D7D7D8D9D9DADA5A
:10055000DBDBDBDCDCDCDCDCDDDDDDDDDCDCDCDCDA
:10056000DCDBDBDBDADAD9D9D8D7D7D6D5D4D3D20E
:10057000D2D1D0CECDCCCBCAC9C7C6C5C3C2C1BFEC
:10058000BEBCBBB9B8B6B4B3B1AFAEACAAA8A7A550
:10059000A3A19F9E9C9A98969492908E8C8A89870C
:1005A0008583817F7D7B79777573716F6D6B6968EA
:1005B000666462605E5C5A5957555351504E4C4ABE
:1005C0004947454342403E3D3B3A38363533323069
:1005D0002F2D2C2A29282625232200AF00AE050125
:1005E0000906A101050719E029E71500250195086D
:1005F000750181029501750881010507190029FF20
:10060000150026FF009506750881000508190129C7
:1006100005950575019102950175039101C00902C7
:100620002200010100A0C80904000001030101002B
:100630000921110100012240000705810308000182
:1006400012010002000000086532000001000102F2
:1006500000011603480065006C0069007800200066
:100660004200650074006100000014035900750029
:100670007300680061006B006F0062006F00000093
:10068000040309040000000000003E5B4F5B3E00D5
:100690003E6B4F6B3E001C3E7C3E1C00183C7E3C7B
:1006A00018001C577D571C001C5E7F5E1C00001844
:1006B0003C180000FFE7C3E7FF0000182418000003
:1006C000FFE7DBE7FF0030483A060E0026297929CC
:1006D0002600407F05050700407F05253F005A3C66
:1006E000E73C5A007F3E1C1C0800081C1C3E7F0093
:1006F00014227F2214005F5F005F5F0006097F0104
:100700007F00006689956A0060606060600094A266
:10071000FFA2940008047E04080010207E20100030
:1007200008082A1C0800081C2A0808001E101010BF
:1007300010000C1E0C1E0C0030383E383000060E27
:100740003E0E060000000000000000005F000000F8
:10075000000700070000147F147F1400242A7F2A5A
:100760001200231308646200364956205000000826
:1007700007030000001C224100000041221C000071
:100780002A1C7F1C2A0008083E08080000807030E0
:100790000000080808080800000060600000201041
:1007A000080402003E5149453E0000427F400000DF
:1007B0007249494946002141494D33001814127FBE
:1007C00010002745454539003C4A4949310041213F
:1007D00011090700364949493600464949291E0092
:1007E0000000140000000040340000000008142243
:1007F00041001414141414000041221408000201D2
:10080000590906003E415D594E007C1211127C00D0
:100810007F49494936003E41414122007F414141E3
:100820003E007F49494941007F09090901003E41D5
:10083000415173007F0808087F0000417F4100009C
:100840002040413F01007F08142241007F4040408A
:1008500040007F021C027F007F0408107F003E41A1
:1008600041413E007F09090906003E4151215E00D9
:100870007F091929460026494949320003017F01B1
:1008800003003F4040403F001F2040201F003F40EA
:1008900038403F0063140814630003047804030025
:1008A0006159494D4300007F414141000204081055
:1008B0002000004141417F00040201020400404049
:1008C00040404000000307080000205454784000D6
:1008D0007F2844443800384444442800384444289D
:1008E0007F0038545454180000087E09020018A4F0
:1008F000A49C78007F080404780000447D40000038
:100900002040403D00007F102844000000417F400F
:1009100000007C04780478007C08040478003844E3
:1009200044443800FC182424180018242418FC001F
:100930007C080404080048545454240004043F4430
:1009400024003C4040207C001C2040201C003C40F7
:1009500030403C004428102844004C9090907C008B
:100960004464544C44000008364100000000770005
:1009700000000041360800000201020402003C268B
:1009800023263C0003071F7FFFFFFEF8F0C020F87E
:10099000FEFFFE79271F7FFFFFFEF8F0C020F8FE64
:1009A000FFFF7F3F3F7FFFFEF8F0C000000000FF29
:1009B000FFFFFFFFFF00000000000000FF7F7F7FC0
:1009C000BFBFC0C0C0E0E0E0E0F0F0F0F878787CB5
:1009D0003C3CFEFEFEFFFFFF0000000000000000A8
:1009E00000008080BFBFDFDFEFEF0003071F7FFF46
:1009F000FFFFFEF8E0C0E0F8FEFFFFFF7F1F0703E8
:100A00000000E0F0F0F0E0ECEEF7F37020007C7C0A
:100A10007C7E007E7E7E7F7F7F000080C0E07E5BEC
:100A20004F5BFEC00000C000DCD7DEDEDED7DC009E
:100A3000C0000000000000000000000000000000F6
:100A40000000000000000000C1F3CFBF7FFFFFFCEB
:100A5000FBE7810000000080E3CF3FFFFFFFFCFBCE
:100A6000E7810000000081E7FFFFFFFF3C0000FF7F
:100A7000FFFFFFFFFFF8F8FC7C7E7E3EFEFFFFFFDE
:100A8000FFFFF7F7F7FBFB7D7D7DBEBEBEDFDFE03E
:100A9000E000FFFFFFFFFFFF00FCFC7C7E7E3E3E90
:100AA0001F1F1F0FFFFFFFFFFFFF0000000000815F
:100AB000E7FFFFFFFFFFFFFFFFFFE78100000000F0
:100AC00000000F1F3F7F7F7F7F7F3F1E0C001F1F97
:100AD0001F3F003F3F3F7F7F7F00307B7F7830208C
:100AE0002030787F3B0003000F7F0F0F0F7F0F0038
:100AF00003000000000000000000000000000000F3
:100B00000000000060707C7F7F7F7F1F0601030F65
:100B10003F7F7F7E7C7C7E7F7F7F1F0601070F3FAC
:100B20007F7F7E7C7C7E7F7F3F0F03000000007F05
:100B30007F7F7F7F7F000000000000007F7F7F7F3E
:100B40007F7F7D7D3D3E1E1F1F1F0F0F0707070381
:100B500003007F7F7F7F7F7F7C7C7C7C7C7C7C7CB8
:100B60007C7C7C007F7F7F7F7F7F004070787E7FF2
:100B70007F7F3F0F0301030F3F7F7F7F7E787040B1
:100B80000000000000000000000000000000000065
:100B90000000000000000000000000000000000055
:100BA0000000000000000000000000000000000045
:100BB0000000000000000000000000000000000035
:100BC000000000000A00556E6465662D0041646AED
:100BD000757374004C6F77657200526169736500BC
:100BE00044656661756C74004C617965723A2000E9
:100BF00000000000000000000000000000000000F5
:100C000000000000000000000000000000000000E4
:100C1000000000007E0F00D4FFFFFFC70000007837
:100C200000000000000000002A2B28000000000047
:100C3000000000000000000000000029000000008B
:100C40002C1E3420212224342627252E362D3738F9
:100C5000271E1F202122232425263333362E373802
:100C60001F0405060708090A0B0C0D0E0F101112C0
:100C7000131415161718191A1B1C1D2F3130232D8C
:100C8000350405060708090A0B0C0D0E0F1011128A
:100C9000131415161718191A1B1C1D2F3130354C3B
:100CA000000101010101010101010202020202022F
:100CB0000202020303030303030303040404040402
:100CC00004040505050505060606060607070707C9
:100CD0000708080808090909090A0A0A0B0B0B0C7E
:100CE0000C0C0D0D0D0E0E0E0F0F0F10101111111B
:100CF000121213131414151516161717181819199C
:100D00001A1A1B1B1C1D1D1E1E1F20202122222300
:100D10002424252626272829292A2B2C2D2D2E2F41
:100D200030313232333435363738393A3B3C3D3E58
:100D30003F404142434445464748494A4C4D4E4F47
:100D400050515354555658595A5B5D5E5F61626409
:100D5000656668696B6C6D6F7072737577787A7B96
:100D60007D7E8082838587888A8C8E8F91939596ED
:100D7000989A9C9EA0A2A3A5A7A9ABADAFB1B3B50D
:100D8000B7BABCBEC0C2C4C6C9CBCDCFD1D4D6D8E9
:100D9000DBDDDFE2E4E7E9EBEEF0F3F5F8FAFDFF87
:100DA000FFAA7F55400011241FBECFEFDAE0DEBF5F
:100DB000CDBF24E0AAE9B1E001C01D92A33DB20776
:100DC000E1F711E0A0E0B1E0E6E9FFE502C005903F
:100DD0000D92AA39B107D9F70E944A140C94C92F71
:100DE0000C9400008F929F92AF92BF92CF92DF92AD
:100DF000EF92FF920F931F93CF93DF93CDB7DEB7A0
:100E00002A970FB6F894DEBF0FBECDBFFC0100815C
:100E1000D18083819481892B39F01FEFD11206C0D4
:100E200091E00F3F19F403C091E001C090E090FD04
:100E3000DEC67F0185E0DE01169601900D928A954F
:100E4000E1F7F70122818E819F81222349F00E94E0
:100E50000111182F682F8E819F810E944B1303C0B0
:100E60000E941F13182F26E4129FF001112437E06F
:100E7000D39EE00DF11D1124E00FF11DEE0FFF1FB9
:100E8000E851FF4F059114910A3A8DE5180709F4CE
:100E90004BC0A0F4073AEDE51E0761F130F4043CC5
:100EA0002CE5120709F476C00FC2083A3DE5130796
:100EB00049F1093A8DE5180779F106C20E3A9DE528
:100EC000190709F47CC058F40B3AFDE51F0709F433
:100ED00040C00C3A2DE5120709F450C0F5C10F3A95
:100EE0003DE5130709F47AC0003B8DE5180709F4C6
:100EF0008AC0EAC1F7018281882309F49EC581E096
:100F000090E007C0F7018281882309F496C582E04A
:100F100090E00E94AF2391C5F7018281882309F4F4
:100F20008CC584E090E0F5CFF7018281882349F0F9
:100F300080919C01811103C081E080939C0183E03A
:100F400014C010929C0183E00E9482130E94F71E3D
:100F500074C5F7018281882359F080919C01811129
:100F600003C081E080939C0184E00E94E113EECFF6
:100F700084E00E94821310929C01E8CFF7018281E5
:100F8000882321F085E00E94E11357C585E00E9487
:100F9000821353C5F7018281882309F44EC561E0AD
:100FA000809128020E9410280E945B288091730281
:100FB000869590E090932902809328023EC5F70120
:100FC0008281882349F080914A0282FD02C081E932
:100FD0000EC080EE90E010C081E912C0F70182815E
:100FE000882369F080914A0282FD04C080E90E9452
:100FF000B92823C588ED90E00E94FD221EC580E936
:101000000E9465281AC5F7018281882399F00E9401
:1010100074268091730281608093730261E08695EB
:101020000E94102880917302869590E09093290287
:1010300080932802F7018281882309F4AAC11092C3
:1010400092020430FDE51F0758F40B3F2CE5120710
:1010500080F4C80182509C45449708F084C109C0BF
:1010600002363DE5130729F0063A8DE5180709F029
:101070007AC10E94C60F90934B0280934A020131BD
:101080009CE5190709F4C6C008F042C00930FCE528
:101090001F0709F49BC000F505303CE5130709F470
:1010A00085C078F403309CE5190709F478C008F08E
:1010B0007AC002301C4509F0F7C080914A02816075
:1010C000F1C007302CE5120709F478C008F07AC0A7
:1010D00080914A028061E6C00D308CE5180709F462
:1010E00087C058F40B30ECE51E0709F479C008F00E
:1010F0007BC080914A0288606FC00F302CE51207D8
:1011000009F480C008F082C080914A02877FCAC07B
:101110000E3F8CE5180709F471C000F50531ECE5C8
:101120001E0709F485C068F403312CE5120709F4A1
:1011300075C008F095C00E940E1480914A028F7706
:10114000B1C00C3F8CE51807A9F108F054C00B3F63
:101150001C4509F0A9C080914B0240C00230FDE55A
:101160001F0709F489C058F401153DE5130709F478
:101170005AC008F069C080914B0282602FC00236CD
:101180009DE5190709F47EC0063AEDE51E0709F44E
:1011900083C003301D4509F087C060E06EC08091B8
:1011A0004A0282607FC080914A0216C080914A0242
:1011B000886078C080914B0282604FC080914A0263
:1011C000806270C080914A0280646CC00E940E14DC
:1011D00080914A02806866C0846064C081603DC0BE
:1011E00080914A028E7F5EC080914A028D7F5AC0F4
:1011F00080914A0216C080914B0218C080914B0228
:101200008D7F2BC080914A028F7E4CC080914A0214
:101210008F7D48C080914A028F7B44C080914A02F2
:10122000877F8B7F3FC080914B028D7F8E7F15C063
:1012300080914A0282FB222720F991E0922790FBBD
:1012400082F990FB83F92EC080914B02982F9095E4
:1012500091708E7F892B90FB81F980934B0224C083
:101260000E940E1480914A0287FB222720F991E008
:10127000922790FB87F916C061E08EE090E00E9413
:10128000FC2B12C080914A0284FB222720F991E0B6
:10129000922790FB84F906C080914A02982F90957E
:1012A00090FB80F980934A0260914A0210914B02B0
:1012B00084E090E00E94FC2B612F82E290E00E948B
:1012C000FC2B0E940E14B9C3043F2CE51207A1F4B5
:1012D00006E221EE40EE64EF7CE50AC0083DECE555
:1012E0001E0709F0A7CE06E221EE41EE68ED7CE58F
:1012F000C7010E94581DA1C3053F3CE51307A0F498
:10130000093D8CE5180731F407E225EE45EE69ED5D
:101310007CE5EECF0A3D9CE5190701F708E221E0E4
:1013200045EE6AED7CE5E4CF063FFCE51F0731F4AE
:1013300006E221EE42EE66EF7CE5DACF063F2CE5D1
:10134000120730F407E225EE44EE65EF7CE5D0CFDE
:10135000073F3CE5130709F06DCE07E225EE46EEA8
:1013600067EF7CE5C5CF06318CE5180761F5809104
:1013700015028A7A91E009F490E090939D01882308
:1013800011F065E301C069E28EE991E00E94321D2F
:1013900017C00631FCE51F0709F057C080919D0179
:1013A000882309F46DC385E3EEE9F1E024EA31E036
:1013B0009281891301C0128231962E173F07C1F71F
:1013C0000E944F103AC30B353DE51307C1F158F4A5
:1013D00001159CE51907B9F00F3D1C4509F051C0F6
:1013E0000E94D70F2AC30C35FDE51F0751F10D35BB
:1013F0001D4509F046C080914B0282FB882780F989
:1014000091E089271FC00E940E143FEF84E39CE007
:10141000315080409040E1F700C0000087E797E737
:1014200090930108809300089AE088E10FB6F89441
:10143000A895809360000FBE90936000FFCF81E07D
:1014400001C080E00E94C4131CC08091150282720A
:101450000D3C2CE5120709F4ACC308F0DBC2073CD5
:101460009CE5190709F491C308F01AC3043CFCE594
:101470001F0709F480C308F005C3033C1C4509F4A9
:1014800055C3F70182810081D180882359F0802FD4
:101490009D2D0E940111182F682F802F9D2D0E94D5
:1014A0004B1305C0802F9D2D0E941F13182F26E47B
:1014B000129FF001112437E0D39EE00DF11D11249D
:1014C000E00FF11DEE0FFF1FE851FF4F8591949142
:1014D0000E944F0E8C01982EF701B280A580A29435
:1014E0003FE0A32280910B028770B9F0BB20A9F0E6
:1014F000812F807F803421F080E2800F883068F077
:1015000080914B0282FD09C082E00E94A713809166
:101510000B028770DD24D3948111D12CC12EC2948B
:101520009FE0C9228C2D90E08C30910508F035C2E7
:10153000FC01EA5AFF4F0C94802C812F807F1F7092
:10154000882311F01295107FBB20B9F0112309F404
:1015500011C280E2800F883010F0911006C0809197
:101560001502182B1093150205C080911402182B38
:10157000109314020E944F10FDC1802F0E94652815
:10158000112309F40AC2005E083078F1992069F14C
:1015900010958091140218231093140229C0812FF2
:1015A000807F1F70803211F01295107F992021F0FA
:1015B000F1E09F16D9F149C080914B0282FF1BC018
:1015C000BB2069F0112339F080911502182B10937C
:1015D00015020E944F1080E00E94B928DEC180E011
:1015E0000E946528112309F4D8C1812F0E94481058
:1015F0000E944F10D2C1BB2081F080911602AA2018
:1016000051F001E0A01207C0182B181709F4C5C14A
:1016100010931602C2C1812B10C0AA2021F021E034
:10162000A21609F4BAC10E94421027C0BB2041F0A3
:1016300035E03A1508F4B1C1812F0E942214ADC1E2
:1016400084E08A1508F4A9C118C0BB2049F0AA207B
:1016500099F3F701858180FF8DC18F708583ECCF71
:10166000AA2059F0093309F095C1FFEF17EE23E0E6
:10167000F15010402040E1F78BC1812F0E941B14D4
:101680008CC1812F837009F069C0B1108AC1902F7D
:10169000929596959770990F990F802F8F70882E3D
:1016A000912CA12CB12C092E04C0880C991CAA1CC9
:1016B000BB1C0A94D2F704FF12C04FE050E060E078
:1016C00070E004C0440F551F661F771F9A95D2F72C
:1016D000DB01CA0180959095A095B09503C080E08C
:1016E00090E0DC0116951695412F4370423019F1B8
:1016F000C8F400911702109118022091190230913C
:101700001A02413059F088299929AA29BB29BC011C
:10171000CD0160237123822393230AC0802A912A5A
:10172000A22AB32ABC01CD01682979298A299B29DB
:101730000E94021436C188299929AA29BB2900913F
:101740001702109118022091190230911A02BC015F
:10175000CD016027712782279327EACFBB2019F09C
:10176000812F817001C08695882309F41AC1902FBA
:10177000929596959770990F990F802F8F70882E5C
:10178000912CA12CB12C092E04C0880C991CAA1CE8
:10179000BB1C0A94D2F704FF12C04FE050E060E097
:1017A00070E004C0440F551F661F771F9A95D2F74B
:1017B000DB01CA0180959095A095B09503C080E0AB
:1017C00090E0DC0116951695412F43704230D9F018
:1017D00068F50091B1021091B2022091B3023091EC
:1017E000B402413059F088299929AA29BB29BC01A2
:1017F000CD0160237123822393231EC0802A912A66
:10180000A22AB32A13C088299929AA29BB290091A1
:10181000B1021091B2022091B3023091B402BC0126
:10182000CD01602771278227932706C0BC01CD0117
:10183000682979298A299B290E947613B2C01F70D2
:10184000BB2039F0812F0E94E113802F0E942214C7
:10185000A8C0802F0E941B14812F0E948213A1C058
:10186000802F32EF931609F443C0391538F090EF0A
:10187000991659F0E1EF9E16B1F177C0F3EF9F167C
:10188000F1F124EF921659F170C0BB2019F134E048
:101890003A1508F482C01F7181E090E0A0E0B0E04A
:1018A000AC01BD0104C0440F551F661F771F1A9578
:1018B000D2F78091B1029091B202A091B302B0919F
:1018C000B4028A019B01082719272A273B27C9014F
:1018D000B80129C025E02A1508F45FC0DCCF80914B
:1018E0004B0282FF23C0BB2029F0812F8F7130C0B3
:1018F000BB20D9F3812F8F710E9482134EC0BB2071
:1019000079F01F7181E090E0A0E0B0E0BC01CD0172
:1019100004C0660F771F881F991F1A95D2F703C05E
:1019200060E070E0CB010E94761337C0BB2099F0D5
:101930001F71812F0E94E11380914B0282FD07C02D
:1019400038E0139FC0011124836080930B02812F24
:101950000E94E11322C081E00E94A71381E08A1552
:10196000E0F482E00E94A71318C0BB2029F0AA204F
:1019700009F4BBCF802F30CEAA2009F4BBCF893326
:1019800049F49FEFE7EEF3E09150E040F040E1F7DB
:1019900000C00000802F0E94652888EF8C0D8430E5
:1019A00010F40E944C1DDD20A9F080910B0280FDF7
:1019B00011C0F70112828595859585950E94E113E6
:1019C000C7010E94F20680910B0285958595859549
:1019D0000E94821385E0F701DE01119601900D92BD
:1019E0008A95E1F789819A810E941F139A8106E402
:1019F000809FF001112417E0919FE00DF11D11244B
:101A00008981E80FF11DEE0FFF1FE851FF4F85910F
:101A10009491EDC0023D2CE5120709F4DAC008F4F8
:101A200061C0053D2CE5120709F4DCC008F46DC067
:101A3000063DECE51E0709F074C080910B0287702B
:101A400009F4D5C0F7018281882309F4D0C08091C0
:101A50004B0282FDCCC082E02A960FB6F894DEBF1E
:101A60000FBECDBFDF91CF911F910F91FF90EF90EF
:101A7000DF90CF90BF90AF909F908F900C94A71362
:101A800089E292CC053C9CE5190709F479C0063C33
:101A90001C4509F0F6CC4EEF57E267E078E28DC0C6
:101AA0000A3CFCE51F0709F47AC070F4083C3CE5E9
:101AB000130709F46FC0093C1C4509F0E2CC42EF62
:101AC00057E266EE77E279C00B3CECE51E0709F4BD
:101AD0006BC00C3C1C4509F0D4CC42E556E263E6F1
:101AE00076E26BC00F3C8CE5180709F46CC008F473
:101AF00067C0003DECE51E0709F468C0013D1C45C8
:101B000009F0BFCC6EE089E06FC0033D8CE518079B
:101B100009F462C0043D1C4509F0B3CC61E088E1E2
:101B20005EC00E351D4509F488CFABCC80917302A1
:101B300080FF1BC08E7F809373026091730270914F
:101B4000740280917502909176020E944026109254
:101B5000CB040FEF10E722E0015010402040E1F7E6
:101B600000C000000E94DE2568CF81608093730270
:101B700061E0869534C042E558E26BE578E21DC02D
:101B80004BE558E262E578E218C047E058E26EEFB4
:101B900077E213C046EE57E262EF77E20EC04EECFA
:101BA00057E26AED77E209C04AED57E26EEC77E260
:101BB00004C043E656E262E576E20E941F1E3DCF76
:101BC00061E081E00CC065E082E00EC068E086E084
:101BD0000BC064E18FE008C067E185E105C00E94A9
:101BE00010282BCF62E289E10E940B1E26CF2A9695
:101BF0000FB6F894DEBF0FBECDBFDF91CF911F911E
:101C00000F91FF90EF90DF90CF90BF90AF909F909B
:101C10008F90089580E0089590914A0292FF0DC040
:101C2000282F2871283019F4877F846006C0282F58
:101C30002471243011F48B7F886093FF0DC0282F0E
:101C40002871283119F4877E846106C0282F2471F9
:101C5000243111F48B7E886120914B0220FF0DC04E
:101C6000382F3871383019F4877F816006C0382FDB
:101C70003171313011F48E7F886021FF0DC0282F23
:101C80002871283119F4877E816106C0282F2171BF
:101C9000213111F48E7E886194FD877E0895CF9363
:101CA000DF938238910569F1B0F48133910509F42D
:101CB0006FC048F48932910509F465C08A329105F4
:101CC00009F46BC06FC08533910509F457C089339F
:101CD0009105B9F067C0833E910571F138F4803EFB
:101CE0009105B1F0823E910511F15CC0863E9105EF
:101CF000B9F1873E9105C9F1843E910509F052C0C2
:101D000024C020914A0220FD2AC121FD28C14AC0D9
:101D100080914A0280FD1DC180914B0280FF1FC14E
:101D200080914A0284FD12C183EE90E02CC1809123
:101D30004A0282FF11C1F4CF80914A0282FD0CC198
:101D400080914B0280FD0BC1EBCF80914B0281FF54
:101D50000CC180914A0284FDF9C087EE90E013C166
:101D600080914A0283FFFEC0F4CF80914A0283FD36
:101D7000F9C080914B0281FDF8C0EBCF80914A02FF
:101D800085FDF6C0F8C080914A0285FDF4C0F0C020
:101D900080914A0286FDF2C0F4C080914A0286FD1D
:101DA000F0C0ECC0811523E59207A8F5811532E556
:101DB000930708F099C0811540E29407D0F481158B
:101DC00021E0920708F0DFC0853A910550F4843095
:101DD000910508F0D8C0019709F0B8C081E090E003
:101DE000D2C09C01205E31092830310508F0AEC018
:101DF000CAC0811531E5930708F071C0811540E52F
:101E0000940708F04EC0811520E4920708F49EC0A4
:101E10009F70906AB8C0EC01811536E59307F0F425
:101E2000811545E5940708F078C0C11584E5D80709
:101E300008F06EC09E012370332781E090E002C05D
:101E4000880F991F2A95E2F7C695C69520E2C29F92
:101E5000E00111248C2B9D2B9A6895C081152AE5F1
:101E6000920778F4811539E5930708F05EC0811573
:101E700048E5940708F46AC0982F8827806F906A15
:101E800082C090568115904208F060C08D2F8F71EE
:101E90000E940C0E282F2F71CE0199279062922B51
:101EA00072C09C0174E0369527957A95E1F7922FE0
:101EB0009370482F437021E030E002C0220F331F9F
:101EC0004A95E2F73C68392B8F70982F9695969536
:101ED00040E2949FC0011124822B932B54C0982F71
:101EE0008827816F906A4FC0AC014370552721E06D
:101EF00030E002C0220F331F4A95E2F7869586959F
:101F000040E2849FC0011124822B932B9C683BC02C
:101F10009C2F8827846F906A36C00E940C0E8F71A8
:101F200090E0982F882790622EC08F700E940C0E30
:101F300094E0D695C7959A95E1F7CF70D0E0DC2F65
:101F4000CC27D0699E01282BC9011DC080E090E0FC
:101F50001AC089E390E017C082EE90E014C080EED2
:101F600090E011C086EE90E00EC084EE90E00BC0D1
:101F700089E290E008C085E390E005C08AE290E045
:101F800002C081E390E0DF91CF910895CF9384E088
:101F900090E00E94E82BC82F82E290E00E94E82B9C
:101FA0002C2F30E0A901582BCA01CF91089569EE7A
:101FB0007EEF80E090E00E941A2C60E082E090E0EA
:101FC0000E94FC2B60E083E090E00E94FC2B1092CA
:101FD0001702109218021092190210921A0260E071
:101FE00084E090E00E94FC2B60E082E290E00E949E
:101FF000FC2B60E085E090E00E94FC2B60E086E036
:1020000090E00E94FC2B6FEF87E090E00E94FC2B99
:1020100040E050E0BA0188E090E00E940E2C60E0C1
:102020008DE090E00E94FC2B40E050E0BA0188E196
:1020300090E00E940E2C60E087E190E00E94FC2B73
:1020400040E050E0BA018CE190E00E940E2C60E08C
:1020500070E080E290E00E941A2C40E050E0BA016B
:1020600088E190E00E940E2C40E050E0BA018FE041
:1020700090E00E940E2C40E050E0BA0183E190E035
:102080000C940E2C80911602811110921602089564
:10209000809590911502892380931502089590915F
:1020A000150280911402982B90939E018091160244
:1020B000882389F0892B80939E01E0EAF1E097E084
:1020C00080E0915029F021912223D9F38F5FF9CF3D
:1020D00081110E94421048E050E06CE072E08EE90D
:1020E00091E00E94C42C892BA9F088E0EEE9F1E090
:1020F000ACE0B2E001900D928A95E1F7E091930295
:10210000F0919402309731F00280F381E02D8EE956
:1021100091E00994089580910A029091D90189175C
:1021200019F08F5F8770FBCF08950F931F93CF93A4
:10213000DF938091D80182958F7009F05DC0809106
:10214000D501882309F458C080910A021091D90161
:102150006091D3017091D401C091D601D091D70183
:1021600091E06F3F09F090E0292F06E0811709F414
:1021700043C0209721F07F3F21F030E003C031E0E1
:1021800001C0322F90E030FD34C0089FF001099F5C
:10219000F00D1124DF01A652BE4F11963C9111970C
:1021A000371327C03C91361324C012963C911297E6
:1021B00031111FC013964D915C9114974C1B5D0B10
:1021C00044365105B0F48091D8018F7080618093BE
:1021D000D801E152FE4F80818F708061808383ED52
:1021E00091E00E94F206DF91CF911F910F910C9424
:1021F0008B1001968770BACFDF91CF911F910F910D
:1022000008958F929F92AF92BF92DF92EF92FF92CA
:102210000F931F93CF93DF938090B1029090B202FF
:10222000A090B302B090B4024091170250911802EE
:102230006091190270911A02842A952AA62AB72A57
:10224000CFE1D0E027E0929F7001112496E4D92ECF
:10225000082F10E0D501C4010C2E04C0B695A79537
:10226000979587950A94D2F780FD04C0219790F73F
:1022700080E014C0DC9EF001DD9EF00D1124EE0D17
:10228000FF1DE00FF11FEE0FFF1FE851FF4F85917B
:1022900094910E944F0E019749F38C2FDF91CF91BB
:1022A0001F910F91FF90EF90DF90BF90AF909F90A4
:1022B0008F900895CF93DF93EC010E94011126E4E3
:1022C000829FC0011124FC0127E0D29FE00DF11D87
:1022D0001124EC0FF11DEE0FFF1FE851FF4F859108
:1022E00094910E944F0EDF91CF910895FC0180815F
:1022F00091810E945A1192959F70963079F010F456
:10230000925001C09A50923068F4803F69F018F4FE
:10231000883E40F409C0843F29F406C0883E20F07E
:10232000813F11F080E0089581E008959F92AF927F
:10233000BF92CF92DF92EF92FF920F931F93CF93B2
:10234000DF93CDB7DEB761970FB6F894DEBF0FBE4F
:10235000CDBF8C0185E0F801DE011D9601900D9244
:102360008A95E1F7F801E2809091D3016091D40160
:102370004091D6015091D7014115510531F06F3F81
:1023800031F481E09F3F19F403C081E001C080E097
:10239000F82FF1709F2E80FD02C1F801308121815C
:1023A000C380D48083EDA82E81E0B82EF090D501B3
:1023B000F601E41BF50BFF2009F4CAC08091D80197
:1023C000E436F10508F095C0482F407F09F050C071
:1023D000621311C093130FC0FE2CE1100CC08F705C
:1023E00080618093D801C5010E94F2068091D801D6
:1023F000F801858311C1CD2831F02F3F31F481E000
:102400003F3F19F403C081E001C080E080FD03C0BC
:1024100081E08E2502C080E090E0F82FF170FF2E61
:1024200080FF1CC080910A024091D90156E08417B8
:1024300009F4D0C090E0589FF001599FF00D11248D
:10244000E652FE4F6181261306C06081631303C00C
:102450006281E61203C001968770E9CFFE2CEE2060
:1024600009F4DAC08091D80181608093D8014DC011
:1024700062130AC0931308C0E11006C0F8018583F7
:10248000C8010E94F2066EC0C8010E94761188231E
:1024900051F1EE2041F12091D801822F82958F7069
:1024A00090E0029774F08091D3019091D4019887C5
:1024B0008F831986DB86CA862C87CE0107960E94F9
:1024C000F20686E0F801A3EDB1E001900D928A9545
:1024D000E1F70E9495100AC06217C9F0C8010E9476
:1024E000761181111EC0C8010E94F206FF24F394E8
:1024F00093C0482F407F81F783ED91E00E94F20660
:1025000086E0F50111928A95E9F7F12C85C09313C5
:10251000E5CFE110E3CFF8018583C8010E94F20600
:1025200038C0EE2001F32091D801822F82958F7060
:1025300090E0029734F28091D3019091D4019A8374
:1025400089831B82DD82CC822E83CE010196B7CF98
:10255000E436F105F0F4FE2CEE2029F262130BC0F4
:10256000931309C086E0F801A3EDB1E001900D924C
:102570008A95E1F751C0C8010E9476118111A1CF5F
:102580008091D80181608093D801C8010E94F20631
:1025900043C086E0F50111928A95E9F73DC0EE202F
:1025A00009F4A1CFC8010E947611F82E882309F4FE
:1025B0009ACF86E0F801A3EDB1E001900D928A95E3
:1025C000E1F78091D3019091D4010E945A110E94A9
:1025D000951022C03D872E878D859E850E945A11B9
:1025E000292F22952F70223028F49F7039F0811105
:1025F00005C00BC0243028F49F7049F4805E8830F9
:1026000020F0C8010E94F2069F2CF92C05C0F801A9
:102610009581907F99F7F9CF8F2D61960FB6F89439
:10262000DEBF0FBECDBFDF91CF911F910F91FF9005
:10263000EF90DF90CF90BF90AF909F90089527E0EC
:10264000929F800D1124682F669566956695982F48
:10265000977085E0689FB001112440E050E080E071
:10266000FB01E40FF51FEA55FE4F208130E0092EF3
:1026700002C0369527950A94E2F721703327042E7D
:1026800001C0220F0A94EAF7822B4F5F5F4F45305B
:10269000510531F7089527E0929F800D1124E82F0E
:1026A000E695E695E695877051E001C0550F8A954D
:1026B000EAF785E0E89FF0011124EA55FE4F20E09B
:1026C00030E070E04081CB01022E02C096958795E4
:1026D0000A94E2F78170819584278523842781936A
:1026E0002F5F3F4F2530310569F708956093B102A0
:1026F0007093B2028093B3029093B40210921402CA
:102700000C944F100F931F9341E050E060E070E095
:1027100004C0440F551F661F771F8A95D2F7409556
:102720005095609570958091B1029091B202A09100
:10273000B302B091B4028A019B01082319232A2312
:102740003B23C901B8011F910F910C94761320917E
:102750000B028095822380930B02982F977099F437
:1027600030E0482F082E000C550B2417350759F080
:1027700090914B0292FD07C08595859585950E94A5
:10278000821310920B020895CF93C0914B02C2FBAB
:10279000992790F9981799F080FBC2F9C0934B02E2
:1027A00060914A0284E090E00E94FC2B6C2F82E250
:1027B00090E00E94FC2B82E0CF910C94A713CF9164
:1027C00008950F931F9341E050E060E070E004C073
:1027D000440F551F661F771F8A95D2F78091B1026B
:1027E0009091B202A091B302B091B4028A019B0110
:1027F000082B192B2A2B3B2BC901B8011F910F91D4
:102800000C94761360931702709318028093190248
:1028100090931A02109214020C944F101092150209
:1028200086E0E0EAF1E0DF011D928A95E9F7109277
:1028300014020C944F10882321F00E9448100C942D
:102840004F100895882339F090911502892B8093B9
:1028500015020C944F1008951F93CF93DF93182FF8
:10286000893319F0C0E0D0E002C0C0E5D0E0812F8C
:102870000E94B928209741F08FE99FE00197F1F776
:1028800000C000002197F6CF812FDF91CF911F91DB
:102890000C946528CF93DF93CDB7DEB7AC970FB616
:1028A000F894DEBF0FBECDBF84B7877F84BF0FB65D
:1028B000F894A895809160008861809360001092E0
:1028C00060000FBE90E080E80FB6F894809361003E
:1028D000909361000FBE85B7806885BF85B780681B
:1028E00085BF8AE09EE090939B0180939A010E94AD
:1028F000B71A0E94D61A8091E20084608093E200A9
:1029000078948091A7028823A1F01091E9001F70AC
:102910009091EC00892F817090FD80E8182B109227
:10292000E9008091E80083FD0E94A11F1F701093B1
:10293000E90082E084BD93E095BD9AEF97BD809356
:102940006E000E94BE23809318010E94BE2363E0A4
:1029500070E0882329F080E091E00E94572904C0AC
:1029600080E091E00E94602978940E94DB23A9E531
:10297000B1E040E651E061E070E08D91E82FE29532
:10298000EF70F0E021A18F708B0102C0000F111FCA
:102990008A95E2F7C801902F9095922391A392A176
:1029A000892B82A34A175B0741F7209A559A289AE8
:1029B0005D9AAAE2B2E03FE3A32E32E0B32EE5E354
:1029C000F2E011921D92AE16BF06D9F70E94BE2307
:1029D00080917302869590E090932902809328025B
:1029E00080E090E00E94F62B893E9E4F11F00E94FD
:1029F000D70F82E090E00E94E82B80933F020E9474
:102A0000C60F90934B0280934A0283E090E00E94AD
:102A1000E82B682F70E080E090E00E9402140E9492
:102A2000BE23811102C082E001C080E080936C026D
:102A300080E88093B5020E94BC2A6DE070E083E4D8
:102A400094E00E941D1F892B09F043C080916C0205
:102A500063E070E081FD3AC080E494E00E941D1FB5
:102A6000892BB9F56DE070E080E394E00E941D1FB2
:102A7000892B79F50E94F11CDC01CB01805A95412C
:102A8000AF4FBF4F80938A0290938B02A0938C022A
:102A9000B0938D02E8EBF2E080E092E0DF018C0180
:102AA0001D9201501040E1F7F093BF04E093BE0483
:102AB0008FEF9FEF9093B7028093B60281E08093EF
:102AC0008F0280938E0210926D0203C08DE394E01A
:102AD000C5CF80913402811136C080E090E00E9421
:102AE000F62B893E9E4F21F00E94D70F0E9474263C
:102AF00088E090E00E94F02B609373027093740260
:102B000080937502909376026E7F71F40E94742612
:102B100088E090E00E94F02B60937302709374023F
:102B200080937502909376020E942D261092CB041A
:102B30008091730280FF04C060E086950E94102897
:102B400081E08093340289E191E090939402809334
:102B5000930244244394512C9E012F5F3F4F6901FF
:102B60008091A702853009F045C000E112E1809113
:102B7000A702853009F03AC08091A702843031F174
:102B80000E94CB1D1092950268E170E080E40FB6C0
:102B9000F894A895609360000FBE8093600083B79F
:102BA000817F846083BF83B7816083BF7894889579
:102BB00083B78E7F83BF0FB6F894A895809160008D
:102BC000886180936000109260000FBE8091A60221
:102BD000882309F4CCCF0E949724E5E3F2E08191A9
:102BE0008111A5C2AE16BF06D1F7C1CF0E940E1447
:102BF0000E944C1D0E949724982E81110E94F11C66
:102C0000E0E4F2E0A5E3B2E000E010E0302F2D9127
:102C10009191922721F180E0FF24F3944F2D4923D5
:102C2000D1F08F8F38A32F2181E009F480E089A3B0
:102C30000E94FD1C8160782F9BA38AA34F8D58A111
:102C400069A18BA10E945522F801E05CFD4F8081B3
:102C5000F826F08219C08F5FFF0C8730F9F60F5FFE
:102C60001F4F0A30110591F68FEF8CA38DA31EA282
:102C70000E94FD1C8160782F98A78FA34CA15DA1B5
:102C80006EA188A50E9455228091CB04882309F467
:102C90007FC08091CA04E0917302E695E81BE0933F
:102CA000C604823059F4F0E0E45AFB4FE4910E2F51
:102CB00010E09FE5E92E9AE1F92E45C0863059F4DF
:102CC000F0E0E75AFB4FE4910E2F10E08FE4E82E7E
:102CD0008AE1F82E38C0893061F4E695F0E0EA5ACE
:102CE000FB4FE4910E2F10E0B5E2EB2EBAE1FB2E84
:102CF0002AC08F3061F4E695F0E0ED5AFB4FE49185
:102D00000E2F10E0A8EBEA2EA9E1FA2E1CC08531A7
:102D100059F4F0E0E05BFB4FE4910E2F10E0FAE68F
:102D2000EF2EF9E1FF2E0FC0883139F408E210E0F0
:102D3000E1EEEE2EE8E1FE2E06C000ED17E070EBAE
:102D4000E72E78E1F72E8091C704882361F0109276
:102D5000C7040E94FD1C9093C5048093C404109284
:102D6000C9041092C8040E94FD1CE091C404F091B3
:102D7000C5048E1B9F0B8F3F9F4750F40E0F1F1FE4
:102D80001093C5040093C40484EC94E0F701099502
:102D900080918F02882309F4BDC180916E029091C9
:102DA0006F020E94E21CC29708F4B0C00E94FD1C92
:102DB00090936F0280936E0288EB92E09093BF0431
:102DC0008093BE040E94BE23882309F47EC08091B4
:102DD0004A0282FD0BC08EE894E00E94D11E8CE86E
:102DE00094E00E94D11E81E994E00AC084E994E055
:102DF0000E94D11E8AE894E00E94D11E87E994E0E7
:102E00000E94D11E88E894E00E94D11E0E946B258A
:102E10000E944C1D81FB002700F982FB112710F94D
:102E200080FD03C088E794E002C080E894E00E943F
:102E3000D11E011103C08EE694E002C083E794E046
:102E40000E94D11E111103C080E694E002C085E605
:102E500094E00E94D11E8CE694E00E94D11E8091E5
:102E6000730280FF2DC00E942526382F80917602A4
:102E700021E1622F0E94302C1F928F938091750266
:102E80000E94302C1F928F93809174026AE00E94FE
:102E9000302C1F928F931F923F938EE391E09F936C
:102EA0008F931F928EE18F93DF92CF920E94D12C4D
:102EB000C6010E94DF1E0FB6F894DEBF0FBECDBF65
:102EC0008AE694E00E94D11E21C08AE994E00E9423
:102ED000D11E8091730280FF17C00E9425261F9289
:102EE0008F9382E591E09F938F931F928EE18F9352
:102EF000DF92CF920E94D12CC6010E94DF1E0FB636
:102F0000F894DEBF0FBECDBF0E946B2580918F026B
:102F1000882309F4E4C02091B6023091B70221154C
:102F2000310509F4DCC080916D028111D8C0282ED2
:102F3000312C7201082E02C0EE0CFF1C0A94E2F73D
:102F4000A9014E215F21452B11F48F5FF0CF9091A5
:102F50006C02910165E0220F331F6A95E1F790FD45
:102F600012C08295880F807680932701220F232F2D
:102F7000221F330B319520932A01815E8093280113
:102F800010922B0112C045E0369527954A95E1F73E
:102F9000220F220F220F2093270110922A01295F6E
:102FA0002093280183E080932B0124E630E047E062
:102FB00050E065E271E088E70E94732B892B09F0ED
:102FC0008EC080916C0280FD23C0C10125E0880F76
:102FD000991F2A95E1F7AC0148545D4F04E610E0D3
:102FE00020E230E060E488E70E949A2B892B09F008
:102FF00076C00E94E51DE094F0948091B602909115
:10300000B702E822F922F092B702E092B60267C056
:1030100080E2ECE4F2E0DF011D928A95E9F785E0B9
:10302000220C331C8A95E1F7E4E6F1E0FCA7EBA75C
:1030300040E651E0ABA5BCA58D91BCA7ABA7FA01BA
:103040009191AF019101290F311D890108541D4F44
:103050001AA709A790E0845B9D4FFC0107E09F0140
:10306000281B390B742C01C0770C2A95EAF769A547
:103070007AA5812CDB011D91BD011721202F281974
:103080002770622E022E000C330BB12F01C0BB0F34
:103090006A94EAF76B2E3195219531092770332711
:1030A00001C016952A95EAF7612A1081612A60828B
:1030B000839418E08112DECF015031960F3F79F6EC
:1030C00028E631E06BA57CA52617370709F0B2CFBB
:1030D00004E610E020E230E04CE452E083CF80913F
:1030E0008E028823B9F00E94F11C00918A0210918F
:1030F0008B0220918C0230918D02DC01CB01801B70
:10310000910BA20BB30B8F3F9F4FAF4FBF4710F4F4
:103110000E94CB1D91100E94E51D0E944C1D9091B4
:103120007002891709F41CCD8093700219CD09BD76
:1031300019BD09B400FEFDCF8091D8008F7D80932A
:10314000D8008091E00082608093E0008091E000F0
:1031500081FDFCCF0E940E140ACD089508950895B4
:103160000895089580919C020895CF93DF9321E004
:103170002093E9002FEF3091E800215035FD06C083
:1031800035ED3A95F1F700002111F5CF2091E800D7
:1031900025FF14C0EC0140E050E068E070E00E94C0
:1031A0007B1F8091E8008E778093E80088E0FE0125
:1031B000ADE9B2E001900D928A95E1F7DF91CF91F0
:1031C00008958F929F92AF92BF92CF92DF92EF922B
:1031D000FF920F931F93CF93DF93EC014C81042F49
:1031E00010E09801D8010E948E2C9B01AC010E9436
:1031F000A42C6B017C01E0E2F0E0E01BF10BA5E503
:10320000B0E09B01AC010E94A42C4B015C019F012A
:10321000DF010E94862C9B01AC010E94AF2C9B0118
:10322000AC012C0D3D1D4E1D5F1DC501B4010E945A
:103230005E2C822FF22E99E2921728F093E0299FBC
:10324000900111240DC025E530E0281B3109C9018A
:10325000880F991F280F391F37FF02C02F5F3F4F7C
:1032600035952795122F109598E7C92E92E0D92E03
:1032700000E085E5E82EEF1801FD02C08E2D01C0AB
:103280008F2D9601412F609175020E9483260F5F5A
:1032900083E0C80ED11C063079F70E94DE258C81B0
:1032A000811102C091E003C0803219F49FEF909326
:1032B0002E0190912E01890F8C83DF91CF911F9168
:1032C0000F91FF90EF90DF90CF90BF90AF909F90C5
:1032D0008F9008950F931F93CF93DF93C8E7D2E0A9
:1032E000FE01118210821282339682E0EA38F807DA
:1032F000C1F700E010E080917202082E000C990BDB
:103300000817190794F080912D01082E000C990BD5
:103310008017910754F09E014091760260917502EA
:10332000809174020E94832603C0198218821A8237
:103330000F5F1F4F239606301105E9F60E94DE2528
:1033400080912C0190917202980F909372022091BB
:103350002D01280F20932D01121614F495301CF026
:10336000819580932C01DF91CF911F910F9108954A
:10337000BF92CF92DF92EF92FF920F931F93CF9362
:10338000DF93FC01828180FF03C0DD24DA9402C058
:10339000DD24D39408E712E0C0E0D0E026E0B22EAE
:1033A000F80111821082128294E0E92EF12CC12CD6
:1033B000809171028C0D87302CF06B2D0E943C2C7B
:1033C000892F02C087FD8A5F082E000C990BC81751
:1033D000D90791F4809176028E9DA0018F9D500DAA
:1033E000112455954795559547959801609175021B
:1033F000809174020E948326CD0CF1E0EF1AF1084F
:10340000B9F621960D5F1F4FC630D10549F60E94CF
:10341000DE258091710291E0D91206C0811102C0AF
:1034200085E007C0815005C090E00196BE010E9472
:103430004A2C80937102DF91CF911F910F91FF90E1
:10344000EF90DF90CF90BF900895EF92FF921F937F
:10345000CF93DF93EC0188E7E82E82E0F82E10E0AE
:103460008C8197014091760260917502810F0E94D4
:103470008326165D83E0E80EF11C1C3F89F70E944D
:10348000DE259A818C8190FF02C08F5F01C0815040
:103490008C83DF91CF911F91FF90EF900895CF9390
:1034A000DF93EC01E3E7F2E0438162818C810E94CB
:1034B00019278C818F5F8C83DF91CF910895CF93F3
:1034C000DF93EC01EC81F0E0E652FB4F4491E3E73F
:1034D000F2E0628181810E9419278C818F5F8C8349
:1034E000DF91CF9108951F920F920FB60F92112482
:1034F0002F933F934F935F936F937F938F939F93FC
:10350000AF93BF93CF93DF93EF93FF93C091E90005
:10351000CF708091EC00D82FD17080FDD0E8109250
:10352000E9008091F000877F8093F00078940E94FA
:10353000A11F1092E9008091F00088608093F00054
:10354000CD2BCF70C093E900FF91EF91DF91CF9128
:10355000BF91AF919F918F917F916F915F914F91AB
:103560003F912F910F900FBE0F901F901895E8ED8F
:10357000F0E080818E7F80831092E2001092DA006A
:103580001092E100A0EEB0E08C9181608C9380817C
:103590008F77808319BCA7EDB0E08C918E7F8C93E0
:1035A00080818F7E808310929A020895CF92DF925D
:1035B000EF92FF920F931F93CF93DF93C8EDD0E06C
:1035C00088818F7E8883E7EDF0E080818160808351
:1035D00084E082BF81E080939A0288818E7F888315
:1035E00002EE10E0F80110821092DA0081EEC82E8F
:1035F000D12CF601108288818F778883888180683A
:10360000888388818F7D888319BC1092A7021092CD
:10361000A8021092A6021092A50290EEE92EF12CBB
:10362000F70180818B7F808388818160888360E05F
:1036300080E00E94461FF60180818E7F8083F80122
:10364000808181608083808188608083F7018081B0
:103650008E7F8083888180618883DF91CF911F91E5
:103660000F91FF90EF90DF90CF9008951F920F92EF
:103670000FB60F9211242F933F934F935F936F9345
:103680007F938F939F93AF93BF93EF93FF9380911B
:10369000E10082FF09C08091E20082FF05C08091B5
:1036A000E1008B7F8093E1008091DA0080FF2AC0E7
:1036B0008091D80080FF26C08091DA008E7F8093B1
:1036C000DA008091D90080FF18C080E189BD82E1D5
:1036D00089BD09B400FEFDCF81E08093A7028091EF
:1036E0009A0281110FC00E94B71A0E94D61A8091C7
:1036F000E20084608093E20005C019BC1092A7022A
:1037000010929A028091E10080FF17C08091E20040
:1037100080FF13C08091E2008E7F8093E200809151
:10372000E20080618093E2008091D8008062809303
:10373000D80019BC85E08093A7028091E10084FF46
:1037400030C08091E20084FF2CC080E189BD82E11D
:1037500089BD09B400FEFDCF8091D8008F7D809394
:10376000D8008091E1008F7E8093E1008091E2009B
:103770008F7E8093E2008091E20081608093E2007E
:103780008091A802882311F084E007C08091E300B3
:1037900087FD02C081E001C083E08093A702809191
:1037A000A7028091E10083FF26C08091E20083FFA1
:1037B00022C08091E100877F8093E10082E08093C6
:1037C000A7021092A8028091E1008E7F8093E10011
:1037D0008091E2008E7F8093E2008091E200806120
:1037E0008093E20060E080E00E94461F8091F0003C
:1037F00088608093F000FF91EF91BF91AF919F910E
:103800008F917F916F915F914F913F912F910F9089
:103810000FBE0F901F9018952091E4003091E500A5
:1038200095E64091EC00842F817040FF23C0809189
:10383000E80080FD1DC08091A702882399F08530A3
:1038400099F08091EB0085FD11C04091E40050910A
:10385000E5002417350729F3915011F09A01E1CFC3
:1038600084E0089582E0089583E0089581E008955A
:1038700080E008954091E80042FFDDCF08958091F7
:10388000A90287FF11C08091E80082FD05C08091E8
:10389000A7028111F8CF11C08091E8008B770BC08F
:1038A0008091A702882349F08091E80080FFF8CF3B
:1038B0008091E8008E778093E80008952091AF0210
:1038C0003091B0022617370748F06115710539F4B9
:1038D0002091E8002E772093E80001C0B901FC0197
:1038E00020E06115710579F18091A7028823F1F13B
:1038F0008530F1F18091E80083FD3CC08091E800C3
:1039000082FD2EC08091E80080FFEBCF2091F30074
:103910008091F20090E0922B6115710551F0883092
:10392000910538F421912093F100615071090196BD
:10393000F3CF21E0089709F020E08091E8008E772E
:103940008093E800CECF2111CFCF0AC08091A7028B
:10395000882361F0853061F08091E80083FD0AC022
:103960008091E80082FFF2CF80E0089582E0089520
:1039700083E0089581E0089578941F920F920FB626
:103980000F9211248F939F93AF93BF9380919602D0
:1039900090919702A0919802B09199020196A11D71
:1039A000B11D8093960290939702A0939802B093D2
:1039B0009902BF91AF919F918F910F900FBE0F9081
:1039C0001F9018959C014FB7F894809196029091A2
:1039D0009702A0919802B09199024FBF821B930B5E
:1039E00008952FB7F8946091960270919702809194
:1039F0009802909199022FBF08952FB7F894809163
:103A0000960290919702A0919802B09199022FBFCF
:103A100008951F920F920FB60F9211248F939F93C8
:103A2000AF93BF9380919502811113C0809196024C
:103A300090919702A0919802B09199024196A11D90
:103A4000B11D8093960290939702A0939802B09331
:103A50009902BF91AF919F918F910F900FBE0F90E0
:103A60001F9018959C01FC0132969FEF80E04191D8
:103A7000461789F09F3F19F4411101C0982F8F5FBD
:103A80008630A9F79F3F39F0F901E90FF11D97FD45
:103A9000FA95628308950895E0919302F09194025B
:103AA000309721F00190F081E02D099480E0089595
:103AB0000F931F93CF93DF93C42FD22FFC018281EA
:103AC0008823C9F0409392020E94FD1C90939102BA
:103AD0008093900280E28C0F883008F057C0C77046
:103AE00081E001C0880FCA95EAF7DF91CF911F915D
:103AF0000F910C94221480919202481330C080914F
:103B00009002909191020E94E21C8436910538F552
:103B100010E21D0FCD17B9F080E28C0F883040F411
:103B2000C77081E001C0880FCA95EAF70E941B1494
:103B3000183028F581E09D2F977001C0880F9A9565
:103B4000EAF70E942214802F0E942C141830F0F4FF
:103B5000D77081E001C0880FDA95EAF70AC080E2E9
:103B60008C0F883098F4C77081E001C0880FCA9527
:103B7000EAF7DF91CF911F910F910C941B14802FC6
:103B8000DF91CF911F910F910C942C14DF91CF9165
:103B90001F910F91089580918F0290918E0288233A
:103BA00089F0992369F062E070E08CED95E00E9465
:103BB0001D1F892B19F080918E02089510928E029C
:103BC00090918E0281E08927089580918F02882349
:103BD000F9F00E94F11CDC01CB01805A9541AF4FF6
:103BE000BF4F80938A0290938B02A0938C02B09374
:103BF0008D0280918E0281110BC062E070E08AED2F
:103C000095E00E941D1F892B19F481E080938E029C
:103C100080918E020895CF93DF93C82FD62F0E94F4
:103C200025268C1730F08D1720F4DF91CF910C945E
:103C30005B2861E08C2FDF91CF910C9410288823B2
:103C400011F0FA0101C0FB010994CF93DF93C091F9
:103C5000BE04D091BF048A30B1F42091B502CE01E8
:103C6000885B9240622F70E00E94CB2B281B822F32
:103C700066E00E94302CC82FC15008F48FC080E24B
:103C80000E94251EF9CF8D30E9F4C85BD240209107
:103C9000B502622F70E0CE010E94CB2B281B822F31
:103CA0009E01280F311D2115324018F080E0C0E040
:103CB000D0E0C80FD11DC854DD4FD093BF04C093CE
:103CC000BE046CC096E0FE01A8EBB4E001900D923A
:103CD0009A95E1F7803E30F086E0FE0111928A95D8
:103CE000E9F70BC0F6E08F9FB00111246C57794FB4
:103CF00046E050E0CE010E94DF2BC091BE04D0917F
:103D0000BF0446E050E0BE0188EB94E00E94C42C62
:103D1000892B49F19E01285B3240A90185E0569527
:103D200047958A95E1F781E090E0BC0102C0660FFB
:103D3000771F4A95E2F74091B6025091B702462BA1
:103D4000572B2B5F3F4F65E0369527956A95E1F736
:103D500002C0880F991F2A95E2F7842B952B909328
:103D6000B7028093B6029E01225B32404091B502B9
:103D7000642F70E0C9010E94CB2B481B463010F421
:103D8000240F311D211582E0380710F020E030E0CB
:103D900028543D4F3093BF042093BE04DF91CF9150
:103DA0000895CF93DF93EC01FE018491882321F0E5
:103DB0000E94251E2196F8CFDF91CF9108950F9391
:103DC0001F93CF93DF93EC01FC0101900020E9F7F2
:103DD0008F0101501109C017D10720F489910E9469
:103DE000251EF9CFDF91CF911F910F9108958091FA
:103DF000B1029091B202A091B302B091B4020097C7
:103E0000A105B105B9F0AC01BD0133E07695679528
:103E1000579547953A95D1F740FF0CC024E0B695E9
:103E2000A795979587952A95D1F780FF03C085E0E0
:103E30000C94E11385E00C948213EF92FF920F93A0
:103E40001F93CF93DF93EC017B0164E670E088E77A
:103E50000E94C22A8C01EC0EFD1ECE15DF0561F01A
:103E600017FD0AC0FE01849164E670E00E94432BB6
:103E70008C012196892B89F30E94C72BC801DF9101
:103E8000CF911F910F91FF90EF900895982F973049
:103E900068F59093E900981739F05091EC00209163
:103EA000ED004091F00003C0562F40E022E021FDDC
:103EB00002C09F5FECCF3091EB003E7F3093EB0070
:103EC0003091ED003D7F3093ED003091EB0031609B
:103ED0003093EB005093EC002093ED004093F00002
:103EE0002091EE0027FDE5CF80E008958F7080934C
:103EF000E90081E008950F931F93CF93DF938C0126
:103F00000E940C1C811118C0E80108E010E08091AB
:103F1000E80085FD0AC08091E8008E778093E80074
:103F20000E940C1C882399F307C089918093F100AB
:103F30000150110961F780E0DF91CF911F910F913E
:103F400008951F93CF93DF93CDB7DEB7AA970FB62F
:103F5000F894DEBF0FBECDBFE9EAF2E08091F10038
:103F6000819322E0E13BF207C9F78091AA028330F6
:103F700009F461C030F4813071F0823009F49BC0E3
:103F8000B2C08A3009F487C08B3009F46CC0893024
:103F900009F0A9C020C08091A902813A09F0A3C00C
:103FA0008091E800877F8093E8008091AD02909136
:103FB000AE02892B21F468E08DE992E003C060E055
:103FC00080E090E070E00E945E1C8091E8008B77BA
:103FD0008093E80088C08091A902813209F083C0F3
:103FE0008091AD029091AE02892B09F07CC0809146
:103FF000E800877F8093E8008091E80082FD05C09B
:104000008091A7028111F8CF6EC02091F3008091BA
:10401000F20090E0922B029731F48091F100813010
:1040200011F0863021F48091F10080939C02809100
:10403000E8008B7754C08091A902813A09F053C0FF
:104040008091AD029091AE02892B09F04CC0809115
:10405000E800877F8093E8008091E80080FFFCCF34
:1040600080912F0137C08091A9028132E1F58091C2
:10407000AD029091AE02892BB1F58091E800877F67
:104080008093E8000E943F1C8091AB0280932F0137
:104090000E940E1428C08091A902813221F58091DE
:1040A000E800877F8093E8000E943F1C8091AC026B
:1040B00080939B0218C08091A902813AA1F480915B
:1040C000E800877F8093E8008091E80080FFFCCFC4
:1040D00080919B028093F1008091E8008E7780931D
:1040E000E8000E943F1C8091E80083FFB6C18091E8
:1040F000A9029091AA02492F50E04A30510508F0D8
:10410000ACC1FA01EE59FF4F0C94802C803821F09D
:10411000823809F0A2C108C08091A5029091A60240
:10412000992389F082600FC08091AD028F70873033
:1041300008F093C18093E9008091EB0085FB88270C
:1041400080F91092E9009091E800977F9093E80041
:104150008093F1001092F10053C1282F2D7F09F0B8
:104160007CC1882319F0823061F077C18091AB0265
:10417000813009F072C1933009F080E08093A6028B
:104180002EC08091AB0281112AC08091AD028F7048
:104190002FEF280F263008F060C18093E9002091AE
:1041A000EB0020FF1CC0933021F48091EB00806273
:1041B00014C09091EB0090619093EB0021E030E00F
:1041C000A90102C0440F551F8A95E2F74093EA0007
:1041D0001092EA008091EB0088608093EB001092CF
:1041E000E9008091E800877F0EC1811136C11091EE
:1041F000AB021F778091E3008078812B8093E300EE
:104200008091E800877F8093E8000E943F1C8091A6
:10421000E80080FFFCCF8091E30080688093E3009A
:10422000111102C082E001C083E08093A70215C192
:104230008058823008F011C18091AB029091AC029D
:104240008C3D53E0950779F583E08A838AE2898380
:104250004FB7F894DE01139620E03EE051E2E32FE1
:10426000F0E050935700E49120FF03C0E295EF7017
:104270003F5FEF708E2F90E0EA3010F0C79601C0DC
:10428000C0968D939D932F5F243149F74FBF809146
:10429000E800877F8093E8006AE270E0CE01019633
:1042A0000E945E1C9CC04091AD025091AE02292F2D
:1042B000332723303105A9F068F42130310509F4A2
:1042C000DBC02230310509F0C8C082E290E0EEE1A7
:1042D000F6E032C02132310521F12232310529F1D7
:1042E000BCC0992781309105A1F058F0029709F0E0
:1042F000B4C0E2E5F6E0E4918E2F90E0E2E5F6E06E
:1043000018C0E0E8F6E0E4918E2F90E0E0E8F6E0F7
:1043100010C0EAE6F6E0E4918E2F90E0EAE6F6E0DF
:1043200008C0452B09F4ADC098C0452B09F4AEC0B8
:1043300094C0009709F491C02091E800277F209352
:10434000E8002091AF023091B0028217930708F481
:104350009C0140E02115310589F18091A702882355
:1043600009F43DC08530D9F18091E80083FD37C064
:104370008091E80082FD2FC08091E80080FFEACFA5
:104380004091F3008091F20090E0942B21153105CB
:1043900059F08830910540F444914093F1003196F2
:1043A000215031090196F2CF41E0089709F040E031
:1043B0008091E8008E778093E800CCCF4111CDCF7B
:1043C0000AC08091A702882351F0853041F0809186
:1043D000E80083FD04C08091E80082FFF2CF809165
:1043E000E8008B778093E80038C08038B1F5809181
:1043F000E800877F8093E8008091A8028093F10015
:104400008091E8008E778093E8000E943F1C25C0D1
:10441000811123C08091AB029091AC029927029741
:10442000E4F48091E800877F8093E8001091AB026C
:104430001093A8020E943F1C111106C08091E30056
:1044400087FD02C081E001C084E08093A70261EC97
:1044500081E00E94461F8091A7028091E80083FFBF
:104460001AC08091E800877F8093E8008091EB007C
:1044700080628093EB000FC082E190E0E0E4F6E020
:104480005BCF89E090E0E0E3F6E056CF80E490E097
:10449000EEEDF5E051CFAA960FB6F894DEBF0FBE51
:1044A000CDBFDF91CF911F9108951F93CF93DF93DD
:1044B000CDB7DEB767970FB6F894DEBF0FBECDBF9E
:1044C0004B8B5C8B6D8B7E8B8F8B611110921402EA
:1044D00086E09E01235F3F4FD901E82F1D92EA95A8
:1044E000E9F795E0FE017396D90101900D929A9536
:1044F000E1F79C894E895F897B897D879E876F87DD
:10450000598B488BF901DE01179601900D928A951F
:10451000E1F7CE0107960E94961181113EC086E018
:10452000FE013796DE01119601900D928A95E1F712
:10453000FF81E8856A857B856115710531F0EF3F64
:1045400031F481E0FF3F19F403C081E001C080E055
:1045500080FD23C02091D90130E0C9010196877008
:10456000992740910A0250E08417950779F1F98361
:10457000EA837D836C8396E0929FD001939FB00D78
:104580001124A652BE4FFE01319601900D929A95CC
:10459000E1F78093D9010E948B1016E080910A0206
:1045A0009091D9018917F9F0189FC0011124865202
:1045B0009E4F0E9496118823B1F080910A0290E0EC
:1045C00001968770992780930A02E8CF0E940E1403
:1045D0001092D90110920A02E3EDF1E086E0DF01CA
:1045E0001D928A95E9F767960FB6F894DEBF0FBE65
:1045F000CDBFDF91CF911F910895AF92BF92CF921F
:10460000DF92EF92FF920F931F93CF93DF93EC0112
:104610008AE0A82EFE012491222309F495C02130BE
:1046200009F03DC031968491813021F42296FE013B
:10463000849184C0823031F42296FE0184910E94DC
:10464000B92880C0833031F42296FE0184910E9403
:10465000652878C0843009F074C02296FE01249148
:1046600080E090E030E0205331092A30310560F4D9
:10467000A89EA001A99E500D1124C901840F951F69
:104680002196FE012491EECF009709F45BC0EFE97B
:10469000FFE03197F1F700C000000197F5CFE22F5E
:1046A000F0E0E05EF34FB490822F86958695869574
:1046B00090E0FC01E05FF34FE4902770F12C022EB4
:1046C00002C0F594E7940A94E2F7F1E0EF22FF24A8
:1046D000FC01E050F44FC490D12C022E02C0D594BE
:1046E000C7940A94E2F731E0C322DD24FC01E051D3
:1046F000F44F049110E002C0159507952A95E2F752
:1047000001701127E114F10419F081EE0E94B9281B
:10471000C114D10419F086EE0E94B9288B2D0E9495
:104720002C14CD2819F086EE0E946528EF2819F088
:1047300081EE0E946528012B29F08CE20E942C1446
:1047400001C0EF01219666CFDF91CF911F910F91AC
:10475000FF90EF90DF90CF90BF90AF900895CF93F0
:10476000DF93EC01682F83E090E00E94FC2BBE01F8
:1047700080E090E0DF91CF910C9402148091C3040B
:10478000811112C08091D80080618093D8008AE1A5
:104790008A95F1F700C08091D90080FD02C082E0C7
:1047A00001C081E08093C30481E09091C304913003
:1047B00009F080E00895CF93DF93ACE6B1E041E7E4
:1047C00051E061E070E08D91E82FE295EF70F0E04C
:1047D00021A18F70EB0102C0CC0FDD1F8A95E2F79B
:1047E000CE019C2F9095922391A392A1892B82A315
:1047F0004A175B0741F7DF91CF9108959F92AF92DF
:10480000BF92CF92DF92EF92FF920F931F93CF93BD
:10481000DF9380911801811103C0C5E0D0E002C090
:10482000C0E0D0E0AE01465D5D4F7A018CE6C82E57
:1048300081E0D82E8A01AA24A394B12C25E0922EDF
:10484000F1E7CF16F1E0DF0609F44AC0F6018191E5
:104850006F01E82FE295EF70F0E021A18F70A501C4
:1048600002C0440F551F8A95E2F7CA01922F982B78
:1048700091A392A18095892382A350EA5A95F1F7DA
:10488000E9E5F1E020E040E050E03191A32FA2956E
:10489000AF70B0E090968C9190E03F7002C095951B
:1048A00087953A95E2F780FD07C0C501042E01C047
:1048B000880F0A94EAF702C080E090E0282B4F5F4F
:1048C0005F4F4730510509F7F8018081821719F0D1
:1048D0002083909230010E94DB230F5F1F4FB0CFE7
:1048E000809130018823B1F0815080933001811193
:1048F00003C0CB5CDD4F07C08FE99FE00197F1F764
:1049000000C0000007C0F70191917F0199938F5F6C
:104910008530C9F781E0DF91CF911F910F91FF9012
:10492000EF90DF90CF90BF90AF909F900895EF925F
:10493000FF920F931F93CF93DF930E94BE23882390
:1049400009F472C00E94FE2380911801811103C0F6
:10495000C5E0D0E002C0C0E0D0E0CB5CDD4F45E078
:1049600050E0BE0181E292E00E94C42C7C0185E00F
:10497000FE01A1E2B2E001900D928A95E1F78091EB
:104980001801811103C0C0E0D0E002C0C5E0D0E052
:104990009091320180913101981761F082E090E0AE
:1049A0000E94392A8C01892B39F48091310180933E
:1049B000320102C000E010E0EF2849F48091C00409
:1049C0009091C104892B19F480E090E002C081E04D
:1049D00090E00E94392A892B49F480912602809325
:1049E00031011092C1041092C00406C081E090E031
:1049F0009093C1048093C0040115110531F0023079
:104A0000110509F046C0289844C0289ADE01AB5C25
:104A1000BD4F85E0EBE1F2E001900D928A95E1F760
:104A20005D9A1092C2044FC00E94FE23809118012B
:104A3000811103C0E5E0F0E002C0E0E0F0E0EB5CF3
:104A4000FD4F80E020E030E0D901A55EBD4F4C91E4
:104A50009191491381E09C932F5F3F4F25303105A1
:104A600099F790912602890F809326028091180170
:104A7000811103C0A0E0B0E002C0A5E0B0E0AB5CF3
:104A8000BD4F85E0E1E2F2E001900D928A95E1F7F9
:104A90001AC05D988091C2048F5F8093C2048630F3
:104AA00090F080911801811103C0E0E0F0E002C0B5
:104AB000E5E0F0E0EB5CFD4F80E090E011920196C4
:104AC00085309105D9F781E0DF91CF911F910F914A
:104AD000FF90EF9008950F931F93CF93DF93CDB77F
:104AE000DEB72A970FB6F894DEBF0FBECDBF88EEB3
:104AF0009BE00E94D11E8091B1029091B202A091E0
:104B0000B302B091B40280319105A105B105C9F09D
:104B100058F40097A105B10589F00897A105B105E2
:104B2000C1F484ED9BE00FC080329105A105B10571
:104B300069F0C897A105B10549F00BC080EE9BE074
:104B400002C08AED9BE00E94D11E29C08DEC9BE043
:104B5000FACF86EC9BE00E94D11E8091B4028F9325
:104B60008091B3028F938091B2028F938091B102B2
:104B70008F9388E691E09F938F931F928AE08F93A3
:104B80008E010F5F1F4F1F930F930E94D12CC801FE
:104B90000E94DF1E0FB6F894DEBF0FBECDBF84ECBF
:104BA0009BE00E94D11E2A960FB6F894DEBF0FBE7E
:104BB000CDBFDF91CF911F910F9108958091730226
:104BC00080FF0AC0539A8BB1877F9BB198602FB743
:104BD000F894E8E7F2E00BC0E8E7F2E01182108217
:104BE0001282339632E0EA38F307C1F7EBCF32E0B6
:104BF000EA38F30789F0319148E09BB9000000C022
:104C000037FF8BB9330F000000C000C000C08BB964
:104C100000C04A9591F7EBCF2FBF8FE594E0019745
:104C2000F1F700C0000008959091730290FF0CC04E
:104C3000E8E7F2E0818360834283339692E0EA38CA
:104C4000F907C1F70C94DE2508958091730280FF67
:104C500002C08695089580E0089580917302282F00
:104C6000269530E02115310519F48170826005C068
:104C70002332310524F08170846480937302089597
:104C8000CF92DF92EF92FF926B017C010E942D2662
:104C9000B701A60188E090E0FF90EF90DF90CF9001
:104CA0000C940E2C80917702882319F08150809308
:104CB00077026091730270917402809175029091F5
:104CC00076020C94402680917702833018F48F5F2F
:104CD00080937702609173027091740280917502E3
:104CE000909176020C944026E3E7F2E083E0808323
:104CF00011828FEF8283838314826081718182812C
:104D000093810C944026AF92BF92CF92DF92EF92A4
:104D1000FF920F931F93CF93DF93E82EF62EE901B6
:104D2000E42FF0E0611106C0E056F34FE4914E2FFE
:104D30002E2F71C0062F10E0E056F34F4491F42F50
:104D4000C42ED12C26E0829FC00111242FEF30E029
:104D5000B9010E94CB2B5BEA5603C001579F900D0F
:104D600011248E0D911D8E0D911D582F550F580F2A
:104D7000D901A01BB10BAC9DC001AD9D900DBC9D98
:104D8000900D1124E92FF59ED0011124AB2FBB27E4
:104D90007901EA1AFB0AEC9CD001ED9CB00DFC9C59
:104DA000B00D11245901A51AB108A09E7001A19E51
:104DB000F00CB09EF00C1124EF2CFF242E193F09AB
:104DC0002C9D80012D9D100D3C9D100D1124212F37
:104DD0006230710591F048F461157105E1F06130C0
:104DE0007105B9F4242F4B2F16C06430710569F09A
:104DF00040F06630710579F00CC0242F492FE12F67
:104E00000AC0492FEF2F2B2F06C0292FE42F412F47
:104E100002C0292FEB2F49832883EA83DF91CF91AA
:104E20001F910F91FF90EF90DF90CF90BF90AF90C8
:104E30000895CF93DF9300D01F92CDB7DEB7909146
:104E4000730290FF0AC09E012F5F3F4F0E9483268E
:104E50004B8169818A810E9414260F900F900F90D8
:104E6000DF91CF9108955F926F927F928F929F9280
:104E7000AF92BF92CF92DF92EF92FF920F931F9368
:104E8000CF93DF9300D01F92CDB7DEB7182F762EC9
:104E9000042F622E9091730290FF6DC0E92FE6956A
:104EA000AE2FB0E0AA58BE4F8C918093CA049E7F6B
:104EB000923061F49E012F5F3F4F812F0E94832625
:104EC0004B8169818A810E94142643C0823019F483
:104ED000009176023EC0863019F41091740239C0F8
:104EE0008930D9F38931A9F5E9518E2F8170582E77
:104EF000E695F0E0E056F24FA590B49088E7C82E12
:104F000082E0D82EE12CF12CBB2496E0892E912C46
:104F1000AE9CC001AF9C900DBE9C900D1124B401BD
:104F20000E94CB2B812F511002C0860F01C0861B1F
:104F30009601402F672D0E9483268FEFE81AF80A0A
:104F400083E0C80ED11C86E0E816F10409F70E9440
:104F5000DE2510937402709275020093760266202B
:104F600051F060917302709174028091750290917A
:104F700076020E9440260F900F900F90DF91CF9104
:104F80001F910F91FF90EF90DF90CF90BF90AF9067
:104F90009F908F907F906F905F900895E3E7F2E08D
:104FA000438121E1421B08F440E021E062818181DC
:104FB0000C943327E3E7F2E0438121E1420F08F448
:104FC0004FEF21E0628181810C943327E3E7F2E027
:104FD000628121E1621B08F460E021E0438181816C
:104FE0000C943327E3E7F2E0628121E1620F08F4D9
:104FF0006FEF21E0438181810C943327E3E7F2E0F6
:10500000818121E0438162818A500C943327E3E758
:10501000F2E0818121E043816281865F0C94332735
:105020009091730290FF3DC09170811102C0926017
:1050300006C0833210F0946402C0880F982B9093BE
:105040007302662351F06091730270917402809133
:105050007502909176020E944026609173026695D7
:1050600070E04BE050E083E391E00E94B72C892B85
:1050700019F01092CB0409C081E08093CB040E9408
:10508000FD1C9093C5048093C40481E08093C70401
:1050900020E04091760260917502809174020C9438
:1050A00033270895809173028695815009F482E236
:1050B00061E00C9410288091730286958F5F833293
:1050C00008F081E061E00C941028882309F450C0B6
:1050D0009CEF980F913A60F4EEE9F1E09281891328
:1050E00001C01282319691E0E43AF907B9F70DC098
:1050F00090E2980F983058F4982F977081E001C093
:10510000880F9A95EAF70E9448100C944F109BE57F
:10511000980F9330A0F48091CC049091CD04892B0A
:1051200039F11092CD041092CC04E0919302F091E9
:1051300094023097E9F00680F781E02D16C0885A76
:105140008731B0F48091CE049091CF04892B81F007
:105150001092CF041092CE04E0919302F091940249
:10516000309731F00084F185E02D80E090E00994E3
:105170000895CF938823C9F19CEF980F913AF8F4E2
:10518000C82FE0EAF1E08191C81729F041E0E63A42
:10519000F407C9F70EC0EEE9F1E084EA91E022815C
:1051A000C21301C0128231968E179F07C1F70E9469
:1051B0004F106C2F8EE991E00E94321D13C090E2D7
:1051C000980F983090F4877021E030E0A90102C078
:1051D000440F551F8A95E2F7CA0190911502892B59
:1051E00080931502CF910C944F10CF9108958EE1CA
:1051F0004A9B02C08150E1F74A9BFECF08955A981E
:1052000080E28A95F1F75A9A0895FC012AE02A95DE
:10521000F1F790E020E080E031E0261779F040E1FE
:105220004A95F1F7880F4A9B02C08160932700C01E
:10523000000040E14A95F1F72F5FEFCF20E12A957A
:10524000F1F729B100C0000030E13A95F1F722FBF7
:10525000222720F992272081920F90830895EF92C0
:10526000FF920F931F93CF93DF931F92CDB7DEB7BB
:1052700019828C017C01E60EF11C0E151F0559F0F8
:105280000E94F72868E0CE0101960E940529F801E6
:1052900081938F01F2CF81E09981911180E00F908D
:1052A000DF91CF911F910F91FF90EF900895909310
:1052B000D2048093D1046093D004529A5A9A0895EC
:1052C0009093D2048093D1046093D00452985A9A58
:1052D000EA9AE9E6F0E080818F7C8083089561504E
:1052E00091E001C0990F6A95EAF720E031E0992337
:1052F00061F0492F482319F05A9A232701C05A9880
:1053000040E24A95F1F79695F2CF222311F05A9A8E
:1053100001C05A9880E28A95F1F75A980895FF9251
:105320000F931F93CF93DF93EC018C01060F111D98
:10533000C017D10741F0F9900E94FF2868E08F2D37
:105340000E946F29F5CFDF91CF911F910F91FF90B0
:1053500008951F920F920FB60F9211240F931F936F
:105360002F933F934F935F936F937F938F939F936D
:10537000AF93BF93EF93FF93CF93DF931F92CDB77C
:10538000DEB719820E94F72867E0CE0101960E94DD
:105390000529382F369536953695932F9695957025
:1053A000232F2570920F292F23709695969587703D
:1053B000920F891348C08981811145C08091D00422
:1053C000831708F440C080E18A95F1F75A9A529AFF
:1053D000A2E0AA95F1F700C00091D1041091D20487
:1053E000B8E03B9F000D111D11245A98F80165810A
:1053F000662321F0868197810E948F290E94FF28D1
:10540000F0E1FA95F1F75A9852985A9A80E18A9504
:10541000F1F7D80112966C911297662369F01396F2
:105420008D919C9114970E942F29D801ED91FC91A8
:10543000811105C082E004C0D801ED91FC9188E0A3
:1054400080830E94F7280F90DF91CF91FF91EF9119
:10545000BF91AF919F918F917F916F915F914F918C
:105460003F912F911F910F910F900FBE0F901F90A2
:1054700018950F931F93CF93DF932091D00430E0C2
:10548000281739070CF471C09C0193E0220F331FD9
:105490009A95E1F7C091D104D091D204C20FD31FE5
:1054A000F894529A5A9845E04A95F1F70000982FDF
:1054B000969595708570890F982F9370869586952F
:1054C000890F8901082B0E94FF2884E08A95F1F753
:1054D00000C067E0802F0E946F2940E14A95F1F7F4
:1054E00052985A9A4A9902C000C0FCCF87E090E0D7
:1054F0004A9B0EC0019751F4529A5A9AE881F98159
:1055000081E08083789481E090E031C000C0F0CFEA
:105510006D81662381F08E819F810E942F298111E8
:105520000AC0529A5A9AE881F98182E0808378947D
:1055300082E090E01CC00E94F72880E28A95F1F793
:105540005A98529A40E14A95F1F76A81662321F010
:105550008B819C810E948F290E94FF28E881F9811C
:105560001082789480E090E002C084E090E0DF91C7
:10557000CF911F910F9108951092B9008CE0809304
:10558000B80008959F92AF92BF92CF92DF92EF92B0
:10559000FF920F931F93CF93DF93B82EEB010E94DE
:1055A000FD1C6C01C431D10558F0CF3F8FEFD807F7
:1055B00059F0CE0164E170E00E94CB2B7B0107C063
:1055C000EE24E394F12C03C025E0E22EF12C84E8D4
:1055D000A82E94EA992E1092BC009092BC000E94D2
:1055E000FD1C8C018091BC0087FD08C00E94FD1C41
:1055F000801B910B8E159F05A8F32AC08091B900DE
:10560000887F883041F08091B900887F803119F01F
:105610000FEF1FEF1FC0B092BB00A092BC000E9412
:10562000FD1C8C018091BC0087FD08C00E94FD1C00
:10563000801B910B8E159F05A8F30AC08091B900BD
:10564000887F883111F0803419F700E010E00EC037
:105650000EEF1FEFCF3F8FEFD80709F4BCCFC60185
:105660000E94E21C8C179D0708F4B5CFC801DF919A
:10567000CF911F910F91FF90EF90DF90CF90BF904F
:10568000AF909F9008950F931F93CF93DF93EB01FB
:105690008093BB0084E88093BC000E94FD1C8C01B9
:1056A0008091BC0087FD0EC0CF3F8FEFD807C1F3BC
:1056B0000E94FD1C801B910B8C179D0788F38EEFB9
:1056C0009FEF0CC02091B900287F81E090E0283244
:1056D00011F480E090E0919581959109DF91CF914F
:1056E0001F910F910895CF92DF92EF92FF920F9347
:1056F0001F93CF93DF936B018A017901B9010E9457
:10570000C22AE6010C0D1D1DC017D10761F424E962
:105710002093BC00DF91CF911F910F91FF90EF90EC
:10572000DF90CF90089597FDF2CFB70189910E9445
:10573000432BEACFCF92DF92EF92FF920F931F930A
:10574000CF93DF93C62F6A017901B8010E94C22A64
:1057500097FD11C0B8018C2F0E94432BE601EC0C81
:10576000FD1CCE15DF0539F097FD05C0B801899104
:105770000E94432BF6CF24E92093BC00DF91CF9108
:105780001F910F91FF90EF90DF90CF90089584E9E3
:105790008093BC000895AA1BBB1B51E107C0AA1F40
:1057A000BB1FA617B70710F0A61BB70B881F991FC2
:1057B0005A95A9F780959095BC01CD010895FB01FC
:1057C000DC0102C005900D9241505040D8F7089579
:1057D000F999FECF92BD81BDF89A992780B50895B9
:1057E000A6E1B0E044E050E00C94222CA8E1B0E047
:1057F00042E050E00C94222C262FF999FECF92BD66
:1058000081BDF89A019700B4021639F01FBA20BD85
:105810000FB6F894FA9AF99A0FBE08950396272FB7
:105820000E94FD2B0E94FC2B252F0E94FD2B242F74
:105830000C94FD2B0196272F0E94FD2B0C94FC2B22
:10584000DC01CB01FC01F999FECF06C0F2BDE1BD40
:10585000F89A319600B40D9241505040B8F708952F
:10586000991B79E004C0991F961708F0961B881FB2
:105870007A95C9F78095089587FB082E062687FD3F
:10588000819567FD61950E94302C0EF4919507FC7F
:105890008195089597FB072E16F4009407D077FDA5
:1058A00009D00E94CB2B07FC05D03EF49095819542
:1058B0009F4F0895709561957F4F0895A1E21A2E2C
:1058C000AA1BBB1BFD010DC0AA1FBB1FEE1FFF1FA4
:1058D000A217B307E407F50720F0A21BB30BE40BF4
:1058E000F50B661F771F881F991F1A9469F760953B
:1058F0007095809590959B01AC01BD01CF010895F5
:10590000EE0FFF1F0590F491E02D09940E948E2C5C
:10591000332312F48A1B9B0B0C949F2CA29FB00183
:10592000B39FC001A39F700D811D1124911DB29FD3
:10593000700D811D1124911D08950E948E2CB7FFBA
:105940000895821B930B08950E948E2CA59F900DA5
:10595000B49F900DA49F800D911D11240895B7FF51
:105960000C94A42C0E94A42C821B930B0895FC0180
:105970004150504030F001900616D1F73197CF01D9
:105980000895882799270895FB01DC0104C08D91B3
:105990000190801921F441505040C8F7881B990BA1
:1059A0000895AEE0B0E0E7EDFCE20C94A02F0D8985
:1059B0001E898F89988D26E02C831A83098397FF8F
:1059C00002C080E090E801979E838D83AE01455E22
:1059D0005F4F698D7A8DCE0101960E94012D4D8118
:1059E0005E8157FD0AC02F813885421753070CF49A
:1059F0009A01F801E20FF31F10822E96E4E00C9456
:105A0000BC2FABE0B0E0E7E0FDE20C94922F6C011C
:105A10007B018A01FC0117821682838181FFCCC140
:105A2000CE0101963C01F6019381F70193FD85912A
:105A300093FF81917F01882309F4BAC1853239F43B
:105A400093FD859193FF81917F01853229F4B60101
:105A500090E00E94F82EE7CF912C212C312CFFE111
:105A6000F315D8F08B3279F038F4803279F0833244
:105A7000A1F4232D20611DC08D3261F0803369F4C3
:105A8000232D216016C0832D8260382EE32DE46023
:105A90003E2E2AC0F32DF8601DC037FC2DC020ED2E
:105AA000280F2A3040F08E32B9F436FC81C1232D04
:105AB0002064322E19C036FE06C08AE0989E200D62
:105AC0001124922E11C0EAE02E9E200D1124222EC8
:105AD000F32DF0623F2E08C08C3621F4832D8068B0
