:100000000C948F020C94D6020C94D6020C947412A9
:100010000C94D6020C94D6020C94D6020C94D60200
:100020000C94D6020C94D6020C9435240C9407251B
:100030000C94CB1F0C94D6020C94D6020C94D602CE
:100040000C94D6020C94D6020C94D6020C94D602D0
:100050000C94D6020C9418200C94D6020C94D60260
:100060000C94D6020C94D6020C94D6020C94D602B0
:100070000C94D6020C94D6020C94D6020C94D602A0
:100080000C94D6020C94D6020C94D6020C94D60290
:100090000C94D6020C94D6020C94D6020C94D60280
:1000A0000C94D6020C94D6020C94D602190F1C0F95
:1000B000210F280F2D0F320F370F3C0F410F460F26
:1000C0004B0F500F520F550F580F5B0F5E0F610F04
:1000D000630F680FF715F715291629168C178C175B
:1000E0008C178C1776160B171C171C177C178C1780
:1000F0008C17851715181518271827181E18271874
:100100002718271815181518231827182718231823
:1001100074259B2593269B259326E7250A2693265F
:100120006126702635001E001F00200021002200DD
:10013000000000002B0014001A0008001500170032
:1001400000000000390004001600070009000A0042
:1001500000000000E1001D001B0006001900050062
:10016000000000004C00E2003504E3002A0000001B
:1001700000000000230024002500260027002D0099
:100180002E002A001C0018000C00120013002F0083
:10019000300031000B000D000E000F003300340062
:1001A0000000280011001000360037003800E5007C
:1001B000520001512C0028000000290000005000CE
:1001C00051004F0029003A003B003C003D003E003A
:1001D00000000000C25C0000C55CC75CC95C000098
:1001E000000000000000C35CC65CC85CCA5C000084
:1001F00000000000010000000000000000000000FE
:1002000000000000000001000100010000000000EB
:10021000000000003F004000410042004300440055
:1002200045004C000000000000000000000000003D
:1002300000000000000000000000000000000000BE
:1002400000000000000000000000000000000100AD
:100250004B000100000000000000000000004A0008
:100260004E004D0032190A00047F3F1F64321464AF
:100270003214783C1E1E140A052223252628292A1A
:100280002C2D2F3032333536383A3B3D3E404243F9
:100290004547494A4C4E5051535557595A5C5E6038
:1002A00062646668696B6D6F71737577797B7D7F4A
:1002B00081838587898A8C8E90929496989A9C9E49
:1002C0009FA1A3A5A7A8AAACAEAFB1B3B4B6B8B965
:1002D000BBBCBEBFC1C2C3C5C6C7C9CACBCCCDCECD
:1002E000D0D1D2D2D3D4D5D6D7D7D8D9D9DADADBB0
:1002F000DBDBDCDCDCDCDCDDDDDDDDDCDCDCDCDC3C
:10030000DBDBDBDADAD9D9D8D7D7D6D5D4D3D2D27A
:10031000D1D0CECDCCCBCAC9C7C6C5C3C2C1BFBE62
:10032000BCBBB9B8B6B4B3B1AFAEACAAA8A7A5A3CD
:10033000A19F9E9C9A98969492908E8C8A8987858C
:1003400083817F7D7B79777573716F6D6B6968666B
:100350006462605E5C5A5957555351504E4C4A493D
:1003600047454342403E3D3B3A3836353332302FE5
:100370002D2C2A292826252322FFAA7F554000015B
:100380000101010101010101020202020202020255
:100390000203030303030303030404040404040427
:1003A00005050505050606060606070707070708EB
:1003B000080808090909090A0A0A0B0B0B0C0C0C9E
:1003C0000D0D0D0E0E0E0F0F0F1010111111121238
:1003D00013131414151516161717181819191A1AB5
:1003E0001B1B1C1D1D1E1E1F202021222223242416
:1003F000252626272829292A2B2C2D2D2E2F303152
:100400003232333435363738393A3B3C3D3E3F4063
:100410004142434445464748494A4C4D4E4F50514E
:100420005354555658595A5B5D5E5F616264656608
:1004300068696B6C6D6F7072737577787A7B7D7E8F
:100440008082838587888A8C8E8F91939596989ADF
:100450009C9EA0A2A3A5A7A9ABADAFB1B3B5B7BAF7
:10046000BCBEC0C2C4C6C9CBCDCFD1D4D6D8DBDDCB
:10047000DFE2E4E7E9EBEEF0F3F5F8FAFDFF040361
:10048000300000000E034D0069006E00740036005D
:1004900030000000100345007500630061006C002F
:1004A00079006E0000000403090409022200010122
:1004B00000A0FA0904000001030101000921110153
:1004C00000012240000705810308000A1201100103
:1004D00000000008EDFE000001000102030105011B
:1004E0000906A101050719E029E71500250195086E
:1004F000750181029501750881010507190029FF21
:10050000150026FF009506750881000508190129C8
:1005100005950575019102950175039101C011249E
:100520001FBECFEFDAE0DEBFCDBF04B603FE27C0AB
:100530008091A9029091AA02A091AB02B091AC0265
:100540008730904BA740B04BD1F41092A902109283
:10055000AA021092AB021092AC0214BE84B7877F3D
:1005600084BF0FB6F894A89580916000886180934D
:100570006000109260000FBEE0E0F8E3099511E022
:10058000A0E0B1E0EEE2F0E502C005900D92A237E6
:10059000B107D9F722E0A2E7B1E001C01D92A93A64
:1005A000B207E1F70E9477210C9415280C94000003
:1005B00081E0089581E008950C94DA0208950C9486
:1005C000DE021F93CF93DF9300D000D01F92CDB7F0
:1005D000DEB749835A836B833091D60189819A8132
:1005E000311114C0662359F0222349F00E944E1D98
:1005F000182F682F89819A810E94F71C03C00E94DE
:10060000221D182F69817A81812F04C00E944E1DFE
:1006100069817A810F900F900F900F900F90DF916A
:10062000CF911F910C949903FC01262F4081518199
:100630006281738184810C94E102CF93DF93EC019A
:1006400060E00E941403BE01DF91CF910C94DF02A1
:100650000E94801E811102C00E94201F0C949B05E5
:100660000C94970508950C94320381E008950C943E
:100670003503CF93C82F0E9433038C2F0E9437037A
:10068000CF91089508950E9403180E9442032FEF0E
:1006900084E39CE0215080409040E1F700C00000DE
:1006A0000C943E200F931F93CF93DF93EC0161E0F6
:1006B0000E9414038C01BE010E94DC02882379F1A0
:1006C000BE01C8010E942510882349F1BE01C8015E
:1006D0000E946610882319F1BE01C8010E94911181
:1006E0008823E9F0BE01C8010E94030F8823B9F0F6
:1006F0008A81882369F001158CE5180731F00E3DD9
:100700001C4531F40E94201F0AC00E94430307C009
:10071000CE01DF91CF911F910F910C94D80280E010
:10072000DF91CF911F910F91089580E090E008959F
:100730000895E72FF0E09AE0899FE00DF11D112464
:1007400083E0EE0FFF1F8A95E1F7E60FF11DEE0F34
:10075000FF1FEC5DFE4F859194910895880F991FBE
:10076000FC01EC59FD4F859194910895CF93DF934F
:100770000E9499030E94B204EC01811521E59207C1
:10078000A0F5811540E5940708F086C0C11580E208
:10079000D807F0F4C11521E0D20708F0DFC0C03E51
:1007A000D10588F4C03CD10508F062C0C130D10544
:1007B00009F4D4C008F4D0C0CE010497813A910561
:1007C00008F4CCC0C9C0C83ED10508F4C7C0C4C035
:1007D000C11540E4D40708F05CC0C11580E3D80718
:1007E00008F04DC0CE019F7046C0811525E59207E7
:1007F000A0F4811544E5940708F095C0C11583E580
:10080000D80708F07AC0C11522E5D20708F05FC00A
:10081000DC2FCC27C16FD06AA1C0811549E59407B0
:10082000A0F4C11588E5D80708F082C0C11526E5F7
:10083000D20708F091C08C2F0E9446058F71C82FF7
:10084000D0E0DC2FCC27D06289C081154AE594071F
:1008500008F473C090568115904208F07DC08D2F2A
:100860008F710E944605DD27D0628F71D82B76C02C
:10087000CE01805C91090E94AE03EC016FC0CE01F5
:100880009927D3FF03C0EC01D86C68C0EC01D06C91
:1008900065C0DF70D06A62C074E0969587957A95DE
:1008A000E1F783709C2F937021E030E002C0220FAB
:1008B000331F9A95E2F73C68382BCF70C695C695E2
:1008C00040E2C49FE0011124C22BD32B47C0CE01CC
:1008D0008370992721E030E002C0220F331F8A95F0
:1008E000E2F78C2F8695869540E2849FC001112403
:1008F000E901C82BD92BDC6831C0CE018370992760
:1009000021E030E002C0220F331F8A95E2F78C2FDE
:100910008695869540E2849FC0011124E901C82B89
:10092000D92BDA681BC0D82FCC27C46FD06A16C069
:10093000DC2FCC27C06FD06A11C08F700E94460593
:1009400094E0D695C7959A95E1F7CF70D0E0DC2F6B
:10095000CC27D069C82B02C0C0E0D0E0CE01DF9127
:10096000CF9108958238910569F1B0F481339105F2
:1009700009F46DC048F48932910509F463C08A32E4
:10098000910509F469C008958533910509F455C0AE
:1009900089339105B9F00895833E910569F138F4E2
:1009A000803E9105B1F0823E910509F10895863EA1
:1009B0009105A9F1873E9105B9F1843E910509F0B1
:1009C00064C023C020919A0220FD4FC021FD4DC07C
:1009D000089580919A0280FD44C080919B0280FF1F
:1009E00044C080919A0284FD42C083EE4DC0809144
:1009F0009A0282FF38C0F5CF80919A0282FD33C0FF
:100A000080919B0280FD31C0ECCF80919B0281FFE1
:100A100032C080919A0284FD2AC087EE35C0809151
:100A20009A0283FF26C0F5CF80919A0283FD21C0F0
:100A300080919B0281FD1FC0ECCF80919A0285FDC1
:100A40001CC01DC080919A0285FD19C016C08091FE
:100A50009A0286FD16C017C080919A0286FD13C0C7
:100A600010C089E311C082EE0FC080EE0DC080E09F
:100A70000BC086EE09C084EE07C089E205C085E39D
:100A800003C08AE201C081E390E0089590919A0248
:100A900092FF0DC0282F2871283019F4877F8460B9
:100AA00006C0282F2471243011F48B7F886093FFB7
:100AB0000DC0282F2871283119F4877E846106C063
:100AC000282F2471243111F48B7E886120919B02A0
:100AD00020FF0DC0382F3871383019F4877F8160BE
:100AE00006C0382F3171313011F48E7F886021FFBC
:100AF0000DC0282F2871283119F4877E816106C026
:100B0000282F2171213111F48E7E886194FD877E1A
:100B10000895E82FF0E0E359FD4F8081089508958E
:100B200080EA8A95F1F7089508950C9494050C9441
:100B300095050C9494050C9499050895CF93DF9333
:100B40000E940E078091040180910401811102C06E
:100B500095E001C090E09093780285E0891B809336
:100B60007702ACE3B1E041E451E061E070E08D91E7
:100B7000E82FE295EF70F0E021A18F70EB0102C049
:100B8000CC0FDD1F8A95E2F7CE019C2F9095922322
:100B900091A392A1892B82A34A175B0741F7A4E393
:100BA000B1E04CE351E061E070E08D91E82FE29517
:100BB000EF70F0E021A18F70EB0102C0CC0FDD1FC0
:100BC0008A95E2F7CE019C2F9095922391A392A152
:100BD000892B82A34A175B0741F7E3E6F2E0ADE613
:100BE000B2E08DE692E011921D928E179F07D9F721
:100BF00085E00E94B8060E942803DF91CF910C94F3
:100C000018070E94EF06882309F18091770290E08F
:100C100083599D4F0E944807811114C08091720131
:100C20008F5F80937201863078F0E0917702F0E078
:100C3000E359FD4F80E090E01192019685309105D7
:100C4000D9F702C0109272010C943003809178029F
:100C500090E083599D4F0E9467070C949D056F9209
:100C60007F928F929F92AF92BF92CF92DF92EF923C
:100C7000FF920F931F93CF93DF938CE3882E81E035
:100C8000982E03E612E098E6A92E92E0B92E712C78
:100C9000CC24C394D12CF40181914F01C82FC2956B
:100CA000CF70D0E099A18F70760101C0EE0C8A95CB
:100CB000EAF7892F8E2989A38AA16E2C6094862158
:100CC0008AA30E949005E4E3F1E040E050E020E0D8
:100CD0003191A32FA295AF70B0E090968C9190E0E7
:100CE0003F7002C0959587953A95E2F780FD07C061
:100CF0008C2D042E01C0880F0A94EAF701C080E011
:100D0000282B4F5F5F4F4830510511F789A16822AA
:100D100069A28AA1E82AEAA2F8018081281719F0BD
:100D2000208381E001C080E0782A0F5F1F4FA0166A
:100D3000B10609F0B0CF6091780270E063597D4F41
:100D4000272D45E083E692E00E94B9060E94010645
:100D5000872DDF91CF911F910F91FF90EF90DF9042
:100D6000CF90BF90AF909F908F907F906F9008959D
:100D70000895FF920F931F93CF93DF938C01F62E6C
:100D8000D72FC42F222349F081E0809375010E9460
:100D9000FD1F9093740180937301809175018823E6
:100DA000C1F080917301909174010E94092006970F
:100DB00080F0EF2DFD2FD8014C2F50E0CD01801B8E
:100DC000910B841795071CF48D918193F7CF1092A6
:100DD0007501DF91CF911F910F91FF900895809140
:100DE0007601811112C08091D80080618093D80073
:100DF0008AE18A95F1F700C08091D90080FD02C098
:100E000082E001C081E08093760181E090917601DB
:100E1000913009F080E008950C94EF060E940C07D1
:100E2000809304010E94EF0681110C941F0708951E
:100E30000E94EF06811102C00C942507089562E01C
:100E400070E085E091E00C94221262E070E085E0B1
:100E500091E00C942B120E94CA0C882361F08EE75B
:100E600091E00E94D00C81E090E00E940413892B55
:100E700011F40C94CD0C089580917D01883039F4E3
:100E800060E08EE791E00E94A80D10927D01089528
:100E9000CF93DF93D82FC92F0E942B0780E090E0DB
:100EA0000E940413892B79F4ED2FFC2F80E090E051
:100EB000DC01A858BE4F2C912193019685309105F5
:100EC000B9F781E001C080E0DF91CF910895CF9321
:100ED000DF93D82FC92F0E943C07ED2FFC2F80E015
:100EE00090E02191DC01A858BE4F2C9301968530EB
:100EF0009105B9F7DF91CF910895EF92FF920F938B
:100F00001F93CF93DF93F62E472FE82FF0E0711158
:100F100006C0E258FC4F6491762F862F72C0272FAF
:100F200030E0E258FC4FE4910E2F10E056E0659F50
:100F3000C0011124CFEFD0E0BE010E94D3265BEAAE
:100F40005603C001579F900D11248F0D911D8F0DD9
:100F5000911D982F990F890F7E01E21AF30AE09EE6
:100F6000D001E19EB00DF09EB00D1124489FA0016C
:100F70001124452F55277E01E41AF50AE09EA001B1
:100F8000E19E500DF09E500D11247E01E81AF108EB
:100F9000E29EC001E39E900DF29E900D1124892FD8
:100FA0009927C81BD90BC09FC001C19F900DD09F2E
:100FB000900D11246230710591F048F461157105AE
:100FC000E1F061307105A9F48B2F752F19C06430E1
:100FD000710561F038F06630710579F00AC0892F2B
:100FE0007B2F0EC08E2F7B2FE52F0AC08E2F792FDF
:100FF00002C0852F7E2FEB2F03C08B2F7E2FE92F72
:101000006E2FDF91CF911F910F91FF90EF90089578
:101010000895CF93DF93762FE901682F842F0E94E4
:101020007D07798368838A83DF91CF9108958091CA
:101030007902282F269530E02115310519F48170A9
:10104000826005C02B32310524F081708465809365
:101050007902089588E090E00C947227CF92DF9295
:10106000EF92FF926B017C010E941708B701A60165
:1010700088E090E0FF90EF90DF90CF900C94902765
:10108000E9E7F2E083E0808311828FEF828383833C
:101090001482ABEBB1E012968C911297836012969A
:1010A0008C9360817181828193810C942E08809150
:1010B000790280FF02C08695089580E008958091AE
:1010C0007D02833018F48F5F80937D0260917902F6
:1010D00070917A0280917B0290917C020C942E0890
:1010E00080917D02882319F0815080937D02609168
:1010F000790270917A0280917B0290917C020C942B
:101100002E0870E00C94AE0F609118018091790266
:1011100080FF0AC08091170123E0829FC001112443
:1011200082589D4F0C9481088091190190911A0169
:10113000891780F7E82FF0E09F01220F331FE20F9D
:10114000F31FE258FD4F1182108212828F5FF0CFA1
:101150009091790290FF16C09091190120911A0187
:10116000921770F4E92FF0E0DF01AA0FBB1FEA0F1E
:10117000FB1FE258FD4F8183608342839F5FF0CF66
:101180000C9484080895CF93DF9300D01F92CDB7BD
:10119000DEB79091790290FF0AC09E012F5F3F4F0A
:1011A0000E9409084B8169818A810E94A8080F90DA
:1011B0000F900F90DF91CF910895CF93DF93EC01C3
:1011C000EC81F0E0E758FD4F4491E9E7F2E06281FD
:1011D00081810E94C3088C818F5F8C83DF91CF91C6
:1011E0000895CF93DF93EC01E9E7F2E04381628158
:1011F0008C810E94C3088C818F5F8C83DF91CF919B
:1012000008950F931F93CF93DF9300D01F92CDB714
:10121000DEB78C018091860181110AC09E012F5F8B
:101220003F4F4FEF6FEF0E9409088A81809386013C
:10123000F8018481813051F028F0823061F44091CE
:1012400086010AC08091860140E007C06091860156
:1012500040E080E003C040E080E060E00E94A80839
:10126000F801848190E0019663E070E00E94E72637
:1012700084830F900F900F90DF91CF911F910F916A
:101280000895AF92BF92CF92DF92EF92FF920F93A9
:101290001F93CF93DF9300D01F92CDB7DEB7182FE7
:1012A000F62E042FE22E9091790290FF7EC0E92F56
:1012B000E695AE2FB0E0AA5BBE4F8C918093BB0148
:1012C0009E7F923061F49E012F5F3F4F812F0E94DD
:1012D00009084B8169818A810E94A80843C0823035
:1012E00019F400917C023EC0863019F410917A0204
:1012F00039C08930D9F38931A9F5E9518E2F817030
:10130000D82EE695F0E0E758FC4FA590B490C12C9C
:10131000BB2460911B01C61618F52C2D30E0A29E4F
:10132000C001A39E900DB29E900D112470E00E940A
:10133000D326812FD11002C0860F01C0861B909149
:101340001901290F311DA901440F551F240F351F05
:1013500022583D4F402F6F2D0E940908C394D9CFCA
:101360000E94840880917A02181308C080917B0241
:10137000F81204C080917C02081729F08091BD0109
:1013800082608093BD0110937A02F0927B020093F9
:101390007C02EE2051F06091790270917A02809186
:1013A0007B0290917C020E942E080F900F900F906C
:1013B000DF91CF911F910F91FF90EF90DF90CF9031
:1013C000BF90AF900895E9E7F2E09181282F438123
:1013D00062818AE0890F0C94410981E00C94E30951
:1013E000E9E7F2E09181282F4381628186EF890F3E
:1013F0000C94410981E00C94F009E9E7F2E0628184
:1014000021E1620F08F46FEF282F438181810C9452
:10141000410981E00C94FD09E9E7F2E0628121E1F4
:10142000621B08F460E0282F438181810C944109FC
:1014300081E00C940C0AE9E7F2E0438121E1420FDC
:1014400008F44FEF282F628181810C94410981E0DB
:101450000C941B0AE9E7F2E0438121E1421B08F406
:1014600040E0282F628181810C94410981E00C9435
:101470002A0A20E00C944109FF920F931F93CF9307
:10148000DF93EC01F12C0FEF10E060911B01F616D9
:10149000F0F4809119012F2D30E0280F311DC90182
:1014A000880F991F280F391F22583D4F70E0C8013F
:1014B0000E94E726962F8C8140917C0260917B02EE
:1014C000F99E800D11240E940908F394DECF0E943A
:1014D00084089A818C8190FF02C08F5F01C0815087
:1014E0008C83DF91CF911F910F91FF9008959F9270
:1014F000AF92BF92CF92DF92EF92FF920F931F9322
:10150000CF93DF93EC018A8180FF03C0BB24BA94A0
:1015100002C0BB24B3948C8181110DC081E0B8124C
:1015200006C080911B0181508093880102C01092F7
:10153000880181E08C83A12C80911B01A81608F002
:1015400041C080911901CA2CD12C8601080F111DB0
:10155000C801880F991F080F191F02581D4FF80165
:1015600011821082128234E0E32EF12C912C8091B2
:101570008801890D893014F0877005C087FF03C08A
:1015800090911B01890F082E000C990BC816D906E3
:1015900091F480917C028E9DA0018F9D500D1124AD
:1015A0005595479555954795980160917B02809197
:1015B0007A020E9409089B0CF1E0EF1AF108B9F6D3
:1015C000A394BACF0E9484088091880191E0B91257
:1015D0000EC0811107C080911B018150809388014A
:1015E0001C820FC0815080938801BC820AC090E0A9
:1015F000019660911B0170E00E94E72680938801AC
:101600008C83DF91CF911F910F91FF90EF90DF902E
:10161000CF90BF90AF909F9008951F93CF93DF938B
:10162000EC018C81811109C081E08C8310928701CB
:1016300092E0909316018093150180911901909189
:101640001A01891770F4E82FF0E09F01220F331F71
:10165000E20FF31FE258FD4F1182108212828F5F5A
:10166000F0CF10E060911B011617C0F5E12FF0E0FC
:1016700070E0CF010E94E72620911901820F20918E
:101680008701022E000C330B90E0E217F307CCF039
:1016900020911601022E000C330B2E173F078CF001
:1016A0009C01220F331F820F931F9C0122583D4F34
:1016B00040917C0260917B0280917A020E9409082D
:1016C0000BC0FC01EE0FFF1F8E0F9F1FFC01E258A5
:1016D000FD4F1182108212821F5FC4CF0E948408C6
:1016E0008091150120918701280F20938701909107
:1016F0001601980F9093160119165CF4022E000C37
:10170000330B40911B0150E041505109241735071C
:1017100034F0819580931501813009F41C82DF91AA
:10172000CF911F9108950F931F93CF93DF938C0157
:10173000FC0184819581019681709927958384832A
:10174000C0E0D5E580911B01C81700F58091190113
:101750002C2F30E0280F311DC901880F991F280F49
:10176000391F22583D4F4C2F4695F80184819581B1
:10177000840F911D817040917C0260917B028D9F4E
:10178000802D11240E940908CF5FDCCFDF91CF911B
:101790001F910F910C9484080F931F93CF93DF93A5
:1017A000EC0100E010E080911B01282F30E00217CF
:1017B000130724F5909119019801290F311DA901F2
:1017C000440F551F240F351F22583D4F869590E03A
:1017D0004C81081719071CF4442331F002C0411151
:1017E00003C040917C0201C040E060917B02809187
:1017F0007A020E9409080F5F1F4FD5CF0E9484080C
:101800008C8190E00196817099278C83DF91CF9134
:101810001F910F9108958F929F92AF92BF92CF9296
:10182000DF92EF92FF920F931F93CF93DF93FC0110
:10183000B280948081E0848300E015E05BE4A52E13
:1018400088248394EE24EA94F12C7BE4C72ED12CD7
:1018500080911B01081708F08FC0C02FD0E01C9F9B
:10186000F0011D9FF00D1124E457FE4F911003C0AD
:101870001382128267C02381222389F1215023839E
:101880003481332319F09A2D921B01C0922F80913D
:101890007C021C9FF0011D9FF00D1124E457FE4FA8
:1018A000899FC0011124B6010E94D32662832111B1
:1018B00004C0332311F01482A38222E02B1508F414
:1018C00041C01C9FF0011D9FF00D1124E457FE4FF5
:1018D00080917A02808380917B02818333C00E9451
:1018E0004D278230914074F582E08B1530F40E94D0
:1018F0004D27B7010E94E72602C080917A021C9F03
:10190000F0011D9FF00D1124E457FE4F808322E06B
:101910002B1558F40E944D2720917B022695622FAB
:1019200070E00E94E726820F02C080917B021C9F1C
:10193000F0011D9FF00D1124E457FE4F81831282A8
:10194000A3828482809119019E01280F311DC90153
:10195000880F991F280F391F22583D4F1C9FF001F7
:101960001D9FF00D1124E457FE4F4281618180815B
:101970000E9409080F5F6CCFDF91CF911F910F91EB
:10198000FF90EF90DF90CF90BF90AF909F908F909F
:101990000C9484088091BD0108951092BD010895B2
:1019A00025E0E9E7F2E0DC0101900D922A95E1F7EC
:1019B0002091BB013091BC014091BD01FC01258308
:1019C00036834783089560917902669570E04BE015
:1019D00050E08CE191E00E945D27892B19F481E0B1
:1019E0008093BC010E94FD1F9093B5018093B401C8
:1019F0008091BD0184608093BD010895EBEBF1E01F
:101A0000118282818460828308959091790290FF8F
:101A10003AC09170811102C0926006C08B3210F002
:101A2000946502C0880F982B909379028091BD0134
:101A300081608093BD01662351F0609179027091BD
:101A40007A0280917B0290917C020E942E08609124
:101A50007902669570E04BE050E08CE191E00E94E5
:101A60005D27892B19F00E94FE0C02C00E94E30C36
:101A700081E08093B70140917C0260917B0280916C
:101A80007A020C94390A0895682F909179029695FC
:101A900081E0890F8B3208F081E00C94050D81E024
:101AA0000C94440D682F9091790296958FEF890FD1
:101AB00009F48AE20C94050D81E00C94520D61E06A
:101AC0000C94050DE9E7F2E08081816080838695C2
:101AD0000C945F0D60E00C94050DE9E7F2E0808165
:101AE0008E7F808360817181828193810E942E0824
:101AF0000E94FE0CEBEBF1E08281816082832FEF8C
:101B000080E792E0215080409040E1F700C0000063
:101B10000C9484088091790280FD0C946D0D0C94D6
:101B2000620DE9E7F2E080818E7F80830E94FE0CE7
:101B3000EBEBF1E08281816082832FEF80E792E01E
:101B4000215080409040E1F700C000000C948408D0
:101B50001F93CF93DF93EC01162F8F8180FF0FC06F
:101B6000888180FF0AC08091790281608093790228
:101B7000888186950E94050D02C00E94910D8F817B
:101B800081FF06C0212F4B816A8189810E94410912
:101B90008F8182FF08C08E81882319F00E94E30C98
:101BA00002C00E94FE0C8F8183FF03C081E08093FE
:101BB000B701DF91CF911F9108958091BA018111F2
:101BC00033C00E94801E811104C00E94201F0E9409
:101BD00040080E942A086093790270937A028093E9
:101BE0007B0290937C028091BD0183608093BD0154
:101BF0006E7F61F40E9440080E942A086093790277
:101C000070937A0280937B0290937C020E94170863
:101C10000E94FE0C8091790280FF03C086950E948D
:101C20006A0D81E08093BA010895EF92FF920F93BD
:101C30001F93CF93DF938091BC01882309F4C1C027
:101C40008091BB01E0917902E695E81BE093B60133
:101C5000823049F4F0E0EB58FD4FE491CE2FD0E014
:101C60000DED18E059C0863049F4F0E0EE58FD4F14
:101C7000E491CE2FD0E001EF18E04EC0893051F44E
:101C8000E695F0E0E159FD4FE491CE2FD0E00CE372
:101C90001AE042C08F3051F4E695F0E0E459FD4F70
:101CA000E491CE2FD0E007E71AE036C0853149F441
:101CB000F0E0E759FD4FE491CE2FD0E00DE01BE0BE
:101CC0002BC08831D9F0833239F4E7E6F2E0C591D0
:101CD000D49101E019E020C08432A9F08532C1F42A
:101CE0008E2F63E00E94C726E92FF0E0EC59FD4FEC
:101CF000E491CE2FD0E00BE01CE00EC0C8EED3E0A4
:101D000003E91BE009C0C4EFD1E00CEC1BE004C008
:101D1000C0EDD7E008E018E08091B701882389F092
:101D20001092B7010E94FD1F9E0120953095820FF1
:101D3000931F9093B5018093B4011092B901109252
:101D4000B8018091B4019091B5010E9409208C17CF
:101D50009D07B8F180918B018823B1F010928B011F
:101D60008091890190918A010E94092080339547D2
:101D700058F00E94FD1F90938A0180938901809101
:101D8000BD0188608093BD01E090B801F090B90179
:101D9000E091B401F091B501CE0FDF1FD093B501F2
:101DA000C093B40184EB91E0F80109958091B801EA
:101DB0009091B901892B29F4EF2819F081E08093E3
:101DC0008B01DF91CF911F910F91FF90EF900895BC
:101DD000882311F0FA0101C0FB010994CF93DF932E
:101DE000C82FD62F0E9457088C1740F00E94570822
:101DF0008D1720F4DF91CF910C944F0D8C2FDF9134
:101E0000CF910C945F0D1F93CF93DF93FB01128151
:101E1000111163C0EC010E94CF1D8272FE01E25CD1
:101E2000FC45E431F10508F057C0EA5AFF4F0C9425
:101E3000FB260E948A0D51C04CE55DE06FE47DE019
:101E400004C04FE45DE06CE57DE00E94E80E45C013
:101E50004AEF59E06DEE79E0F8CF4DEE59E06AEFC8
:101E600079E0F3CF48E15AE069E07AE0EECF49E06B
:101E70005AE068E17AE0E9CF46E35AE067E27AE0C7
:101E8000E4CF47E25AE066E37AE0DFCF40E758E08C
:101E90006FE578E0DACF4FE558E060E778E0D5CF3E
:101EA00081E017C065E082E010C068E086E00DC008
:101EB0006EE089E00AC064E18FE007C067E185E178
:101EC00004C088E106C062E289E10E94EE0E05C00E
:101ED00083E20E945F0D01C011E0812FDF91CF915D
:101EE0001F9108955AB1E42FEF7021E030E001C056
:101EF000220FEA95EAF7352F322B3AB942954F7007
:101F0000E42FF0E032A1422F4095342342A1242B4C
:101F10004FB7F894FC01CB01880F991F680F791F08
:101F20006E0F7F1FE617F70789F0819198E02BB9B4
:101F3000000000C087FF3BB9880F000000C000C050
:101F400000C03BB900C09A9591F7ECCF4FBF87EC2A
:101F500090E00197F1F700C00000089543E90C9468
:101F6000720F0F931F93CF93DF93C62FD42F122F8F
:101F7000FC0182818823C9F06093C0010E94FD1F8B
:101F80009093BF018093BE0180E28C0F883008F0EF
:101F900057C0C77081E001C0880FCA95EAF7DF918A
:101FA000CF911F910F910C94B7158091C0016813C8
:101FB00030C08091BE019091BF010E940920883CF1
:101FC000910538F500E20D0FCD17B9F080E28C0FC6
:101FD000883040F4C77081E001C0880FCA95EAF7E5
:101FE0000E94BE15083028F581E09D2F977001C032
:101FF000880F9A95EAF70E94B715812F0E94A415C1
:102000000830F0F4D77081E001C0880FDA95EAF764
:102010000AC080E28C0F883098F4C77081E001C05C
:10202000880FCA95EAF7DF91CF911F910F910C9419
:10203000BE15812FDF91CF911F910F910C94A415A4
:10204000DF91CF911F910F9108959C01CB01233F08
:102050004CE53407F9F078F4283DFCE53F07B9F08A
:10206000293D4CE5340711F1273D3C4531F526E289
:1020700041EE61EE1EC0253FFCE53F0799F070F090
:10208000263F3C45D1F427E245EE66EE12C027E23A
:1020900045EE0EC026E241EE60EE0BC027E245EEB3
:1020A00064EE07C026E241EE62EE03C028E241E0A2
:1020B00065EE0E94B10F80E00895FC0182818823C3
:1020C00019F01092C001089581E00895CF93DF9335
:1020D000EC01FB018281882309F41FC1C230FCE5B9
:1020E000DF0708F41BC1C6319CE5D90738F09E0113
:1020F0002A5F3C452930310508F010C10E94931E2B
:1021000090939B0280939A02C031ECE5DE0709F4BC
:10211000C3C008F041C0C8308CE5D80709F49AC0A4
:10212000F0F4C430ECE5DE0709F487C068F4C2308F
:102130008CE5D80709F477C0C330DC4509F0E3C06B
:1021400080919A02826076C0C630ECE5DE0709F421
:102150006EC008F07BC080919A0288606BC0CC3062
:102160008CE5D80709F485C068F4CA30ECE5DE07D1
:1021700009F474C008F079C00E94031880919A0293
:10218000806858C0CE308CE5D80709F476C008F0D6
:102190007FC080919A028BC0CB3FECE5DE0709F44B
:1021A0004FC018F5C3318CE5D80709F47DC078F429
:1021B000C131ECE5DE0709F473C0C231DC4509F03A
:1021C000A2C00E94031880919A028F7733C0C53154
:1021D0008CE5D80709F472C008F486C0CA3FDC4514
:1021E00009F091C080919B023EC0CF3FFCE5DF0724
:1021F00009F45FC058F4CD3F9CE5D90709F444C009
:1022000008F43FC080919B0282602DC0C130FDE583
:10221000DF0709F475C008F45DC0C230DD4509F080
:1022200072C080E06EC080919A02816003C080918C
:102230009A02806180939A0266C080919A0211C0CE
:1022400080919B02826080939B025DC080919A0284
:102250008062F0CF80919A028064ECCF80919A02E4
:1022600088608460E7CF8160EECF80919A028E7F94
:10227000E1CF80919A028D7FDDCF80919A02877F96
:10228000D9CF80919B0218C080919B028D7FDBCFBC
:1022900080919A028F7ECECF80919A028F7DCACF95
:1022A00080919A028F7BC6CF80919A02877F8B7F25
:1022B000C1CF80919B028D7F8E7FC5CF80919A0286
:1022C00082FB222720F991E0922790FB82F990FB74
:1022D00083F9B0CF80919B02982F909591708E7F5B
:1022E000892B90FB81F9AFCF0E94031880919A024D
:1022F00087FB222720F991E0922790FB87F99ACF5C
:1023000081E00E94221F80919A0290919B020E947C
:10231000A41E0E94031880E001C081E0DF91CF91EC
:102320000895CF93DF9386319C4541F5EB010E94E0
:10233000CF1D982F8A812091270130912801882371
:1023400079F09A7A81E009F480E08093C1019111DB
:1023500002C069E201C065E3C9010E94691F0AC0A9
:102360008091C101811102C069E201C065E3C90128
:102370000E946B1F0E941D1E80E001C081E0DF9162
:10238000CF9108958EE14A9B02C08150E1F74A9BAC
:10239000FECF08955A9880E28A95F1F75A9A0895E7
:1023A000FC012AE02A95F1F790E020E080E031E09E
:1023B000261779F040E14A95F1F7880F4A9B02C051
:1023C0008160932700C0000040E14A95F1F72F5F3C
:1023D000EFCF20E12A95F1F729B100C0000030E1EC
:1023E0003A95F1F722FB222720F992272081920FBC
:1023F00090830895EF92FF920F931F93CF93DF93F3
:102400001F92CDB7DEB719828C017C01E60EF11C5C
:102410000E151F0559F00E94C21168E0CE01019609
:102420000E94D011F80181938F01F2CF81E0998150
:10243000911180E00F90DF91CF911F910F91FF904C
:10244000EF9008959093C4018093C3016093C201FB
:10245000529A5A9A08959093C4018093C30160934D
:10246000C20152985A9AEA9AE9E6F0E080818F7C9C
:1024700080830895615091E001C0990F6A95EAF751
:1024800020E031E0992361F0492F482319F05A9A4E
:10249000232701C05A9840E24A95F1F79695F2CF6A
:1024A000222311F05A9A01C05A9880E28A95F1F7D6
:1024B0005A980895FF920F931F93CF93DF93EC01E7
:1024C0008C01060F111DC017D10741F0F9900E9431
:1024D000CA1168E08F2D0E943A12F5CFDF91CF919B
:1024E0001F910F91FF9008951F920F920FB60F92B8
:1024F00011240F931F932F933F934F935F936F93E9
:102500007F938F939F93AF93BF93EF93FF93CF935B
:10251000DF931F92CDB7DEB719820E94C21167E028
:10252000CE0101960E94D011382F369536953695FA
:10253000932F96959570232F2570920F292F237036
:10254000969596958770920F891348C0898181115D
:1025500045C08091C201831708F440C080E18A958C
:10256000F1F75A9A529AA2E0AA95F1F700C00091A9
:10257000C3011091C401B8E03B9F000D111D11244F
:102580005A98F8016581662321F0868197810E941F
:102590005A120E94CA11F0E1FA95F1F75A9852982E
:1025A0005A9A80E18A95F1F7D80112966C911297A8
:1025B000662369F013968D919C9114970E94FA11ED
:1025C000D801ED91FC91811105C082E004C0D801D1
:1025D000ED91FC9188E080830E94C2110F90DF9101
:1025E000CF91FF91EF91BF91AF919F918F917F918B
:1025F0006F915F914F913F912F911F910F910F908C
:102600000FBE0F901F9018950F931F93CF93DF93DA
:102610002091C20130E0281739070CF471C09C01E9
:1026200093E0220F331F9A95E1F7C091C301D09137
:10263000C401C20FD31FF894529A5A9845E04A95A4
:10264000F1F70000982F969595708570890F982F57
:10265000937086958695890F8901082B0E94CA116F
:1026600084E08A95F1F700C067E0802F0E943A125B
:1026700040E14A95F1F752985A9A4A9902C000C02F
:10268000FCCF87E090E04A9B0EC0019751F4529A2C
:102690005A9AE881F98181E08083789481E090E022
:1026A00031C000C0F0CF6D81662381F08E819F81A3
:1026B0000E94FA1181110AC0529A5A9AE881F9814E
:1026C00082E08083789482E090E01CC00E94C21176
:1026D00080E28A95F1F75A98529A40E14A95F1F7CB
:1026E0006A81662321F08B819C810E945A120E948C
:1026F000CA11E881F9811082789480E090E002C0EC
:1027000084E090E0DF91CF911F910F910895909315
:10271000CA018093C9010895E091C901F091CA01ED
:10272000309721F00190F081E02D099480E0089528
:10273000E091C901F091CA01309721F00280F38144
:10274000E02D099408952091C7013091C801281700
:10275000390771F09093C8018093C701E091C901D6
:10276000F091CA01309721F00680F781E02D09949D
:1027700008952091C5013091C6012817390771F0DD
:102780009093C6018093C501E091C901F091CA01FF
:10279000309721F00084F185E02D0994089585B7E4
:1027A000806885BF85B7806885BF089508950C94BB
:1027B000D6130C94D7130C94D6130C94D6130E94F2
:1027C000CF130E94DB130C94D9130C94EF060E94D4
:1027D000F41F0E949E050E944F200E94DD0D0C9464
:1027E000DD13AF92BF92CF92DF92EF92FF920F93E1
:1027F0001F93CF93DF93CDB7DEB72A970FB6F89428
:10280000DEBF0FBECDBF0E942F060E94E5138111CF
:1028100011C08FEF89838A831B820E94FD1F816014
:10282000782F9D838C8349815A816B818D810E9491
:10283000891440C08CECA82E81E0B82E00E010E096
:10284000C02E802F0E948905E82EF501D1905F01EE
:10285000D82631F40F5F1F4F0A30110589F7D9CF01
:102860008091560281FD0E948F0580E0FF24F39441
:102870009D2D9F21D1F08E83CF82EF2081E009F43E
:1028800080E088870E94FD1F8160782F9A87898762
:102890004E815F8168858A850E948914F801E4531E
:1028A000FE4F8081F826F08205C08F5FFF0C8830D4
:1028B000F9F6D0CF0E94150E0E948C139091CB0197
:1028C0008917B1F00E948C138093CB012A960FB622
:1028D000F894DEBF0FBECDBFDF91CF911F910F9156
:1028E000FF90EF90DF90CF90BF90AF900C943903A2
:1028F0002A960FB6F894DEBF0FBECDBFDF91CF9101
:102900001F910F91FF90EF90DF90CF90BF90AF900D
:102910000895CF93DF93CDB7DEB72B970FB6F8941A
:10292000DEBF0FBECDBF4F83588769877A878B87FD
:10293000DE01119686E0FD0111928A95E9F785E0A6
:10294000FE01379601900D928A95E1F749815A81EF
:102950006B817C818D819E810E94BC1A2B960FB663
:10296000F894DEBF0FBECDBFDF91CF910895FC017B
:10297000808191810E94901D0895CF93882309F44E
:1029800082C0C82F8238C1F40E948C1381FD7BC0A5
:1029900069E380912701909128010E94691F0E949C
:1029A0001D1E2FEF81EE94E0215080409040E1F712
:1029B00000C0000069E319C08338F1F40E948C1351
:1029C00080FD61C063E580912701909128010E94FC
:1029D000691F0E941D1E2FEF81EE94E02150804060
:1029E0009040E1F700C0000063E5809127019091DD
:1029F00028010E946B1F44C08438C1F40E948C13CC
:102A000082FD41C067E480912701909128010E94D6
:102A1000691F0E941D1E2FEF81EE94E0215080401F
:102A20009040E1F700C0000067E4DFCF8CEF8C0F2F
:102A3000813AD0F46C2F80912701909128010E9457
:102A4000331F882349F06C2F809127019091280132
:102A50000E946B1F0E941D1E6C2F80912701909178
:102A600028010E94691F0CC080E28C0F883058F446
:102A7000C77081E001C0880FCA95EAF70E94D21D95
:102A8000CF910C941D1ECF910895882309F45BC04B
:102A9000682F823879F40E948C1381FF54C069E357
:102AA00080912701909128010E94691F0E941D1E9C
:102AB00069E310C08338B1F40E948C1380FF43C0D7
:102AC00063E580912701909128010E94691F0E946F
:102AD0001D1E63E580912701909128010E946B1FC4
:102AE0000C941D1E843879F40E948C1382FF2BC035
:102AF00067E480912701909128010E94691F0E943C
:102B00001D1E67E4E7CF8CEF860F813A18F380E251
:102B1000860F883048F4677081E001C0880F6A959D
:102B2000EAF70E94D81DDCCF8BE5860F833020F4B6
:102B300080E090E00C94A313685A673120F480E0A1
:102B400090E00C94B9130895CF93C82F0E94BD1440
:102B5000C93349F42FEF87EE93E021508040904035
:102B6000E1F700C000008C2FCF910C94451588230D
:102B700021F00E94D21D0C941D1E0895882321F07F
:102B80000E94D81D0C941D1E0895CF92DF92EF92E3
:102B9000FF920F931F93CF93DF937C01062FC72FD4
:102BA000FC01D581D295DF70128111110E94EF1DB9
:102BB0000E94C81D882379F0112369F080E2800FFC
:102BC000883048F082E00E94671E0E94C81D91E094
:102BD000D82ED92601C0D12CCC2EC2948FE0C82289
:102BE0008C2D90E0FC01E659FF4F0C94FB268C2FB6
:102BF000807FCF70882311F0C295C07F112399F098
:102C0000CC2309F464C180E2800F883010F00111F8
:102C100004C08C2F0E94D21D03C08C2F0E94E21D85
:102C20000E941D1E54C1802F0E944515CC2309F41B
:102C300073C180E2800F883010F0011104C08C2F26
:102C40000E94D81D03C08C2F0E94E81D0E941D1EEB
:102C500063C18C2F807FCF70803211F0C295C07F0E
:102C6000002319F00130C9F022C0112371F0DD23D7
:102C700041F0D13031F40E94021E8C2B0E940A1EBA
:102C80004BC10E94021E8C2B1DC0DD2319F0D130D8
:102C900009F442C10E94131E25C0112321F0D63031
:102CA00008F03AC10EC0D53008F036C11BC0112360
:102CB00061F0DD2331F0F701858180FF08C18F705D
:102CC00085838C2F0E94B71527C1DD2359F0093366
:102CD00009F00EC1FFEF27EE83E0F1502040804065
:102CE000E1F704C18C2F0E94BE1516C18C2F837092
:102CF00009F045C0111114C1402F42954695477007
:102D0000440F440F602F6F70862F90E0A0E0B0E07A
:102D1000042E04C0880F991FAA1FBB1F0A94D2F764
:102D200004FF10C00FE010E020E030E004C0000F0E
:102D3000111F221F331F4A95D2F700951095209539
:102D4000309503C000E010E09801C695C695C370A9
:102D5000BC01CD01602B712B822B932BC23049F02B
:102D600058F4C13019F00E940D1CDAC00E94FB1B00
:102D7000D7C00E941F1CD4C00E94F91BD1C01123D0
:102D800019F08C2F817001C08695882309F4C8C082
:102D9000402F429546954770440F440F602F6F7047
:102DA000862F90E0A0E0B0E0042E04C0880F991FA9
:102DB000AA1FBB1F0A94D2F704FF10C00FE010E057
:102DC00020E030E004C0000F111F221F331F4A957E
:102DD000D2F7009510952095309503C000E010E0E3
:102DE0009801C695C695C370BC01CD01602B712BAF
:102DF000822B932BC23049F058F4C13019F00E9455
:102E0000D21C8EC00E94C01C8BC00E94E41C88C0D3
:102E10000E94331C85C0CF70112339F08C2F0E9483
:102E2000591C802F0E94B7157BC0802F0E94BE15B1
:102E30008C2F0E947A1C74C0023F01F128F4003FDD
:102E400041F0013FA1F03FC0033FF9F0043F39F1E9
:102E50003AC0112341F0D53008F05EC08C2F8F713D
:102E60000E949F1C59C0D63008F056C0F7CF1123DE
:102E700039F08C2F8F710E94591C4EC01123C9F359
:102E80008C2F8F710E947A1C47C0112329F08C2F40
:102E90008F710E94441C40C00E943F1C3DC0112302
:102EA00049F0CF718C2F0E94591C63E08C2F0E9437
:102EB000521E32C081E00E94671ED23068F182E06B
:102EC0000E94671E29C0112331F0DD2391F2802F6B
:102ED0000E94BD1421C0DD2399F2093349F49FEF0C
:102EE000E7EEF3E09150E040F040E1F700C0000071
:102EF000802F0E94451510C04C2F4F70602FC701C6
:102F00000E9495030E946A1B0FC04C2F4F70602FC8
:102F1000C7010E94980308C088EF8C0D843020F40C
:102F20000E948C130E943903DD20C9F00E94C41D49
:102F300080FD15C0F70112820E94BE1D0E94591C1F
:102F4000C7010E94D0170E94BE1DDF91CF911F9133
:102F50000F91FF90EF90DF90CF900C947A1CDF914F
:102F6000CF911F910F91FF90EF90DF90CF90089538
:102F70000F931F93CF93DF93EC01688179818A814E
:102F80000E949B1D8C010E94F61C0E94E71BB80149
:102F9000CE010E94C515DF91CF911F910F91089529
:102FA000CF93DF93FC019081818123813481232B96
:102FB00031F08F3F31F481E09F3F19F403C081E08D
:102FC00001C080E080FD0EC0EF01CF010E945203DE
:102FD000882341F0CE010E94B817CE01DF91CF9136
:102FE0000C941D03DF91CF9108950E94EF1D0E9464
:102FF000FF1D0C941D1E80912701909128010E94B5
:103000006D1F0C94F5170E94DF1D0C94FB17E92F20
:10301000E295EF704E2F50E0FA013297EE30F10555
:10302000B0F4E658FF4F0C94FB26803F91F018F463
:10303000883E68F40EC0843F51F40BC0883E48F0CF
:10304000813F29F406C093FB882780F9089580E02A
:10305000089581E008950E94901D0E940718089528
:10306000CF93DF9300D000D01F92CDB7DEB70F9083
:103070000F900F900F900F90DF91CF910895CF9305
:10308000DF9300D000D000D0CDB7DEB726960FB6C4
:10309000F894DEBF0FBECDBFDF91CF9108951F938F
:1030A000CF93DF93C091D70116E08091D801C81764
:1030B00099F0D0E01C9FF0011D9FF00D1124E75204
:1030C000FE4F4081518162817381848195810E948C
:1030D0003F182196C770E9CFDF91CF911F910895D6
:1030E0004091090250910A0260910B0270910C020A
:1030F00080910D0290910E020C943F180F931F9334
:10310000CF93DF9380910E0282958F7009F05DC09E
:1031100080910B02882309F458C08091D701109147
:10312000D8016091090270910A02C0910C02D091FD
:103130000D0291E06F3F09F090E0292F06E0811722
:1031400009F443C0209721F07F3F21F030E003C015
:1031500031E001C0322F90E030FD34C0089FF00113
:10316000099FF00D1124DF01A752BE4F11963C912B
:103170001197371327C03C91361324C012963C9107
:10318000129731111FC013964D915C9114974C1BEF
:103190005D0B483C5105B0F480910E028F70806148
:1031A00080930E02E252FE4F80818F708061808397
:1031B00089E092E00E94D017DF91CF911F910F918B
:1031C0000C944F1801968770BACFDF91CF911F9161
:1031D0000F9108959F92AF92BF92CF92DF92EF929C
:1031E000FF920F931F93CF93DF93CDB7DEB7619715
:1031F0000FB6F894DEBF0FBECDBF8C0185E0F8019D
:10320000DE011D9601900D928A95E1F7F80140814B
:103210005181E2809091090260910A0220910C0292
:1032200030910D022115310531F06F3F31F481E00D
:103230009F3F19F403C081E001C080E0F82FF170D6
:103240009F2E80FD46C1F801A380B48089E0C82E7E
:1032500082E0D82EF0900B02F501E21BF30BFF2069
:1032600009F4DFC080910E02E83CF10508F09BC034
:10327000282F207F09F052C0561313C0491311C0E4
:10328000FE2CE1100EC08F70806180930E020E94B0
:103290007018C6010E94D01780910E02F801858334
:1032A00058C1AB2831F05F3F31F481E04F3F19F452
:1032B00003C081E001C080E080FD03C081E08E2575
:1032C00002C080E090E0F82FF170FF2E80FF1CC05C
:1032D0008091D7012091D80136E0821709F417C1F7
:1032E00090E0389FF001399FF00D1124E752FE4F16
:1032F0006181561306C06081461303C06281E612E5
:1033000003C001968770E9CFFE2CEE2009F421C19D
:1033100080910E02816080930E025AC0561306C03F
:10332000491304C0E11002C0F8019FC04D875E87B9
:103330008D859E850E942B18882379F1EE2069F1F6
:1033400020910E02822F82958F7090E0029774F088
:103350008091090290910A0298878F831986BB8613
:10336000AA862C87CE0107960E94D01786E0F80126
:10337000A9E0B2E001900D928A95E1F70E947E18D3
:103380000E9470180DC0561729F14D875E878D85F4
:103390009E850E942B1881112CC0C8010E94D01755
:1033A000FF24F394D6C0282F207F69F77A2DB98A9D
:1033B000A88A6E2D89890E94301889E092E00E94C7
:1033C000D01786E0F60111928A95E9F70E947018ED
:1033D000F12CBFC04913D9CFE110D7CFF8018583B5
:1033E000C8010E94D01786E0F60111928A95E9F78C
:1033F000B0C0EE2091F220910E02822F82958F7044
:1034000090E002970CF4B2CF8091090290910A02E9
:103410009A8389831B82BD82AC822E83CE01019662
:10342000A3CFE83CF10508F047C0FE2CEE2009F4DC
:10343000B4CF561330C049132EC020910E0220FD88
:1034400021C0822F82958F70482F50E04115510581
:10345000C9F0F80125834F30510541F08F5F982F57
:103460009295907F822F8F70892B8583C8010E944F
:10347000D01786E0F801A9E0B2E001900D928A959C
:10348000E1F742C086E0F801A9E0B2E001900D92B8
:103490008A95E1F75EC04D875E878D859E850E9487
:1034A0002B18811163CF80910E02816080930E02F0
:1034B000C8010E94D0174DC07A2DB98AA88A6E2DF6
:1034C00089890E94301886E0F60111928A95E9F701
:1034D0001BC0EE2009F461CF4D875E878D859E85E8
:1034E0000E942B18F82E882309F457CF86E0F801A4
:1034F000A9E0B2E001900D928A95E1F789E092E0AF
:103500000E94B7140E947E180E94701822C04D8736
:103510005E878D859E850E94901D292F22952F7094
:10352000223028F49F7039F0811105C00BC024307F
:1035300028F49F7049F4805E883020F0C8010E9412
:10354000D0179F2CF92C05C0F8019581907F99F731
:10355000F9CF8F2D61960FB6F894DEBF0FBECDBFA9
:10356000DF91CF911F910F91FF90EF90DF90CF905F
:10357000BF90AF909F9008951F93CF93DF93CDB7E7
:10358000DEB72C970FB6F894DEBF0FBECDBF4F83CA
:10359000588769877A878B879C87CE0107960E9418
:1035A000EA188823D1F09F8188852A853B85232BC3
:1035B00031F08F3F31F481E09F3F19F403C081E087
:1035C00001C080E080FD47C04F81588569857A85BC
:1035D0008B859C850E943F183EC086E0FE01379691
:1035E000DE01119601900D928A95E1F7FF81E88541
:1035F0006A857B856115710531F0EF3F31F481E01B
:10360000FF3F19F403C081E001C080E080FD23C0CA
:103610002091D80130E0C901019687709927409127
:10362000D70150E084179507F1F1F983EA837D8390
:103630006C8396E0929FD001939FB00D1124A75206
:10364000BE4FFE01319601900D929A95E1F780935D
:10365000D8010E944F1816E08091D7019091D801AF
:10366000891771F1189FC001112487529E4F0E9443
:10367000EA18882329F1E091D7011E9FF001112457
:10368000E752FE4F4081518162817381848195812F
:103690000E943F188091D70190E00196877099278A
:1036A0008093D701D9CF0E9403181092D8011092AD
:1036B000D701E9E0F2E086E0DF011D928A95E9F7A3
:1036C0002C960FB6F894DEBF0FBECDBFDF91CF9121
:1036D0001F910895EF92FF920F931F93CF93DF9363
:1036E0008C01892B09F46CC0F12CEE24E394E801E1
:1036F0002196F8018491843740F4843008F051C059
:10370000813081F0823019F15BC0853709F444C003
:10371000A8F19CE7980F903708F052C08F770E946D
:10372000451541C00E5F1F4FFE01849190E2980F36
:10373000983050F48770FE2D01C0FF0F8A95EAF78C
:103740008F2F0E94F21D14C00E94BD142DC00E5F69
:103750001F4FFE01849190E2980F983060F48770BB
:10376000FE2D01C0FF0F8A95EAF78F2F0E94F81DEA
:103770000E941D1E19C00E94451516C00E5F1F4FE6
:10378000FE01C491CC2381F08FE99FE00197F1F70E
:1037900000C00000C150F6CF0E5F1F4FFE01F49035
:1037A00003C00E94BD148E018F2D882309F49FCF82
:1037B000EFE9FFE03197F1F700C000008150F5CF4D
:1037C000DF91CF911F910F91FF90EF900895089591
:1037D00008950C94E81B0C94E91B0E94EB1B60936A
:1037E00045027093460280934702909348020C94DE
:1037F000F5170C94ED1B0F931F9300914502109148
:1038000046022091470230914802602B712B822B97
:10381000932B1F910F910C94ED1B0F931F9300910D
:1038200045021091460220914702309148026023E0
:103830007123822393231F910F910C94ED1B0F93FF
:103840001F9300914502109146022091470230914A
:10385000480260277127822793271F910F910C94AC
:10386000ED1B0C94E81B0E94311C60934102709385
:10387000420280934302909344020C94F51760E057
:1038800070E0CB010C94331C0F931F9341E050E088
:1038900060E070E08A019B0104C0000F111F221F2D
:1038A000331F8A95D2F7C901B8011F910F910C946B
:1038B000331C0F931F9341E050E060E070E004C0C0
:1038C000440F551F661F771F8A95D2F780914102DA
:1038D00090914202A0914302B09144028A019B015F
:1038E000082B192B2A2B3B2BC901B8011F910F91D3
:1038F0000C94331C0F931F9341E050E060E070E0A4
:1039000004C0440F551F661F771F8A95D2F7409554
:103910005095609570958091410290914202A091DE
:103920004302B09144028A019B01082319232A23F0
:103930003B23C901B8011F910F910C94331C0F93C5
:103940001F9341E050E060E070E004C0440F551F59
:10395000661F771F8A95D2F78091410290914202AB
:10396000A0914302B09144028A019B0108271927C4
:103970002A273B27C901B8011F910F910C94331CD2
:103980000F931F9300914102109142022091430234
:1039900030914402602B712B822B932B1F910F913E
:1039A0000C94331C0F931F9300914102109142021B
:1039B0002091430230914402602371238223932398
:1039C0001F910F910C94331C0F931F930091410290
:1039D00010914202209143023091440260277127E6
:1039E000822793271F910F910C94331C089528E090
:1039F000929F800D1124E82FE695E695E695877055
:103A000051E001C0550F8A95EAF785E0E89FF00183
:103A10001124E15FFD4F20E030E070E04081CB01F8
:103A2000022E02C0969587950A94E2F781708195DF
:103A300084278523842781932F5F3F4F25303105CD
:103A400069F7089528E0929F800D1124682F6695EC
:103A500066956695982F977085E0689FB001112450
:103A600040E050E080E0FB01E40FF51FE15FFD4F17
:103A7000208130E0092E02C0369527950A94E2F79E
:103A800021703327042E01C0220F0A94EAF7822BFB
:103A90004F5F5F4F4530510531F70895BF92CF9288
:103AA000DF92EF92FF920F931F93CF93DF938C01DE
:103AB000C0904102D0904202E0904302F090440254
:103AC0008091450290914602A0914702B091480230
:103AD000C82AD92AEA2AFB2ACFE1D0E0D701C601B9
:103AE0000C2E04C0B695A795979587950A94D2F7A2
:103AF00080FD04C0219790F7B12C07C0BC2EB801FF
:103B00008C2F0E94B6030197A9F38B2DDF91CF91E3
:103B10001F910F91FF90EF90DF90CF90BF9008958D
:103B2000CF93DF93EC010E944E1DBE010E94B603AD
:103B3000DF91CF9108951F93CF93DF93EB01909185
:103B4000D601992321F0CB010E94901D13C0882338
:103B500049F0CB010E944E1D182F682FCE010E9404
:103B6000F71C04C0CB010E94221D182FBE01812F1B
:103B70000E94B603DF91CF911F9108958091490271
:103B8000859585958595089580914902877008955A
:103B900090914902977081E009F480E00895809146
:103BA0005502089590915502892B809355020895EE
:103BB0008095909155028923809355020895109223
:103BC0005502089590915402892B809354020895D0
:103BD0008095909154028923809354020895109205
:103BE0005402089590915302892B809353020895B3
:103BF00080959091530289238093530208951092E7
:103C00005302089580914A02089508950C94051E68
:103C10000C94061E90914A02981721F080934A0254
:103C20000C94081E089580914A02882329F010926E
:103C30004A0280E00C94081E0895E0912701F0915B
:103C40002801809155028083E0912701F09128019D
:103C5000908180915402892B8083E0912701F0911B
:103C60002801908180915302892B808380914A02A0
:103C7000882381F0E0912701F09128019081892B20
:103C8000808380912701909128010E94271F811134
:103C90000E94131E80912701909128010C94981383
:103CA0000C94051E98E0899F90011124262B2093E7
:103CB00049020E94591C80914902859585958595F8
:103CC0000C94501E1092490280E00C94501E2091DA
:103CD00049028095822380934902982F977079F446
:103CE00030E0482F082E000C550B2417350739F00B
:103CF0008595859585950E947A1C0C94621E089581
:103D000080E090E00E94782721E08C3E9E4F09F0F1
:103D100020E0822F089582E090E00C946A2783E0EF
:103D200090E00C946A27CF9384E090E00E946A2789
:103D3000C82F81E290E00E946A272C2F30E0A90171
:103D4000582BCA01CF910895CF93C92F682F84E0D3
:103D500090E00E947E276C2F81E290E0CF910C943E
:103D60007E27AB01BC018FE090E00C949027AB0163
:103D7000BC0183E190E00C94902760E070E0CB01FF
:103D80000C94B71E60E070E0CB010E94B11E0C9451
:103D9000BD1E6CEE7EEF80E090E00E949C2760E00C
:103DA00082E090E00E947E2760E083E090E00E9445
:103DB0007E271092450210924602109247021092FE
:103DC000480260E084E090E00E947E2760E081E2AB
:103DD00090E00E947E2760E085E090E00E947E27D0
:103DE00060E086E090E00E947E276FEF87E090E041
:103DF0000E947E2740E050E0BA0188E090E00E94F7
:103E0000902760E08DE090E00E947E2740E050E047
:103E1000BA0188E190E00E94902760E087E190E09D
:103E20000E947E2740E050E0BA018CE190E00E94C1
:103E3000902760E080E290E00E947E270C94C21EF2
:103E40000C94C91E682F8EE090E00C947E27FC0134
:103E5000329697E080E0915029F021912223D9F306
:103E60008F5FF9CF0895662349F0FC0132960896DA
:103E70002191621729F0E817F907D1F780E008953A
:103E800081E008959C01FC0132969FEF80E0419112
:103E9000461789F09F3F19F4411101C0982F8F5F99
:103EA0008630A9F79F3F39F0F901E90FF11D97FD21
:103EB000FA956283089508959C012A5F3F4FFC01A3
:103EC0004281461301C01282019682179307B9F707
:103ED00008950C94421F0C945C1F029626E0FC018E
:103EE00011922A95E9F7089508950C94741F0C9483
:103EF000741FCF930E94771F0E942F060E94751F88
:103F0000C0E08C2F0E948905811104C0CF5FCA30A8
:103F1000C1F701C081E0CF9108950C94741F0C94F7
:103F20008D1F0E948F1F8091A002843049F1109252
:103F3000570220E488E190E00FB6F894A8958093AA
:103F400060000FBE2093600080E00E9439030E9451
:103F50008F1F83B7817F846083BF83B7816083BFF6
:103F60007894889583B78E7F83BF0FB6F894A89511
:103F700080916000886180936000109260000FBEA5
:103F800008950C94741F0E9403180E948C130E94C1
:103F900039030C94C11F1F920F920FB60F92112478
:103FA0008F939F93AF93BF9380915702811113C05A
:103FB0008091960290919702A0919802B0919902F7
:103FC0004196A11DB11D8093960290939702A093F4
:103FD0009802B0939902BF91AF919F918F910F90EA
:103FE0000FBE0F901F90189582E084BD93E095BDA1
:103FF0009AEF97BD80936E0008952FB7F894809143
:10400000960290919702A0919802B09199022FBFC9
:1040100008959C014FB7F894809196029091970271
:10402000A0919802B09199024FBF821B930B089503
:1040300078941F920F920FB60F9211248F939F9333
:10404000AF93BF938091960290919702A0919802AE
:10405000B09199020196A11DB11D80939602909393
:104060009702A0939802B0939902BF91AF919F914C
:104070008F910F900FBE0F901F90189587E797E7CD
:1040800090930108809300089AE088E10FB6F894B5
:10409000A895809360000FBE90936000FFCF0E94B0
:1040A000801E811102C00E94201F0E948B1E8093DF
:1040B00056020E94931E90939B0280939A020E9444
:1040C0008F1E682F70E080E090E00C94F91B8091C7
:1040D0006002089508950895CF93DF93EC010E9444
:1040E0000C22823011F0843039F581E08093E900B0
:1040F0008FEF9091E800815095FD06C095ED9A955F
:10410000F1F700008111F5CF8091E80085FF14C020
:1041100040E050E068E070E0CE010E9429228091EA
:10412000E8008E778093E80088E0FE01A8E5B2E021
:1041300001900D928A95E1F7DF91CF91089508954E
:1041400080919F02811109C00E94BA230E94172406
:104150008091E20084608093E200089510929F02B3
:104160000895089508950C94C31F42E061EC81E026
:104170000C9433238091A202833009F460C030F4A0
:10418000813071F0823009F499C008958A3009F4C1
:1041900085C08B3009F46BC0893009F0A7C020C0FE
:1041A0008091A102813A09F0A1C08091E800877F47
:1041B0008093E8008091A5029091A602892B21F4BA
:1041C00068E088E592E003C060E080E090E070E0A5
:1041D0000E9474228091E8008B778093E800089514
:1041E0008091A102813209F081C08091A502909155
:1041F000A602892B09F07AC08091E800877F80931E
:10420000E8008091E80082FD05C08091A002811144
:10421000F8CF6CC02091F3008091F20090E0922BD7
:10422000029729F48091F1008B7F813021F48091F5
:10423000F100809360028091E8008B7753C08091F9
:10424000A102813A09F052C08091A5029091A60284
:10425000892B09F04BC08091E800877F8093E800AC
:104260008091E80080FFFCCF8091330136C08091BF
:10427000A1028132D9F58091A5029091A602892BE5
:10428000A9F58091E800877F8093E8000E94682369
:104290008091A302809333010C9403188091A102B2
:1042A000813221F58091E800877F8093E8000E94A9
:1042B00068238091A4028093610208958091A102F5
:1042C000813AA1F48091E800877F8093E800809193
:1042D000E80080FFFCCF809161028093F100809123
:1042E000E8008E778093E8000C946823089584B7E3
:1042F000877F84BF0FB6F894A8958091600088618D
:1043000080936000109260000FBE90E080E80FB6CE
:10431000F89480936100909361000FBE0E94DF13B8
:104320000E94BA230E9417248091E2008460809347
:10433000E20078940E94AC260E94E71389E291E0A3
:104340000E9487138091A002853069F40E94911F1A
:1043500080919E028823B1F30E94791F882391F3F4
:104360000E941322EFCF0E94F113ECCF0C94B821DE
:10437000292F332723303105C1F058F4213031057E
:1043800079F022303105C1F582E290E02AEA34E08A
:1043900037C02132310511F12232310531F12CC003
:1043A00082E190E02CEC34E02BC09927813091051C
:1043B00061F040F08230910559F00397E9F4EEE79F
:1043C000F4E008C0E6EAF4E005C0E4E9F4E002C085
:1043D000E4E8F4E0849190E09F0112C0672B61F45F
:1043E00089E090E02CEB34E00BC0672B29F480E4EB
:1043F00090E02EED34E004C080E090E020E030E07A
:10440000FA013183208308958091A002843011F055
:1044100081E0089582E0089580916202811102C0D6
:104420000C940422089580E189BD82E189BD09B41C
:1044300000FEFDCF8091D8008F7D8093D8008091C1
:10444000E00082608093E0008091E00081FDFCCF7D
:104450000895CF92DF92EF92FF920F931F93CF9325
:10446000DF93EC018B017A010E948723811133C015
:10447000E114F10439F0F70180819181081B190BD7
:10448000C80FD91FC12CD12C0115110519F180912C
:10449000E80085FD16C08091E8008E778093E800E3
:1044A000E114F10449F0F70180819181C80ED91E11
:1044B000D182C08285E00FC00E948723882321F328
:1044C0000AC089918093F10001501109FFEFCF1AC2
:1044D000DF0ADACF80E0DF91CF911F910F91FF903B
:1044E000EF90DF90CF9008952091A7023091A8021D
:1044F0002617370748F06115710539F42091E80057
:104500002E772093E80001C0B901FC0120E061157D
:10451000710579F18091A0028823F1F18530F1F1E4
:104520008091E80083FD3CC08091E80082FD2EC0B0
:104530008091E80080FFEBCF2091F3008091F200A2
:1045400090E0922B6115710551F08830910538F497
:1045500021912093F100615071090196F3CF21E080
:10456000089709F020E08091E8008E778093E800BA
:10457000CECF2111CFCF0AC08091A002882361F055
:10458000853061F08091E80083FD0AC08091E800E9
:1045900082FFF2CF80E0089582E0089583E00895DD
:1045A00081E008952091A7023091A80226173707CD
:1045B00048F06115710539F42091E8002E772093B9
:1045C000E80001C0B901FC0120E06115710591F11D
:1045D0008091A002882309F440C0853009F43FC0CF
:1045E0008091E80083FD3DC08091E80082FD2FC0EE
:1045F0008091E80080FFE9CF2091F3008091F200E4
:1046000090E0922B6115710559F08830910540F4C6
:1046100024912093F1003196615071090196F2CFF7
:1046200021E0089709F020E08091E8008E778093E0
:10463000E800CBCF2111CCCF0AC08091A002882303
:1046400061F0853061F08091E80083FD0AC08091BF
:10465000E80082FFF2CF80E0089582E0089583E0D1
:10466000089581E00895982F973068F59093E900B8
:10467000981739F07091EC002091ED005091F00006
:1046800003C0242F762F50E021FD02C09F5FECCFA6
:104690003091EB003E7F3093EB003091ED003D7F99
:1046A0003093ED003091EB0031603093EB0070936C
:1046B000EC002093ED005093F0002091EE0027FDD8
:1046C000E5CF80E008958F708093E90081E0089540
:1046D0008091A10287FF11C08091E80082FD05C092
:1046E0008091A0028111F8CF11C08091E8008B77F2
:1046F0000BC08091A002882349F08091E80080FFE0
:10470000F8CF8091E8008E778093E800089520919B
:10471000E4003091E50095E64091EC00842F817033
:1047200040FF23C08091E80080FD1DC08091A00261
:10473000882399F0853099F08091EB0085FD11C0B8
:104740004091E4005091E5002417350729F391507A
:1047500011F09A01E1CF84E0089582E0089583E0AA
:10476000089581E0089580E008954091E80042FFB7
:10477000DDCF08950E9428240E943024E0EEF0E06E
:10478000808181608083E8EDF0E080818F77808395
:1047900019BCA7EDB0E08C918E7F8C9380818F7EC9
:1047A000808310929F0208950F931F93CF93DF93FE
:1047B0000E9428240E943024C8EDD0E088818F77A1
:1047C000888388818068888388818F7D888319BCED
:1047D0001092A00210929C0210929E0210929D02D2
:1047E00000EE10E0F80180818B7F808388818160FA
:1047F000888342E060E080E00E943323E1EEF0E055
:1048000080818E7F8083E2EEF0E080818160808312
:10481000808188608083F80180818E7F8083888199
:1048200080618883DF91CF911F910F910895E8ED0A
:10483000F0E080818F7E8083E7EDF0E08081816011
:10484000808384E082BF81E080939F020C94D42314
:10485000E8EDF0E080818E7F80831092E200089581
:104860001092DA001092E10008951F920F920FB695
:104870000F9211242F933F934F935F936F937F93E6
:104880008F939F93AF93BF93EF93FF938091E1003A
:1048900082FF0BC08091E20082FF07C08091E1009F
:1048A0008B7F8093E1000E94AB268091DA0080FF2D
:1048B0001FC08091D80080FF1BC08091DA008E7FDE
:1048C0008093DA008091D90080FF0DC080E189BD1E
:1048D00082E189BD09B400FEFDCF81E08093A00292
:1048E0000E94A02005C019BC1092A0020E94AE2018
:1048F0008091E10080FF19C08091E20080FF15C027
:104900008091E2008E7F8093E2008091E2008061DE
:104910008093E2008091D80080628093D80019BC17
:1049200085E08093A0020E94B2208091E10084FF84
:1049300030C08091E20084FF2CC080E189BD82E11B
:1049400089BD09B400FEFDCF8091D8008F7D809392
:10495000D8008091E1008F7E8093E1008091E20099
:104960008F7E8093E2008091E20081608093E2007C
:1049700080919C02882311F084E007C08091E300BD
:1049800087FD02C081E001C083E08093A0020E9405
:10499000B3208091E10083FF29C08091E20083FF72
:1049A00025C08091E100877F8093E10082E08093C1
:1049B000A00210929C028091E1008E7F8093E10022
:1049C0008091E2008E7F8093E2008091E20080611E
:1049D0008093E20042E060E080E00E943323809117
:1049E000F00088608093F0000E94B120FF91EF9169
:1049F000BF91AF919F918F917F916F915F914F91F7
:104A00003F912F910F900FBE0F901F9018951F92FE
:104A10000F920FB60F9211242F933F934F935F93F2
:104A20006F937F938F939F93AF93BF93CF93DF93B6
:104A3000EF93FF93C091E900CF708091EC00D82FE5
:104A4000D17080FDD0E81092E9008091F000877F5E
:104A50008093F00078940E944B251092E900809199
:104A6000F00088608093F000CD2BCF70C093E900F8
:104A7000FF91EF91DF91CF91BF91AF919F918F9176
:104A80007F916F915F914F913F912F910F900FBE4A
:104A90000F901F9018951F93CF93DF93CDB7DEB77C
:104AA000AA970FB6F894DEBF0FBECDBFE1EAF2E0E1
:104AB0008091F100819322E0E93AF207C9F70E9460
:104AC000BA208091E80083FF2EC18091A1029091CD
:104AD000A202492F50E04A30510508F024C1FA01E2
:104AE000E857FF4F0C94FB26803821F0823809F0FC
:104AF0001AC108C080919D0290919E02992389F06D
:104B000082600FC08091A5028F70873008F00BC1C2
:104B10008093E9008091EB0085FB882780F9109253
:104B2000E9009091E800977F9093E8008093F1006E
:104B30001092F100D1C0282F2D7F09F0F4C08823F6
:104B400019F0823061F0EFC08091A302813009F04A
:104B5000EAC0933009F080E080939E022EC08091DD
:104B6000A30281112AC08091A5028F702FEF280F18
:104B7000263008F0D8C08093E9002091EB0020FF98
:104B80001CC0933021F48091EB00806214C090919E
:104B9000EB0090619093EB0021E030E0A90102C0AE
:104BA000440F551F8A95E2F74093EA001092EA00FD
:104BB0008091EB0088608093EB001092E900809177
:104BC000E800877F8093E8000E946823ACC08111D1
:104BD000AAC01091A3021F778091E3008078812BF7
:104BE0008093E3008091E800877F8093E8000E9433
:104BF00068238091E80080FFFCCF8091E30080680B
:104C00008093E300111102C082E001C083E0809331
:104C1000A00289C08058823008F085C08091A3022C
:104C20009091A4028C3D53E0950779F583E08A8347
:104C30008AE289834FB7F894DE01139620E03EE0C4
:104C400051E2E32FF0E050935700E49120FF03C0BE
:104C5000E295EF703F5FEF708E2F90E0EA3010F03A
:104C6000C79601C0C0968D939D932F5F243149F75D
:104C70004FBF8091E800877F8093E8006AE270E090
:104C8000CE0101960E94742216C06091A502709117
:104C9000A602AE014F5F5F4F0E94B621BC01892B77
:104CA00009F441C09091E800977F9093E8008981D2
:104CB0009A810E94D2228091E8008B778093E8004D
:104CC00032C0803881F58091E800877F8093E800CA
:104CD00080919C028093F1008091E8008E7772CFE2
:104CE000811121C08091A3029091A402992702977B
:104CF000D4F48091E800877F8093E8008091A3023C
:104D000080939C020E94682380919C02811106C0BE
:104D10008091E30087FD02C081E001C084E08093C0
:104D2000A0020E94B5208091E80083FF0AC0809114
:104D3000E800877F8093E8008091EB008062809399
:104D4000EB00AA960FB6F894DEBF0FBECDBFDF9181
:104D5000CF911F9108950895CF938091A002882349
:104D6000A1F0C091E900CF709091EC00892F817083
:104D700090FD80E8C82B1092E9008091E80083FD47
:104D80000E944B25CF70C093E900CF910895991BE5
:104D900079E004C0991F961708F0961B881F7A9532
:104DA000C9F780950895AA1BBB1B51E107C0AA1F34
:104DB000BB1FA617B70710F0A61BB70B881F991FBC
:104DC0005A95A9F780959095BC01CD01089597FB60
:104DD000072E16F4009407D077FD09D00E94D32641
:104DE00007FC05D03EF4909581959F4F08957095EE
:104DF00061957F4F0895EE0FFF1F0590F491E02D10
:104E000009948F929F92AF92BF92CF92DF92EF92CE
:104E1000FF92CF93DF93EC01688179818A819B8136
:104E2000611571058105910521F464E279ED8BE549
:104E300097E02DE133EF41E050E00E94B2274901B5
:104E40005A019B01AC01A7EAB1E40E94D1276B0192
:104E50007C01ACEEB4EFA50194010E94DF27DC01D8
:104E6000CB018C0D9D1DAE1DBF1DB7FF03C001976B
:104E7000A109B04888839983AA83BB839F77DF9178
:104E8000CF91FF90EF90DF90CF90BF90AF909F9029
:104E90008F9008950E940127089580E091E00E947C
:104EA00001270895A0E0B0E08093000190930101F4
:104EB000A0930201B09303010895FC0141505040BA
:104EC00030F001900616D1F73197CF010895882769
:104ED00099270895F999FECF92BD81BDF89A992737
:104EE00080B50895A6E1B0E044E050E00C94A4271A
:104EF000A8E1B0E042E050E00C94A427262FF999F5
:104F0000FECF92BD81BDF89A019700B4021639F028
:104F10001FBA20BD0FB6F894FA9AF99A0FBE0895F9
:104F20000396272F0E947F270E947E27252F0E940D
:104F30007F27242F0C947F270196272F0E947F27FD
:104F40000C947E27DC01CB01FC01F999FECF06C051
:104F5000F2BDE1BDF89A319600B40D924150504037
:104F6000B8F70895052E97FB1EF400940E94C927F8
:104F700057FD07D00E94E42707FC03D04EF40C94A1
:104F8000C92750954095309521953F4F4F4F5F4F22
:104F9000089590958095709561957F4F8F4F9F4FA5
:104FA00008950E940628A59F900DB49F900DA49F80
:104FB000800D911D11240895B7FF0C94D1270E94F4
:104FC000D127821B930B0895A1E21A2EAA1BBB1BAB
:104FD000FD010DC0AA1FBB1FEE1FFF1FA217B307C5
:104FE000E407F50720F0A21BB30BE40BF50B661FDB
:104FF000771F881F991F1A9469F76095709580959F
:1050000090959B01AC01BD01CF010895A29FB00115
:10501000B39FC001A39F700D811D1124911DB29FEC
:0E502000700D811D1124911D0895F894FFCF8D
:10502E00010000000177010078010578017D01087B
:10503E007E010000000102000800080801191A1B79
:10504E001C1D1E1F2021224B0267206C206A209FF0
:10505E00206B2001943331F73236F6F56697C6345D
:10506E0035000000000000010202020206060609D9
:10507E0009090909090F0F0F0F0F0F15151518192B
:10508E001919191919191919192324252525252531
:02509E002500EB
:00000001FF
