:100000000C9478020C94BF020C94BF020C94C113A0
:100010000C94BF020C94BF020C94BF020C94BF025C
:100020000C94BF020C94BF020C942D260C94FF2656
:100030000C9493210C94BF020C94BF020C94BF0249
:100040000C94BF020C94BF020C94BF020C94BF022C
:100050000C94BF020C94EC210C94BF020C94BF02D0
:100060000C94BF020C94BF020C94BF020C94BF020C
:100070000C94BF020C94BF020C94BF020C94BF02FC
:100080000C94BF020C94BF020C94BF020C94BF02EC
:100090000C94BF020C94BF020C94BF020C94BF02DC
:1000A0000C94BF020C94BF020C94BF027D177D1705
:1000B000AF17AF171219121912191219FC1791184C
:1000C000A218A2180219121912190B19A619A619A9
:1000D000B819B819AF19B819B819B819A619A619C5
:1000E000B419B819B819B4196C2793278B2893271A
:1000F0008B28DF2702288B285928682835001E0006
:100100001F00200021002200000000002B0014002E
:100110001A00080015001700000000003900040054
:100120001600070009000A0000000000E1001D00A1
:100130001B00060019000500000000002900E00077
:10014000E300E2002C000000000000002300240077
:100150002500260027002D002E002A001C00180074
:100160000C00120013002F00300031000B000D00B6
:100170000E000F00330034000000280011001000B2
:10018000360037003800E500520001512A002800EF
:1001900000002C110000500051004F0029003A00CF
:1001A0003B003C003D003E0000000000C35C00003E
:1001B000C65CC85CCA5C0000000000000000C45CB3
:1001C000C75CC95CCB5C00000000000001000000BF
:1001D000000000000000000000000000000001001E
:1001E0000100010000000000000000003F0040008E
:1001F000410042004300440045004C000000000064
:1002000000000000000000000000000000000000EE
:1002100000000000000000000000000000000000DE
:1002200000000000000001004B0001000000000081
:100230000000000000004A004E004D001E0F0500A7
:10024000047F3F1F643214643214783C1E1E140A6B
:10025000052223252628292A2C2D2F303233353606
:10026000383A3B3D3E4042434547494A4C4E505147
:10027000535557595A5C5E6062646668696B6D6F6E
:1002800071737577797B7D7F81838587898A8C8E71
:1002900090929496989A9C9E9FA1A3A5A7A8AAAC79
:1002A000AEAFB1B3B4B6B8B9BBBCBEBFC1C2C3C5B3
:1002B000C6C7C9CACBCCCDCED0D1D2D2D3D4D5D655
:1002C000D7D7D8D9D9DADADBDBDBDCDCDCDCDCDD88
:1002D000DDDDDDDCDCDCDCDCDBDBDBDADAD9D9D86C
:1002E000D7D7D6D5D4D3D2D2D1D0CECDCCCBCAC904
:1002F000C7C6C5C3C2C1BFBEBCBBB9B8B6B4B3B133
:10030000AFAEACAAA8A7A5A3A19F9E9C9A989694CD
:1003100092908E8C8A89878583817F7D7B797775A2
:1003200073716F6D6B6968666462605E5C5A595781
:10033000555351504E4C4A4947454342403E3D3B40
:100340003A3836353332302F2D2C2A2928262523CA
:1003500022FFAA7F554000010101010101010101B5
:100360000202020202020202020303030303030366
:100370000304040404040404050505050506060633
:100380000606070707070708080808090909090AF0
:100390000A0A0B0B0B0C0C0C0D0D0D0E0E0E0F0F95
:1003A0000F10101111111212131314141515161623
:1003B0001717181819191A1A1B1B1C1D1D1E1E1F92
:1003C0002020212222232424252626272829292AE1
:1003D0002B2C2D2D2E2F3031323233343536373809
:1003E000393A3B3C3D3E3F40414243444546474805
:1003F000494A4C4D4E4F50515354555658595A5BDB
:100400005D5E5F616264656668696B6C6D6F70727A
:10041000737577787A7B7D7E8082838587888A8CE6
:100420008E8F91939596989A9C9EA0A2A3A5A7A91A
:10043000ABADAFB1B3B5B7BABCBEC0C2C4C6C9CB11
:10044000CDCFD1D4D6D8DBDDDFE2E4E7E9EBEEF0C7
:10045000F3F5F8FAFDFF0E034D0069006E0074001D
:100460003600300000001003450075006300610095
:100470006C0079006E0000000403090409022200E8
:10048000010100A0FA090400000103010100092193
:10049000110100012240000705810308000A120132
:1004A000100100000008EDFE000001000102000143
:1004B00005010906A101050719E029E71500250135
:1004C00095087501810295017508810105071900DC
:1004D00029FF150026FF00950675088100050819FB
:1004E000012905950575019102950175039101C0DA
:1004F00011241FBECFEFDAE0DEBFCDBF04B603FE8E
:1005000027C08091BA029091BB02A091BC02B09129
:10051000BD028730904BA740B04BD1F41092BA0285
:100520001092BB021092BC021092BD0214BE84B79E
:10053000877F84BF0FB6F894A8958091600088618A
:1005400080936000109260000FBEE0E0F8E3099530
:1005500011E0A0E0B1E0E0E6F4E502C005900D9204
:10056000A237B107D9F722E0A2E7B1E001C01D929E
:10057000AA3BB207E1F70E947A230C942E2A0C942E
:10058000000081E0089581E008950C94C30208956D
:100590000C94C7021F93CF93DF9300D000D01F921B
:1005A000CDB7DEB749835A836B833091E4018981EB
:1005B0009A81311114C0662359F0222349F00E9418
:1005C000DF1E182F682F89819A810E94881E03C020
:1005D0000E94B31E182F69817A81812F04C00E9466
:1005E000DF1E69817A810F900F900F900F900F900E
:1005F000DF91CF911F910C949403FC01262F408131
:1006000051816281738184810C94CA02CF93DF93FC
:10061000EC0160E00E94FD02BE01DF91CF910C94DD
:10062000C8020E9485050C94BF050C94BB05089573
:100630000E9494190E9417032FEF84E39CE021503D
:1006400080409040E1F700C000000C945C220F93C2
:100650001F93CF93DF938C0161E00E94FD02EC01B8
:10066000B8010E94C502882309F444C0B801CE0134
:100670000E94EA108823F1F1B801CE010E943C11DA
:100680008823C1F1B801CE010E946712882391F13D
:10069000B801CE010E947F0F882361F1F8018281A9
:1006A000882309F1CB358DE5D807C1F050F4C11589
:1006B000FCE5DF0781F0CF3DDC45A9F40E94EA208C
:1006C00019C0CC35EDE5DE0761F0CD35DD4559F4D7
:1006D0000E94721F08C00E9418030CC00E947B1F5A
:1006E00002C00E947E1FC801DF91CF911F910F9120
:1006F0000C94C10280E0DF91CF911F910F9108957A
:1007000008950C94800381E008950C948303CF93A3
:10071000C82F0E9481038C2F0E948503CF910895DA
:1007200080E090E008950895E72FF0E09AE0899F37
:10073000E00DF11D112483E0EE0FFF1F8A95E1F714
:10074000E60FF11DEE0FFF1FE450FF4F85919491CE
:100750000895880F991FFC01E45CFD4F85919491E9
:100760000895CF93DF930E9494030E94AD04EC019F
:10077000811521E59207A0F5811540E5940708F061
:1007800086C0C11580E2D807F0F4C11521E0D20778
:1007900008F0DFC0C03ED10588F4C03CD10508F0A8
:1007A00062C0C130D10509F4D4C008F4D0C0CE0174
:1007B0000497813A910508F4CCC0C9C0C83ED10560
:1007C00008F4C7C0C4C0C11540E4D40708F05CC039
:1007D000C11580E3D80708F04DC0CE019F7046C018
:1007E000811525E59207A0F4811544E5940708F0EA
:1007F00095C0C11583E5D80708F07AC0C11522E578
:10080000D20708F05FC0DC2FCC27C16FD06AA1C02F
:10081000811549E59407A0F4C11588E5D80708F0CB
:1008200082C0C11526E5D20708F091C08C2F0E9426
:1008300041058F71C82FD0E0DC2FCC27D06289C052
:1008400081154AE5940708F473C0905681159042CB
:1008500008F07DC08D2F8F710E944105DD27D06289
:100860008F71D82B76C0CE01805C91090E94A903BC
:10087000EC016FC0CE019927D3FF03C0EC01D86C07
:1008800068C0EC01D06C65C0DF70D06A62C074E0F3
:10089000969587957A95E1F783709C2F937021E068
:1008A00030E002C0220F331F9A95E2F73C68382BE4
:1008B000CF70C695C69540E2C49FE0011124C22BBB
:1008C000D32B47C0CE018370992721E030E002C0CE
:1008D000220F331F8A95E2F78C2F8695869540E28A
:1008E000849FC0011124E901C82BD92BDC6831C0D9
:1008F000CE018370992721E030E002C0220F331F20
:100900008A95E2F78C2F8695869540E2849FC001F8
:100910001124E901C82BD92BDA681BC0D82FCC27AA
:10092000C46FD06A16C0DC2FCC27C06FD06A11C04C
:100930008F700E94410594E0D695C7959A95E1F78E
:10094000CF70D0E0DC2FCC27D069C82B02C0C0E02C
:10095000D0E0CE01DF91CF9108958238910569F101
:10096000B0F48133910509F46DC048F489329105E2
:1009700009F463C08A32910509F469C0089585338A
:10098000910509F455C089339105B9F00895833E66
:10099000910569F138F4803E9105B1F0823E9105F0
:1009A00009F10895863E9105A9F1873E9105B9F1B7
:1009B000843E910509F064C023C02091700220FD9F
:1009C0004FC021FD4DC008958091700280FD44C04C
:1009D0008091710280FF44C08091700284FD42C00A
:1009E00083EE4DC08091700282FF38C0F5CF8091B8
:1009F000700282FD33C08091710280FD31C0ECCF66
:100A00008091710281FF32C08091700284FD2AC002
:100A100087EE35C08091700283FF26C0F5CF8091AC
:100A2000700283FD21C08091710281FD1FC0ECCF57
:100A30008091700285FD1CC01DC08091700285FDF3
:100A400019C016C08091700286FD16C017C0809133
:100A5000700286FD13C010C089E311C082EE0FC082
:100A600080EE0DC080E00BC086EE09C084EE07C0AA
:100A700089E205C085E303C08AE201C081E390E01A
:100A800008959091700292FF0DC0282F2871283090
:100A900019F4877F846006C0282F2471243011F454
:100AA0008B7F886093FF0DC0282F2871283119F49F
:100AB000877E846106C0282F2471243111F48B7E37
:100AC00088612091710220FF0DC0382F38713830B5
:100AD00019F4877F816006C0382F3171313011F4ED
:100AE0008E7F886021FF0DC0282F2871283119F4CE
:100AF000877E816106C0282F2171213111F48E7EFD
:100B0000886194FD877E089508950E944220811196
:100B100002C00E94EA200E944D20809364020E943D
:100B2000552090937102809370020E9484050E9468
:100B30005120682F70E080E090E00E948A1D609153
:100B40004F027091500280915102909152020C9488
:100B5000C21DE82FF0E0E458FD4F8081089508950C
:100B600080EA8A95F1F7089500C008950C94B005C5
:100B700008950C94B8050C94B9050C94B8050C9420
:100B8000BD05F894E82FE295EF70F0E031A1282F31
:100B90002F7081E090E001C0880F2A95EAF7982F26
:100BA0009095932391A392A1892B82A37894089581
:100BB00008950C94D8050F931F93CF93DF930E9451
:100BC00064078091040180910401811102C095E0C5
:100BD00001C090E09093870285E0891B8093860294
:100BE00086E60E94C10587E90E94C10586EC0E9445
:100BF000C10584E30E94C10585E30E94C105C5E3E8
:100C0000D1E00DE311E089910E94C1050C171D0789
:100C1000D1F7E2E7F2E0ACE7B2E011921D9282E098
:100C2000EC37F807D1F785E00E9413070E94110303
:100C3000DF91CF911F910F910C946E070F931F932B
:100C4000CF93DF9300D000D01F92CDB7DEB70E94C4
:100C50004A0760918702882309F442C08E010F5F22
:100C60001F4F85E0F80111928A95E9F7862F90E0F1
:100C7000B80184589D4F0E94C112811116C0809105
:100C800074018F5F80937401863030F1E0918602A9
:100C9000F0E0E458FD4FD801CE01069611921D9266
:100CA000A817B907D9F711E018C010927401A091E4
:100CB0008602B0E0A458BD4FF8019E012A5F3F4F65
:100CC00010E081919C91981711F08C9311E011968E
:100CD000E217F307B1F701C010E00E9415030DC041
:100CE00070E064587D4F8091860290E084589D4F5B
:100CF0000E94EF120E94D90510E0812F0F900F90F3
:100D00000F900F900F90DF91CF911F910F91089549
:100D10008F929F92AF92BF92CF92DF92EF92FF920B
:100D20000F931F93CF93DF938DE3A82E81E0B82E0E
:100D3000C2E7D2E092E4E92E91E0F92E912C01E095
:100D400010E06501F5018081F894E82FE295EF70DD
:100D5000F0E021A18F70A80102C0440F551F8A95B1
:100D6000E2F7CA01922F982B91A392A18095892333
:100D700082A378940E94B405E5E3F1E020E030E03E
:100D8000812C4191A42FA295AF70B0E090968C91E8
:100D900090E04F7002C0959587954A95E2F780FDE7
:100DA00007C0802F022E01C0880F0A94EAF701C005
:100DB00080E0882A2F5F3F4F2830310511F75FEF21
:100DC000A51AB50AF60180810E94C1050E94B605E8
:100DD0008881881619F0888281E001C080E0982A15
:100DE0002196EA14FB0409F0ACCF6091870270E011
:100DF00064587D4F292D45E082E792E00E94140758
:100E00000E941E06992011F081E090E0DF91CF91C1
:100E10001F910F91FF90EF90DF90CF90BF90AF9018
:100E20009F908F9008950895FF920F931F93CF93F3
:100E3000DF938C01F62ED72FC42F222349F081E0B7
:100E4000809377010E94C52190937601809375016C
:100E5000809177018823C1F080917501909176018E
:100E60000E94DD21069780F0EF2DFD2FD8014C2F39
:100E700050E0CD01801B910B841795071CF48D91D8
:100E80008193F7CF10927701DF91CF911F910F914E
:100E9000FF9008958091780181110DC00E94C428AF
:100EA000811102C082E001C081E08093780182302C
:100EB00011F40E94BF2881E090917801913009F0EF
:100EC00080E008950C944A070E9462078093040111
:100ED0000E944A0781110C94981208950E944A07B3
:100EE000811102C00C949E120895EF92FF920F930D
:100EF0001F93CF93DF938B01682F11110AC04423F6
:100F000029F0E82FF0E0EA5AFC4F6491762F862F03
:100F100075C0212F30E0E82FF0E0442321F0EA5A99
:100F2000FC4FE491F0E046E0049FC0011124CFEFB4
:100F3000D0E0BE010E94DD284BEA4603C001479F76
:100F4000900D1124800F911D800F911D982F990FE6
:100F5000890FAE01421B530B4E9FD0014F9FB00D26
:100F60005E9FB00D11249B2F189FA0011124452FC7
:100F700055278E01041B150B0E9FA0010F9F500DCE
:100F80001E9F500D11247E01E81AF108E29E800197
:100F9000E39E100DF29E100D1124212F3327C21B4A
:100FA000D30BCE9F9001CF9F300DDE9F300D1124CB
:100FB00062307105A9F048F46115710569F061307E
:100FC0007105C9F48B2F752F0DC06430710581F048
:100FD00058F06630710579F47E2F8B2F932F0DC05A
:100FE000832F7B2F9E2F09C08E2F7B2F952F05C01F
:100FF0008E2F732F02C07E2F852F692FDF91CF9107
:101000001F910F91FF90EF90089541E00E947507A6
:10101000089508950E9405080895CF93DF93762FD1
:10102000E901682F842F0E940A08798368838A83E4
:10103000DF91CF91089580918802282F269530E086
:101040002115310519F48170826005C02B323105FC
:1010500024F08170846580938802089588E090E090
:101060000C94CF29CF92DF92EF92FF926B017C011B
:101070000E941B08B701A60188E090E0FF90EF9066
:10108000DF90CF900C94ED29E8E8F2E083E08083D4
:1010900011828FEF828383831482AEEAB1E01296CD
:1010A0008C911297836012968C93608171818281FA
:1010B00093810C9432088091880280FF02C086954B
:1010C000089580E0089590918C02933018F49F5F0A
:1010D00090938C02882351F060918802709189026C
:1010E00080918A0290918B020C943208089581E0DD
:1010F0000C94630890918C02992319F0915090936D
:101100008C02882351F0609188027091890280914D
:101110008A0290918B020C943208089581E00C941D
:101120007A0870E00C944C1060910901809188025B
:1011300080FF0AC08091080123E0829FC001112432
:1011400083579D4F0C94910880910A0190910B0157
:10115000891780F7E82FF0E09F01220F331FE20F7D
:10116000F31FE357FD4F1182108212828F5FF0CF81
:101170009091880290FF16C090910A0120910B0176
:10118000921770F4E92FF0E0DF01AA0FBB1FEA0FFE
:10119000FB1FE357FD4F8183608342839F5FF0CF46
:1011A0000C9494080895CF93DF9300D01F92CDB78D
:1011B000DEB79091880290FF0AC09E012F5F3F4FDB
:1011C0000E940D084B8169818A810E94B8080F90A6
:1011D0000F900F90DF91CF910895CF93DF93EC01A3
:1011E000EC81F0E0EF5AFD4F4491E8E8F2E06281D3
:1011F00081810E94D3088C818F5F8C83DF91CF9196
:101200000895CF93DF93EC01E8E8F2E04381628137
:101210008C810E94D3088C818F5F8C83DF91CF916A
:1012200008950F931F93CF93DF9300D01F92CDB7F4
:10123000DEB78C018091790181110AC09E012F5F78
:101240003F4F4FEF6FEF0E940D088A818093790125
:10125000F8018481813051F028F0823061F44091AE
:1012600079010AC08091790140E007C0609179015D
:1012700040E080E003C040E080E060E00E94B80809
:10128000F801848190E0019663E070E00E94F1280B
:1012900084830F900F900F90DF91CF911F910F914A
:1012A0000895AF92BF92CF92DF92EF92FF920F9389
:1012B0001F93CF93DF9300D01F92CDB7DEB7182FC7
:1012C000F62E042FE22E9091880290FF7EC0E92F27
:1012D000E695AE2FB0E0A95BBE4F8C918093AE0136
:1012E0009E7F923061F49E012F5F3F4F812F0E94BD
:1012F0000D084B8169818A810E94B80843C0823001
:1013000019F400918B023EC0863019F410918902C5
:1013100039C08930D9F38931A9F5E9518E2F81700F
:10132000D82EE695F0E0EF5AFC4FA590B490C12C72
:10133000BB2460910C01C61618F52C2D30E0A29E3E
:10134000C001A39E900DB29E900D112470E00E94EA
:10135000DD28812FD11002C0860F01C0861B90911D
:101360000A01290F311DA901440F551F240F351FF4
:1013700023573D4F402F6F2D0E940D08C394D9CFA6
:101380000E94940880918902181308C080918A02F3
:10139000F81204C080918B02081729F08091B001E7
:1013A00082608093B00110938902F0928A020093C8
:1013B0008B02EE2051F06091880270918902809139
:1013C0008A0290918B020E9432080F900F900F902A
:1013D000DF91CF911F910F91FF90EF90DF90CF9011
:1013E000BF90AF900895E8E8F2E09181282F438103
:1013F00062818AE0890F0C94510981E00C94F30911
:10140000E8E8F2E09181282F4381628186EF890F1D
:101410000C94510981E00C94000AE8E8F2E0628142
:1014200021E1620F08F46FEF282F438181810C9432
:10143000510981E00C940D0AE8E8F2E0628121E1B3
:10144000621B08F460E0282F438181810C945109CC
:1014500081E00C941C0AE8E8F2E0438121E1420FAC
:1014600008F44FEF282F628181810C94510981E0AB
:101470000C942B0AE8E8F2E0438121E1421B08F4D6
:1014800040E0282F628181810C94510981E00C9405
:101490003A0A20E00C945109FF920F931F93CF93C7
:1014A000DF93EC01F12C0FEF10E060910C01F616C8
:1014B000F0F480910A012F2D30E0280F311DC90171
:1014C000880F991F280F391F23573D4F70E0C8011F
:1014D0000E94F128962F8C8140918B0260918A02A4
:1014E000F99E800D11240E940D08F394DECF0E9416
:1014F00094089A818C8190FF02C08F5F01C0815057
:101500008C83DF91CF911F910F91FF9008959F924F
:10151000AF92BF92CF92DF92EF92FF920F931F9301
:10152000CF93DF93EC018A8180FF03C0BB24BA9480
:1015300002C0BB24B3948C8181110DC081E0B8122C
:1015400006C080910C01815080937B0102C01092F3
:101550007B0181E08C83A12C80910C01A81608F0FE
:1015600041C080910A01CA2CD12C8601080F111D9F
:10157000C801880F991F080F191F03571D4FF80145
:1015800011821082128234E0E32EF12C912C809192
:101590007B01890D893014F0877005C087FF03C077
:1015A00090910C01890F082E000C990BC816D906D2
:1015B00091F480918B028E9DA0018F9D500D11247E
:1015C0005595479555954795980160918A02809168
:1015D00089020E940D089B0CF1E0EF1AF108B9F6A0
:1015E000A394BACF0E94940880917B0191E0B91234
:1015F0000EC0811107C080910C01815080937B0146
:101600001C820FC0815080937B01BC820AC090E095
:10161000019660910C0170E00E94F12880937B019B
:101620008C83DF91CF911F910F91FF90EF90DF900E
:10163000CF90BF90AF909F9008951F93CF93DF936B
:10164000EC018C81811109C081E08C8310927A01B8
:1016500092E0909307018093060180910A01909196
:101660000B01891770F4E82FF0E09F01220F331F60
:10167000E20FF31FE357FD4F1182108212828F5F3A
:10168000F0CF10E060910C011617C0F5E12FF0E0EB
:1016900070E0CF010E94F12820910A01820F209171
:1016A0007A01022E000C330B90E0E217F307CCF026
:1016B00020910701022E000C330B2E173F078CF0F0
:1016C0009C01220F331F820F931F9C0123573D4F14
:1016D00040918B0260918A02809189020E940D08DC
:1016E0000BC0FC01EE0FFF1F8E0F9F1FFC01E35785
:1016F000FD4F1182108212821F5FC4CF0E94940896
:101700008091060120917A01280F20937A0190910F
:101710000701980F9093070119165CF4022E000C34
:10172000330B40910C0150E041505109241735070B
:1017300034F0819580930601813009F41C82DF9199
:10174000CF911F9108958F929F92AF92BF92CF92A7
:10175000DF92EF92FF920F931F93CF93DF938C0151
:10176000FC014481C42FD0E09E01DE010E94352996
:101770009B01AC010E944B296B017C01E0E2F0E08F
:10178000EC1BFD0BA5E5B0E09B01AC010E944B29D1
:101790004B015C019F01DF010E942D299B01AC01DF
:1017A0000E9456299B01AC012C0D3D1D4E1D5F1D55
:1017B000C501B4010E940529C22FD22F2A3228F474
:1017C000F3E02F9F900111240DC025E530E02C1B84
:1017D0003109C901880F991F280F391F37FF02C02F
:1017E0002F5F3F4F35952795C22FC095F12C85E58A
:1017F000E82EED1A80910C01F816C8F4F1FC02C035
:101800008E2D01C08D2F90910A012F2D30E0290FD0
:10181000311DA901440F551F240F351F23573D4F7C
:101820004C2F60918A020E940D08F394E3CF0E942E
:101830009408F8018481811102C091E003C08032D4
:1018400019F49FEF9093050190910501890FF8011C
:101850008483DF91CF911F910F91FF90EF90DF90E4
:10186000CF90BF90AF909F908F9008950F931F934C
:10187000CF93DF93EC0100E010E080910C01282F62
:1018800030E00217130724F590910A019801290FFF
:10189000311DA901440F551F240F351F23573D4FFC
:1018A000869590E04C81081719071CF4442331F009
:1018B00002C0411103C040918B0201C040E0609121
:1018C0008A02809189020E940D080F5F1F4FD5CFB9
:1018D0000E9494088C8190E00196817099278C83F6
:1018E000DF91CF911F910F9108957F928F929F92D8
:1018F000AF92BF92CF92DF92EF92FF920F931F931E
:10190000CF93DF93FC018280748081E08483E1E5E2
:10191000F2E09490E0EDF2E0E491A12CF5E0BF2E2E
:10192000CC24CA94D12CE9190E2F10E080910C011F
:10193000A81608F0A2C0EA2CF12C22E0281568F0C5
:10194000BE9CF001BF9CF00D1124E158FE4F809128
:101950008902808380918A02818371100AC0BE9CB3
:10196000F001BF9CF00D1124E158FE4F138212824A
:101970006AC0BE9CE001BF9CD00D1124C158DE4F4F
:101980008B818823F9F081508B832FEF829FC001D8
:1019900011246C8170E00E94DD28FB01FF27EF5AC3
:1019A000FD4F8491E82FE9192FEFE29FC001112428
:1019B000B8010E94DD2880918B02689FB00111243C
:1019C0007A8341C00E94AA2920918B022695215832
:1019D00030E0A901440F551F322F2227240F351F55
:1019E000232F33278217930774F582E0881588F434
:1019F0000E94AA29B6010E94F12888830E94AA2980
:101A000020918A022695622F70E00E94F128280F0B
:101A10002983BE9CF001BF9CF00D1124E158FE4FBC
:101A2000128280918B02843120F0893C18F088EC7E
:101A300001C084E1BE9CF001BF9CF00D1124E1586F
:101A4000FE4F8483838380910A019701280F311D03
:101A5000C901880F991F280F391F23573D4FBE9C7E
:101A6000F001BF9CF00D1124E158FE4F42816181CD
:101A700080810E940D08A39459CFDF91CF911F91CF
:101A80000F91FF90EF90DF90CF90BF90AF909F901D
:101A90008F907F900C9494088091B00108951092DB
:101AA000B001089525E0E8E8F2E0DC0101900D9234
:101AB0002A95E1F72091AE013091AF014091B0013C
:101AC000FC012583368347830895609188026695DB
:101AD00070E04BE050E08DE091E00E94BA29892B44
:101AE00019F481E08093AF010E9453229093A801E2
:101AF0008093A7018091B00184608093B001089524
:101B0000EEEAF1E0118282818460828308959091EF
:101B1000880290FF3AC09170811102C0926006C0A5
:101B20008B3210F0946502C0880F982B9093880236
:101B30008091B00181608093B001662351F0609183
:101B400088027091890280918A0290918B020E9492
:101B5000320860918802669570E04BE050E08DE0BD
:101B600091E00E94BA29892B19F00E94800D02C0D1
:101B70000E94650D81E08093AA0140918B026091E3
:101B80008A02809189020C94490A0895682F9091E5
:101B90008802969581E0890F8B3208F081E00C94E1
:101BA000870D81E00C94C60D682F90918802969560
:101BB0008FEF890F09F48AE20C94870D81E00C9471
:101BC000D40D61E00C94870DE8E8F2E0808181603B
:101BD000808386950C94E10D60E00C94870DE8E815
:101BE000F2E080818E7F8083608171818281938128
:101BF0000E9432080E94800DEEEAF1E0828181604D
:101C000082832FEF80E792E0215080409040E1F7FF
:101C100000C000000C9494088091880280FD0C9410
:101C2000EF0D0C94E40DE8E8F2E080818E7F808374
:101C30000E94800DEEEAF1E08281816082832FEFC5
:101C400080E792E0215080409040E1F700C0000022
:101C50000C9494081F93CF93DF93EC01162F8F8180
:101C600080FF0FC0888180FF0AC080918802816058
:101C700080938802888186950E94870D02C00E9409
:101C8000130E8F8181FF06C0212F4B816A818981CC
:101C90000E9451098F8182FF08C08E81882319F02C
:101CA0000E94650D02C00E94800D8F8183FF03C0DA
:101CB00081E08093AA01DF91CF911F9108958091D7
:101CC000AD01811133C00E944220811104C00E94E5
:101CD000EA200E9444080E942E08609388027093B4
:101CE000890280938A0290938B028091B001836075
:101CF0008093B0016E7F61F40E9444080E942E0818
:101D0000609388027093890280938A0290938B0279
:101D10000E941B080E94800D8091880280FF03C0F2
:101D200086950E94EC0D81E08093AD010895EF92BD
:101D3000FF920F931F93CF93DF938091AF0188237E
:101D400009F4BBC08091AE01E0918802E695E81BE2
:101D5000E093A901823049F4F0E0E35BFD4FE491A8
:101D6000CE2FD0E00DEE18E059C0863049F4F0E0F7
:101D7000E65BFD4FE491CE2FD0E001E019E04EC0CC
:101D8000893051F4E695F0E0E95BFD4FE491CE2F08
:101D9000D0E00CE41AE042C08F3051F4E695F0E058
:101DA000EC5BFD4FE491CE2FD0E007E81AE036C09F
:101DB000853149F4F0E0EF5BFD4FE491CE2FD0E0A8
:101DC0000DE11BE02BC08831D9F0833239F4EFE309
:101DD000F2E0C591D49101E119E020C08432A9F06C
:101DE0008532C1F48E2F63E00E94D128E92FF0E004
:101DF000E45CFD4FE491CE2FD0E005E71CE00EC07F
:101E0000C8E2D0E003EA1BE009C0C4EFD1E006E37A
:101E10001CE004C0C0EDD7E009E018E08091AA0101
:101E2000882361F01092AA010E9453229093A80186
:101E30008093A7011092AC011092AB010E94532233
:101E4000E091A701F091A8019C012E1B3F0B2F3FB1
:101E50003F4798F520917E012223B1F010927E0138
:101E600020917C0130917D01821B930B8F3F9F4716
:101E700058F4205D3A4830937D0120937C01809195
:101E8000B00188608093B001E090AB01F090AC01AC
:101E9000EC0FFD1FF093A801E093A70187EA91E002
:101EA000F80109958091AB019091AC01892B29F43F
:101EB000EF2819F081E080937E01DF91CF911F918F
:101EC0000F91FF90EF900895882311F0FA0101C05F
:101ED000FB010994CF93DF93C82FD62F0E945B0894
:101EE0008C1740F00E945B088D1720F4DF91CF9192
:101EF0000C94D10D8C2FDF91CF910C94E10D1F9399
:101F0000CF93DF93FB0112811111C1C0EC010E943C
:101F1000811F8272CD3CFCE5DF0709F49AC008F00E
:101F200043C0C73CECE5DE0709F47FC0D8F4C43CED
:101F30009CE5D90709F46DC038F4C33CDC4509F0D1
:101F4000A5C00E940C0EA3C0C53C9CE5D90709F4AE
:101F500065C0C63CDC4509F099C04AE05AE06DEF27
:101F600079E060C0CA3CFCE5DF0709F468C070F4A2
:101F7000C83CECE5DE0709F45DC0C93CDC4509F06E
:101F800085C049E15AE068E27AE04CC0CB3C9CE570
:101F9000D90709F459C0CC3CDC4509F077C04EE8BC
:101FA00058E067E778E03EC0C23DFCE5DF0709F492
:101FB0005DC098F4CF3C9CE5D90709F451C008F402
:101FC0004DC0C03DFCE5DF0709F44DC0C13DDC4517
:101FD00009F05CC06EE089E056C0C53D9CE5D907BC
:101FE00009F44AC058F4C33DFCE5DF0709F441C0D9
:101FF000C43DDC4509F04AC088E142C0C63D9CE5CD
:10200000D907E9F1CE35DD4509F040C06AE285E245
:102010003AC04EED5DE061ED7DE004C041ED5DE074
:102020006EED7DE00E94640F32C04DEF59E06AE032
:102030007AE0F8CF48E25AE069E17AE0F3CF46E48B
:102040005AE067E37AE0EECF47E35AE066E47AE0ED
:10205000E9CF47E758E06EE878E0E4CF81E010C0D0
:1020600065E082E010C068E086E00DC064E18FE0CA
:102070000AC067E185E107C062E289E104C083E24A
:102080000E94E10D04C00E946A0F01C011E0812F7F
:10209000DF91CF911F910895539A2BB1277F3BB1C8
:1020A00038604FB7F894FC01CB01880F991F680F77
:1020B000791F6E0F7F1FE617F70789F0819198E06F
:1020C0003BB9000000C087FF2BB9880F000000C09B
:1020D00000C000C02BB900C09A9591F7ECCF4FBF5C
:1020E0008FE594E00197F1F700C0000008950F9389
:1020F0001F93CF93DF93C42FD22FFC0182818823BB
:10210000C9F04093B3010E94C5219093B20180931E
:10211000B10180E28C0F883008F057C0C77081E0B1
:1021200001C0880FCA95EAF7DF91CF911F910F91F7
:102130000C943C178091B301481330C08091B101D9
:102140009091B2010E94DD21883C910538F510E2A2
:102150001D0FCD17B9F080E28C0F883040F4C770A6
:1021600081E001C0880FCA95EAF70E944317183032
:1021700028F581E09D2F977001C0880F9A95EAF7A6
:102180000E943C17802F0E9433171830F0F4D7704C
:1021900081E001C0880FDA95EAF70AC080E28C0F6F
:1021A000883098F4C77081E001C0880FCA95EAF7BB
:1021B000DF91CF911F910F910C944317802FDF91E6
:1021C000CF911F910F910C943317DF91CF911F91F5
:1021D0000F9108950F939C01CB01243F4CE53407E8
:1021E00031F188F4293DFCE53F07D9F02A3D4CE563
:1021F000340779F1283D3C45A9F506E221EE41EE90
:1022000068ED7CE52BC0263FFCE53F07E1F0A8F038
:10221000273F3C4539F507E225EE46EE67EF7CE5C2
:102220001DC007E225EE45EE69ED7CE517C006E22C
:1022300021EE40EE64EF7CE511C007E225EE44EEAE
:1022400065EF7CE50BC006E221EE42EE66EF7CE531
:1022500005C008E221E045EE6AED7CE50E947710BA
:1022600080E008C0FC018281882319F01092B3013C
:1022700001C081E00F910895CF93DF93EC01FB0142
:102280008281882309F41FC1C230FCE5DF0708F40E
:102290001BC1C6319CE5D90738F09E012B5F3C4538
:1022A0002930310508F010C10E9455209093710229
:1022B00080937002C031ECE5DE0709F4C3C008F07A
:1022C00041C0C8308CE5D80709F49AC0F0F4C43096
:1022D000ECE5DE0709F487C068F4C2308CE5D80766
:1022E00009F477C0C330DC4509F0E3C08091700287
:1022F000826076C0C630ECE5DE0709F46EC008F0F7
:102300007BC08091700288606BC0CC308CE5D807B0
:1023100009F485C068F4CA30ECE5DE0709F474C03E
:1023200008F079C00E94941980917002806858C0AA
:10233000CE308CE5D80709F476C008F07FC08091D4
:1023400070028BC0CC3FECE5DE0709F44FC018F5F6
:10235000C3318CE5D80709F47DC078F4C131ECE5D0
:10236000DE0709F473C0C231DC4509F0A2C00E9447
:102370009419809170028F7733C0C5318CE5D807EE
:1023800009F472C008F486C0CB3FDC4509F091C067
:10239000809171023EC0C115FDE5DF0709F45FC001
:1023A00058F4CE3F9CE5D90709F444C008F43FC077
:1023B0008091710282602DC0C230FDE5DF0709F413
:1023C00075C008F45DC0C330DD4509F072C080E01F
:1023D0006EC080917002816003C080917002806144
:1023E0008093700266C08091700211C0809171026A
:1023F0008260809371025DC0809170028062F0CF34
:10240000809170028064ECCF80917002886084605B
:10241000E7CF8160EECF809170028E7FE1CF809117
:1024200070028D7FDDCF80917002877FD9CF809140
:10243000710218C0809171028D7FDBCF8091700294
:102440008F7ECECF809170028F7DCACF8091700237
:102450008F7BC6CF80917002877F8B7FC1CF8091A9
:1024600071028D7F8E7FC5CF8091700282FB222703
:1024700020F991E0922790FB82F990FB83F9B0CF8D
:1024800080917102982F909591708E7F892B90FB8F
:1024900081F9AFCF0E9494198091700287FB2227A7
:1024A00020F991E0922790FB87F99ACF81E00E9472
:1024B000EC2080917002909171020E9466200E942F
:1024C000941980E001C081E0DF91CF910895CF930E
:1024D000DF9386319C4541F5EB010E94811F982FC7
:1024E0008A812091280130912901882379F09A7AF4
:1024F00081E009F480E08093B401911102C069E2A7
:1025000001C065E3C9010E9433210AC08091B40172
:10251000811102C069E201C065E3C9010E94352151
:102520000E94D31F80E001C081E0DF91CF91089528
:1025300062E070E088E191E00C946F1362E070E07B
:1025400088E191E00C9478130E944C0D882361F08F
:1025500080EC91E00E94520D81E090E00E945114C5
:10256000892B11F40C944F0D08958091BF01883090
:1025700039F460E080EC91E00E942A0E1092BF01D5
:102580000895CF93DF93D62FC72F0E94A41280E027
:1025900090E00E945114892BF1F4ED2FFC2F80E084
:1025A00090E0DC01A654BE4F2C912193019685301A
:1025B0009105B9F70E943822DC01CB010296A11DDA
:1025C000B11D8093B6019093B701A093B801B09369
:1025D000B90181E001C080E0DF91CF910895CF93F0
:1025E000DF93D62FC72F0E94B5126091B60170916C
:1025F000B7018091B8019091B9010E941B22ED2F83
:10260000FC2F80E090E02191DC01A654BE4F2C937A
:10261000019685309105B9F7DF91CF9108958EE14C
:102620004A9B02C08150E1F74A9BFECF08955A9819
:1026300080E28A95F1F75A9A0895FC012AE02A95DA
:10264000F1F790E020E080E031E0261779F040E1FA
:102650004A95F1F7880F4A9B02C08160932700C01A
:10266000000040E14A95F1F72F5FEFCF20E12A9576
:10267000F1F729B100C0000030E13A95F1F722FBF3
:10268000222720F992272081920F90830895EF92BC
:10269000FF920F931F93CF93DF931F92CDB7DEB7B7
:1026A00019828C017C01E60EF11C0E151F0559F0F4
:1026B0000E940F1368E0CE0101960E941D13F801DD
:1026C00081938F01F2CF81E09981911180E00F9089
:1026D000DF91CF911F910F91FF90EF90089590930C
:1026E000CA018093C9016093C801529A5A9A089509
:1026F0009093CA018093C9016093C80152985A9A75
:10270000EA9AE9E6F0E080818F7C80830895615049
:1027100091E001C0990F6A95EAF720E031E0992332
:1027200061F0492F482319F05A9A232701C05A987B
:1027300040E24A95F1F79695F2CF222311F05A9A8A
:1027400001C05A9880E28A95F1F75A980895FF924D
:102750000F931F93CF93DF93EC018C01060F111D94
:10276000C017D10741F0F9900E94171368E08F2D30
:102770000E948713F5CFDF91CF911F910F91FF90AA
:1027800008951F920F920FB60F9211240F931F936B
:102790002F933F934F935F936F937F938F939F9369
:1027A000AF93BF93EF93FF93CF93DF931F92CDB778
:1027B000DEB719820E940F1367E0CE0101960E94D6
:1027C0001D13382F369536953695932F969595701F
:1027D000232F2570920F292F237096959695877039
:1027E000920F891348C08981811145C08091C80129
:1027F000831708F440C080E18A95F1F75A9A529AFB
:10280000A2E0AA95F1F700C00091C9011091CA0198
:10281000B8E03B9F000D111D11245A98F801658105
:10282000662321F0868197810E94A7130E941713C7
:10283000F0E1FA95F1F75A9852985A9A80E18A9500
:10284000F1F7D80112966C911297662369F01396EE
:102850008D919C9114970E944713D801ED91FC91A2
:10286000811105C082E004C0D801ED91FC9188E09F
:1028700080830E940F130F90DF91CF91FF91EF9112
:10288000BF91AF919F918F917F916F915F914F9188
:102890003F912F911F910F910F900FBE0F901F909E
:1028A00018950F931F93CF93DF932091C80130E0C9
:1028B000281739070CF471C09C0193E0220F331FD5
:1028C0009A95E1F7C091C901D091CA01C20FD31FF7
:1028D000F894529A5A9845E04A95F1F70000982FDB
:1028E000969595708570890F982F9370869586952B
:1028F000890F8901082B0E94171384E08A95F1F74C
:1029000000C067E0802F0E94871340E14A95F1F7ED
:1029100052985A9A4A9902C000C0FCCF87E090E0D2
:102920004A9B0EC0019751F4529A5A9AE881F98154
:1029300081E08083789481E090E031C000C0F0CFE6
:102940006D81662381F08E819F810E9447138111E2
:102950000AC0529A5A9AE881F98182E08083789479
:1029600082E090E01CC00E940F1380E28A95F1F78C
:102970005A98529A40E14A95F1F76A81662321F00C
:102980008B819C810E94A7130E941713E881F98113
:102990001082789480E090E002C084E090E0DF91C3
:1029A000CF911F910F9108959093D0018093CF0103
:1029B0000895E091CF01F091D001309721F001907E
:1029C000F081E02D099480E00895E091CF01F0912D
:1029D000D001309721F00280F381E02D0994089511
:1029E0002091CD013091CE012817390771F09093D5
:1029F000CE018093CD01E091CF01F091D0013097CD
:102A000021F00680F781E02D099408952091CB01F3
:102A10003091CC012817390771F09093CC01809345
:102A2000CB01E091CF01F091D001309721F00084EB
:102A3000F185E02D099408950E94D1216093E00171
:102A40007093E1018093E2019093E3016093DC01D4
:102A50007093DD018093DE019093DF01089585B7C7
:102A6000806885BF85B7806885BF08950C944A0744
:102A700008950C9438150C9438150C943B150C944F
:102A800038150C943F150C9438150E942F1580E4CE
:102A900090E20E946D220E9443150C9441150E9401
:102AA00039150C9438150E94BC210E9412220E94F4
:102AB000DB050E945F0E0C943D159F92AF92BF9272
:102AC000CF92DF92EF92FF920F931F93CF93DF93FA
:102AD000CDB7DEB72A970FB6F894DEBF0FBECDBFD5
:102AE0000E94880681110E941C1582EDA82E81E0AB
:102AF000B82E00E010E0902E802F0E94A905D82E5D
:102B0000F501C1905F01C826B1F40F5F1F4F0A3075
:102B1000110589F78FEF89838A831B820E94C52163
:102B20008160782F9D838C8349815A816B818D814F
:102B30000E94FB152FC08091640281FD0E94AF05A9
:102B4000E12CFF24F3948C2D8F21F1F00E94361597
:102B5000882399F0EE829F82DF2081E009F480E0F3
:102B600088870E94C5218160782F9A8789874E8146
:102B70005F8168858A850E94FB15F801EE52FE4F41
:102B80008081F826F08206C0E394FF0CF8E0EF1293
:102B9000DACFBBCF0E94970E0E94D9149091D10139
:102BA0008917B9F00E94D9148093D1012A960FB6E3
:102BB000F894DEBF0FBECDBFDF91CF911F910F9173
:102BC000FF90EF90DF90CF90BF90AF909F900C94CC
:102BD00087032A960FB6F894DEBF0FBECDBFDF91F4
:102BE000CF911F910F91FF90EF90DF90CF90BF900A
:102BF000AF909F900895DF92EF92FF920F931F93F3
:102C0000CF93DF93CDB7DEB72B970FB6F894DEBF27
:102C10000FBECDBFF42E052F162FE72ED82E611133
:102C20000E94A11FFE01319686E0DF011D928A9568
:102C3000E9F77E2D4F2D502F612F8D2D9E810E9403
:102C40004D1C2B960FB6F894DEBF0FBECDBFDF91A3
:102C5000CF911F910F91FF90EF90DF900895FC01AD
:102C6000808191810E94211F0895CF93882309F4C8
:102C700082C0C82F8238C1F40E94D91481FD7BC064
:102C800069E380912801909129010E9433210E94DB
:102C9000D31F2FEF81EE94E0215080409040E1F768
:102CA00000C0000069E319C08338F1F40E94D91410
:102CB00080FD61C063E580912801909129010E9407
:102CC00033210E94D31F2FEF81EE94E021508040EA
:102CD0009040E1F700C0000063E5809128019091E9
:102CE00029010E94352144C08438C1F40E94D914BE
:102CF00082FD41C067E480912801909129010E94E2
:102D000033210E94D31F2FEF81EE94E021508040A9
:102D10009040E1F700C0000067E4DFCF8CEF8C0F3C
:102D2000813AD0F46C2F80912801909129010E9462
:102D3000FD20882349F06C2F809128019091290172
:102D40000E9435210E94D31F6C2F80912801909101
:102D500029010E9433210CC080E28C0F883058F486
:102D6000C77081E001C0880FCA95EAF70E94841FEE
:102D7000CF910C94D31FCF910895882309F45BC0A1
:102D8000682F823879F40E94D91481FF54C069E316
:102D900080912801909129010E9433210E94D31F24
:102DA00069E310C08338B1F40E94D91480FF43C096
:102DB00063E580912801909129010E9433210E94AE
:102DC000D31F63E580912801909129010E9435214C
:102DD0000C94D31F843879F40E94D91482FF2BC03D
:102DE00067E480912801909129010E9433210E947B
:102DF000D31F67E4E7CF8CEF860F813A18F380E2A8
:102E0000860F883048F4677081E001C0880F6A95AA
:102E1000EAF70E948A1FDCCF8BE5860F833020F40F
:102E200080E090E00C94F014685A673120F480E060
:102E300090E00C94061508951F93CF93DF93182FFD
:102E4000EB010E943516209741F08FE99FE0019732
:102E5000F1F700C000002197F6CF812FDF91CF91CD
:102E60001F910C94BD16893319F060E070E002C028
:102E700060E570E00C941C17882321F00E94841FE9
:102E80000C94D31F0895882321F00E948A1F0C946C
:102E9000D31F0895CF92DF92EF92FF920F931F936B
:102EA000CF93DF937C01062FC72FFC011281D581C0
:102EB000D295DF700E94591F882399F0112389F061
:102EC0008C2F807F803421F080E2800F883048F0A2
:102ED00082E00E9423200E94591F91E0D82ED9261B
:102EE00001C0D12CCC2EC2948FE0C8228C2D90E052
:102EF000FC01EA5AFF4F0C9427298C2F807FCF705A
:102F0000882311F0C295C07F112399F0CC2309F4D6
:102F100064C180E2800F883010F0011104C08C2F52
:102F20000E94841F03C08C2F0E94941F0E94D31FF5
:102F300054C1802F0E94BD16CC2309F473C180E2D6
:102F4000800F883010F0011104C08C2F0E948A1F5E
:102F500003C08C2F0E949A1F0E94D31F63C18C2F25
:102F6000807FCF70803211F0C295C07F002319F0AE
:102F70000130C9F022C0112371F0DD2341F0D130BE
:102F800031F40E94B41F8C2B0E94BC1F4BC10E94C5
:102F9000B41F8C2B1DC0DD2319F0D13009F442C1C0
:102FA0000E94C91F25C0112321F0D63008F03AC174
:102FB0000EC0D53008F036C11BC0112361F0DD23EF
:102FC00031F0F701858180FF08C18F7085838C2FD8
:102FD0000E943C1727C1DD2359F0093309F00EC1C7
:102FE000FFEF27EE83E0F15020408040E1F704C17D
:102FF0008C2F0E94431716C18C2F837009F045C097
:10300000111114C1402F429546954770440F440F4B
:10301000602F6F70862F90E0A0E0B0E0042E04C017
:10302000880F991FAA1FBB1F0A94D2F704FF10C074
:103030000FE010E020E030E004C0000F111F221F5D
:10304000331F4A95D2F7009510952095309503C00F
:1030500000E010E09801C695C695C370BC01CD0193
:10306000602B712B822B932BC23049F058F4C13066
:1030700019F00E949E1DDAC00E948C1DD7C00E94CC
:10308000B01DD4C00E948A1DD1C0112319F08C2F0D
:10309000817001C08695882309F4C8C0402F4295ED
:1030A00046954770440F440F602F6F70862F90E055
:1030B000A0E0B0E0042E04C0880F991FAA1FBB1F18
:1030C0000A94D2F704FF10C00FE010E020E030E0D7
:1030D00004C0000F111F221F331F4A95D2F700951D
:1030E00010952095309503C000E010E09801C6953A
:1030F000C695C370BC01CD01602B712B822B932B25
:10310000C23049F058F4C13019F00E94631E8EC0DD
:103110000E94511E8BC00E94751E88C00E94C41D53
:1031200085C0CF70112339F08C2F0E94EA1D802FAB
:103130000E943C177BC0802F0E9443178C2F0E9457
:103140000B1E74C0023F01F128F4003F41F0013F23
:10315000A1F03FC0033FF9F0043F39F13AC0112319
:1031600041F0D53008F05EC08C2F8F710E94301E68
:1031700059C0D63008F056C0F7CF112339F08C2F44
:103180008F710E94EA1D4EC01123C9F38C2F8F71DD
:103190000E940B1E47C0112329F08C2F8F710E94B3
:1031A000D51D40C00E94D01D3DC0112349F0CF71F4
:1031B0008C2F0E94EA1D63E08C2F0E94082032C0F1
:1031C00081E00E942320D23068F182E00E94232017
:1031D00029C0112331F0DD2391F2802F0E94351692
:1031E00021C0DD2399F2093349F49FEFE7EEF3E0C4
:1031F0009150E040F040E1F700C00000802F0E94B5
:10320000BD1610C04C2F4F70602FC7010E94900355
:103210000E94FB1C0FC04C2F4F70602FC7010E94F3
:10322000930308C088EF8C0D843020F40E94D914D9
:103230000E948703DD20C9F00E94551F80FD15C044
:10324000F70112820E944F1F0E94EA1DC7010E94CF
:1032500056190E944F1FDF91CF911F910F91FF9040
:10326000EF90DF90CF900C940B1EDF91CF911F91C8
:103270000F91FF90EF90DF90CF9008950F931F93E1
:10328000CF93DF93EC01688179818A810E942C1FA2
:103290008C010E94871E0E94781DB801CE010E94F9
:1032A0004A17DF91CF911F910F910895CF93DF932C
:1032B000EC01988189812B813C81232B31F08F3F58
:1032C00031F481E09F3F19F403C081E001C080E048
:1032D00080FD19C0CE010E94270381110CC00E94FD
:1032E000591F882381F08A81882369F082E0DF9169
:1032F000CF910C942320CE010E943E19CE01DF9184
:10330000CF910C940603DF91CF9108950E94A11FE5
:103310000E94B11F0C94D31F809128019091290124
:103320000E9437210C9486190E94911F0C948C19CD
:10333000E92FE295EF704E2F50E0FA013297EE3010
:10334000F105B0F4EA59FF4F0C942729803F91F022
:1033500018F4883E68F40EC0843F51F40BC0883ED8
:1033600048F0813F29F406C093FB882780F908952F
:1033700080E0089581E008950E94211F0E9498191D
:103380000895CF93DF9300D000D01F92CDB7DEB762
:103390000F900F900F900F900F90DF91CF910895A5
:1033A000CF93DF9300D000D000D0CDB7DEB7269604
:1033B0000FB6F894DEBF0FBECDBFDF91CF91089559
:1033C0001F93CF93DF93C091E50116E08091E60152
:1033D000C81799F0D0E01C9FF0011D9FF00D11243B
:1033E000E951FE4F408151816281738184819581D1
:1033F0000E94D0192196C770E9CFDF91CF911F911C
:10340000089540911702509118026091190270912D
:103410001A0280911B0290911C020C94D0190F93F8
:103420001F93CF93DF9380911C0282958F7009F0D8
:103430005DC080911902882309F458C08091E5018C
:103440001091E6016091170270911802C0911A0262
:10345000D0911B0291E06F3F09F090E0292F06E028
:10346000811709F443C0209721F07F3F21F030E01D
:1034700003C031E001C0322F90E030FD34C0089F1E
:10348000F001099FF00D1124DF01A951BE4F1196E3
:103490003C911197371327C03C91361324C01296E4
:1034A0003C91129731111FC013964D915C91149766
:1034B0004C1B5D0B483C5105B0F480911C028F7091
:1034C000806180931C02E451FE4F80818F70806187
:1034D000808387E192E00E945619DF91CF911F917E
:1034E0000F910C94E01901968770BACFDF91CF91BC
:1034F0001F910F9108959F92AF92BF92CF92DF924A
:10350000EF92FF920F931F93CF93DF93CDB7DEB768
:1035100061970FB6F894DEBF0FBECDBF8C0185E07A
:10352000F801DE011D9601900D928A95E1F7F801F0
:1035300040815181E28090911702609118022091A0
:103540001A0230911B022115310531F06F3F31F421
:1035500081E09F3F19F403C081E001C080E0F82FB3
:10356000F1709F2E80FD46C1F801A380B48087E1F1
:10357000C82E82E0D82EF0901902F501E21BF30B61
:10358000FF2009F4DFC080911C02E83CF10508F03F
:103590009BC0282F207F09F052C0561313C0491337
:1035A00011C0FE2CE1100EC08F70806180931C0250
:1035B0000E94011AC6010E94561980911C02F8014E
:1035C000858358C1AB2831F05F3F31F481E04F3F34
:1035D00019F403C081E001C080E080FD03C081E0F8
:1035E0008E2502C080E090E0F82FF170FF2E80FF62
:1035F0001CC08091E5012091E60136E0821709F4B4
:1036000017C190E0389FF001399FF00D1124E95166
:10361000FE4F6181561306C06081461303C062816C
:10362000E61203C001968770E9CFFE2CEE2009F464
:1036300021C180911C02816080931C025AC05613E4
:1036400006C0491304C0E11002C0F8019FC04D87B5
:103650005E878D859E850E94BC19882379F1EE20B6
:1036600069F120911C02822F82958F7090E0029761
:1036700074F0809117029091180298878F831986B1
:10368000BB86AA862C87CE0107960E94561986E033
:10369000F801A7E1B2E001900D928A95E1F70E944E
:1036A0000F1A0E94011A0DC0561729F14D875E8727
:1036B0008D859E850E94BC1981112CC0C8010E9475
:1036C0005619FF24F394D6C0282F207F69F77A2D4E
:1036D000B98AA88A6E2D89890E94C11987E192E072
:1036E0000E94561986E0F60111928A95E9F70E9428
:1036F000011AF12CBFC04913D9CFE110D7CFF8017F
:103700008583C8010E94561986E0F60111928A95B8
:10371000E9F7B0C0EE2091F220911C02822F829531
:103720008F7090E002970CF4B2CF809117029091C5
:1037300018029A8389831B82BD82AC822E83CE01BC
:103740000196A3CFE83CF10508F047C0FE2CEE201F
:1037500009F4B4CF561330C049132EC020911C0277
:1037600020FD21C0822F82958F70482F50E0411597
:103770005105C9F0F80125834F30510541F08F5FA5
:10378000982F9295907F822F8F70892B8583C80107
:103790000E94561986E0F801A7E1B2E001900D926F
:1037A0008A95E1F742C086E0F801A7E1B2E0019016
:1037B0000D928A95E1F75EC04D875E878D859E8567
:1037C0000E94BC19811163CF80911C02816080939B
:1037D0001C02C8010E9456194DC07A2DB98AA88AC8
:1037E0006E2D89890E94C11986E0F60111928A9591
:1037F000E9F71BC0EE2009F461CF4D875E878D8508
:103800009E850E94BC19F82E882309F457CF86E0C4
:10381000F801A7E1B2E001900D928A95E1F787E106
:1038200092E00E942F160E940F1A0E94011A22C0D5
:103830004D875E878D859E850E94211F292F2295A9
:103840002F70223028F49F7039F0811105C00BC011
:10385000243028F49F7049F4805E883020F0C8013D
:103860000E9456199F2CF92C05C0F8019581907F74
:1038700099F7F9CF8F2D61960FB6F894DEBF0FBE82
:10388000CDBFDF91CF911F910F91FF90EF90DF900F
:10389000CF90BF90AF909F9008951F93CF93DF93E9
:1038A000CDB7DEB72C970FB6F894DEBF0FBECDBFF5
:1038B0004F83588769877A878B879C87CE010796C5
:1038C0000E947B1A8823D1F09F8188852A853B85B9
:1038D000232B31F08F3F31F481E09F3F19F403C077
:1038E00081E001C080E080FD47C04F815885698537
:1038F0007A858B859C850E94D0193EC086E0FE01AA
:103900003796DE01119601900D928A95E1F7FF81BD
:10391000E8856A857B856115710531F0EF3F31F4EB
:1039200081E0FF3F19F403C081E001C080E080FD29
:1039300023C02091E60130E0C901019687709927E4
:103940004091E50150E084179507F1F1F983EA838E
:103950007D836C8396E0929FD001939FB00D1124DC
:10396000A951BE4FFE01319601900D929A95E1F753
:103970008093E6010E94E01916E08091E5019091A4
:10398000E601891771F1189FC001112489519E4FDA
:103990000E947B1A882329F1E091E5011E9FF00126
:1039A0001124E951FE4F40815181628173818481EC
:1039B00095810E94D0198091E50190E00196877071
:1039C00099278093E501D9CF0E9494191092E601BE
:1039D0001092E501E7E1F2E086E0DF011D928A95B1
:1039E000E9F72C960FB6F894DEBF0FBECDBFDF917E
:1039F000CF911F910895EF92FF920F931F93CF9352
:103A0000DF938C01892B09F46CC0F12CEE24E39434
:103A1000E8012196F8018491843740F4843008F05D
:103A200051C0813081F0823019F15BC0853709F4D3
:103A300044C0A8F19CE7980F903708F052C08F77E8
:103A40000E94BD1641C00E5F1F4FFE01849190E29F
:103A5000980F983050F48770FE2D01C0FF0F8A95A3
:103A6000EAF78F2F0E94A41F14C00E9435162DC0A4
:103A70000E5F1F4FFE01849190E2980F983060F422
:103A80008770FE2D01C0FF0F8A95EAF78F2F0E94E5
:103A9000AA1F0E94D31F19C00E94BD1616C00E5F38
:103AA0001F4FFE01C491CC2381F08FE99FE0019765
:103AB000F1F700C00000C150F6CF0E5F1F4FFE01AE
:103AC000F49003C00E9435168E018F2D882309F4CF
:103AD0009FCFEFE9FFE03197F1F700C00000815080
:103AE000F5CFDF91CF911F910F91FF90EF90089547
:103AF000089508950C94791D0C947A1D0E947C1DE4
:103B0000609353027093540280935502909356022F
:103B10000C9486190C947E1D0F931F9300915302F1
:103B2000109154022091550230915602602B712B56
:103B3000822B932B1F910F910C947E1D0F931F933B
:103B40000091530210915402209155023091560277
:103B500060237123822393231F910F910C947E1D68
:103B60000F931F930091530210915402209155021C
:103B70003091560260277127822793271F910F915A
:103B80000C947E1D0C94791D0E94C21D60934F02FF
:103B90007093500280935102909352020C948619B4
:103BA00060E070E0CB010C94C41D0F931F9341E0C3
:103BB00050E060E070E08A019B0104C0000F111F1B
:103BC000221F331F8A95D2F7C901B8011F910F91A7
:103BD0000C94C41D0F931F9341E050E060E070E02F
:103BE00004C0440F551F661F771F8A95D2F7809136
:103BF0004F0290915002A0915102B09152028A015D
:103C00009B01082B192B2A2B3B2BC901B8011F91B3
:103C10000F910C94C41D0F931F9341E050E060E09E
:103C200070E004C0440F551F661F771F8A95D2F7B6
:103C3000409550956095709580914F0290915002FB
:103C4000A0915102B09152028A019B0108231923CD
:103C50002A233B23C901B8011F910F910C94C41D65
:103C60000F931F9341E050E060E070E004C0440F08
:103C7000551F661F771F8A95D2F780914F0290914A
:103C80005002A0915102B09152028A019B01082773
:103C900019272A273B27C901B8011F910F910C94BE
:103CA000C41D0F931F9300914F0210915002209159
:103CB000510230915202602B712B822B932B1F915A
:103CC0000F910C94C41D0F931F9300914F021091FC
:103CD00050022091510230915202602371238223BD
:103CE00093231F910F910C94C41D0F931F93009168
:103CF0004F021091500220915102309152026027E0
:103D00007127822793271F910F910C94C41D08954A
:103D100028E0929F800D1124E82FE695E695E69520
:103D2000877051E001C0550F8A95EAF785E0E89F5A
:103D3000F0011124E35EFD4F20E030E070E04081AF
:103D4000CB01022E02C0969587950A94E2F7817006
:103D5000819584278523842781932F5F3F4F2530CA
:103D6000310569F7089528E0929F800D1124682F8E
:103D7000669566956695982F977085E0689FB00167
:103D8000112440E050E080E0FB01E40FF51FE35E0A
:103D9000FD4F208130E0092E02C0369527950A9408
:103DA000E2F721703327042E01C0220F0A94EAF7AC
:103DB000822B4F5F5F4F4530510531F70895BF9219
:103DC000CF92DF92EF92FF920F931F93CF93DF93E7
:103DD0008C01C0904F02D0905002E0905102F090C0
:103DE00052028091530290915402A0915502B091D9
:103DF0005602C82AD92AEA2AFB2ACFE1D0E0D70105
:103E0000C6010C2E04C0B695A795979587950A9480
:103E1000D2F780FD04C0219790F7B12C07C0BC2ECB
:103E2000B8018C2F0E94B1030197A9F38B2DDF916C
:103E3000CF911F910F91FF90EF90DF90CF90BF90A7
:103E40000895CF93DF93EC010E94DF1EBE010E9414
:103E5000B103DF91CF9108951F93CF93DF93EB01CF
:103E60009091E401992321F0CB010E94211F13C0FE
:103E7000882349F0CB010E94DF1E182F682FCE0146
:103E80000E94881E04C0CB010E94B31E182FBE01E1
:103E9000812F0E94B103DF91CF911F9108958091EE
:103EA000570285958595859508958091570287706D
:103EB000089590915702977081E009F480E0089589
:103EC0009091710292FB222720F9281751F080FB74
:103ED00092F99093710280917002909171020C940A
:103EE000662008958091710282FB882780F991E015
:103EF00089270C94601F81E00C94601F80E00C9473
:103F0000601F80916302089590916302892B8093D2
:103F100063020895809590916302892380936302E0
:103F2000089510926302089590916202892B809304
:103F300062020895809590916202892380936202C3
:103F4000089510926202089590916102892B8093E6
:103F500061020895809590916102892380936102A6
:103F6000089510926102089580915802089508956D
:103F70000C94B71F0C94B81F9091710292FD08C069
:103F800090915802981721F0809358020C94BA1F10
:103F9000089580915802882329F01092580280E0F9
:103FA0000C94BA1F0895E0912801F09129018091A5
:103FB00063028083E0912801F09129019081809132
:103FC0006202892B8083E0912801F0912901908180
:103FD00080916102892B808380915802882381F02F
:103FE000E0912801F09129019081892B80838091B3
:103FF0002801909129010E94F12081110E94C91F7E
:1040000080912801909129010C94E5140C94B71F1C
:104010009091710292FD10C098E0899F9001112447
:10402000262B209357020E94EA1D80915702859506
:10403000859585950C9406200C94EA1D10925702E4
:1040400080E00C9406202091570280958223809373
:104050005702982F977041F430E0482F082E000C3B
:10406000550B2417350721F49091710292FF07C078
:104070008595859585950E940B1E0C941E200895AC
:1040800080E0089580E090E00E94D52921E08A3EFA
:104090009E4F09F020E0822F089582E090E00C947A
:1040A000C72983E090E00C94C729CF9384E090E087
:1040B0000E94C729C82F82E290E00E94C7292C2FB6
:1040C00030E0A901582BCA01CF910895CF93C92F91
:1040D000682F84E090E00E94DB296C2F82E290E060
:1040E000CF910C94DB29AB01BC018FE090E00C94E4
:1040F000ED29AB01BC0183E190E00C94ED2960E077
:1041000070E0CB010C94792060E070E0CB010E945C
:1041100073200C947F206AEE7EEF80E090E00E9496
:10412000F92960E082E090E00E94DB2960E083E012
:1041300090E00E94DB2910925302109254021092D8
:1041400055021092560260E084E090E00E94DB2964
:1041500060E082E290E00E94DB2960E085E090E090
:104160000E94DB2960E086E090E00E94DB296FEF8F
:1041700087E090E00E94DB2940E050E0BA0188E04F
:1041800090E00E94ED2960E08DE090E00E94DB2944
:1041900040E050E0BA0188E190E00E94ED2960E043
:1041A00087E190E00E94DB2940E050E0BA018CE119
:1041B00090E00E94ED2960E070E080E290E00E94D3
:1041C000F92940E050E0BA0188E190E00E94ED2931
:1041D0000C9484200C948B20682F8EE090E00C943B
:1041E000DB29FC01329697E080E0915029F0219183
:1041F0002223D9F38F5FF9CF0895662349F0FC019C
:10420000329608962191621729F0E817F907D1F73D
:1042100080E0089581E008959C01FC0132969FEFB3
:1042200080E04191461789F09F3F19F4411101C088
:10423000982F8F5F8630A9F79F3F39F0F901E90F7A
:10424000F11D97FDFA956283089508959C012A5FF8
:104250003F4FFC014281461301C012820196821732
:104260009307B9F708950C940C210C94262102961B
:1042700026E0FC0111922A95E9F7089508950C941F
:104280003E210C943E21CF930E9441210E9488063A
:104290000E943F21C0E08C2F0E94A905811104C01B
:1042A000CF5FCA30C1F701C081E0CF9108950C946F
:1042B0003E210C9457218091B102843049F10E9433
:1042C000592180E00E9487031092650220E488E172
:1042D00090E00FB6F894A895809360000FBE2093ED
:1042E000600083B7817F846083BF83B7816083BFB1
:1042F0007894889583B78E7F83BF0FB6F894A8957E
:1043000080916000886180936000109260000FBE11
:1043100008950C943E210E9494190E94D9140E9481
:1043200087030C9489211F920F920FB60F921124CC
:104330008F939F93AF93BF9380916502811113C0B8
:104340008091A5029091A602A091A702B091A80227
:104350004196A11DB11D8093A5029093A602A09342
:10436000A702B093A802BF91AF919F918F910F9038
:104370000FBE0F901F90189582E084BD93E095BD0D
:104380009AEF97BD80936E0008952FB7F8948091AF
:10439000A5029091A602A091A702B091A8022FBFFA
:1043A00008952FB7F8946091A5027091A6028091AC
:1043B000A7029091A8022FBF08959C014FB7F894CF
:1043C0008091A5029091A602A091A702B091A802A7
:1043D0004FBF821B930B089578941F920F920FB6D4
:1043E0000F9211248F939F93AF93BF938091A50257
:1043F0009091A602A091A702B091A8020196A11DDA
:10440000B11D8093A5029093A602A093A702B0933A
:10441000A802BF91AF919F918F910F900FBE0F9007
:104420001F9018951092A9021092AA021092AB0246
:104430001092AC020895CF92DF92EF92FF926B013F
:104440007C010E944A0781110EC00E94D121C61A28
:10445000D70AE80AF90AC092A902D092AA02E09209
:10446000AB02F092AC02FF90EF90DF90CF900895F6
:104470000F931F930E944A07882321F01F910F91E9
:104480000C94D1210E94D1210091A9021091AA027D
:104490002091AB023091AC02600F711F821F931FFD
:1044A0001F910F9108950E944A0781110C94C52114
:1044B0000E943822CB01089587E797E7909301087F
:1044C000809300089AE088E10FB6F894A89580934D
:1044D00060000FBE90936000FFCF909373018093B4
:1044E0007201089580916E02089508950895CF9302
:1044F000DF9321E02093E9002FEF3091E800215075
:1045000035FD06C035ED3A95F1F700002111F5CFE4
:104510002091E80025FF14C0EC0140E050E068E085
:1045200070E00E9421248091E8008E778093E8005B
:1045300088E0FE01A6E6B2E001900D928A95E1F7CF
:10454000DF91CF91089508958091B002811109C043
:104550000E94B2250E940F268091E2008460809321
:10456000E20008951092B002089508950895089504
:1045700042E061EC81E00C942B258091B302833002
:1045800009F460C030F4813071F0823009F499C0D0
:1045900008958A3009F485C08B3009F46BC08930E6
:1045A00009F0A7C020C08091B202813A09F0A1C0F1
:1045B0008091E800877F8093E8008091B602909117
:1045C000B702892B21F468E086E692E003C060E040
:1045D00080E090E070E00E946C248091E8008B778E
:1045E0008093E80008958091B202813209F081C081
:1045F0008091B6029091B702892B09F07AC0809120
:10460000E800877F8093E8008091E80082FD05C084
:104610008091B1028111F8CF6CC02091F30080919C
:10462000F20090E0922B029729F48091F1008B7FA9
:10463000813021F48091F10080936E028091E80036
:104640008B7753C08091B202813A09F052C08091B9
:10465000B6029091B702892B09F04BC08091E80017
:10466000877F8093E8008091E80080FFFCCF8091F5
:10467000340136C08091B2028132D9F58091B60200
:104680009091B702892BA9F58091E800877F8093EC
:10469000E8000E9460258091B402809334010C945C
:1046A00094198091B202813221F58091E800877FD0
:1046B0008093E8000E9460258091B50280936F028C
:1046C00008958091B202813AA1F48091E800877F39
:1046D0008093E8008091E80080FFFCCF80916F021A
:1046E0008093F1008091E8008E778093E8000C942D
:1046F0006025089584B7877F84BF0FB6F894A89586
:1047000080916000886180936000109260000FBE0D
:1047100090E080E80FB6F894809361009093610078
:104720000FBE0E9445150E94B2250E940F2680915F
:10473000E20084608093E20078940E94A4280E94A2
:1047400053158AE291E00E94D4148091B102853021
:10475000A9F48091B102853079F40E945B218091A7
:10476000AF028823B1F30E944321882391F30E9472
:104770000B240E949419EDCF0E948B210E945D159D
:104780000E944F15E2CF0C94C523292F33272330E5
:104790003105C1F058F42130310579F0223031056E
:1047A00091F582E290E02CE734E031C0213231050E
:1047B000E1F02232310501F126C082E190E02EE9DC
:1047C00034E025C099278130910549F028F00297FF
:1047D000D1F4E6E5F4E005C0E8E7F4E002C0E6E67F
:1047E000F4E0849190E09F0112C0672B61F489E0AE
:1047F00090E02EE834E00BC0672B29F480E490E0D1
:1048000020EB34E004C080E090E020E030E0FA01EA
:1048100031832083089580E189BD82E189BD09B497
:1048200000FEFDCF8091D8008F7D8093D8008091CD
:10483000E00082608093E0008091E00081FDFCCF89
:104840000895CF92DF92EF92FF920F931F93CF9331
:10485000DF93EC018B017A010E947F25811133C027
:10486000E114F10439F0F70180819181081B190BE3
:10487000C80FD91FC12CD12C0115110519F1809138
:10488000E80085FD16C08091E8008E778093E800EF
:10489000E114F10449F0F70180819181C80ED91E1D
:1048A000D182C08285E00FC00E947F25882321F33A
:1048B0000AC089918093F10001501109FFEFCF1ACE
:1048C000DF0ADACF80E0DF91CF911F910F91FF9047
:1048D000EF90DF90CF9008952091B8023091B90207
:1048E0002617370748F06115710539F42091E80063
:1048F0002E772093E80001C0B901FC0120E061158A
:10490000710579F18091B1028823F1F18530F1F1DF
:104910008091E80083FD3CC08091E80082FD2EC0BC
:104920008091E80080FFEBCF2091F3008091F200AE
:1049300090E0922B6115710551F08830910538F4A3
:1049400021912093F100615071090196F3CF21E08C
:10495000089709F020E08091E8008E778093E800C6
:10496000CECF2111CFCF0AC08091B102882361F050
:10497000853061F08091E80083FD0AC08091E800F5
:1049800082FFF2CF80E0089582E0089583E00895E9
:1049900081E008952091B8023091B90226173707B7
:1049A00048F06115710539F42091E8002E772093C5
:1049B000E80001C0B901FC0120E06115710591F129
:1049C0008091B102882309F440C0853009F43FC0CA
:1049D0008091E80083FD3DC08091E80082FD2FC0FA
:1049E0008091E80080FFE9CF2091F3008091F200F0
:1049F00090E0922B6115710559F08830910540F4D3
:104A000024912093F1003196615071090196F2CF03
:104A100021E0089709F020E08091E8008E778093EC
:104A2000E800CBCF2111CCCF0AC08091B1028823FE
:104A300061F0853061F08091E80083FD0AC08091CB
:104A4000E80082FFF2CF80E0089582E0089583E0DD
:104A5000089581E00895982F973068F59093E900C4
:104A6000981739F07091EC002091ED005091F00012
:104A700003C0242F762F50E021FD02C09F5FECCFB2
:104A80003091EB003E7F3093EB003091ED003D7FA5
:104A90003093ED003091EB0031603093EB00709378
:104AA000EC002093ED005093F0002091EE0027FDE4
:104AB000E5CF80E008958F708093E90081E008954C
:104AC0008091B20287FF11C08091E80082FD05C08D
:104AD0008091B1028111F8CF11C08091E8008B77ED
:104AE0000BC08091B102882349F08091E80080FFDB
:104AF000F8CF8091E8008E778093E80008952091A8
:104B0000E4003091E50095E64091EC00842F81703F
:104B100040FF23C08091E80080FD1DC08091B1025C
:104B2000882399F0853099F08091EB0085FD11C0C4
:104B30004091E4005091E5002417350729F3915086
:104B400011F09A01E1CF84E0089582E0089583E0B6
:104B5000089581E0089580E008954091E80042FFC3
:104B6000DDCF08950E9420260E942826E0EEF0E086
:104B7000808181608083E8EDF0E080818F778083A1
:104B800019BCA7EDB0E08C918E7F8C9380818F7ED5
:104B900080831092B00208950F931F93CF93DF93F9
:104BA0000E9420260E942826C8EDD0E088818F77B9
:104BB000888388818068888388818F7D888319BCF9
:104BC0001092B1021092AD021092AF021092AE029A
:104BD00000EE10E0F80180818B7F80838881816006
:104BE000888342E060E080E00E942B25E1EEF0E067
:104BF00080818E7F8083E2EEF0E08081816080831F
:104C0000808188608083F80180818E7F80838881A5
:104C100080618883DF91CF911F910F910895E8ED16
:104C2000F0E080818F7E8083E7EDF0E0808181601D
:104C3000808384E082BF81E08093B0020C94CC2515
:104C4000E8EDF0E080818E7F80831092E20008958D
:104C50001092DA001092E10008951F920F920FB6A1
:104C60000F9211242F933F934F935F936F937F93F2
:104C70008F939F93AF93BF93EF93FF938091E10046
:104C800082FF0BC08091E20082FF07C08091E100AB
:104C90008B7F8093E1000E94A3288091DA0080FF3F
:104CA0001FC08091D80080FF1BC08091DA008E7FEA
:104CB0008093DA008091D90080FF0DC080E189BD2A
:104CC00082E189BD09B400FEFDCF81E08093B1028D
:104CD0000E94A42205C019BC1092B1020E94B22207
:104CE0008091E10080FF19C08091E20080FF15C033
:104CF0008091E2008E7F8093E2008091E2008061EB
:104D00008093E2008091D80080628093D80019BC23
:104D100085E08093B1020E94B6228091E10084FF79
:104D200030C08091E20084FF2CC080E189BD82E127
:104D300089BD09B400FEFDCF8091D8008F7D80939E
:104D4000D8008091E1008F7E8093E1008091E200A5
:104D50008F7E8093E2008091E20081608093E20088
:104D60008091AD02882311F084E007C08091E300B8
:104D700087FD02C081E001C083E08093B1020E9400
:104D8000B7228091E10083FF29C08091E20083FF78
:104D900025C08091E100877F8093E10082E08093CD
:104DA000B1021092AD028091E1008E7F8093E1000C
:104DB0008091E2008E7F8093E2008091E20080612A
:104DC0008093E20042E060E080E00E942B25809129
:104DD000F00088608093F0000E94B522FF91EF916F
:104DE000BF91AF919F918F917F916F915F914F9103
:104DF0003F912F910F900FBE0F901F9018951F920B
:104E00000F920FB60F9211242F933F934F935F93FE
:104E10006F937F938F939F93AF93BF93CF93DF93C2
:104E2000EF93FF93C091E900CF708091EC00D82FF1
:104E3000D17080FDD0E81092E9008091F000877F6A
:104E40008093F00078940E9443271092E9008091AB
:104E5000F00088608093F000CD2BCF70C093E90004
:104E6000FF91EF91DF91CF91BF91AF919F918F9182
:104E70007F916F915F914F913F912F910F900FBE56
:104E80000F901F9018951F93CF93DF93CDB7DEB788
:104E9000AA970FB6F894DEBF0FBECDBFE2EBF2E0EB
:104EA0008091F100819322E0EA3BF207C9F70E946A
:104EB000BD228091E80083FF2EC18091B2029091C3
:104EC000B302492F50E04A30510508F024C1FA01DD
:104ED000EC58FF4F0C942729803821F0823809F0D4
:104EE0001AC108C08091AE029091AF02992389F057
:104EF00082600FC08091B6028F70873008F00BC1BE
:104F00008093E9008091EB0085FB882780F910925F
:104F1000E9009091E800977F9093E8008093F1007A
:104F20001092F100D1C0282F2D7F09F0F4C0882302
:104F300019F0823061F0EFC08091B402813009F045
:104F4000EAC0933009F080E08093AF022EC08091D8
:104F5000B40281112AC08091B6028F702FEF280F02
:104F6000263008F0D8C08093E9002091EB0020FFA4
:104F70001CC0933021F48091EB00806214C09091AA
:104F8000EB0090619093EB0021E030E0A90102C0BA
:104F9000440F551F8A95E2F74093EA001092EA0009
:104FA0008091EB0088608093EB001092E900809183
:104FB000E800877F8093E8000E946025ACC08111E3
:104FC000AAC01091B4021F778091E3008078812BF2
:104FD0008093E3008091E800877F8093E8000E943F
:104FE00060258091E80080FFFCCF8091E30080681D
:104FF0008093E300111102C082E001C083E080933E
:10500000B10289C08058823008F085C08091B40216
:105010009091B5028C3D53E0950779F583E08A8342
:105020008AE289834FB7F894DE01139620E03EE0D0
:1050300051E2E32FF0E050935700E49120FF03C0CA
:10504000E295EF703F5FEF708E2F90E0EA3010F046
:10505000C79601C0C0968D939D932F5F243149F769
:105060004FBF8091E800877F8093E8006AE270E09C
:10507000CE0101960E946C2416C06091B602709118
:10508000B702AE014F5F5F4F0E94C323BC01892B63
:1050900009F441C09091E800977F9093E8008981DE
:1050A0009A810E94CA248091E8008B778093E8005F
:1050B00032C0803881F58091E800877F8093E800D6
:1050C0008091AD028093F1008091E8008E7772CFDD
:1050D000811121C08091B4029091B5029927029765
:1050E000D4F48091E800877F8093E8008091B40237
:1050F0008093AD020E9460258091AD02811106C0AF
:105100008091E30087FD02C081E001C084E08093CC
:10511000B1020E94B8228091E80083FF0AC080910A
:10512000E800877F8093E8008091EB0080628093A5
:10513000EB00AA960FB6F894DEBF0FBECDBFDF918D
:10514000CF911F9108950895CF938091B102882344
:10515000A1F0C091E900CF709091EC00892F81708F
:1051600090FD80E8C82B1092E9008091E80083FD53
:105170000E944327CF70C093E900CF9108950E9409
:10518000B2251092B1020895E8EDF0E080818061CF
:1051900080838AE18A95F1F700C08091D9008170FF
:1051A0000895991B79E004C0991F961708F0961B83
:1051B000881F7A95C9F780950895AA1BBB1B51E1FA
:1051C00007C0AA1FBB1FA617B70710F0A61BB70B77
:1051D000881F991F5A95A9F780959095BC01CD011C
:1051E000089597FB072E16F4009407D077FD09D099
:1051F0000E94DD2807FC05D03EF4909581959F4FD5
:105200000895709561957F4F0895A1E21A2EAA1B0B
:10521000BB1BFD010DC0AA1FBB1FEE1FFF1FA21766
:10522000B307E407F50720F0A21BB30BE40BF50B63
:10523000661F771F881F991F1A9469F760957095EC
:10524000809590959B01AC01BD01CF010895EE0FB3
:10525000FF1F0590F491E02D09940E943529332316
:1052600012F48A1B9B0B0C944629A29FB001B39F9A
:10527000C001A39F700D811D1124911DB29F700D5F
:10528000811D1124911D08950E943529B7FF0895AD
:10529000821B930B08950E943529A59F900DB49F02
:1052A000900DA49F800D911D11240895B7FF0C94BB
:1052B0004B290E944B29821B930B08958F929F923A
:1052C000AF92BF92CF92DF92EF92FF92CF93DF9394
:1052D000EC01688179818A819B8161157105810565
:1052E000910521F464E279ED8BE597E02DE133EF50
:1052F00041E050E00E940F2A49015A019B01AC0194
:10530000A7EAB1E40E944B296B017C01ACEEB4EF3B
:10531000A50194010E945929DC01CB018C0D9D1D32
:10532000AE1DBF1DB7FF03C00197A109B048888318
:105330009983AA83BB839F77DF91CF91FF90EF90F2
:10534000DF90CF90BF90AF909F908F9008950E9474
:105350005E29089580E091E00E945E290895A0E012
:10536000B0E08093000190930101A0930201B093FB
:1053700003010895FC014150504030F001900616A1
:10538000D1F73197CF010895882799270895F99982
:10539000FECF92BD81BDF89A992780B50895A6E108
:1053A000B0E044E050E00C94012AA8E1B0E042E013
:1053B00050E00C94012A262FF999FECF92BD81BDB1
:1053C000F89A019700B4021639F01FBA20BD0FB643
:1053D000F894FA9AF99A0FBE08950396272F0E941F
:1053E000DC290E94DB29252F0E94DC29242F0C9424
:1053F000DC290196272F0E94DC290C94DB29DC0193
:10540000CB01FC01F999FECF06C0F2BDE1BDF89ACF
:10541000319600B40D9241505040B8F70895052ED2
:1054200097FB1EF400940E94262A57FD07D00E9485
:10543000052907FC03D04EF40C94262A509540957C
:10544000309521953F4F4F4F5F4F08959095809530
:10545000709561957F4F8F4F9F4F0895F894FFCFC0
:105460000100000001010102000800080801191AEA
:105470001B1C1D1E1F202122B50104B60105BA0107
:10548000BF0108C001000000590272227722752274
:10549000A322762201943331F73236F6F56697C6A9
:1054A0003435000000000000010202020206060678
:1054B0000909090909090F0F0F0F0F0F1515151805
:1054C0001919191919191919191923242525252507
:0254D000252590
:00000001FF
