:100000000C948C020C94D3020C94D3020C94F8122E
:100010000C94D3020C94D3020C94D3020C94D3020C
:100020000C94D3020C94D3020C94CC240C949E25F3
:100030000C9470200C94D3020C94D3020C94D30231
:100040000C94D3020C94D3020C94D3020C94D302DC
:100050000C94D3020C94BD200C94D3020C94D302C4
:100060000C94D3020C94D3020C94D3020C94D302BC
:100070000C94D3020C94D3020C94D3020C94D302AC
:100080000C94D3020C94D3020C94D3020C94D3029C
:100090000C94D3020C94D3020C94D3020C94D3028C
:1000A0000C94D3020C94D3020C94D3027C0F7F0FD8
:1000B000840F8B0F900F950F9A0F9F0FA40FA90F0E
:1000C000AE0FB30FB50FB80FBB0FBE0FC10FC40FEC
:1000D000C60FCB0F87168716B916B9161C181C1831
:1000E0001C181C1806179B17AC17AC170C181C18FB
:1000F0001C181518B018B018C218C218B918C218B0
:10010000C218C218B018B018BE18C218C218BE184B
:100110000B2632262A2732262A277E26A1262A27A0
:10012000F826072735001E001F00200021002200AE
:10013000000000002B0014001A0008001500170032
:1001400000000000E00004001600070009000A009B
:1001500000000000E1001D001B0006001900050062
:10016000000000004C003504E300E2002A0000001B
:1001700000000000230024002500260027002D0099
:100180002E002A001C0018000C00120013002F0083
:10019000300031000B000D000E000F003300340062
:1001A0000000280011001000360037003800E5007C
:1001B000520001512C0028000000290000005000CE
:1001C00051004F0029003A003B003C003D003E003A
:1001D00000000000C35C0000C65CC85CCA5C000094
:1001E000000000000000C45CC75CC95CCB5C000080
:1001F00000000000010000000000000000000000FE
:1002000000000000000001000100010000000000EB
:10021000000000003F004000410042004300440055
:1002200045004C000000000000000000000000003D
:1002300000000000000000000000000000000000BE
:1002400000000000000000000000000000000100AD
:100250004B000100000000000000000000004A0008
:100260004E004D0032190A00047F3F1F64321464AF
:100270003214783C1E1E140A052223252628292A1A
:100280002C2D2F3032333536383A3B3D3E404243F9
:100290004547494A4C4E5051535557595A5C5E6038
:1002A00062646668696B6D6F71737577797B7D7F4A
:1002B00081838587898A8C8E90929496989A9C9E49
:1002C0009FA1A3A5A7A8AAACAEAFB1B3B4B6B8B965
:1002D000BBBCBEBFC1C2C3C5C6C7C9CACBCCCDCECD
:1002E000D0D1D2D2D3D4D5D6D7D7D8D9D9DADADBB0
:1002F000DBDBDCDCDCDCDCDDDDDDDDDCDCDCDCDC3C
:10030000DBDBDBDADAD9D9D8D7D7D6D5D4D3D2D27A
:10031000D1D0CECDCCCBCAC9C7C6C5C3C2C1BFBE62
:10032000BCBBB9B8B6B4B3B1AFAEACAAA8A7A5A3CD
:10033000A19F9E9C9A98969492908E8C8A8987858C
:1003400083817F7D7B79777573716F6D6B6968666B
:100350006462605E5C5A5957555351504E4C4A493D
:1003600047454342403E3D3B3A3836353332302FE5
:100370002D2C2A292826252322FFAA7F554000015B
:100380000101010101010101020202020202020255
:100390000203030303030303030404040404040427
:1003A00005050505050606060606070707070708EB
:1003B000080808090909090A0A0A0B0B0B0C0C0C9E
:1003C0000D0D0D0E0E0E0F0F0F1010111111121238
:1003D00013131414151516161717181819191A1AB5
:1003E0001B1B1C1D1D1E1E1F202021222223242416
:1003F000252626272829292A2B2C2D2D2E2F303152
:100400003232333435363738393A3B3C3D3E3F4063
:100410004142434445464748494A4C4D4E4F50514E
:100420005354555658595A5B5D5E5F616264656608
:1004300068696B6C6D6F7072737577787A7B7D7E8F
:100440008082838587888A8C8E8F91939596989ADF
:100450009C9EA0A2A3A5A7A9ABADAFB1B3B5B7BAF7
:10046000BCBEC0C2C4C6C9CBCDCFD1D4D6D8DBDDCB
:10047000DFE2E4E7E9EBEEF0F3F5F8FAFDFF0E0357
:100480004D0069006E00740036003000000010035B
:1004900045007500630061006C0079006E0000008B
:1004A0000403090409022200010100A0FA09040062
:1004B0000001030101000921110100012240000790
:1004C00005810308000A1201100100000008EDFE7A
:1004D000000001000102000105010906A101050754
:1004E00019E029E71500250195087501810295019C
:1004F000750881010507190029FF150026FF0095E1
:1005000006750881000508190129059505750191F1
:1005100002950175039101C011241FBECFEFDAE0EF
:10052000DEBFCDBF04B603FE27C08091A802909124
:10053000A902A091AA02B091AB028730904BA740CC
:10054000B04BD1F41092A8021092A9021092AA0204
:100550001092AB0214BE84B7877F84BF0FB6F894A5
:10056000A89580916000886180936000109260007F
:100570000FBEE0E0F8E3099511E0A0E0B1E0EAE7A2
:10058000F1E502C005900D92A237B107D9F722E03C
:10059000A2E7B1E001C01D92A83AB207E1F70E94BC
:1005A0001F220C94BB280C94000081E0089581E088
:1005B00008950C94D70208950C94DB021F93CF93F7
:1005C000DF9300D000D01F92CDB7DEB749835A83A6
:1005D0006B833091D60189819A81311114C06623D1
:1005E00059F0222349F00E94EC1D182F682F8981B1
:1005F0009A810E94951D03C00E94C01D182F698119
:100600007A81812F04C00E94EC1D69817A810F904C
:100610000F900F900F900F90DF91CF911F910C943E
:100620009603FC01262F4081518162817381848170
:100630000C94DE02CF93DF93EC0160E00E94110383
:10064000BE01DF91CF910C94DC020E941E1F81112C
:1006500002C00E94C51F0C9498050C94940508953F
:100660000E949E180E942F032FEF84E39CE02150EC
:1006700080409040E1F700C000000C94E3200F930D
:100680001F93CF93DF93EC0161E00E9411038C0173
:10069000BE010E94D902882379F1BE01C8010E94DF
:1006A0009810882349F1BE01C8010E94EA108823EE
:1006B00019F1BE01C8010E9415128823E9F0BE019C
:1006C000C8010E94660F8823B9F08A81882369F0E7
:1006D00001158CE5180731F00F3D1C4531F40E94DF
:1006E000C51F0AC00E94300307C0CE01DF91CF9121
:1006F0001F910F910C94D50280E0DF91CF911F9153
:100700000F91089508950C94820381E008950C944C
:100710008503CF93C82F0E9483038C2F0E948703E9
:10072000CF91089580E090E008950895E72FF0E0DC
:100730009AE0899FE00DF11D112483E0EE0FFF1F69
:100740008A95E1F7E60FF11DEE0FFF1FEC5DFE4FFE
:10075000859194910895880F991FFC01EC59FD4FE4
:10076000859194910895CF93DF930E9496030E9400
:10077000AF04EC01811521E59207A0F5811540E554
:10078000940708F086C0C11580E2D807F0F4C115BF
:1007900021E0D20708F0DFC0C03ED10588F4C03C9C
:1007A000D10508F062C0C130D10509F4D4C008F405
:1007B000D0C0CE010497813A910508F4CCC0C9C0DD
:1007C000C83ED10508F4C7C0C4C0C11540E4D40771
:1007D00008F05CC0C11580E3D80708F04DC0CE0119
:1007E0009F7046C0811525E59207A0F4811544E568
:1007F000940708F095C0C11583E5D80708F07AC0C2
:10080000C11522E5D20708F05FC0DC2FCC27C16FED
:10081000D06AA1C0811549E59407A0F4C11588E507
:10082000D80708F082C0C11526E5D20708F091C0AC
:100830008C2F0E9443058F71C82FD0E0DC2FCC276E
:10084000D06289C081154AE5940708F473C09056B8
:100850008115904208F07DC08D2F8F710E94430555
:10086000DD27D0628F71D82B76C0CE01805C9109D4
:100870000E94AB03EC016FC0CE019927D3FF03C0E8
:10088000EC01D86C68C0EC01D06C65C0DF70D06A38
:1008900062C074E0969587957A95E1F783709C2FF6
:1008A000937021E030E002C0220F331F9A95E2F7E7
:1008B0003C68382BCF70C695C69540E2C49FE001D6
:1008C0001124C22BD32B47C0CE018370992721E07E
:1008D00030E002C0220F331F8A95E2F78C2F8695F5
:1008E000869540E2849FC0011124E901C82BD92BD1
:1008F000DC6831C0CE018370992721E030E002C06E
:10090000220F331F8A95E2F78C2F8695869540E259
:10091000849FC0011124E901C82BD92BDA681BC0C0
:10092000D82FCC27C46FD06A16C0DC2FCC27C06F5D
:10093000D06A11C08F700E94430594E0D695C79588
:100940009A95E1F7CF70D0E0DC2FCC27D069C82B87
:1009500002C0C0E0D0E0CE01DF91CF91089582388F
:10096000910569F1B0F48133910509F46DC048F443
:100970008932910509F463C08A32910509F469C08E
:1009800008958533910509F455C089339105B9F06F
:100990000895833E910569F138F4803E9105B1F0E8
:1009A000823E910509F10895863E9105A9F1873EA1
:1009B0009105B9F1843E910509F064C023C02091EE
:1009C000990220FD4FC021FD4DC0089580919902EC
:1009D00080FD44C080919A0280FF44C080919902BA
:1009E00084FD42C083EE4DC08091990282FF38C0E1
:1009F000F5CF8091990282FD33C080919A0280FDEB
:100A000031C0ECCF80919A0281FF32C0809199026F
:100A100084FD2AC087EE35C08091990283FF26C0ED
:100A2000F5CF8091990283FD21C080919A0281FDCA
:100A30001FC0ECCF8091990285FD1CC01DC0809124
:100A4000990285FD19C016C08091990286FD16C0D5
:100A500017C08091990286FD13C010C089E311C0B0
:100A600082EE0FC080EE0DC080E00BC086EE09C0A4
:100A700084EE07C089E205C085E303C08AE201C0B5
:100A800081E390E008959091990292FF0DC0282F84
:100A90002871283019F4877F846006C0282F2471BC
:100AA000243011F48B7F886093FF0DC0282F2871AC
:100AB000283119F4877E846106C0282F24712431DF
:100AC00011F48B7E886120919A0220FF0DC0382F8F
:100AD0003871383019F4877F816006C0382F317142
:100AE000313011F48E7F886021FF0DC0282F2871CE
:100AF000283119F4877E816106C0282F21712131A8
:100B000011F48E7E886194FD877E0895E82FF0E0D1
:100B1000E459FD4F80810895089580EA8A95F1F7A0
:100B2000089508950C9491050C9492050C949105E8
:100B30000C949605F894E82FE295EF70F0E031A15F
:100B4000282F2F7081E090E001C0880F2A95EAF7E6
:100B5000982F9095932391A392A1892B82A37894A7
:100B6000089508950F931F93CF93DF930E94FF067C
:100B70008091040180910401811102C095E001C0BF
:100B800090E09093770285E0891B8093760286E659
:100B90000E949A0587E90E949A0586EC0E949A05B0
:100BA00084E30E949A0585E30E949A05C5E3D1E09B
:100BB0000DE311E089910E949A050C171D07D1F7EA
:100BC000E2E6F2E0ACE6B2E011921D9282E0EC3691
:100BD000F807D1F785E00E94A9060E942503DF915E
:100BE000CF911F910F910C9409070E94E006882372
:100BF00009F18091760290E084599D4F0E94390757
:100C0000811114C0809172018F5F809372018630D0
:100C100078F0E0917602F0E0E459FD4F80E090E05A
:100C20001192019685309105D9F702C01092720198
:100C30000C942D038091770290E084599D4F0E947F
:100C400058070C94B1058F929F92AF92BF92CF92AA
:100C5000DF92EF92FF920F931F93CF93DF938DE379
:100C6000A82E81E0B82EC2E6D2E092E4E92E91E00F
:100C7000F92E912C01E010E06501F5018081F894D6
:100C8000E82FE295EF70F0E021A18F70A80102C07B
:100C9000440F551F8A95E2F7CA01922F982B91A312
:100CA00092A18095892382A378940E948D05E5E323
:100CB000F1E020E030E0812C4191A42FA295AF70AB
:100CC000B0E090968C9190E04F7002C0959587951A
:100CD0004A95E2F780FD07C0802F022E01C0880FE1
:100CE0000A94EAF701C080E0882A2F5F3F4F28303E
:100CF000310511F75FEFA51AB50AF60180810E9450
:100D00009A058881881619F0888281E001C080E008
:100D1000982A2196EA14FB0409F0AECF609177027D
:100D200070E064597D4F292D45E082E692E00E94F3
:100D3000AA060E94F505892DDF91CF911F910F9191
:100D4000FF90EF90DF90CF90BF90AF909F908F90EB
:100D500008950895FF920F931F93CF93DF938C0113
:100D6000F62ED72FC42F222349F081E080937501FE
:100D70000E94A22090937401809373018091750169
:100D80008823C1F080917301909174010E94AE207C
:100D9000069780F0EF2DFD2FD8014C2F50E0CD01AC
:100DA000801B910B841795071CF48D918193F7CFCD
:100DB00010927501DF91CF911F910F91FF900895CF
:100DC00080917601811112C08091D800806180935A
:100DD000D8008AE18A95F1F700C08091D90080FDA2
:100DE00002C082E001C081E08093760181E09091B1
:100DF0007601913009F080E008950C94E0060E949D
:100E0000FD06809304010E94E00681110C941007F6
:100E100008950E94E006811102C00C9416070895FF
:100E200062E070E085E091E00C94A61262E070E070
:100E300085E091E00C94AF120E942D0D882361F0A3
:100E40008EE791E00E94330D81E090E00E948813CC
:100E5000892B11F40C94300D089580917D01883018
:100E600039F460E08EE791E00E940B0E10927D0154
:100E70000895CF93DF93D82FC92F0E941C0780E0DD
:100E800090E00E948813892B79F4ED2FFC2F80E0ED
:100E900090E0DC01A858BE4F2C912193019685303B
:100EA0009105B9F781E001C080E0DF91CF9108950D
:100EB000CF93DF93D82FC92F0E942D07ED2FFC2F42
:100EC00080E090E02191DC01A858BE4F2C93019660
:100ED00085309105B9F7DF91CF910895EF92FF9298
:100EE0000F931F93CF93DF938B01682F11110AC0CB
:100EF000442329F0E82FF0E0E258FC4F6491762F6C
:100F0000862F75C0212F30E0E82FF0E0442321F038
:100F1000E258FC4FE491F0E046E0049FC001112448
:100F2000CFEFD0E0BE010E946A274BEA4603C00122
:100F3000479F900D1124800F911D800F911D982FB8
:100F4000990F890FAE01421B530B4E9FD0014F9F4B
:100F5000B00D5E9FB00D11249B2F189FA00111248E
:100F6000452F55278E01041B150B0E9FA0010F9FC7
:100F7000500D1E9F500D11247E01E81AF108E29ECB
:100F80008001E39E100DF29E100D1124212F3327B6
:100F9000C21BD30BCE9F9001CF9F300DDE9F300D33
:100FA000112462307105A9F048F46115710569F0EA
:100FB00061307105C9F48B2F752F0DC06430710538
:100FC00081F058F06630710579F47E2F8B2F932FC6
:100FD0000DC0832F7B2F9E2F09C08E2F7B2F952F27
:100FE00005C08E2F732F02C07E2F852F692FDF91B2
:100FF000CF911F910F91FF90EF90089541E00E94D3
:101000006E07089508950E94FE070895CF93DF9319
:10101000762FE901682F842F0E9403087983688363
:101020008A83DF91CF91089580917802282F2695A9
:1010300030E02115310519F48170826005C02B3232
:10104000310524F08170846580937802089588E0EA
:1010500090E00C945C28CF92DF92EF92FF926B01AC
:101060007C010E941408B701A60188E090E0FF907F
:10107000EF90DF90CF900C947A28E8E7F2E083E0DD
:10108000808311828FEF828383831482ABEBB1E084
:1010900012968C911297836012968C936081718165
:1010A000828193810C942B088091780280FF02C08A
:1010B0008695089580E0089590917C02933018F40D
:1010C0009F5F90937C02882351F060917802709129
:1010D000790280917A0290917B020C942B080895FA
:1010E00081E00C945C0890917C02992319F0915056
:1010F00090937C02882351F060917802709179027C
:1011000080917A0290917B020C942B08089581E0E3
:101110000C94730870E00C94D50F609119018091C4
:10112000780280FF0AC08091180123E0829FC001ED
:10113000112483589D4F0C948A0880911A01909134
:101140001B01891780F7E82FF0E09F01220F331F62
:10115000E20FF31FE358FD4F1182108212828F5F5E
:10116000F0CF9091780290FF16C090911A012091D3
:101170001B01921770F4E92FF0E0DF01AA0FBB1FEB
:10118000EA0FFB1FE358FD4F8183608342839F5F1B
:10119000F0CF0C948D080895CF93DF9300D01F9269
:1011A000CDB7DEB79091780290FF0AC09E012F5F05
:1011B0003F4F0E9406084B8169818A810E94B108D5
:1011C0000F900F900F90DF91CF910895CF93DF9301
:1011D000EC01EC81F0E0E758FD4F4491E8E7F2E0E4
:1011E000628181810E94CC088C818F5F8C83DF912A
:1011F000CF910895CF93DF93EC01E8E7F2E04381CC
:1012000062818C810E94CC088C818F5F8C83DF91FE
:10121000CF9108950F931F93CF93DF9300D01F9228
:10122000CDB7DEB78C018091860181110AC09E0185
:101230002F5F3F4F4FEF6FEF0E9406088A81809328
:101240008601F8018481813051F028F0823061F408
:10125000409186010AC08091860140E007C06091FC
:10126000860140E080E003C040E080E060E00E9452
:10127000B108F801848190E0019663E070E00E947B
:101280007E2784830F900F900F90DF91CF911F9155
:101290000F910895AF92BF92CF92DF92EF92FF929B
:1012A0000F931F93CF93DF9300D01F92CDB7DEB77C
:1012B000182FF62E042FE22E9091780290FF7EC018
:1012C000E92FE695AE2FB0E0A95BBE4F8C918093DD
:1012D000BB019E7F923061F49E012F5F3F4F812FB3
:1012E0000E9406084B8169818A810E94B10843C02F
:1012F000823019F400917B023EC0863019F41091BF
:10130000790239C08930D9F38931A9F5E9518E2F95
:101310008170D82EE695F0E0E758FC4FA590B49088
:10132000C12CBB2460911C01C61618F52C2D30E091
:10133000A29EC001A39E900DB29E900D112470E05C
:101340000E946A27812FD11002C0860F01C0861B20
:1013500090911A01290F311DA901440F551F240F27
:10136000351F23583D4F402F6F2D0E940608C39410
:10137000D9CF0E948D0880917902181308C08091FE
:101380007A02F81204C080917B02081729F080913C
:10139000BD0182608093BD0110937902F0927A02C0
:1013A00000937B02EE2051F06091780270917902F7
:1013B00080917A0290917B020E942B080F900F90EF
:1013C0000F90DF91CF911F910F91FF90EF90DF90E1
:1013D000CF90BF90AF900895E8E7F2E09181282F79
:1013E000438162818AE0890F0C944A0981E00C9460
:1013F000EC09E8E7F2E09181282F4381628186EFD2
:10140000890F0C944A0981E00C94F909E8E7F2E0AD
:10141000628121E1620F08F46FEF282F43818181FF
:101420000C944A0981E00C94060AE8E7F2E0628134
:1014300021E1621B08F460E0282F438181810C9434
:101440004A0981E00C94150AE8E7F2E0438121E1C2
:10145000420F08F44FEF282F628181810C944A09D2
:1014600081E00C94240AE8E7F2E0438121E1421B89
:1014700008F440E0282F628181810C944A0981E0C0
:101480000C94330A20E00C944A09FF920F931F93A7
:10149000CF93DF93EC01F12C0FEF10E060911C0172
:1014A000F616F0F480911A012F2D30E0280F311D2F
:1014B000C901880F991F280F391F23583D4F70E02D
:1014C000C8010E947E27962F8C8140917B026091FB
:1014D0007A02F99E800D11240E940608F394DECF53
:1014E0000E948D089A818C8190FF02C08F5F01C09D
:1014F00081508C83DF91CF911F910F91FF900895C0
:101500009F92AF92BF92CF92DF92EF92FF920F9392
:101510001F93CF93DF93EC018A8180FF03C0BB242C
:10152000BA9402C0BB24B3948C8181110DC081E0B8
:10153000B81206C080911C0181508093880102C0BE
:101540001092880181E08C83A12C80911C01A81647
:1015500008F041C080911A01CA2CD12C8601080FD5
:10156000111DC801880F991F080F191F03581D4F1F
:10157000F80111821082128234E0E32EF12C912CBA
:1015800080918801890D893014F0877005C087FF2C
:1015900003C090911C01890F082E000C990BC816EE
:1015A000D90691F480917B028E9DA0018F9D500DF4
:1015B00011245595479555954795980160917A0264
:1015C000809179020E9406089B0CF1E0EF1AF10865
:1015D000B9F6A394BACF0E948D088091880191E05A
:1015E000B9120EC0811107C080911C0181508093F7
:1015F00088011C820FC0815080938801BC820AC080
:1016000090E0019660911C0170E00E947E2780931B
:1016100088018C83DF91CF911F910F91FF90EF9004
:10162000DF90CF90BF90AF909F9008951F93CF937E
:10163000DF93EC018C81811109C081E08C831092D1
:10164000870192E0909317018093160180911A010F
:1016500090911B01891770F4E82FF0E09F01220F91
:10166000331FE20FF31FE358FD4F118210821282E5
:101670008F5FF0CF10E060911C011617C0F5E12FCD
:10168000F0E070E0CF010E947E2720911A01820FC6
:1016900020918701022E000C330B90E0E217F30734
:1016A000CCF020911701022E000C330B2E173F07B0
:1016B0008CF09C01220F331F820F931F9C01235833
:1016C0003D4F40917B0260917A02809179020E94A5
:1016D00006080BC0FC01EE0FFF1F8E0F9F1FFC01C1
:1016E000E358FD4F1182108212821F5FC4CF0E9407
:1016F0008D088091160120918701280F2093870182
:1017000090911701980F9093170119165CF4022E0F
:10171000000C330B40911C0150E04150510924173B
:10172000350734F0819580931601813009F41C82CD
:10173000DF91CF911F9108958F929F92AF92BF92A8
:10174000CF92DF92EF92FF920F931F93CF93DF938D
:101750008C01FC014481C42FD0E09E01DE010E9477
:10176000C2279B01AC010E94D8276B017C01E0E2FB
:10177000F0E0EC1BFD0BA5E5B0E09B01AC010E9485
:10178000D8274B015C019F01DF010E94BA279B0112
:10179000AC010E94E3279B01AC012C0D3D1D4E1DA9
:1017A0005F1DC501B4010E949227C22FD22F2A3299
:1017B00028F4F3E02F9F900111240DC025E530E0BF
:1017C0002C1B3109C901880F991F280F391F37FFBA
:1017D00002C02F5F3F4F35952795C22FC095F12C42
:1017E00085E5E82EED1A80911C01F816C8F4F1FC8D
:1017F00002C08E2D01C08D2F90911A012F2D30E047
:10180000290F311DA901440F551F240F351F2358DF
:101810003D4F4C2F60917A020E940608F394E3CF6B
:101820000E948D08F8018481811102C091E003C0FB
:10183000803219F49FEF9093150190911501890F53
:10184000F8018483DF91CF911F910F91FF90EF906A
:10185000DF90CF90BF90AF909F908F9008950F939F
:101860001F93CF93DF93EC0100E010E080911C0107
:10187000282F30E00217130724F590911A019801E0
:10188000290F311DA901440F551F240F351F23585F
:101890003D4F869590E04C81081719071CF44423AE
:1018A00031F002C0411103C040917B0201C040E011
:1018B00060917A02809179020E9406080F5F1F4FA3
:1018C000D5CF0E948D088C8190E001968170992778
:1018D0008C83DF91CF911F910F9108958F929F92EA
:1018E000AF92BF92CF92DF92EF92FF920F931F932E
:1018F000CF93DF93FC01B280948081E0848300E089
:1019000015E05BE4A52E88248394EE24EA94F12C60
:101910007BE4C72ED12C80911C01081708F08FC0E2
:10192000C02FD0E01C9FF0011D9FF00D1124E45743
:10193000FE4F911003C01382128267C023812223BD
:1019400089F1215023833481332319F09A2D921B7E
:1019500001C0922F80917B021C9FF0011D9FF00D12
:101960001124E457FE4F899FC0011124B6010E9443
:101970006A276283211104C0332311F01482A382E9
:1019800022E02B1508F441C01C9FF0011D9FF00DB3
:101990001124E457FE4F80917902808380917A026E
:1019A000818333C00E9437288230914074F582E0F1
:1019B0008B1530F40E943728B7010E947E2702C0A1
:1019C000809179021C9FF0011D9FF00D1124E457B6
:1019D000FE4F808322E02B1558F40E943728209177
:1019E0007A022695622F70E00E947E27820F02C045
:1019F00080917A021C9FF0011D9FF00D1124E45785
:101A0000FE4F81831282A382848280911A019E01FB
:101A1000280F311DC901880F991F280F391F23581E
:101A20003D4F1C9FF0011D9FF00D1124E457FE4F08
:101A30004281618180810E9406080F5F6CCFDF9137
:101A4000CF911F910F91FF90EF90DF90CF90BF90BB
:101A5000AF909F908F900C948D088091BD01089558
:101A60001092BD01089525E0E8E7F2E0DC01019065
:101A70000D922A95E1F72091BB013091BC01409174
:101A8000BD01FC0125833683478308956091780268
:101A9000669570E04BE050E08DE191E00E944728B0
:101AA000892B19F481E08093BC010E94A2209093BD
:101AB000B5018093B4018091BD0184608093BD0124
:101AC0000895EBEBF1E011828281846082830895B6
:101AD0009091780290FF3AC09170811102C092609B
:101AE00006C08B3210F0946502C0880F982B90933B
:101AF00078028091BD0181608093BD01662351F021
:101B0000609178027091790280917A0290917B02C3
:101B10000E942B0860917802669570E04BE050E0DF
:101B20008DE191E00E944728892B19F00E94610DF8
:101B300002C00E94460D81E08093B70140917B0274
:101B400060917A02809179020C94420A0895682F7C
:101B500090917802969581E0890F8B3208F081E0B0
:101B60000C94680D81E00C94A70D682F9091780279
:101B700096958FEF890F09F48AE20C94680D81E045
:101B80000C94B50D61E00C94680DE8E7F2E08081FB
:101B90008160808386950C94C20D60E00C94680D82
:101BA000E8E7F2E080818E7F8083608171818281AD
:101BB00093810E942B080E94610DEBEBF1E0828182
:101BC000816082832FEF80E792E021508040904037
:101BD000E1F700C000000C948D088091780280FD30
:101BE0000C94D00D0C94C50DE8E7F2E080818E7F57
:101BF00080830E94610DEBEBF1E082818160828342
:101C00002FEF80E792E0215080409040E1F700C044
:101C100000000C948D081F93CF93DF93EC01162FD7
:101C20008F8180FF0FC0888180FF0AC08091780279
:101C3000816080937802888186950E94680D02C039
:101C40000E94F40D8F8181FF06C0212F4B816A8194
:101C500089810E944A098F8182FF08C08E81882372
:101C600019F00E94460D02C00E94610D8F8183FF12
:101C700003C081E08093B701DF91CF911F91089558
:101C80008091BA01811133C00E941E1F811104C0CE
:101C90000E94C51F0E943D080E9427086093780299
:101CA0007093790280937A0290937B028091BD01B8
:101CB00083608093BD016E7F61F40E943D080E94A5
:101CC0002708609378027093790280937A02909348
:101CD0007B020E9414080E94610D8091780280FFAF
:101CE00003C086950E94CD0D81E08093BA010895CE
:101CF000EF92FF920F931F93CF93DF938091BC01DC
:101D0000882309F4C1C08091BB01E0917802E69577
:101D1000E81BE093B601823049F4F0E0EB58FD4F48
:101D2000E491CE2FD0E006EE18E059C0863049F499
:101D3000F0E0EE58FD4FE491CE2FD0E00AEF18E02E
:101D40004EC0893051F4E695F0E0E159FD4FE49141
:101D5000CE2FD0E005E41AE042C08F3051F4E69572
:101D6000F0E0E459FD4FE491CE2FD0E000E81AE016
:101D700036C0853149F4F0E0E759FD4FE491CE2FAC
:101D8000D0E006E11BE02BC08831D9F0833239F472
:101D9000E7E6F2E0C591D4910AE019E020C0843270
:101DA000A9F08532C1F48E2F63E00E945E27E92FEF
:101DB000F0E0EC59FD4FE491CE2FD0E00EE61CE0B0
:101DC0000EC0C8E2D0E00CE91BE009C0C4EFD1E0CE
:101DD0000FE21CE004C0C0EDD7E002E018E0809103
:101DE000B701882389F01092B7010E94A2209E01BA
:101DF00020953095820F931F9093B5018093B40185
:101E00001092B9011092B8018091B4019091B5017E
:101E10000E94AE208C179D07B8F180918B0188231A
:101E2000B1F010928B018091890190918A010E94FA
:101E3000AE208033954758F00E94A22090938A01EB
:101E4000809389018091BD0188608093BD01E090FD
:101E5000B801F090B901E091B401F091B501CE0F55
:101E6000DF1FD093B501C093B40184EB91E0F8017A
:101E700009958091B8019091B901892B29F4EF2837
:101E800019F081E080938B01DF91CF911F910F9129
:101E9000FF90EF900895882311F0FA0101C0FB0133
:101EA0000994CF93DF93C82FD62F0E9454088C1724
:101EB00040F00E9454088D1720F4DF91CF910C94CC
:101EC000B20D8C2FDF91CF910C94C20D1F93CF9345
:101ED000DF93FB011281111163C0EC010E946D1EA2
:101EE0008272FE01E35CFC45E431F10508F057C065
:101EF000EA5AFF4F0C94B4270E94ED0D51C04FEBEE
:101F00005DE062EB7DE004C042EB5DE06FEB7DE005
:101F10000E944B0F45C043E05AE066EF79E0F8CFEE
:101F200046EF59E063E07AE0F3CF41E25AE062E144
:101F30007AE0EECF42E15AE061E27AE0E9CF4FE3A6
:101F40005AE060E37AE0E4CF40E35AE06FE37AE0FE
:101F5000DFCF47E858E060E778E0DACF40E758E0C5
:101F600067E878E0D5CF81E017C065E082E010C077
:101F700068E086E00DC06EE089E00AC064E18FE0B1
:101F800007C067E185E104C088E106C062E289E13B
:101F90000E94510F05C083E20E94C20D01C011E0F2
:101FA000812FDF91CF911F910895539A2BB1277FF5
:101FB0003BB138604FB7F894FC01CB01880F991FF3
:101FC000680F791F6E0F7F1FE617F70789F0819161
:101FD00098E03BB9000000C087FF2BB9880F0000D4
:101FE00000C000C000C02BB900C09A9591F7ECCF9B
:101FF0004FBF8FE594E00197F1F700C0000008950E
:10200000AF92BF92CF92DF92EF92FF920F931F9306
:10201000CF93DF937C015B01C42FD22FFC0182811F
:102020008823F9F04093C0010E94A2209093BF0141
:102030008093BE0180E28C0F883008F06EC0C770BC
:1020400081E001C0880FCA95EAF7DF91CF911F9117
:102050000F91FF90EF90DF90CF90BF90AF900C94D6
:1020600043168091C001481335C08091BE01909104
:10207000BF010E94AE206C01B701C5010E94571B31
:10208000C816D90638F510E21D0FCD17B9F080E259
:102090008C0F883040F4C77081E001C0880FCA956A
:1020A000EAF70E944A16183058F581E09D2F977084
:1020B00001C0880F9A95EAF70E944316802F0E946C
:1020C0003016183050F5D77081E001C0880FDA95CE
:1020D000EAF70AC080E28C0F8830F8F4C77081E01C
:1020E00001C0880FCA95EAF7DF91CF911F910F9138
:1020F000FF90EF90DF90CF90BF90AF900C944A1676
:10210000802FDF91CF911F910F91FF90EF90DF9083
:10211000CF90BF90AF900C943016DF91CF911F916C
:102120000F91FF90EF90DF90CF90BF90AF90089508
:102130000F939C01CB01243F4CE5340731F188F427
:10214000293DFCE53F07D9F02A3D4CE5340779F1FC
:10215000283D3C45A9F506E221EE41EE68ED7CE51F
:102160002BC0263FFCE53F07E1F0A8F0273F3C45A8
:1021700039F507E225EE46EE67EF7CE51DC007E284
:1021800025EE45EE69ED7CE517C006E221EE40EE56
:1021900064EF7CE511C007E225EE44EE65EF7CE5D7
:1021A0000BC006E221EE42EE66EF7CE505C008E2D8
:1021B00021E045EE6AED7CE50E94001080E008C059
:1021C000FC018281882319F01092C00101C081E0D6
:1021D0000F910895CF93DF93EC01FB018281882357
:1021E00009F41FC1C230FCE5DF0708F41BC1C6318A
:1021F0009CE5D90738F09E012B5F3C45293031051D
:1022000008F010C10E94311F90939A0280939902A6
:10221000C031ECE5DE0709F4C3C008F041C0C830A6
:102220008CE5D80709F49AC0F0F4C430ECE5DE0779
:1022300009F487C068F4C2308CE5D80709F477C088
:10224000C330DC4509F0E3C080919902826076C01A
:10225000C630ECE5DE0709F46EC008F07BC0809163
:10226000990288606BC0CC308CE5D80709F485C032
:1022700068F4CA30ECE5DE0709F474C008F079C0F0
:102280000E949E1880919902806858C0CE308CE5DB
:10229000D80709F476C008F07FC0809199028BC0FE
:1022A000CC3FECE5DE0709F44FC018F5C3318CE5EF
:1022B000D80709F47DC078F4C131ECE5DE0709F4F4
:1022C00073C0C231DC4509F0A2C00E949E18809103
:1022D00099028F7733C0C5318CE5D80709F472C0F5
:1022E00008F486C0CB3FDC4509F091C080919A028A
:1022F0003EC0C115FDE5DF0709F45FC058F4CE3FCD
:102300009CE5D90709F444C008F43FC080919A02C3
:1023100082602DC0C230FDE5DF0709F475C008F406
:102320005DC0C330DD4509F072C080E06EC08091B1
:102330009902816003C08091990280618093990223
:1023400066C08091990211C080919A028260809348
:102350009A025DC0809199028062F0CF80919902CB
:102360008064ECCF8091990288608460E7CF8160BF
:10237000EECF809199028E7FE1CF809199028D7F7F
:10238000DDCF80919902877FD9CF80919A0218C0C2
:1023900080919A028D7FDBCF809199028F7ECECF84
:1023A000809199028F7DCACF809199028F7BC6CF91
:1023B00080919902877F8B7FC1CF80919A028D7F18
:1023C0008E7FC5CF8091990282FB222720F991E070
:1023D000922790FB82F990FB83F9B0CF80919A020B
:1023E000982F909591708E7F892B90FB81F9AFCFBC
:1023F0000E949E188091990287FB222720F991E084
:10240000922790FB87F99ACF81E00E94C71F8091A5
:10241000990290919A020E94421F0E949E1880E0A9
:1024200001C081E0DF91CF910895CF93DF93863192
:102430009C4541F5EB010E946D1E982F8A812091E9
:10244000280130912901882379F09A7A81E009F4F2
:1024500080E08093C101911102C069E201C065E38F
:10246000C9010E940E200AC08091C101811102C0E1
:1024700069E201C065E3C9010E9410200E94BB1EF1
:1024800080E001C081E0DF91CF9108958EE14A9B09
:1024900002C08150E1F74A9BFECF08955A9880E22E
:1024A0008A95F1F75A9A0895FC012AE02A95F1F7E6
:1024B00090E020E080E031E0261779F040E14A9595
:1024C000F1F7880F4A9B02C08160932700C000008B
:1024D00040E14A95F1F72F5FEFCF20E12A95F1F720
:1024E00029B100C0000030E13A95F1F722FB222724
:1024F00020F992272081920F90830895EF92FF9206
:102500000F931F93CF93DF931F92CDB7DEB719823E
:102510008C017C01E60EF11C0E151F0559F00E947E
:10252000461268E0CE0101960E945412F801819390
:102530008F01F2CF81E09981911180E00F90DF91BE
:10254000CF911F910F91FF90EF9008959093C40148
:102550008093C3016093C201529A5A9A089590934E
:10256000C4018093C3016093C20152985A9AEA9AB7
:10257000E9E6F0E080818F7C80830895615091E0EE
:1025800001C0990F6A95EAF720E031E0992361F0E4
:10259000492F482319F05A9A232701C05A9840E23C
:1025A0004A95F1F79695F2CF222311F05A9A01C07D
:1025B0005A9880E28A95F1F75A980895FF920F93FE
:1025C0001F93CF93DF93EC018C01060F111DC017F1
:1025D000D10741F0F9900E944E1268E08F2D0E94C1
:1025E000BE12F5CFDF91CF911F910F91FF9008950B
:1025F0001F920F920FB60F9211240F931F932F93D8
:102600003F934F935F936F937F938F939F93AF937A
:10261000BF93EF93FF93CF93DF931F92CDB7DEB7B6
:1026200019820E94461267E0CE0101960E94541260
:10263000382F369536953695932F96959570232F8E
:102640002570920F292F2370969596958770920F7B
:10265000891348C08981811145C08091C2018317C7
:1026600008F440C080E18A95F1F75A9A529AA2E0A4
:10267000AA95F1F700C00091C3011091C401B8E020
:102680003B9F000D111D11245A98F80165816623A6
:1026900021F0868197810E94DE120E944E12F0E1A5
:1026A000FA95F1F75A9852985A9A80E18A95F1F77B
:1026B000D80112966C911297662369F013968D914A
:1026C0009C9114970E947E12D801ED91FC9181118A
:1026D00005C082E004C0D801ED91FC9188E08083C0
:1026E0000E9446120F90DF91CF91FF91EF91BF9121
:1026F000AF919F918F917F916F915F914F913F919A
:102700002F911F910F910F900FBE0F901F90189552
:102710000F931F93CF93DF932091C20130E02817CE
:1027200039070CF471C09C0193E0220F331F9A9576
:10273000E1F7C091C301D091C401C20FD31FF89437
:10274000529A5A9845E04A95F1F70000982F9695CD
:1027500095708570890F982F937086958695890F4F
:102760008901082B0E944E1284E08A95F1F700C07F
:1027700067E0802F0E94BE1240E14A95F1F752981F
:102780005A9A4A9902C000C0FCCF87E090E04A9B69
:102790000EC0019751F4529A5A9AE881F98181E06A
:1027A0008083789481E090E031C000C0F0CF6D81EB
:1027B000662381F08E819F810E947E1281110AC062
:1027C000529A5A9AE881F98182E08083789482E073
:1027D00090E01CC00E94461280E28A95F1F75A9858
:1027E000529A40E14A95F1F76A81662321F08B8184
:1027F0009C810E94DE120E944E12E881F9811082B3
:10280000789480E090E002C084E090E0DF91CF9186
:102810001F910F9108959093CA018093C901089563
:10282000E091C901F091CA01309721F00190F08147
:10283000E02D099480E00895E091C901F091CA016A
:10284000309721F00280F381E02D099408952091C2
:10285000C7013091C8012817390771F09093C8015A
:102860008093C701E091C901F091CA01309721F02E
:102870000680F781E02D099408952091C5013091DB
:10288000C6012817390771F09093C6018093C501DE
:10289000E091C901F091CA01309721F00084F185DF
:1028A000E02D0994089585B7806885BF85B7806855
:1028B00085BF08950C94E00608950C945C140C9464
:1028C0005C140C945F140C945C140C9463140C94BE
:1028D0005C140E9453140E9467140C9465140E94A7
:1028E00099200E94B2050E94F4200E94400E0C9490
:1028F0006114AF92BF92CF92DF92EF92FF920F934B
:102900001F93CF93DF93CDB7DEB72A970FB6F89416
:10291000DEBF0FBECDBF0E945D140E945C140E94FA
:1029200023060E945A14811111C08FEF89838A8374
:102930001B820E94A2208160782F9D838C83498115
:102940005A816B818D810E94151540C08CECA82E98
:1029500081E0B82E00E010E0C02E802F0E94860596
:10296000E82EF501D1905F01D82631F40F5F1F4F9B
:102970000A30110589F7D9CF8091560281FD0E9456
:102980008C0580E0FF24F3949D2D9F21D1F08E8350
:10299000CF82EF2081E009F480E088870E94A220A6
:1029A0008160782F9A8789874E815F8168858A85C3
:1029B0000E941515F801E453FE4F8081F826F0823D
:1029C00005C08F5FFF0C8830F9F6D0CF0E94780EDB
:1029D0000E9410149091CB018917B1F00E9410143D
:1029E0008093CB012A960FB6F894DEBF0FBECDBF01
:1029F000DF91CF911F910F91FF90EF90DF90CF90DB
:102A0000BF90AF900C9489032A960FB6F894DEBF5E
:102A10000FBECDBFDF91CF911F910F91FF90EF902F
:102A2000DF90CF90BF90AF900895CF93DF93CDB755
:102A3000DEB72B970FB6F894DEBF0FBECDBF4F8326
:102A4000588769877A878B87DE01119686E0FD01BA
:102A500011928A95E9F785E0FE01379601900D9273
:102A60008A95E1F749815A816B817C818D819E81B4
:102A70000E945A1B2B960FB6F894DEBF0FBECDBF37
:102A8000DF91CF910895FC01808191810E942E1EDB
:102A90000895CF93882309F482C0C82F8238C1F4E7
:102AA0000E94101481FD7BC069E380912801909100
:102AB00029010E940E200E94BB1E2FEF81EE94E0A0
:102AC000215080409040E1F700C0000069E319C048
:102AD0008338F1F40E94101480FD61C063E5809199
:102AE0002801909129010E940E200E94BB1E2FEF09
:102AF00081EE94E0215080409040E1F700C000005A
:102B000063E580912801909129010E94102044C022
:102B10008438C1F40E94101482FD41C067E48091A2
:102B20002801909129010E940E200E94BB1E2FEFC8
:102B300081EE94E0215080409040E1F700C0000019
:102B400067E4DFCF8CEF8C0F813AD0F46C2F80914B
:102B50002801909129010E94D81F882349F06C2FE9
:102B600080912801909129010E9410200E94BB1E93
:102B70006C2F80912801909129010E940E200CC099
:102B800080E28C0F883058F4C77081E001C0880F54
:102B9000CA95EAF70E94701ECF910C94BB1ECF918C
:102BA0000895882309F45BC0682F823879F40E9465
:102BB000101481FF54C069E380912801909129018C
:102BC0000E940E200E94BB1E69E310C08338B1F43E
:102BD0000E94101480FF43C063E58091280190910A
:102BE00029010E940E200E94BB1E63E580912801EE
:102BF000909129010E9410200C94BB1E843879F416
:102C00000E94101482FF2BC067E4809128019091EC
:102C100029010E940E200E94BB1E67E4E7CF8CEFC3
:102C2000860F813A18F380E2860F883048F4677087
:102C300081E001C0880F6A95EAF70E94761EDCCF1A
:102C40008BE5860F833020F480E090E00C9427140D
:102C5000685A673120F480E090E00C943D140895A8
:102C6000CF93C82F0E944915C93349F42FEF87EE3F
:102C700093E0215080409040E1F700C000008C2F8D
:102C8000CF910C94D115882321F00E94701E0C94D2
:102C9000BB1E0895882321F00E94761E0C94BB1E53
:102CA0000895CF92DF92EF92FF920F931F93CF93ED
:102CB000DF937C01062FC72FFC01D581D295DF70F1
:102CC000128111110E948D1E0E94661E882399F0A8
:102CD000112389F08C2F807F803421F080E2800FD7
:102CE000883048F082E00E94051F0E94661E91E035
:102CF000D82ED92601C0D12CCC2EC2948FE0C82268
:102D00008C2D90E0FC01E659FF4F0C94B4278C2FDA
:102D1000807FCF70882311F0C295C07F112399F076
:102D2000CC2309F464C180E2800F883010F00111D7
:102D300004C08C2F0E94701E03C08C2F0E94801E26
:102D40000E94BB1E54C1802F0E94D115CC2309F4D0
:102D500073C180E2800F883010F0011104C08C2F05
:102D60000E94761E03C08C2F0E94861E0E94BB1EEE
:102D700063C18C2F807FCF70803211F0C295C07FED
:102D8000002319F00130C9F022C0112371F0DD23B6
:102D900041F0D13031F40E94A01E8C2B0E94A81E5D
:102DA0004BC10E94A01E8C2B1DC0DD2319F0D13019
:102DB00009F442C10E94B11E25C0112321F0D63072
:102DC00008F03AC10EC0D53008F036C11BC011233F
:102DD00061F0DD2331F0F701858180FF08C18F703C
:102DE00085838C2F0E94431627C1DD2359F00933B8
:102DF00009F00EC1FFEF27EE83E0F1502040804044
:102E0000E1F704C18C2F0E944A1616C18C2F8370E3
:102E100009F045C0111114C1402F429546954770E5
:102E2000440F440F602F6F70862F90E0A0E0B0E059
:102E3000042E04C0880F991FAA1FBB1F0A94D2F743
:102E400004FF10C00FE010E020E030E004C0000FED
:102E5000111F221F331F4A95D2F700951095209518
:102E6000309503C000E010E09801C695C695C37088
:102E7000BC01CD01602B712B822B932BC23049F00A
:102E800058F4C13019F00E94AB1CDAC00E94991CA2
:102E9000D7C00E94BD1CD4C00E94971CD1C0112372
:102EA00019F08C2F817001C08695882309F4C8C061
:102EB000402F429546954770440F440F602F6F7026
:102EC000862F90E0A0E0B0E0042E04C0880F991F88
:102ED000AA1FBB1F0A94D2F704FF10C00FE010E036
:102EE00020E030E004C0000F111F221F331F4A955D
:102EF000D2F7009510952095309503C000E010E0C2
:102F00009801C695C695C370BC01CD01602B712B8D
:102F1000822B932BC23049F058F4C13019F00E9433
:102F2000701D8EC00E945E1D8BC00E94821D88C0D5
:102F30000E94D11C85C0CF70112339F08C2F0E94C4
:102F4000F71C802F0E9443167BC0802F0E944A16D8
:102F50008C2F0E94181D74C0023F01F128F4003F1D
:102F600041F0013FA1F03FC0033FF9F0043F39F1C8
:102F70003AC0112341F0D53008F05EC08C2F8F711C
:102F80000E943D1D59C0D63008F056C0F7CF11231E
:102F900039F08C2F8F710E94F71C4EC01123C9F39A
:102FA0008C2F8F710E94181D47C0112329F08C2F80
:102FB0008F710E94E21C40C00E94DD1C3DC01123A5
:102FC00049F0CF718C2F0E94F71C63E08C2F0E9478
:102FD000F01E32C081E00E94051FD23068F182E00D
:102FE0000E94051F29C0112331F0DD2391F2802FAB
:102FF0000E94491521C0DD2399F2093349F49FEF5E
:10300000E7EEF3E09150E040F040E1F700C000004F
:10301000802F0E94D11510C04C2F4F70602FC70118
:103020000E9492030E94081C0FC04C2F4F70602F0B
:10303000C7010E94950308C088EF8C0D843020F4EE
:103040000E9410140E948903DD20C9F00E94621EB4
:1030500080FD15C0F70112820E945C1E0E94F71CC1
:10306000C7010E9460180E945C1EDF91CF911F91E2
:103070000F91FF90EF90DF90CF900C94181DDF918F
:10308000CF911F910F91FF90EF90DF90CF90089517
:103090000F931F93CF93DF93EC01688179818A812D
:1030A0000E94391E8C010E94941D0E94851CB8014B
:1030B000CE010E945116DF91CF911F910F9108957B
:1030C000CF93DF93EC01988189812B813C81232B65
:1030D00031F08F3F31F481E09F3F19F403C081E06C
:1030E00001C080E080FD19C0CE010E943F03811124
:1030F0000CC00E94661E882381F08A81882369F0B3
:1031000082E0DF91CF910C94051FCE010E944818F8
:10311000CE01DF91CF910C941A03DF91CF910895E6
:103120000E948D1E0E949D1E0C94BB1E8091280142
:10313000909129010E9412200C9490180E947D1EEB
:103140000C949618E92FE295EF704E2F50E0FA019B
:103150003297EE30F105B0F4E658FF4F0C94B427E7
:10316000803F91F018F4883E68F40EC0843F51F41B
:103170000BC0883E48F0813F29F406C093FB8827A6
:1031800080F9089580E0089581E008950E942E1E40
:103190000E94A2180895CF93DF9300D000D01F9211
:1031A000CDB7DEB70F900F900F900F900F90DF917B
:1031B000CF910895CF93DF9300D000D000D0CDB74A
:1031C000DEB726960FB6F894DEBF0FBECDBFDF91F7
:1031D000CF9108951F93CF93DF93C091D70116E04D
:1031E0008091D801C81799F0D0E01C9FF0011D9F75
:1031F000F00D1124E752FE4F4081518162817381AD
:10320000848195810E94DA182196C770E9CFDF91F9
:10321000CF911F9108954091090250910A02609147
:103220000B0270910C0280910D0290910E020C9491
:10323000DA180F931F93CF93DF9380910E0282953C
:103240008F7009F05DC080910B02882309F458C08B
:103250008091D7011091D8016091090270910A0202
:10326000C0910C02D0910D0291E06F3F09F090E007
:10327000292F06E0811709F443C0209721F07F3FF2
:1032800021F030E003C031E001C0322F90E030FD8A
:1032900034C0089FF001099FF00D1124DF01A752EF
:1032A000BE4F11963C911197371327C03C913613AE
:1032B00024C012963C91129731111FC013964D9164
:1032C0005C9114974C1B5D0B483C5105B0F4809108
:1032D0000E028F70806180930E02E252FE4F808159
:1032E0008F708061808389E092E00E946018DF9196
:1032F000CF911F910F910C94EA1801968770BACF65
:10330000DF91CF911F910F9108959F92AF92BF923D
:10331000CF92DF92EF92FF920F931F93CF93DF93A1
:10332000CDB7DEB761970FB6F894DEBF0FBECDBF45
:103330008C0185E0F801DE011D9601900D928A95C1
:10334000E1F7F80140815181E2809091090260919A
:103350000A0220910C0230910D022115310531F045
:103360006F3F31F481E09F3F19F403C081E001C059
:1033700080E0F82FF1709F2E80FD46C1F801A380F8
:10338000B48089E0C82E82E0D82EF0900B02F501BF
:10339000E21BF30BFF2009F4DFC080910E02E83C32
:1033A000F10508F09BC0282F207F09F052C056136A
:1033B00013C0491311C0FE2CE1100EC08F70806144
:1033C00080930E020E940B19C6010E946018809122
:1033D0000E02F801858358C1AB2831F05F3F31F40C
:1033E00081E04F3F19F403C081E001C080E080FD1F
:1033F00003C081E08E2502C080E090E0F82FF170DC
:10340000FF2E80FF1CC08091D7012091D80136E0AB
:10341000821709F417C190E0389FF001399FF00D31
:103420001124E752FE4F6181561306C06081461396
:1034300003C06281E61203C001968770E9CFFE2CBB
:10344000EE2009F421C180910E02816080930E026A
:103450005AC0561306C0491304C0E11002C0F80157
:103460009FC04D875E878D859E850E94C6188823E4
:1034700079F1EE2069F120910E02822F82958F70F2
:1034800090E0029774F08091090290910A02988767
:103490008F831986BB86AA862C87CE0107960E9449
:1034A000601886E0F801A9E0B2E001900D928A95DB
:1034B000E1F70E9419190E940B190DC0561729F146
:1034C0004D875E878D859E850E94C61881112CC010
:1034D000C8010E946018FF24F394D6C0282F207FD3
:1034E00069F77A2DB98AA88A6E2D89890E94CB182E
:1034F00089E092E00E94601886E0F60111928A95B8
:10350000E9F70E940B19F12CBFC04913D9CFE11084
:10351000D7CFF8018583C8010E94601886E0F601C4
:1035200011928A95E9F7B0C0EE2091F220910E0237
:10353000822F82958F7090E002970CF4B2CF809129
:10354000090290910A029A8389831B82BD82AC8210
:103550002E83CE010196A3CFE83CF10508F047C0C9
:10356000FE2CEE2009F4B4CF561330C049132EC000
:1035700020910E0220FD21C0822F82958F70482F4E
:1035800050E041155105C9F0F80125834F30510530
:1035900041F08F5F982F9295907F822F8F70892BAB
:1035A0008583C8010E94601886E0F801A9E0B2E0B6
:1035B00001900D928A95E1F742C086E0F801A9E0FA
:1035C000B2E001900D928A95E1F75EC04D875E876B
:1035D0008D859E850E94C618811163CF80910E0251
:1035E000816080930E02C8010E9460184DC07A2D40
:1035F000B98AA88A6E2D89890E94CB1886E0F601C7
:1036000011928A95E9F71BC0EE2009F461CF4D872E
:103610005E878D859E850E94C618F82E882309F442
:1036200057CF86E0F801A9E0B2E001900D928A95AB
:10363000E1F789E092E00E9443150E9419190E9467
:103640000B1922C04D875E878D859E850E942E1E98
:10365000292F22952F70223028F49F7039F0811184
:1036600005C00BC0243028F49F7049F4805E883078
:1036700020F0C8010E9460189F2CF92C05C0F801A9
:103680009581907F99F7F9CF8F2D61960FB6F894B9
:10369000DEBF0FBECDBFDF91CF911F910F91FF9085
:1036A000EF90DF90CF90BF90AF909F90089588ECFF
:1036B00090E008951F93CF93DF93CDB7DEB72C979B
:1036C0000FB6F894DEBF0FBECDBF4F835887698712
:1036D0007A878B879C87CE0107960E94851988235D
:1036E000D1F09F8188852A853B85232B31F08F3F40
:1036F00031F481E09F3F19F403C081E001C080E014
:1037000080FD47C04F81588569857A858B859C856A
:103710000E94DA183EC086E0FE013796DE0111965F
:1037200001900D928A95E1F7FF81E8856A857B8596
:103730006115710531F0EF3F31F481E0FF3F19F47D
:1037400003C081E001C080E080FD23C02091D8014A
:1037500030E0C9010196877099274091D70150E068
:1037600084179507F1F1F983EA837D836C8396E0F2
:10377000929FD001939FB00D1124A752BE4FFE011E
:10378000319601900D929A95E1F78093D8010E94AD
:10379000EA1816E08091D7019091D801891771F14C
:1037A000189FC001112487529E4F0E9485198823BB
:1037B00029F1E091D7011E9FF0011124E752FE4F3D
:1037C0004081518162817381848195810E94DA18E0
:1037D0008091D70190E00196877099278093D70157
:1037E000D9CF0E949E181092D8011092D701E9E01B
:1037F000F2E086E0DF011D928A95E9F72C960FB67C
:10380000F894DEBF0FBECDBFDF91CF911F91089519
:10381000EF92FF920F931F93CF93DF938C01892B2D
:1038200009F46CC0F12CEE24E394E8012196F80130
:103830008491843740F4843008F051C0813081F0A5
:10384000823019F15BC0853709F444C0A8F19CE7C8
:10385000980F903708F052C08F770E94D11541C061
:103860000E5F1F4FFE01849190E2980F983050F444
:103870008770FE2D01C0FF0F8A95EAF78F2F0E94F7
:10388000901E14C00E9449152DC00E5F1F4FFE01EF
:10389000849190E2980F983060F48770FE2D01C0FB
:1038A000FF0F8A95EAF78F2F0E94961E0E94BB1E7B
:1038B00019C00E94D11516C00E5F1F4FFE01C491A2
:1038C000CC2381F08FE99FE00197F1F700C0000061
:1038D000C150F6CF0E5F1F4FFE01F49003C00E944F
:1038E00049158E018F2D882309F49FCFEFE9FFE062
:1038F0003197F1F700C000008150F5CFDF91CF91F3
:103900001F910F91FF90EF900895089508950C94E2
:10391000861C0C94871C0E94891C6093450270933E
:10392000460280934702909348020C9490180C949E
:103930008B1C0F931F93009145021091460220911A
:10394000470230914802602B712B822B932B1F91E1
:103950000F910C948B1C0F931F93009145021091B3
:10396000460220914702309148026023712382234E
:1039700093231F910F910C948B1C0F931F93009115
:10398000450210914602209147023091480260277B
:103990007127822793271F910F910C948B1C0C94F5
:1039A000861C0E94CF1C6093410270934202809358
:1039B0004302909344020C94901860E070E0CB01B5
:1039C0000C94D11C0F931F9341E050E060E070E035
:1039D0008A019B0104C0000F111F221F331F8A950B
:1039E000D2F7C901B8011F910F910C94D11C0F930C
:1039F0001F9341E050E060E070E004C0440F551FA9
:103A0000661F771F8A95D2F78091410290914202FA
:103A1000A0914302B09144028A019B01082B192B0B
:103A20002A2B3B2BC901B8011F910F910C94D11C7B
:103A30000F931F9341E050E060E070E004C0440F3A
:103A4000551F661F771F8A95D2F740955095609550
:103A500070958091410290914202A0914302B091F1
:103A600044028A019B01082319232A233B23C9010D
:103A7000B8011F910F910C94D11C0F931F9341E03B
:103A800050E060E070E004C0440F551F661F771FD0
:103A90008A95D2F78091410290914202A09143020F
:103AA000B09144028A019B01082719272A273B2746
:103AB000C901B8011F910F910C94D11C0F931F9352
:103AC0000091410210914202209143023091440240
:103AD000602B712B822B932B1F910F910C94D11C77
:103AE0000F931F93009141021091420220914302D3
:103AF0003091440260237123822393231F910F91FD
:103B00000C94D11C0F931F9300914102109142021B
:103B10002091430230914402602771278227932726
:103B20001F910F910C94D11C089528E0929F800D55
:103B30001124E82FE695E695E695877051E001C0DF
:103B4000550F8A95EAF785E0E89FF0011124E15FBF
:103B5000FD4F20E030E070E04081CB01022E02C03A
:103B6000969587950A94E2F781708195842785233D
:103B7000842781932F5F3F4F2530310569F70895E2
:103B800028E0929F800D1124682F669566956695B2
:103B9000982F977085E0689FB001112440E050E0B5
:103BA00080E0FB01E40FF51FE15FFD4F208130E075
:103BB000092E02C0369527950A94E2F72170332723
:103BC000042E01C0220F0A94EAF7822B4F5F5F4F49
:103BD0004530510531F70895BF92CF92DF92EF92B1
:103BE000FF920F931F93CF93DF938C01C0904102FC
:103BF000D0904202E0904302F0904402809145024E
:103C000090914602A0914702B0914802C82AD92A51
:103C1000EA2AFB2ACFE1D0E0D701C6010C2E04C06E
:103C2000B695A795979587950A94D2F780FD04C01D
:103C3000219790F7B12C07C0BC2EB8018C2F0E94A1
:103C4000B3030197A9F38B2DDF91CF911F910F91B2
:103C5000FF90EF90DF90CF90BF900895CF93DF93C8
:103C6000EC010E94EC1DBE010E94B303DF91CF91D5
:103C700008951F93CF93DF93EB019091D601992381
:103C800021F0CB010E942E1E13C0882349F0CB01E6
:103C90000E94EC1D182F682FCE010E94951D04C0B4
:103CA000CB010E94C01D182FBE01812F0E94B303BB
:103CB000DF91CF911F910895809149028595859557
:103CC00085950895809149028770089590914902E1
:103CD000977081E009F480E008958091550208957D
:103CE00090915502892B809355020895809590916B
:103CF0005502892380935502089510925502089524
:103D000090915402892B809354020895809590914C
:103D10005402892380935402089510925402089506
:103D200090915302892B809353020895809590912E
:103D300053028923809353020895109253020895E9
:103D400080914A02089508950C94A31E0C94A41E19
:103D500090914A02981721F080934A020C94A61E73
:103D6000089580914A02882329F010924A0280E047
:103D70000C94A61E0895E0912801F09129018091EC
:103D800055028083E0912801F09129019081809172
:103D90005402892B8083E0912801F09129019081C0
:103DA00080915302892B808380914A02882381F07D
:103DB000E0912801F09129019081892B80838091E5
:103DC0002801909129010E94CC1F81110E94B11EEF
:103DD00080912801909129010C941C140C94A31E2D
:103DE00098E0899F90011124262B209349020E947C
:103DF000F71C809149028595859585950C94EE1E5A
:103E00001092490280E00C94EE1E209149028095A8
:103E1000822380934902982F977079F430E0482FDD
:103E2000082E000C550B2417350739F0859585951C
:103E300085950E94181D0C94001F089580E090E065
:103E40000E94622821E08C3E9E4F09F020E0822FE4
:103E5000089582E090E00C94542883E090E00C9464
:103E60005428CF9384E090E00E945428C82F81E228
:103E700090E00E9454282C2F30E0A901582BCA0151
:103E8000CF910895CF93C92F682F84E090E00E94CE
:103E900068286C2F81E290E0CF910C946828AB01E8
:103EA000BC018FE090E00C947A28AB01BC0183E167
:103EB00090E00C947A2860E070E0CB010C94551FE0
:103EC00060E070E0CB010E944F1F0C945B1F6CEE12
:103ED0007EEF80E090E00E94862860E082E090E043
:103EE0000E94682860E083E090E00E9468281092B9
:103EF000450210924602109247021092480260E07A
:103F000084E090E00E94682860E081E290E00E94F6
:103F1000682860E085E090E00E94682860E086E024
:103F200090E00E9468286FEF87E090E00E94682888
:103F300040E050E0BA0188E090E00E947A2860E01A
:103F40008DE090E00E94682840E050E0BA0188E1EE
:103F500090E00E947A2860E087E190E00E94682863
:103F600040E050E0BA018CE190E00E947A2860E0E5
:103F700080E290E00E94682840E050E0BA0188E1C9
:103F800090E00E947A280C94601F0C94671F682FA1
:103F90008EE090E00C946828FC01329697E080E077
:103FA000915029F021912223D9F38F5FF9CF089501
:103FB000662349F0FC01329608962191621729F098
:103FC000E817F907D1F780E0089581E008959C0192
:103FD000FC0132969FEF80E04191461789F09F3FA8
:103FE00019F4411101C0982F8F5F8630A9F79F3FC8
:103FF00039F0F901E90FF11D97FDFA9562830895F3
:1040000008959C012A5F3F4FFC014281461301C085
:104010001282019682179307B9F708950C94E71F4F
:104020000C940120029626E0FC0111922A95E9F7F2
:10403000089508950C9419200C941920CF930E9490
:104040001C200E9423060E941A20C0E08C2F0E9490
:104050008605811104C0CF5FCA30C1F701C081E07D
:10406000CF9108950C9419200C9432200E94342092
:1040700080919F02843049F11092570220E488E138
:1040800090E00FB6F894A895809360000FBE20933F
:10409000600080E00E9489030E94342083B7817F02
:1040A000846083BF83B7816083BF7894889583B72A
:1040B0008E7F83BF0FB6F894A895809160008861C9
:1040C00080936000109260000FBE08950C94192038
:1040D0000E949E180E9410140E9489030C9466206E
:1040E0001F920F920FB60F9211248F939F93AF934D
:1040F000BF9380915702811113C0809195029091D6
:104100009602A0919702B09198024196A11DB11D0F
:104110008093950290939602A0939702B093980291
:10412000BF91AF919F918F910F900FBE0F901F90F5
:10413000189582E084BD93E095BD9AEF97BD80937A
:104140006E0008952FB7F894809195029091960291
:10415000A0919702B09198022FBF08959C014FB78C
:10416000F8948091950290919602A0919702B09157
:1041700098024FBF821B930B089578941F920F9261
:104180000FB60F9211248F939F93AF93BF9380919B
:10419000950290919602A0919702B0919802019693
:1041A000A11DB11D8093950290939602A093970252
:1041B000B0939802BF91AF919F918F910F900FBED6
:1041C0000F901F90189587E797E7909301088093C9
:1041D00000089AE088E10FB6F894A89580936000F3
:1041E0000FBE90936000FFCF0E941E1F811102C07E
:1041F0000E94C51F0E94291F809356020E94311FF2
:1042000090939A02809399020E942D1F682F70E06C
:1042100080E090E00E94971C609141027091420200
:1042200080914302909144020C94CF1C80916002D3
:10423000089508950895CF93DF9321E02093E90036
:104240002FEF3091E800215035FD06C035ED3A954D
:10425000F1F700002111F5CF2091E80025FF14C0EF
:10426000EC0140E050E068E070E00E94C0228091E4
:10427000E8008E778093E80088E0FE01A8E5B2E0D0
:1042800001900D928A95E1F7DF91CF9108950895FD
:1042900080919E02811109C00E9451240E94AE2487
:1042A0008091E20084608093E200089510929E0263
:1042B0000895089508950C94682042E061EC81E02F
:1042C0000C94CA238091A102833009F460C030F4B9
:1042D000813071F0823009F499C008958A3009F470
:1042E00085C08B3009F46BC0893009F0A7C020C0AD
:1042F0008091A002813A09F0A1C08091E800877FF7
:104300008093E8008091A4029091A502892B21F46A
:1043100068E088E592E003C060E080E090E070E053
:104320000E940B238091E8008B778093E80008952A
:104330008091A002813209F081C08091A402909105
:10434000A502892B09F07AC08091E800877F8093CD
:10435000E8008091E80082FD05C080919F028111F4
:10436000F8CF6CC02091F3008091F20090E0922B86
:10437000029729F48091F1008B7F813021F48091A4
:10438000F100809360028091E8008B7753C08091A8
:10439000A002813A09F052C08091A4029091A50236
:1043A000892B09F04BC08091E800877F8093E8005B
:1043B0008091E80080FFFCCF8091340136C080916D
:1043C000A0028132D9F58091A4029091A502892B97
:1043D000A9F58091E800877F8093E8000E94FF2381
:1043E0008091A202809334010C949E188091A002C7
:1043F000813221F58091E800877F8093E8000E9458
:10440000FF238091A3028093610208958091A0020E
:10441000813AA1F48091E800877F8093E800809141
:10442000E80080FFFCCF809161028093F1008091D1
:10443000E8008E778093E8000C94FF23089584B7FA
:10444000877F84BF0FB6F894A8958091600088613B
:1044500080936000109260000FBE90E080E80FB67D
:10446000F89480936100909361000FBE0E946914DC
:104470000E9451240E94AE248091E20084608093C7
:10448000E20078940E9443270E946F148AE291E030
:104490000E940B1480919F02853069F40E9436209F
:1044A00080919D028823B1F30E941E20882391F3FE
:1044B0000E94AA22EFCF0E9479140E945D140E94EC
:1044C0005C14E8CF0C946422292F33272330310564
:1044D000C1F058F42130310579F02230310591F5E1
:1044E00082E290E024EA34E031C021323105E1F08B
:1044F0002232310501F126C082E190E026EC34E061
:1045000025C099278130910549F028F00297D1F410
:10451000EEE7F4E005C0E0EAF4E002C0EEE8F4E023
:10452000849190E09F0112C0672B61F489E090E0D4
:1045300026EB34E00BC0672B29F480E490E028EDF3
:1045400034E004C080E090E020E030E0FA01318304
:104550002083089580E189BD82E189BD09B400FE10
:10456000FDCF8091D8008F7D8093D8008091E000AE
:1045700082608093E0008091E00081FDFCCF08958F
:10458000CF92DF92EF92FF920F931F93CF93DF931F
:10459000EC018B017A010E941E24811133C0E114C9
:1045A000F10439F0F70180819181081B190BC80FC4
:1045B000D91FC12CD12C0115110519F18091E800EA
:1045C00085FD16C08091E8008E778093E800E114A5
:1045D000F10449F0F70180819181C80ED91ED18282
:1045E000C08285E00FC00E941E24882321F30AC0E8
:1045F00089918093F10001501109FFEFCF1ADF0A72
:10460000DACF80E0DF91CF911F910F91FF90EF9073
:10461000DF90CF9008952091A6023091A70226172F
:10462000370748F06115710539F42091E8002E77BD
:104630002093E80001C0B901FC0120E0611571057B
:1046400079F180919F028823F1F18530F1F1809119
:10465000E80083FD3CC08091E80082FD2EC080917F
:10466000E80080FFEBCF2091F3008091F20090E012
:10467000922B6115710551F08830910538F4219124
:104680002093F100615071090196F3CF21E0089762
:1046900009F020E08091E8008E778093E800CECF8B
:1046A0002111CFCF0AC080919F02882361F085300D
:1046B00061F08091E80083FD0AC08091E80082FFEC
:1046C000F2CF80E0089582E0089583E0089581E0CC
:1046D00008952091A6023091A7022617370748F0C7
:1046E0006115710539F42091E8002E772093E800D8
:1046F00001C0B901FC0120E06115710591F18091C3
:104700009F02882309F440C0853009F43FC080919E
:10471000E80083FD3DC08091E80082FD2FC08091BC
:10472000E80080FFE9CF2091F3008091F20090E053
:10473000922B6115710559F08830910540F4249150
:104740002093F1003196615071090196F2CF21E07A
:10475000089709F020E08091E8008E778093E800C8
:10476000CBCF2111CCCF0AC080919F02882361F06A
:10477000853061F08091E80083FD0AC08091E800F7
:1047800082FFF2CF80E0089582E0089583E00895EB
:1047900081E00895982F973068F59093E900981775
:1047A00039F07091EC002091ED005091F00003C0C1
:1047B000242F762F50E021FD02C09F5FECCF309177
:1047C000EB003E7F3093EB003091ED003D7F309366
:1047D000ED003091EB0031603093EB007093EC0012
:1047E0002093ED005093F0002091EE0027FDE5CFDF
:1047F00080E008958F708093E90081E008958091B2
:10480000A00287FF11C08091E80082FD05C0809161
:104810009F028111F8CF11C08091E8008B770BC007
:1048200080919F02882349F08091E80080FFF8CFB3
:104830008091E8008E778093E80008952091E4004D
:104840003091E50095E64091EC00842F817040FFA7
:1048500023C08091E80080FD1DC080919F028823C5
:1048600099F0853099F08091EB0085FD11C0409161
:10487000E4005091E5002417350729F3915011F019
:104880009A01E1CF84E0089582E0089583E00895DD
:1048900081E0089580E008954091E80042FFDDCF77
:1048A00008950E94BF240E94C724E0EEF0E08081BA
:1048B00081608083E8EDF0E080818F77808319BC90
:1048C000A7EDB0E08C918E7F8C9380818F7E80836A
:1048D00010929E0208950F931F93CF93DF930E942F
:1048E000BF240E94C724C8EDD0E088818F778883D9
:1048F00088818068888388818F7D888319BC109225
:104900009F0210929B0210929D0210929C0200EE58
:1049100010E0F80180818B7F8083888181608883AB
:1049200042E060E080E00E94CA23E1EEF0E0808196
:104930008E7F8083E2EEF0E08081816080838081E1
:1049400088608083F80180818E7F80838881806188
:104950008883DF91CF911F910F910895E8EDF0E0EA
:1049600080818F7E8083E7EDF0E0808181608083AD
:1049700084E082BF81E080939E020C946B24E8ED7A
:10498000F0E080818E7F80831092E2000895109283
:10499000DA001092E10008951F920F920FB60F9265
:1049A00011242F933F934F935F936F937F938F9334
:1049B0009F93AF93BF93EF93FF938091E10082FFAA
:1049C0000BC08091E20082FF07C08091E1008B7FE5
:1049D0008093E1000E9442278091DA0080FF1FC08F
:1049E0008091D80080FF1BC08091DA008E7F809379
:1049F000DA008091D90080FF0DC080E189BD82E19D
:104A000089BD09B400FEFDCF81E080939F020E9422
:104A1000482105C019BC10929F020E945621809126
:104A2000E10080FF19C08091E20080FF15C08091F5
:104A3000E2008E7F8093E2008091E20080618093AB
:104A4000E2008091D80080628093D80019BC85E094
:104A500080939F020E945A218091E10084FF30C020
:104A60008091E20084FF2CC080E189BD82E189BD94
:104A700009B400FEFDCF8091D8008F7D8093D800CF
:104A80008091E1008F7E8093E1008091E2008F7E33
:104A90008093E2008091E20081608093E200809147
:104AA0009B02882311F084E007C08091E30087FD1A
:104AB00002C081E001C083E080939F020E945B21DD
:104AC0008091E10083FF29C08091E20083FF25C02F
:104AD0008091E100877F8093E10082E080939F02D4
:104AE00010929B028091E1008E7F8093E100809183
:104AF000E2008E7F8093E2008091E20080618093EB
:104B0000E20042E060E080E00E94CA238091F00071
:104B100088608093F0000E945921FF91EF91BF912E
:104B2000AF919F918F917F916F915F914F913F9145
:104B30002F910F900FBE0F901F9018951F920F92FC
:104B40000FB60F9211242F933F934F935F936F9360
:104B50007F938F939F93AF93BF93CF93DF93EF9305
:104B6000FF93C091E900CF708091EC00D82FD170F5
:104B700080FDD0E81092E9008091F000877F80935B
:104B8000F00078940E94E2251092E9008091F000F4
:104B900088608093F000CD2BCF70C093E900FF9127
:104BA000EF91DF91CF91BF91AF919F918F917F91C5
:104BB0006F915F914F913F912F910F900FBE0F908A
:104BC0001F9018951F93CF93DF93CDB7DEB7AA97A9
:104BD0000FB6F894DEBF0FBECDBFE0EAF2E08091E1
:104BE000F100819322E0E83AF207C9F70E946221BE
:104BF0008091E80083FF2EC18091A0029091A102D4
:104C0000492F50E04A30510508F024C1FA01E85715
:104C1000FF4F0C94B427803821F0823809F01AC174
:104C200008C080919C0290919D02992389F0826036
:104C30000FC08091A4028F70873008F00BC1809361
:104C4000E9008091EB0085FB882780F91092E9004C
:104C50009091E800977F9093E8008093F100109284
:104C6000F100D1C0282F2D7F09F0F4C0882319F05E
:104C7000823061F0EFC08091A202813009F0EAC079
:104C8000933009F080E080939D022EC08091A202B3
:104C900081112AC08091A4028F702FEF280F263037
:104CA00008F0D8C08093E9002091EB0020FF1CC0E1
:104CB000933021F48091EB00806214C09091EB005E
:104CC00090619093EB0021E030E0A90102C0440F15
:104CD000551F8A95E2F74093EA001092EA0080910E
:104CE000EB0088608093EB001092E9008091E8006F
:104CF000877F8093E8000E94FF23ACC08111AAC087
:104D00001091A2021F778091E3008078812B80931D
:104D1000E3008091E800877F8093E8000E94FF23F2
:104D20008091E80080FFFCCF8091E3008068809351
:104D3000E300111102C082E001C083E080939F0272
:104D400089C08058823008F085C08091A20290917D
:104D5000A3028C3D53E0950779F583E08A838AE2CC
:104D600089834FB7F894DE01139620E03EE051E2CC
:104D7000E32FF0E050935700E49120FF03C0E29549
:104D8000EF703F5FEF708E2F90E0EA3010F0C79623
:104D900001C0C0968D939D932F5F243149F74FBF7B
:104DA0008091E800877F8093E8006AE270E0CE019E
:104DB00001960E940B2316C06091A4027091A50277
:104DC000AE014F5F5F4F0E946222BC01892B09F444
:104DD00041C09091E800977F9093E80089819A8183
:104DE0000E9469238091E8008B778093E80032C0AD
:104DF000803881F58091E800877F8093E80080917A
:104E00009B028093F1008091E8008E7772CF811130
:104E100021C08091A2029091A30299270297D4F415
:104E20008091E800877F8093E8008091A2028093C0
:104E30009B020E94FF2380919B02811106C08091FA
:104E4000E30087FD02C081E001C084E080939F02FF
:104E50000E945D218091E80083FF0AC08091E800F4
:104E6000877F8093E8008091EB0080628093EB0065
:104E7000AA960FB6F894DEBF0FBECDBFDF91CF91DB
:104E80001F9108950895CF9380919F028823A1F0E8
:104E9000C091E900CF709091EC00892F817090FD56
:104EA00080E8C82B1092E9008091E80083FD0E9401
:104EB000E225CF70C093E900CF910895991B79E066
:104EC00004C0991F961708F0961B881F7A95C9F79A
:104ED00080950895AA1BBB1B51E107C0AA1FBB1FE9
:104EE000A617B70710F0A61BB70B881F991F5A9576
:104EF000A9F780959095BC01CD01089597FB072EE9
:104F000016F4009407D077FD09D00E946A2707FCA9
:104F100005D03EF4909581959F4F089570956195C9
:104F20007F4F0895A1E21A2EAA1BBB1BFD010DC0E5
:104F3000AA1FBB1FEE1FFF1FA217B307E407F50749
:104F400020F0A21BB30BE40BF50B661F771F881F25
:104F5000991F1A9469F760957095809590959B01BB
:104F6000AC01BD01CF010895EE0FFF1F0590F49134
:104F7000E02D09940E94C227332312F48A1B9B0B55
:104F80000C94D327A29FB001B39FC001A39F700DC3
:104F9000811D1124911DB29F700D811D1124911D41
:104FA00008950E94C227B7FF0895821B930B0895AE
:104FB0000E94C227A59F900DB49F900DA49F800DC5
:104FC000911D11240895B7FF0C94D8270E94D8276B
:104FD000821B930B08958F929F92AF92BF92CF92B4
:104FE000DF92EF92FF92CF93DF93EC01688179819A
:104FF0008A819B81611571058105910521F464E227
:1050000079ED8BE597E02DE133EF41E050E00E9430
:105010009C2849015A019B01AC01A7EAB1E40E9416
:10502000D8276B017C01ACEEB4EFA50194010E947E
:10503000E627DC01CB018C0D9D1DAE1DBF1DB7FF0A
:1050400003C00197A109B04888839983AA83BB83D1
:105050009F77DF91CF91FF90EF90DF90CF90BF903F
:10506000AF909F908F9008950E94EB27089580E065
:1050700091E00E94EB270895A0E0B0E0809300014A
:1050800090930101A0930201B09303010895FC01E4
:105090004150504030F001900616D1F73197CF01C2
:1050A0000895882799270895F999FECF92BD81BD6B
:1050B000F89A992780B50895A6E1B0E044E050E061
:1050C0000C948E28A8E1B0E042E050E00C948E28C9
:1050D000262FF999FECF92BD81BDF89A019700B4B1
:1050E000021639F01FBA20BD0FB6F894FA9AF99A51
:1050F0000FBE08950396272F0E9469280E946828F2
:10510000252F0E946928242F0C9469280196272FA7
:105110000E9469280C946828DC01CB01FC01F999F4
:10512000FECF06C0F2BDE1BDF89A319600B40D92F3
:1051300041505040B8F70895052E97FB1EF4009497
:105140000E94B32857FD07D00E94922707FC03D086
:105150004EF40C94B32850954095309521953F4FCF
:105160004F4F5F4F089590958095709561957F4F53
:0A5170008F4F9F4F0895F894FFCF72
:10517A00010000000177010078010578017D01082E
:10518A007E01000000010102000800080801191A46
:10519A001B1C1D1E1F2021224B0216211B21192117
:1051AA0047211A2101943331F73236F6F56697C64C
:1051BA003435000000000000010202020206060661
:1051CA000909090909090F0F0F0F0F0F15151518EE
:1051DA0019191919191919191919232425252525F0
:0251EA00252579
:00000001FF
