:100000000C9407030C944E030C944E030C94E414CC
:100010000C944E030C944E030C944E030C944E031C
:100020000C944E030C944E030C94DC270C94AE28D5
:100030000C94CD220C944E030C944E030C944E035E
:100040000C944E030C944E030C944E030C944E03EC
:100050000C944E030C9426230C944E030C944E03E4
:100060000C944E030C944E030C944E030C944E03CC
:100070000C944E030C944E030C944E030C944E03BC
:100080000C944E030C944E030C944E030C944E03AC
:100090000C944E030C944E030C944E030C944E039C
:1000A0000C944E030C944E030C944E03161119112C
:1000B0001E1125112A112F11341139113E1143112E
:1000C00048114D114F115211551158115B115E110C
:1000D00060116511C118C118F318F3184019741A8A
:1000E000741A741A5E19F319041A041A641A741A29
:1000F000741A6D1A101B101B221B221B191B221BAA
:10010000221B221B101B101B1E1B221B221B1E1B33
:100110001B2942293A2A42293A2A8E29B1293A2A08
:10012000082A172A29001E001F0020002100220093
:10013000000000002B0014001A0008001500170032
:1001400000000000E00004001600070009000A009B
:1001500000000000E1001D001B0006001900050062
:100160000000000000003504E300E2002A00000067
:1001700000000000230024002500260027002D0099
:100180002E0031001C0018000C00120013002F007C
:10019000300035000B000D000E000F00330034005E
:1001A00028002A0011001000360037003800E50052
:1001B000015100002C0028000000E600290000008A
:1001C0000000000002533A003B003C003D003E00AE
:1001D0000000000001000100010001000100010019
:1001E0000000000001000100010001000100010009
:1001F00000000000010001000100010001000100F9
:1002000000000000000001000100010001000000EA
:10021000000000003F004000410042004300440055
:100220004500490001000100460047004800520017
:1002300001004C00010001004A004B0050004F003B
:1002400001002A00010001004D004E005100010094
:100250000100000001000100000078000100000022
:100260000000000002530000000000000000000039
:10027000000000000000000000000000000000007E
:10028000000000000000000000000000000000006E
:10029000000000000000000000000000000000005E
:1002A000000000000000000000000000000000004E
:1002B000000000000000000000000000000000003E
:1002C000000000000000000000000000000000002E
:1002D0000000005CC35CC45C000000000000000083
:1002E00000000000CB5CCA5CC75CC65CC95CC85C33
:1002F0000000000000000000000078000000000086
:10030000000000001E0F0500047F3F1F64321464CC
:100310003214783C1E1E140A052223252628292A79
:100320002C2D2F3032333536383A3B3D3E40424358
:100330004547494A4C4E5051535557595A5C5E6097
:1003400062646668696B6D6F71737577797B7D7FA9
:1003500081838587898A8C8E90929496989A9C9EA8
:100360009FA1A3A5A7A8AAACAEAFB1B3B4B6B8B9C4
:10037000BBBCBEBFC1C2C3C5C6C7C9CACBCCCDCE2C
:10038000D0D1D2D2D3D4D5D6D7D7D8D9D9DADADB0F
:10039000DBDBDCDCDCDCDCDDDDDDDDDCDCDCDCDC9B
:1003A000DBDBDBDADAD9D9D8D7D7D6D5D4D3D2D2DA
:1003B000D1D0CECDCCCBCAC9C7C6C5C3C2C1BFBEC2
:1003C000BCBBB9B8B6B4B3B1AFAEACAAA8A7A5A32D
:1003D000A19F9E9C9A98969492908E8C8A898785EC
:1003E00083817F7D7B79777573716F6D6B696866CB
:1003F0006462605E5C5A5957555351504E4C4A499D
:1004000047454342403E3D3B3A3836353332302F44
:100410002D2C2A292826252322FFAA7F55400001BA
:1004200001010101010101010202020202020202B4
:100430000203030303030303030404040404040486
:10044000050505050506060606060707070707084A
:10045000080808090909090A0A0A0B0B0B0C0C0CFD
:100460000D0D0D0E0E0E0F0F0F1010111111121297
:1004700013131414151516161717181819191A1A14
:100480001B1B1C1D1D1E1E1F202021222223242475
:10049000252626272829292A2B2C2D2D2E2F3031B1
:1004A0003232333435363738393A3B3C3D3E3F40C3
:1004B0004142434445464748494A4C4D4E4F5051AE
:1004C0005354555658595A5B5D5E5F616264656668
:1004D00068696B6C6D6F7072737577787A7B7D7EEF
:1004E0008082838587888A8C8E8F91939596989A3F
:1004F0009C9EA0A2A3A5A7A9ABADAFB1B3B5B7BA57
:10050000BCBEC0C2C4C6C9CBCDCFD1D4D6D8DBDD2A
:10051000DFE2E4E7E9EBEEF0F3F5F8FAFDFF0A03BA
:10052000370073006B00620000001E03530061007F
:100530006C006900630079006C00690063005F0073
:10054000410063006900640000000403090409021B
:100550003B00020100A0C8090400000103010100E2
:100560000921110100012240000705810308000A4A
:10057000090401000103000000092111010001220A
:1005800032000705820320000A120110010000005A
:1005900008D8045FEB07000102000105010980A1F2
:1005A00001850319012AB700150126B700950175C9
:1005B000108100C0050C0901A101850419012AA0C0
:1005C00002150126A002950175108100C0050109E0
:1005D00006A101050719E029E71500250195087511
:1005E0000181029501750881010507190029FF1590
:1005F0000026FF00950675088100050819012905E8
:10060000950575019102950175039101C0001124B2
:100610001FBECFEFDAE0DEBFCDBF04B603FE27C0BA
:1006200080913D0390913E03A0913F03B091400320
:100630008730904BA740B04BD1F410923D031092FD
:100640003E0310923F031092400314BE84B7877F8D
:1006500084BF0FB6F894A89580916000886180935C
:100660006000109260000FBEE0E0F8E3099511E031
:10067000A0E0B1E0E6EBF7E502C005900D92A43DE5
:10068000B107D9F723E0A4EDB1E001C01D92AD336D
:10069000B207E1F70E9414250C94D92B0C940000AA
:1006A00081E0089581E008950C94520308950C941C
:1006B00056031F93CF93DF9300D000D01F92CDB786
:1006C000DEB749835A836B8330915B0289819A81BB
:1006D000311114C0662359F0222349F00E944920A9
:1006E000182F682F89819A810E94F21F03C00E94EF
:1006F0001D20182F69817A81812F04C00E94492012
:1007000069817A810F900F900F900F900F90DF9179
:10071000CF911F910C941104FC01262F408151812F
:100720006281738184810C945903CF93DF93EC0130
:1007300060E00E948C03BE01DF91CF910C945703BF
:100740000E947D21811102C00E9424220C942D065A
:100750000C94290608950E94FE1A0E94AA032FEF06
:1007600084E39CE0215080409040E1F700C000000D
:100770000C9496230F931F93CF93DF93EC0161E0CA
:100780000E948C038C01BE010E945403882379F1DE
:10079000BE01C8010E940D12882349F1BE01C801A3
:1007A0000E945F12882319F1BE01C8010E948A13BA
:1007B0008823E9F0BE01C8010E9400118823B9F026
:1007C0008A81882369F001158CE5180731F00F3D07
:1007D0001C4531F40E9424220AC00E94AB0307C0CA
:1007E000CE01DF91CF911F910F910C94500380E0C7
:1007F000DF91CF911F910F91089508950C94FD03FF
:1008000081E008950C940004CF93C82F0E94FE034A
:100810008C2F0E940204CF91089580E090E008950B
:100820000895E72FF0E09AE0899FE00DF11D112473
:1008300083E0EE0FFF1F8A95E1F7E60FF11DEE0F43
:10084000FF1FEC5DFE4F859194910895880F991FCD
:10085000FC01EC5FFC4F859194910895CF93DF9359
:100860000E9411040E944005EC018115904508F09A
:1008700043C0C11580E4D80708F0CBC0C03ED10505
:1008800028F5C03CD10508F0B3C0C83AD10578F4CA
:10089000C53AD10508F0A4C0C130D10509F4ECC0B7
:1008A00008F4E8C0C430D10508F0E6C0E3C0CF3B8F
:1008B000D10508F0DFC0C85AD0E0CC0FDD1FCB5CFB
:1008C000DE4F0990D881C02DD464D6C0C11590E206
:1008D000D90750F4C11521E0D20708F0CDC0C83EB9
:1008E000D10508F4C9C0C6C0C11580E3D80708F017
:1008F00086C0CE019F707FC0C11595E5D90708F06D
:1009000043C0C11524E5D20708F09AC0C11582E59D
:10091000D80708F5C11591E5D90708F07DC0CE01CB
:1009200074E0969587957A95E1F783709C2F937084
:1009300021E030E002C0220F331F9A95E2F73C68B5
:10094000382BCF70C695C69580E2C89FE001112470
:10095000C22BD32B91C09E01237033278C2F8695F9
:100960008695C115D34508F05CC0C1E0D0E002C057
:10097000CC0FDD1F2A95E2F720E2829FC0011124EF
:10098000C82BD92BDC6878C0C11529E5D207A0F4A3
:10099000C11588E5D80708F058C0C11596E5D907F4
:1009A00008F068C08C2F0E94D4058F71C82FD0E04A
:1009B000DC2FCC27D06260C0C1152AE5D20708F42D
:1009C00049C0CE0190568115904208F053C08D2F3A
:1009D0008F710E94D405DD27D0628F71D82B4CC057
:1009E000C55AD0E0CD59DE4FC881D0E0D06444C0B4
:1009F000CE01805C91090E942604EC013DC0CE012D
:100A00009927D3FF03C0EC01D86C36C0EC01D06C41
:100A100033C0DF70D06A30C0DC2FCC27C16FD06A02
:100A20002BC0C1E0D0E002C0CC0FDD1F2A95E2F759
:100A300020E2829FC0011124C82BD92BDA681CC088
:100A4000DC2FCC27C46FD06A17C0DC2FCC27C06F37
:100A5000D06A12C08C2F8F700E94D40594E0D69576
:100A6000C7959A95E1F7CF70D0E0DC2FCC27D069FD
:100A7000C82B02C0C0E0D0E0CE01DF91CF91089535
:100A80008238910569F1B0F48133910509F46DC0A4
:100A900048F48932910509F463C08A32910509F45A
:100AA00069C008958533910509F455C089339105CE
:100AB000B9F00895833E910569F138F4803E9105BF
:100AC000B1F0823E910509F10895863E9105A9F1A4
:100AD000873E9105B9F1843E910509F064C023C0B9
:100AE00020912E0320FD4FC021FD4DC0089580911F
:100AF0002E0380FD44C080912F0380FF44C080916D
:100B00002E0384FD42C083EE4DC080912E0382FFF0
:100B100038C0F5CF80912E0382FD33C080912F0322
:100B200080FD31C0ECCF80912F0381FF32C08091D6
:100B30002E0384FD2AC087EE35C080912E0383FFEB
:100B400026C0F5CF80912E0383FD21C080912F0315
:100B500081FD1FC0ECCF80912E0385FD1CC01DC000
:100B600080912E0385FD19C016C080912E0386FD4D
:100B700016C017C080912E0386FD13C010C089E3F4
:100B800011C082EE0FC080EE0DC080E00BC086EE7B
:100B900009C084EE07C089E205C085E303C08AE28C
:100BA00001C081E390E0089590912E0392FF0DC063
:100BB000282F2871283019F4877F846006C0282FD9
:100BC0002471243011F48B7F886093FF0DC0282F8F
:100BD0002871283119F4877E846106C0282F24717A
:100BE000243111F48B7E886120912F0320FF0DC0EA
:100BF000382F3871383019F4877F816006C0382F5C
:100C00003171313011F48E7F886021FF0DC0282FA3
:100C10002871283119F4877E816106C0282F21713F
:100C2000213111F48E7E886194FD877E0895E82F2E
:100C3000F0E0EF50FD4F80810895089580EA8A9595
:100C4000F1F7089500C008950C941E0608950C94C1
:100C500026060C9427060C9426060C942B06F89472
:100C6000E82FE295EF70F0E031A1282F2F7081E09E
:100C700090E001C0880F2A95EAF7982F909593236A
:100C800091A392A1892B82A37894089508950F933C
:100C90001F93CF93DF930E94DA0780910401809124
:100CA0000401811102C095E001C090E09093FC0224
:100CB00085E0891B8093FB0284E90E942F0686E66B
:100CC0000E942F0687E90E942F0686EC0E942F06BD
:100CD00084E30E942F06C6E6D1E00EE611E089917A
:100CE0000E942F060C171D07D1F7E7EEF2E0A1EFE7
:100CF000B2E011921D9282E0E13FF807D1F785E062
:100D00000E947F070E94A003DF91CF911F910F9156
:100D10000C94EE070F931F93CF93DF9300D000D076
:100D20001F92CDB7DEB70E94BD076091FC028823F9
:100D300009F442C08E010F5F1F4F85E0F801119248
:100D40008A95E9F7862F90E0B8018F509D4F0E9459
:100D5000E413811116C08091D6018F5F8093D60174
:100D6000863030F1E091FB02F0E0EF50FD4FD8010A
:100D7000CE01069611921D92A817B907D9F711E076
:100D800018C01092D601A091FB02B0E0AF50BD4F49
:100D9000F8019E012A5F3F4F10E081919C919817C6
:100DA00011F08C9311E01196E217F307B1F701C02F
:100DB00010E00E94A8030DC070E06F507D4F80913D
:100DC000FB0290E08F509D4F0E9412140E94460635
:100DD00010E0812F0F900F900F900F900F90DF91E8
:100DE000CF911F910F9108958F929F92AF92BF92D2
:100DF000CF92DF92EF92FF920F931F93CF93DF93E7
:100E00008EE6A82E81E0B82EC7EED2E093E7E92E59
:100E100091E0F92E912C01E010E06501F50180814F
:100E2000F894E82FE295EF70F0E021A18F70A8010F
:100E300002C0440F551F8A95E2F7CA01922F982BE2
:100E400091A392A18095892382A378940E9422067F
:100E5000E6E6F1E020E030E0812C4191A42FA2955C
:100E6000AF70B0E090968C9190E04F7002C0959575
:100E700087954A95E2F780FD07C0802F022E01C0BA
:100E8000880F0A94EAF701C080E0882A2F5F3F4F5D
:100E90002830310511F75FEFA51AB50AF6018081F8
:100EA0000E942F060E9424068881881619F08882E5
:100EB00081E001C080E0982A2196EA14FB0409F041
:100EC000ACCF6091FC0270E06F507D4F292D45E062
:100ED00087EE92E00E9480070E948A06992011F016
:100EE00081E090E0DF91CF911F910F91FF90EF9003
:100EF000DF90CF90BF90AF909F908F90089508950E
:100F0000FF920F931F93CF93DF938C01F62ED72F71
:100F1000C42F222349F081E08093D9010E94FF224F
:100F20009093D8018093D7018091D9018823C1F093
:100F30008091D7019091D8010E941723069780F0E5
:100F4000EF2DFD2FD8014C2F50E0CD01801B910BD0
:100F5000841795071CF48D918193F7CF1092D901D6
:100F6000DF91CF911F910F91FF90089526982E98B1
:100F700083B186FB882780F908958091DA01811179
:100F800012C08091D80080618093D8008AE18A9550
:100F9000F1F700C08091D90080FD02C082E001C05D
:100FA00081E08093DA0181E09091DA01913009F0DB
:100FB00080E008950E94B6078093040180910401A7
:100FC00066E0882311F080E001C086E00E9472098B
:100FD0000E94BD0781110C94BB1308950E94BD07A8
:100FE000811102C00C94C11308950F931F9341E027
:100FF00050E060E070E08A019B0104C0000F111F07
:10100000221F331F8A95D2F7C901B8010E94F41E2E
:101010001F910F910C94FE1A8B3109F468C058F59A
:101020008B3009F486C078F4863009F445C020F48A
:10103000853009F44BC07FC0873009F44AC088303E
:1010400009F477C078C0803109F464C068F48E3048
:1010500009F071C08091DB0282FB222720F991E028
:10106000922790FB82F94CC0863109F462C0893125
:1010700009F45FC060C08A32E1F060F4873209F49D
:1010800055C028F48E3108F456C08D5150C08932B5
:10109000E9F051C0833450F48A3308F045C08533F9
:1010A00009F444C0883309F444C045C08334F1F1E5
:1010B00042C00E9424223DC08091DB02817F8E7F4E
:1010C0008093DB0281E08093DB0108950E94AB03F3
:1010D00030C08091DB02982F9095917090FB80F941
:1010E0008093DB02911125C0897F877F10C080919A
:1010F000DB0281FB222720F991E0922790FB81F906
:101100008093DB029923A9F08091DB0281608093B8
:10111000DB020FC08091DB0283FB222720F991E0E4
:10112000922790FB83F9ECCF895301C080E00E94A5
:10113000F50781E0089580E0089580E008950C941B
:101140009D08CF93C82F8091DB01882319F081304F
:1011500031F02BC00E94CA20823249F504C00E949F
:10116000CA20823261F48C2F0E949F08811104C032
:101170008C2F0E940C0817C081E090E014C08C2FC7
:101180000E949D0881110EC0C43149F018F4CB3083
:1011900049F00FC0C93219F0C83321F00AC01092CB
:1011A000DB0107C081E0817006C01092DB0180E0A6
:1011B00002C080E0F8CFCF910895EF92FF920F9395
:1011C0001F93CF93DF938B01682F11110AC0442323
:1011D00029F0E82FF0E0E25EFB4F6491762F862F36
:1011E00075C0212F30E0E82FF0E0442321F0E25ECB
:1011F000FB4FE491F0E046E0049FC0011124CFEFE3
:10120000D0E0BE010E94882A4BEA4603C001479FF6
:10121000900D1124800F911D800F911D982F990F13
:10122000890FAE01421B530B4E9FD0014F9FB00D53
:101230005E9FB00D11249B2F189FA0011124452FF4
:1012400055278E01041B150B0E9FA0010F9F500DFB
:101250001E9F500D11247E01E81AF108E29E8001C4
:10126000E39E100DF29E100D1124212F3327C21B77
:10127000D30BCE9F9001CF9F300DDE9F300D1124F8
:1012800062307105A9F048F46115710569F06130AB
:101290007105C9F48B2F752F0DC06430710581F075
:1012A00058F06630710579F47E2F8B2F932F0DC087
:1012B000832F7B2F9E2F09C08E2F7B2F952F05C04C
:1012C0008E2F732F02C07E2F852F692FDF91CF9134
:1012D0001F910F91FF90EF90089541E00E94DD086B
:1012E00008950895E8E0F1E08083618308950E9405
:1012F0006D090895CF93DF93762FE901682F842F2E
:101300000E947709798368838A83DF91CF9108955A
:10131000453B08F044EB0C947A098091FD02282F9C
:10132000269530E02115310519F48170826005C0E1
:101330002B32310524F0817084658093FD02809109
:101340000003853B18F084EB80930003089588E048
:1013500090E00C947A2BCF92DF92EF92FF926B0188
:101360007C010E948D09B701A60188E090E0FF9002
:10137000EF90DF90CF900C94982BEDEFF2E083E0AC
:10138000808311828FEF828384EB83831482A5E2B2
:10139000B2E012968C911297836012968C936081C2
:1013A0007181828193810C94AB098091FD0280FF51
:1013B00002C08695089580E00895909101039330CE
:1013C00018F49F5F90930103882351F06091FD0210
:1013D0007091FE028091FF02909100030C94AB0982
:1013E000089581E00C94DD0990910103992319F08F
:1013F000915090930103882351F06091FD02709108
:10140000FE028091FF02909100030C94AB090895B5
:1014100081E00C94F40970E00C946F116091090163
:101420008091FD0280FF0AC08091080123E0829F25
:10143000C00111248E5F9C4F0C940B0A80910A010D
:1014400090910B01891780F7E82FF0E09F01220FA0
:10145000331FE20FF31FEE5FFC4F118210821282E6
:101460008F5FF0CF9091FD0290FF16C090910A011E
:1014700020910B01921770F4E92FF0E0DF01AA0F21
:10148000BB1FEA0FFB1FEE5FFC4F8183608342832B
:101490009F5FF0CF0C940E0A0895CF93DF9300D096
:1014A0001F92CDB7DEB79091FD0290FF0AC09E015A
:1014B0002F5F3F4F0E9488094B8169818A810E947A
:1014C000320A0F900F900F90DF91CF910895CF9334
:1014D000DF93EC01EC81F0E0E75EFC4F4491EDEF2F
:1014E000F2E0628181810E944D0A8C818F5F8C8342
:1014F000DF91CF910895CF93DF93EC01EDEFF2E010
:10150000438162818C810E944D0A8C818F5F8C8324
:10151000DF91CF9108950F931F93CF93DF9300D066
:101520001F92CDB7DEB78C018091DC0181110AC01A
:101530009E012F5F3F4F44EB6FEF0E9488098A8125
:101540008093DC01F8018481813051F028F08230F1
:1015500061F44091DC010AC08091DC0140E007C0E9
:101560006091DC0140E080E003C040E080E060E0AA
:101570000E94320AF801848190E0019663E070E0F5
:101580000E949C2A84830F900F900F90DF91CF913F
:101590001F910F910895AF92BF92CF92DF92EF9279
:1015A000FF920F931F93CF93DF9300D01F92CDB77D
:1015B000DEB7182FF62E042FE22E9091FD0290FF39
:1015C0007EC0E92FE695AE2FB0E0A858BE4F8C91B3
:1015D000809325029E7F923061F49E012F5F3F4FE2
:1015E000812F0E9488094B8169818A810E94320A79
:1015F00043C0823019F4009100033EC0863019F4D4
:101600001091FE0239C08930D9F38931A9F5E95129
:101610008E2F8170D82EE695F0E0E75EFB4FA59007
:10162000B490C12CBB2460910C01C61618F52C2D6A
:1016300030E0A29EC001A39E900DB29E900D112499
:1016400070E00E94882A812FD11002C0860F01C04D
:10165000861B90910A01290F311DA901440F551FC6
:10166000240F351F2E5F3C4F402F6F2D0E9488099D
:10167000C394D9CF0E940E0A8091FE02181308C0AD
:101680008091FF02F81204C080910003081729F02E
:10169000809127028260809327021093FE02F092CD
:1016A000FF0200930003EE2051F06091FD02709163
:1016B000FE028091FF02909100030E94AB090F90FF
:1016C0000F900F90DF91CF911F910F91FF90EF90AE
:1016D000DF90CF90BF90AF900895EDEFF2E0918151
:1016E000282F438162818AE0890F0C94CB0A81E024
:1016F0000C946D0BEDEFF2E09181282F4381628114
:1017000086EF890F0C94CB0A81E00C947A0BEDEFF5
:10171000F2E0628121E1620F08F46FEF282F43812C
:1017200081810C94CB0A81E00C94870BEDEFF2E001
:10173000628121E1621B08F460E0282F43818181EE
:101740000C94CB0A81E00C94960BEDEFF2E0438110
:1017500021E1420F08F44FEF282F628181810C9420
:10176000CB0A81E00C94A50BEDEFF2E0438121E17F
:10177000421B08F440E0282F628181810C94CB0A3F
:1017800081E00C94B40B20E00C94CB0AFF920F93F1
:101790001F93CF93DF93EC01F12C0FEF10E06091DA
:1017A0000C01F616F0F480910A012F2D30E0280F7D
:1017B000311DC901880F991F280F391F2E5F3C4F1B
:1017C00070E0C8010E949C2A962F8C8140910003F2
:1017D0006091FF02F99E800D11240E948809F39404
:1017E000DECF0E940E0A9A818C8190FF02C08F5F2B
:1017F00001C081508C83DF91CF911F910F91FF9099
:1018000008958F929F92AF92BF92CF92DF92EF9204
:10181000FF920F931F93CF93DF93EC018A8180FF98
:1018200003C0BB24BA9402C0BB24B3948C81811141
:101830000DC081E0B81206C080910C0181508093E8
:10184000DE0102C01092DE0181E08C83A12C4CE00D
:10185000942E80910C01A81608F044C080910A01D2
:10186000CA2CD12C8601080F111DC801880F991FA1
:10187000080F191F0E5F1C4FF8011182108212828F
:1018800034E0E32EF12C812C8091DE01880D8D3027
:101890002CF0692D0E947A2A892F05C087FF03C08A
:1018A00090910C01890F082E000C990BC816D906CF
:1018B00091F4809100038E9DA0018F9D500D112405
:1018C000559547955595479598016091FF028091F0
:1018D000FE020E9488098B0CF1E0EF1AF108A1F6D4
:1018E000A394B7CF0E940E0A8091DE0191E0B91255
:1018F0000EC0811107C080910C0181508093DE01E0
:101900001C820FC081508093DE01BC820AC090E02F
:10191000019660910C0170E00E949C2A8093DE0188
:101920008C83DF91CF911F910F91FF90EF90DF900B
:10193000CF90BF90AF909F908F9008951F93CF93BB
:10194000DF93EC018C81811109C081E08C831092BE
:10195000DD0192E0909307018093060180910A01D6
:1019600090910B01891770F4E82FF0E09F01220F8E
:10197000331FE20FF31FEE5FFC4F118210821282C1
:101980008F5FF0CF10E060910C011617C0F5E12FCA
:10199000F0E070E0CF010E949C2A20910A01820FA2
:1019A0002091DD01022E000C330B90E0E217F307CB
:1019B000CCF020910701022E000C330B2E173F07AD
:1019C0008CF09C01220F331F820F931F9C012E5F0E
:1019D0003C4F409100036091FF028091FE020E9403
:1019E00088090BC0FC01EE0FFF1F8E0F9F1FFC012B
:1019F000EE5FFC4F1182108212821F5FC4CF0E94E3
:101A00000E0A809106012091DD01280F2093DD014F
:101A100090910701980F9093070119165CF4022E1C
:101A2000000C330B40910C0150E041505109241738
:101A3000350734F0819580930601813009F41C82CA
:101A4000DF91CF911F9108958F929F92AF92BF9295
:101A5000CF92DF92EF92FF920F931F93CF93DF937A
:101A60008C01FC014481C42FD0E09E01DE010E9464
:101A7000E02A9B01AC010E94F62A6B017C01E0E2A6
:101A8000F0E0EC1BFD0BA5E5B0E09B01AC010E9472
:101A9000F62A4B015C019F01DF010E94D82A9B01BD
:101AA000AC010E94012B9B01AC012C0D3D1D4E1D74
:101AB0005F1DC501B4010E94B02AC22FD22F2A3265
:101AC00028F4F3E02F9F900111240DC025E530E0AC
:101AD0002C1B3109C901880F991F280F391F37FFA7
:101AE00002C02F5F3F4F35952795C22FC095F12C2F
:101AF00085E5E82EED1A80910C01F816C8F4F1FC8A
:101B000002C08E2D01C08D2F90910A012F2D30E043
:101B1000290F311DA901440F551F240F351F2E5FBA
:101B20003C4F4C2F6091FF020E948809F394E3CF51
:101B30000E940E0AF8018481811102C091E003C065
:101B4000803219F49FEF9093050190910501890F60
:101B5000F8018483DF91CF911F910F91FF90EF9057
:101B6000DF90CF90BF90AF909F908F9008950F938C
:101B70001F93CF93DF93EC0100E010E080910C0104
:101B8000282F30E00217130724F590910A019801DD
:101B9000290F311DA901440F551F240F351F2E5F3A
:101BA0003C4F869590E04C81081719071CF444239C
:101BB00031F002C0411103C04091000301C040E078
:101BC0006091FF028091FE020E9488090F5F1F4F03
:101BD000D5CF0E940E0A8C8190E0019681709927E2
:101BE0008C83DF91CF911F910F9108957F928F92F7
:101BF0009F92AF92BF92CF92DF92EF92FF920F939C
:101C00001F93CF93DF93FC018280748081E08483F3
:101C1000E9E1F3E09490E8E9F3E0E491A12CF5E048
:101C2000BF2ECC24CA94D12CE9190E2F10E080913C
:101C30000C01A81608F0A2C0EA2CF12C22E028150D
:101C400068F0BE9CF001BF9CF00D1124EE51FE4FD8
:101C50008091FE0280838091FF02818371100AC00F
:101C6000BE9CF001BF9CF00D1124EE51FE4F13827B
:101C700012826AC0BE9CE001BF9CD00D1124CE51DF
:101C8000DE4F8B818823F9F081508B832FEF829F69
:101C9000C00111246C8170E00E94882AFB01FF279B
:101CA000E75EFC4F8491E82FE9192FEFE29FC00116
:101CB0001124B8010E94882A80910003689FB00116
:101CC00011247A8341C00E94552B20910003269550
:101CD000215830E0A901440F551F322F2227240F2D
:101CE000351F232F33278217930774F582E0881559
:101CF00088F40E94552BB6010E949C2A88830E947A
:101D0000552B2091FF022695622F70E00E949C2A9D
:101D1000280F2983BE9CF001BF9CF00D1124EE51C9
:101D2000FE4F128280910003843120F0893C18F02C
:101D300088EC01C084E1BE9CF001BF9CF00D112431
:101D4000EE51FE4F8483838380910A019701280F0F
:101D5000311DC901880F991F280F391F2E5F3C4F75
:101D6000BE9CF001BF9CF00D1124EE51FE4F42814C
:101D7000618180810E948809A39459CFDF91CF911E
:101D80001F910F91FF90EF90DF90CF90BF90AF9099
:101D90009F908F907F900C940E0A80912702089557
:101DA00010922702089525E0EDEFF2E0DC010190AA
:101DB0000D922A95E1F7209125023091260240915B
:101DC0002702FC0125833683478308956091FD0235
:101DD000669570E04BE050E08DE091E00E94652B4D
:101DE000892B19F481E0809326020E948D23909321
:101DF0001F0280931E028091270284608093270235
:101E00000895E5E2F2E01182828184608283089580
:101E10009091FD0290FF3AC09170811102C09260D2
:101E200006C08B3210F0946502C0880F982B9093F7
:101E3000FD0280912702816080932702662351F082
:101E40006091FD027091FE028091FF02909100036B
:101E50000E94AB096091FD02669570E04BE050E096
:101E60008DE091E00E94652B892B19F00E94010FF3
:101E700002C00E94E60E81E080932102409100039F
:101E80006091FF028091FE020C94C30B0895682FAD
:101E90009091FD02969581E0890F8B3208F081E0E8
:101EA0000C94080F81E00C94470F682F9091FD026D
:101EB00096958FEF890F09F48AE20C94080F81E060
:101EC0000C94550F61E00C94080FEDEFF2E0808167
:101ED0008160808386950C94620F60E00C94080FFB
:101EE000EDEFF2E080818E7F80836081718182815D
:101EF00093810E94AB090E94010FE5E2F2E082812A
:101F0000816082832FEF80E792E0215080409040F3
:101F1000E1F700C000000C940E0A8091FD0280FDE4
:101F20000C94700F0C94650FEDEFF2E080818E7FC2
:101F300080830E94010FE5E2F2E08281816082836A
:101F40002FEF80E792E0215080409040E1F700C001
:101F500000000C940E0A1F93CF93DF93EC01162F11
:101F60008F8180FF0FC0888180FF0AC08091FD02B1
:101F700081608093FD02888186950E94080F02C0CF
:101F80000E94940F8F8181FF06C0212F4B816A81AF
:101F900089810E94CB0A8F8182FF08C08E818823AD
:101FA00019F00E94E60E02C00E94010F8F8183FF8C
:101FB00003C081E080932102DF91CF911F910895AA
:101FC00080912402811133C00E947D21811104C0BF
:101FD0000E9424220E94BD090E94A7096093FD026D
:101FE0007093FE028093FF0290930003809127027A
:101FF0008360809327026E7F61F40E94BD090E9476
:10200000A7096093FD027093FE028093FF029093F4
:1020100000030E948D090E94010F8091FD0280FF44
:1020200003C086950E946D0F81E08093240208957D
:10203000EF92FF920F931F93CF93DF93809126022D
:10204000882309F4BBC080912502E091FD02E6954A
:10205000E81BE0932002823049F4F0E0EB5EFC4F95
:10206000E491CE2FD0E007E61AE059C0863049F45B
:10207000F0E0EE5EFC4FE491CE2FD0E00BE71AE0EB
:102080004EC0893051F4E695F0E0E15FFC4FE491F9
:10209000CE2FD0E006EC1BE042C08F3051F4E69525
:1020A000F0E0E45FFC4FE491CE2FD0E001E01CE0D3
:1020B00036C0853149F4F0E0E75FFC4FE491CE2F64
:1020C000D0E00EE91CE02BC08831D9F0833239F41E
:1020D000E7E0F3E0C591D4910BE81AE020C0843228
:1020E000A9F08532C1F48E2F63E00E946E2AE92F99
:1020F000F0E0EC5FFC4FE491CE2FD0E006EF1DE066
:102100000EC0C8E2D0E004E21DE009C0C4EFD1E097
:1021100007EB1DE004C0C0EDD7E001E719E08091B6
:102120002102882361F0109221020E948D23909356
:102130001F0280931E0210922302109222020E941C
:102140008D23E0911E02F0911F029C012E1B3F0B7C
:102150002F3F3F4798F52091E1012223B1F01092E3
:10216000E1012091DF013091E001821B930B8F3F51
:102170009F4758F4205D3A483093E0012093DF01F7
:1021800080912702886080932702E0902202F090DD
:102190002302EC0FFD1FF0931F02E0931E028EE15D
:1021A00092E0F80109958091220290912302892BF7
:1021B00029F4EF2819F081E08093E101DF91CF91BC
:1021C0001F910F91FF90EF900895882311F0FA016D
:1021D00001C0FB010994CF93DF93C82FD62F0E9433
:1021E000D5098C1740F00E94D5098D1720F4DF9196
:1021F000CF910C94520F8C2FDF91CF910C94620FE2
:102200001F93CF93DF93FB011281111163C0EC0187
:102210000E94CA208272FE01E35CFC45E431F105B4
:1022200008F057C0EA5AFF4F0C94D22A0E948D0F33
:1022300051C04FE55FE062E57FE004C042E55FE04A
:102240006FE57FE00E94E51045C044E85BE067E78A
:102250007BE0F8CF47E75BE064E87BE0F3CF42EA5E
:102260005BE063E97BE0EECF43E95BE062EA7BE0C1
:10227000E9CF40EC5BE061EB7BE0E4CF41EB5BE07E
:1022800060EC7BE0DFCF48E05AE061EF79E0DACF45
:1022900041EF59E068E07AE0D5CF81E017C065E012
:1022A00082E010C068E086E00DC06EE089E00AC000
:1022B00064E18FE007C067E185E104C088E106C002
:1022C00062E289E10E94EB1005C083E20E94620F86
:1022D00001C011E0812FDF91CF911F910895539A92
:1022E0002BB1277F3BB138604FB7F894FC01CB018D
:1022F000880F991F680F791F6E0F7F1FE617F7076A
:1023000089F0819198E03BB9000000C087FF2BB9AC
:10231000880F000000C000C000C02BB900C09A9513
:1023200091F7ECCF4FBF8FE594E00197F1F700C034
:10233000000008950F931F93CF93DF93C42FD22FE4
:10234000FC0182818823C9F040932A020E94FF2267
:10235000909329028093280280E28C0F883008F045
:1023600057C0C77081E001C0880FCA95EAF7DF91B6
:10237000CF911F910F910C94801880912A024813DD
:1023800030C080912802909129020E941723883C36
:10239000910538F510E21D0FCD17B9F080E28C0FD2
:1023A000883040F4C77081E001C0880FCA95EAF711
:1023B0000E948718183028F581E09D2F977001C082
:1023C000880F9A95EAF70E948018802F0E9477184C
:1023D0001830F0F4D77081E001C0880FDA95EAF781
:1023E0000AC080E28C0F883098F4C77081E001C089
:1023F000880FCA95EAF7DF91CF911F910F910C9446
:102400008718802FDF91CF911F910F910C9477182F
:10241000DF91CF911F910F9108950F939C01CB01F4
:10242000243F4CE5340731F188F4293DFCE53F07B2
:10243000D9F02A3D4CE5340779F1283D3C45A9F512
:1024400006E221EE41EE68ED7CE52BC0263FFCE57F
:102450003F07E1F0A8F0273F3C4539F507E225EEBC
:1024600046EE67EF7CE51DC007E225EE45EE69ED1F
:102470007CE517C006E221EE40EE64EF7CE511C07A
:1024800007E225EE44EE65EF7CE50BC006E221EEA7
:1024900042EE66EF7CE505C008E221E045EE6AED1C
:1024A0007CE50E949A1180E008C0FC0182818823AB
:1024B00019F010922A0201C081E00F910895CF9384
:1024C000DF93EC01FB018281882309F41FC1C23034
:1024D000FCE5DF0708F41BC1C6319CE5D90738F0DD
:1024E0009E012B5F3C452930310508F010C10E9448
:1024F000902190932F0380932E03C031ECE5DE07EB
:1025000009F4C3C008F041C0C8308CE5D80709F40D
:102510009AC0F0F4C430ECE5DE0709F487C068F433
:10252000C2308CE5D80709F477C0C330DC4509F028
:10253000E3C080912E03826076C0C630ECE5DE07F2
:1025400009F46EC008F07BC080912E0388606BC0D8
:10255000CC308CE5D80709F485C068F4CA30ECE5C6
:10256000DE0709F474C008F079C00E94FE1A809159
:102570002E03806858C0CE308CE5D80709F476C0A9
:1025800008F07FC080912E038BC0CC3FECE5DE07C6
:1025900009F44FC018F5C3318CE5D80709F47DC0A4
:1025A00078F4C131ECE5DE0709F473C0C231DC45D3
:1025B00009F0A2C00E94FE1A80912E038F7733C0CB
:1025C000C5318CE5D80709F472C008F486C0CB3F4A
:1025D000DC4509F091C080912F033EC0C115FDE597
:1025E000DF0709F45FC058F4CE3F9CE5D90709F432
:1025F00044C008F43FC080912F0382602DC0C230D8
:10260000FDE5DF0709F475C008F45DC0C330DD45A2
:1026100009F072C080E06EC080912E03816003C01B
:1026200080912E03806180932E0366C080912E03DB
:1026300011C080912F03826080932F035DC0809131
:102640002E038062F0CF80912E038064ECCF8091C6
:102650002E0388608460E7CF8160EECF80912E03E7
:102660008E7FE1CF80912E038D7FDDCF80912E0371
:10267000877FD9CF80912F0318C080912F038D7F42
:10268000DBCF80912E038F7ECECF80912E038F7D66
:10269000CACF80912E038F7BC6CF80912E03877F78
:1026A0008B7FC1CF80912F038D7F8E7FC5CF80918F
:1026B0002E0382FB222720F991E0922790FB82F9DA
:1026C00090FB83F9B0CF80912F03982F9095917054
:1026D0008E7F892B90FB81F9AFCF0E94FE1A8091EB
:1026E0002E0387FB222720F991E0922790FB87F9A0
:1026F0009ACF81E00E94262280912E0390912F0391
:102700000E94A1210E94FE1A80E001C081E0DF91B9
:10271000CF910895CF93DF9386319C4541F5EB012E
:102720000E94CA20982F8A81209128013091290186
:10273000882379F09A7A81E009F480E080932B0273
:10274000911102C069E201C065E3C9010E946D22D6
:102750000AC080912B02811102C069E201C065E3C9
:10276000C9010E946F220E94182180E001C081E00F
:10277000DF91CF91089562E070E088E191E00C94E0
:10278000921462E070E088E191E00C949B140E9446
:10279000CD0E882361F087E392E00E94D30E81E0A2
:1027A00090E00E947415892B11F40C94D00E0895BA
:1027B00080913602883039F460E087E392E00E942D
:1027C000AB0F109236020895CF93DF93D62FC72F09
:1027D0000E94C71380E090E00E947415892BF1F4E9
:1027E000ED2FFC2F80E090E0DC01AF5CBD4F2C9121
:1027F0002193019685309105B9F70E947223DC017F
:10280000CB010296A11DB11D80932D0290932E0243
:10281000A0932F02B093300281E001C080E0DF91ED
:10282000CF910895CF93DF93D62FC72F0E94D8134F
:1028300060912D0270912E0280912F0290913002B2
:102840000E945523ED2FFC2F80E090E02191DC01C8
:10285000AF5CBD4F2C93019685309105B9F7DF91A0
:10286000CF9108958EE14A9B02C08150E1F74A9BC7
:10287000FECF08955A9880E28A95F1F75A9A089502
:10288000FC012AE02A95F1F790E020E080E031E0B9
:10289000261779F040E14A95F1F7880F4A9B02C06C
:1028A0008160932700C0000040E14A95F1F72F5F57
:1028B000EFCF20E12A95F1F729B100C0000030E107
:1028C0003A95F1F722FB222720F992272081920FD7
:1028D00090830895EF92FF920F931F93CF93DF930E
:1028E0001F92CDB7DEB719828C017C01E60EF11C78
:1028F0000E151F0559F00E94321468E0CE010196B2
:102900000E944014F80181938F01F2CF81E09981F8
:10291000911180E00F90DF91CF911F910F91FF9067
:10292000EF900895909341028093400260933F029C
:10293000529A5A9A0895909341028093400260936C
:102940003F0252985A9AEA9AE9E6F0E080818F7C39
:1029500080830895615091E001C0990F6A95EAF76C
:1029600020E031E0992361F0492F482319F05A9A69
:10297000232701C05A9840E24A95F1F79695F2CF85
:10298000222311F05A9A01C05A9880E28A95F1F7F1
:102990005A980895FF920F931F93CF93DF93EC0102
:1029A0008C01060F111DC017D10741F0F9900E944C
:1029B0003A1468E08F2D0E94AA14F5CFDF91CF91D1
:1029C0001F910F91FF9008951F920F920FB60F92D3
:1029D00011240F931F932F933F934F935F936F9304
:1029E0007F938F939F93AF93BF93EF93FF93CF9377
:1029F000DF931F92CDB7DEB719820E94321467E0D1
:102A0000CE0101960E944014382F369536953695A2
:102A1000932F96959570232F2570920F292F237051
:102A2000969596958770920F891348C08981811178
:102A300045C080913F02831708F440C080E18A9529
:102A4000F1F75A9A529AA2E0AA95F1F700C00091C4
:102A5000400210914102B8E03B9F000D111D11246E
:102A60005A98F8016581662321F0868197810E943A
:102A7000CA140E943A14F0E1FA95F1F75A98529864
:102A80005A9A80E18A95F1F7D80112966C911297C3
:102A9000662369F013968D919C9114970E946A1495
:102AA000D801ED91FC91811105C082E004C0D801EC
:102AB000ED91FC9188E080830E9432140F90DF91A9
:102AC000CF91FF91EF91BF91AF919F918F917F91A6
:102AD0006F915F914F913F912F911F910F910F90A7
:102AE0000FBE0F901F9018950F931F93CF93DF93F6
:102AF00020913F0230E0281739070CF471C09C0187
:102B000093E0220F331F9A95E1F7C0914002D091D4
:102B10004102C20FD31FF894529A5A9845E04A9541
:102B2000F1F70000982F969595708570890F982F72
:102B3000937086958695890F8901082B0E943A1417
:102B400084E08A95F1F700C067E0802F0E94AA1404
:102B500040E14A95F1F752985A9A4A9902C000C04A
:102B6000FCCF87E090E04A9B0EC0019751F4529A47
:102B70005A9AE881F98181E08083789481E090E03D
:102B800031C000C0F0CF6D81662381F08E819F81BE
:102B90000E946A1481110AC0529A5A9AE881F981F6
:102BA00082E08083789482E090E01CC00E9432141E
:102BB00080E28A95F1F75A98529A40E14A95F1F7E6
:102BC0006A81662321F08B819C810E94CA140E9435
:102BD0003A14E881F9811082789480E090E002C094
:102BE00084E090E0DF91CF911F910F910895909331
:102BF0004702809346020895E0914602F091470211
:102C0000309721F00190F081E02D099480E0089543
:102C1000E0914602F0914702309721F00280F38163
:102C2000E02D09940895209144023091450228171F
:102C3000390771F09093450280934402E091460277
:102C4000F0914702309721F00680F781E02D09943A
:102C5000089520914202309143022817390771F0FC
:102C60009093430280934202E0914602F091470222
:102C7000309721F00084F185E02D099408950E9499
:102C80000B236093570270935802809359029093DC
:102C90005A026093530270935402809355029093AA
:102CA0005602089585B7806885BF85B7806885BF5F
:102CB00008950C94BD0708950C945B160C945B1654
:102CC0000C945E160C945B160C9462160C945B16B6
:102CD0000E9452168BE791E20E94A7230E9466167B
:102CE0000C9464160E94F6220E944C230E94470610
:102CF0000E94AC230E94E00F0C9460169F92AF924A
:102D0000BF92CF92DF92EF92FF920F931F93CF93D8
:102D1000DF93CDB7DEB72A970FB6F894DEBF0FBEAC
:102D2000CDBF0E945C160E945B160E94F4068111C2
:102D30000E943F1689E4A82E82E0B82E00E010E041
:102D4000902E802F0E941706D82EF501C1905F01AA
:102D5000C826B1F40F5F1F4F0A30110589F78FEFB6
:102D600089838A831B820E94FF228160782F9D8342
:102D70008C8349815A816B818D810E9420172FC0DD
:102D80008091DB0281FD0E941D06E12CFF24F3945B
:102D90008C2D8F21F1F00E945916882399F0EE8234
:102DA0009F82DF2081E009F480E088870E94FF2273
:102DB0008160782F9A8789874E815F8168858A85AF
:102DC0000E942017F801E75BFD4F8081F826F08212
:102DD00006C0E394FF0CF8E0EF12DACFBBCF0E94FD
:102DE00018100E94FC15909148028917B9F00E94B2
:102DF000FC15809348022A960FB6F894DEBF0FBEEA
:102E0000CDBFDF91CF911F910F91FF90EF90DF9099
:102E1000CF90BF90AF909F900C9404042A960FB669
:102E2000F894DEBF0FBECDBFDF91CF911F910F9100
:102E3000FF90EF90DF90CF90BF90AF909F9008955C
:102E4000DF92EF92FF920F931F93CF93DF93CDB753
:102E5000DEB72B970FB6F894DEBF0FBECDBFF42EB2
:102E6000052F162FE72ED82E61110E94EA20FE01B1
:102E7000319686E0DF011D928A95E9F77E2D4F2D70
:102E8000502F612F8D2D9E810E94B71D2B960FB65E
:102E9000F894DEBF0FBECDBFDF91CF911F910F9190
:102EA000FF90EF90DF900895FC01808191810E9456
:102EB0008B200895CF93882309F4A1C0C82F8238AE
:102EC000C1F40E94FC1581FD9AC069E3809128013C
:102ED000909129010E946D220E9418212FEF81EE0E
:102EE00094E0215080409040E1F700C0000069E389
:102EF00019C0833801F50E94FC1580FD80C063E590
:102F000080912801909129010E946D220E94182130
:102F10002FEF81EE94E0215080409040E1F700C017
:102F2000000063E580912801909129010E946F22A1
:102F3000CF910C9418218438C1F40E94FC1582FDB5
:102F40005EC067E480912801909129010E946D2262
:102F50000E9418212FEF81EE94E021508040904094
:102F6000E1F700C0000067E4DDCF8CEF8C0F813A01
:102F7000F8F48C2F0E94A108811141C06C2F809120
:102F80002801909129010E943722882349F06C2F53
:102F900080912801909129010E946F220E9418219E
:102FA0006C2F80912801909129010E946D22C0CF41
:102FB00080E28C0F883048F4C77081E001C0880F30
:102FC000CA95EAF70E94CD20B3CFEBE5EC0FE330D2
:102FD00040F4F0E0EF52FE4F808190E0CF910C94EE
:102FE0001316C85AC73158F4EC2FF0E0EE0FFF1F4C
:102FF000ED55FE4F80819181CF910C942916CF9190
:103000000895882309F45BC0682F823879F40E9400
:10301000FC1581FF54C069E380912801909129013A
:103020000E946D220E94182169E310C08338B1F418
:103030000E94FC1580FF43C063E5809128019091B8
:1030400029010E946D220E94182163E580912801C8
:10305000909129010E946F220C941821843879F4F0
:103060000E94FC1582FF2BC067E48091280190919B
:1030700029010E946D220E94182167E4E7CF8CEF9E
:10308000860F813A18F380E2860F883048F4677023
:1030900081E001C0880F6A95EAF70E94D320DCCF57
:1030A0008BE5860F833020F480E090E00C941316BB
:1030B000685A673120F480E090E00C942916089556
:1030C0001F93CF93DF93182FEB010E945A1720977D
:1030D00041F08FE99FE00197F1F700C000002197D0
:1030E000F6CF812FDF91CF911F910C940118893376
:1030F00019F060E070E002C060E570E00C946018C8
:10310000882321F00E94CD200C9418210895882353
:1031100021F00E94D3200C9418210895CF92DF92C1
:10312000EF92FF920F931F93CF93DF937C01062FB3
:10313000C72FFC01D281158112951F700E94C320F8
:10314000882399F0DD2389F08C2F807F803421F053
:1031500080E2800F883048F082E00E9462210E9465
:10316000C32091E0D82ED92601C0D12CCC2EC294F8
:103170008FE0C8228C2D90E0FC01E659FF4F0C94A3
:10318000D22A8C2F807FCF70882311F0C295C07F08
:10319000DD2399F0CC2309F482C180E2800F8830CE
:1031A00010F0011104C08C2F0E94CD2003C08C2F81
:1031B0000E94DD200E94182172C1802F0E940118F8
:1031C000CC2309F491C180E2800F883010F0011106
:1031D00004C08C2F0E94D32003C08C2F0E94E320B8
:1031E0000E94182181C18C2F807FCF70803211F016
:1031F000C295C07F002319F00130C9F022C0DD2341
:1032000071F0112341F0113031F40E94FD208C2B1C
:103210000E94052169C10E94FD208C2B1DC0112335
:1032200019F0113009F460C10E940E2125C0DD2380
:1032300021F0163008F058C10EC0153008F054C106
:103240001BC0DD2361F0112331F0F701858180FF80
:1032500026C18F7085838C2F0E94801845C1112351
:1032600059F0093309F02CC1FFEF27EE83E0F1504C
:1032700020408040E1F722C18C2F0E94871834C182
:103280008C2F86958695837019F0813061F02CC162
:10329000DD2321F0802F9C2F937002C080E090E00E
:1032A0000E94131629C1DD2321F0802F9C2F9370DB
:1032B00002C080E090E00E9429161EC18C2F83700E
:1032C00009F045C0D11114C1402F42954695477071
:1032D000440F440F602F6F70862F90E0A0E0B0E0A5
:1032E000042E04C0880F991FAA1FBB1F0A94D2F78F
:1032F00004FF10C00FE010E020E030E004C0000F39
:10330000111F221F331F4A95D2F700951095209563
:10331000309503C000E010E09801C695C695C370D3
:10332000BC01CD01602B712B822B932BC23049F055
:1033300058F4C13019F00E94081FDAC00E94F61E2E
:10334000D7C00E941A1FD4C00E94F41ED1C0DD2332
:1033500019F08C2F817001C08695882309F4C8C0AC
:10336000402F429546954770440F440F602F6F7071
:10337000862F90E0A0E0B0E0042E04C0880F991FD3
:10338000AA1FBB1F0A94D2F704FF10C00FE010E081
:1033900020E030E004C0000F111F221F331F4A95A8
:1033A000D2F7009510952095309503C000E010E00D
:1033B0009801C695C695C370BC01CD01602B712BD9
:1033C000822B932BC23049F058F4C13019F00E947F
:1033D000CD1F8EC00E94BB1F8BC00E94DF1F88C004
:1033E0000E942E1F85C0CF70DD2339F08C2F0E94E4
:1033F000541F802F0E9480187BC0802F0E94871846
:103400008C2F0E94751F74C0023F01F128F4003F09
:1034100041F0013FA1F03FC0033FF9F0043F39F113
:103420003AC0DD2341F0153008F05EC08C2F8F715B
:103430000E949A1F59C0163008F056C0F7CFDD23FE
:1034400039F08C2F8F710E94541F4EC0DD23C9F3B9
:103450008C2F8F710E94751F47C0DD2329F08C2FA0
:103460008F710E943F1F40C00E943A1F3DC0DD2364
:1034700049F0CF718C2F0E94541F63E08C2F0E9463
:103480004D2132C081E00E946221123068F182E059
:103490000E94622129C0DD2331F0112391F2802F97
:1034A0000E945A1721C0112399F2093349F49FEF62
:1034B000E7EEF3E09150E040F040E1F700C000009B
:1034C000802F0E94011810C04C2F4F70602FC70131
:1034D0000E940D040E94651E0FC04C2F4F70602F7C
:1034E000C7010E94100408C088EF8C0D843020F4BE
:1034F0000E94FC150E940404DD20C9F00E94BF2038
:1035000080FD15C0F70112820E94B9200E94541F4D
:10351000C7010E94B81A0E94B920DF91CF911F9174
:103520000F91FF90EF90DF90CF900C94751FDF917B
:10353000CF911F910F91FF90EF90DF90CF90089562
:103540000F931F93CF93DF93EC01688179818A8178
:103550000E9496208C010E94F11F0E94E21EB80179
:10356000CE010E948E18DF91CF911F910F91089587
:10357000CF93DF93EC01988189812B813C81232BB0
:1035800031F08F3F31F481E09F3F19F403C081E0B7
:1035900001C080E080FD19C0CE010E94BA038111F4
:1035A0000CC00E94C320882381F08A81882369F09F
:1035B00082E0DF91CF910C946221CE010E94A01A8B
:1035C000CE01DF91CF910C949503DF91CF910895B7
:1035D00080E090E00E94131680E090E00E9429169F
:1035E0000E94EA200E94FA200C9418218091280160
:1035F000909129010E9471220C94E81A0E94DA200D
:103600000C94F61AE92FE295EF704E2F50E0FA0174
:103610003297EE30F105B0F4E658FF4F0C94D22A01
:10362000803F91F018F4883E68F40EC0843F51F456
:103630000BC0883E48F0813F29F406C093FB8827E1
:1036400080F9089580E0089581E008950E948B201C
:103650000E94021B0895CF93DF9300D000D01F92E9
:10366000CDB7DEB70F900F900F900F900F90DF91B6
:10367000CF910895CF93DF9300D000D000D0CDB785
:10368000DEB726960FB6F894DEBF0FBECDBFDF9132
:10369000CF9108951F93CF93DF93C0915C0216E002
:1036A00080915D02C81799F0D0E01C9FF0011D9F2A
:1036B000F00D1124E25AFD4F4081518162817381E6
:1036C000848195810E943A1B2196C770E9CFDF91D2
:1036D000CF911F91089540918E0250918F02609179
:1036E00090027091910280919202909193020C94B9
:1036F0003A1B0F931F93CF93DF9380919302829590
:103700008F7009F05DC080919002882309F458C041
:1037100080915C0210915D0260918E0270918F0227
:10372000C0919102D091920291E06F3F09F090E038
:10373000292F06E0811709F443C0209721F07F3F2D
:1037400021F030E003C031E001C0322F90E030FDC5
:1037500034C0089FF001099FF00D1124DF01A25A27
:10376000BD4F11963C911197371327C03C913613EA
:1037700024C012963C91129731111FC013964D919F
:103780005C9114974C1B5D0B483C5105B0F4809143
:1037900093028F70806180939302ED59FD4F808179
:1037A0008F70806180838EE892E00E94B81ADF916A
:1037B000CF911F910F910C944A1B01968770BACF3D
:1037C000DF91CF911F910F9108959F92AF92BF9279
:1037D000CF92DF92EF92FF920F931F93CF93DF93DD
:1037E000CDB7DEB761970FB6F894DEBF0FBECDBF81
:1037F0008C0185E0F801DE011D9601900D928A95FD
:10380000E1F7F80140815181E28090918E02609150
:103810008F0220919102309192022115310531F0F1
:103820006F3F31F481E09F3F19F403C081E001C094
:1038300080E0F82FF1709F2E80FD46C1F801A38033
:10384000B4808EE8C82E82E0D82EF0909002F50168
:10385000E21BF30BFF2009F4DFC080919302E83CE8
:10386000F10508F09BC0282F207F09F052C05613A5
:1038700013C0491311C0FE2CE1100EC08F7080617F
:10388000809393020E946B1BC6010E94B81A80911C
:103890009302F801858358C1AB2831F05F3F31F4C2
:1038A00081E04F3F19F403C081E001C080E080FD5A
:1038B00003C081E08E2502C080E090E0F82FF17017
:1038C000FF2E80FF1CC080915C0220915D0236E0DB
:1038D000821709F417C190E0389FF001399FF00D6D
:1038E0001124E25AFD4F6181561306C060814613D0
:1038F00003C06281E61203C001968770E9CFFE2CF7
:10390000EE2009F421C1809193028160809393029B
:103910005AC0561306C0491304C0E11002C0F80192
:103920009FC04D875E878D859E850E94261B8823BC
:1039300079F1EE2069F120919302822F82958F70A8
:1039400090E0029774F080918E0290918F02988798
:103950008F831986BB86AA862C87CE0107960E9484
:10396000B81A86E0F801AEE8B2E001900D928A95AF
:10397000E1F70E94791B0E946B1B0DC0561729F1BD
:103980004D875E878D859E850E94261B81112CC0E8
:10399000C8010E94B81AFF24F394D6C0282F207FB4
:1039A00069F77A2DB98AA88A6E2D89890E942B1B06
:1039B0008EE892E00E94B81A86E0F60111928A958C
:1039C000E9F70E946B1BF12CBFC04913D9CFE1105E
:1039D000D7CFF8018583C8010E94B81A86E0F601A6
:1039E00011928A95E9F7B0C0EE2091F220919302EE
:1039F000822F82958F7090E002970CF4B2CF809165
:103A00008E0290918F029A8389831B82BD82AC8241
:103A10002E83CE010196A3CFE83CF10508F047C004
:103A2000FE2CEE2009F4B4CF561330C049132EC03B
:103A30002091930220FD21C0822F82958F70482F04
:103A400050E041155105C9F0F80125834F3051056B
:103A500041F08F5F982F9295907F822F8F70892BE6
:103A60008583C8010E94B81A86E0F801AEE8B2E08A
:103A700001900D928A95E1F742C086E0F801AEE828
:103A8000B2E001900D928A95E1F75EC04D875E87A6
:103A90008D859E850E94261B811163CF80919302A4
:103AA000816080939302C8010E94B81A4DC07A2D9C
:103AB000B98AA88A6E2D89890E942B1B86E0F6019F
:103AC00011928A95E9F71BC0EE2009F461CF4D876A
:103AD0005E878D859E850E94261BF82E882309F41B
:103AE00057CF86E0F801AEE8B2E001900D928A95DA
:103AF000E1F78EE892E00E9454170E94791B0E9421
:103B00006B1B22C04D875E878D859E850E948B2012
:103B1000292F22952F70223028F49F7039F08111BF
:103B200005C00BC0243028F49F7049F4805E8830B3
:103B300020F0C8010E94B81A9F2CF92C05C0F8018A
:103B40009581907F99F7F9CF8F2D61960FB6F894F4
:103B5000DEBF0FBECDBFDF91CF911F910F91FF90C0
:103B6000EF90DF90CF90BF90AF909F9008951F93FC
:103B7000CF93DF93CDB7DEB72C970FB6F894DEBFA7
:103B80000FBECDBF4F83588769877A878B879C8705
:103B9000CE0107960E94E51B8823D1F09F8188857E
:103BA0002A853B85232B31F08F3F31F481E09F3F05
:103BB00019F403C081E001C080E080FD47C04F815F
:103BC000588569857A858B859C850E943A1B3EC005
:103BD00086E0FE013796DE01119601900D928A95DE
:103BE000E1F7FF81E8856A857B856115710531F014
:103BF000EF3F31F481E0FF3F19F403C081E001C0E1
:103C000080E080FD23C020915D0230E0C901019673
:103C10008770992740915C0250E084179507F1F175
:103C2000F983EA837D836C8396E0929FD001939F12
:103C3000B00D1124A25ABD4FFE01319601900D9294
:103C40009A95E1F780935D020E944A1B16E08091ED
:103C50005C0290915D02891771F1189FC0011124D7
:103C6000825A9D4F0E94E51B882329F1E0915C0256
:103C70001E9FF0011124E25AFD4F40815181628163
:103C80007381848195810E943A1B80915C0290E04F
:103C900001968770992780935C02D9CF0E94FE1A03
:103CA00010925D0210925C02EEE8F2E086E0DF0125
:103CB0001D928A95E9F72C960FB6F894DEBF0FBED9
:103CC000CDBFDF91CF911F910895EF92FF920F9397
:103CD0001F93CF93DF938C01892B09F46CC0F12CD7
:103CE000EE24E394E8012196F8018491843740F4AE
:103CF000843008F051C0813081F0823019F15BC00E
:103D0000853709F444C0A8F19CE7980F903708F074
:103D100052C08F770E94011841C00E5F1F4FFE01F5
:103D2000849190E2980F983050F48770FE2D01C076
:103D3000FF0F8A95EAF78F2F0E94ED2014C00E9492
:103D40005A172DC00E5F1F4FFE01849190E2980F0D
:103D5000983060F48770FE2D01C0FF0F8A95EAF756
:103D60008F2F0E94F3200E94182119C00E94011871
:103D700016C00E5F1F4FFE01C491CC2381F08FE966
:103D80009FE00197F1F700C00000C150F6CF0E5F31
:103D90001F4FFE01F49003C00E945A178E018F2D11
:103DA000882309F49FCFEFE9FFE03197F1F700C0D6
:103DB00000008150F5CFDF91CF911F910F91FF90BF
:103DC000EF900895089508950C94E31E0C94E41E5A
:103DD0000E94E61E6093CA027093CB028093CC02CD
:103DE0009093CD020C94E81A0C94E81E0F931F9345
:103DF0000091CA021091CB022091CC023091CD02E9
:103E0000602B712B822B932B1F910F910C94E81E2A
:103E10000F931F930091CA021091CB022091CC0204
:103E20003091CD0260237123822393231F910F9140
:103E30000C94E81E0F931F930091CA021091CB02BD
:103E40002091CC023091CD026027712782279327E1
:103E50001F910F910C94E81E0C94E31E0E942C1FDE
:103E60006093C6027093C7028093C8029093C90200
:103E70000C94E81A60E070E0CB010C942E1F0F93B5
:103E80001F9341E050E060E070E08A019B0104C0B4
:103E9000000F111F221F331F8A95D2F7C901B801E5
:103EA0001F910F910C942E1F0F931F9341E050E030
:103EB00060E070E004C0440F551F661F771F8A95AD
:103EC000D2F78091C6029091C702A091C802B0912A
:103ED000C9028A019B01082B192B2A2B3B2BC901F4
:103EE000B8011F910F910C942E1F0F931F9341E067
:103EF00050E060E070E004C0440F551F661F771F5C
:103F00008A95D2F740955095609570958091C6023C
:103F10009091C702A091C802B091C9028A019B0189
:103F2000082319232A233B23C901B8011F910F91AC
:103F30000C942E1F0F931F9341E050E060E070E05F
:103F400004C0440F551F661F771F8A95D2F78091D2
:103F5000C6029091C702A091C802B091C9028A011D
:103F60009B01082719272A273B27C901B8011F9160
:103F70000F910C942E1F0F931F930091C602109166
:103F8000C7022091C8023091C902602B712B822B8D
:103F9000932B1F910F910C942E1F0F931F93009141
:103FA000C6021091C7022091C8023091C902602355
:103FB0007123822393231F910F910C942E1F0F9333
:103FC0001F930091C6021091C7022091C802309140
:103FD000C90260277127822793271F910F910C94A4
:103FE0002E1F089528E0929F800D1124E82FE6955A
:103FF000E695E695877051E001C0550F8A95EAF77E
:1040000085E0E89FF0011124EC56FD4F20E030E000
:1040100070E04081CB01022E02C0969587950A94EC
:10402000E2F78170819584278523842781932F5F10
:104030003F4F2530310569F7089528E0929F800DA4
:104040001124682F669566956695982F977085E080
:10405000689FB001112440E050E080E0FB01E40FD4
:10406000F51FEC56FD4F208130E0092E02C0369539
:1040700027950A94E2F721703327042E01C0220FFE
:104080000A94EAF7822B4F5F5F4F4530510531F7B5
:104090000895BF92CF92DF92EF92FF920F931F93FA
:1040A000CF93DF938C01C090C602D090C702E090FE
:1040B000C802F090C9028091CA029091CB02A091EF
:1040C000CC02B091CD02C82AD92AEA2AFB2ACFE134
:1040D000D0E0D701C6010C2E04C0B695A7959795E0
:1040E00087950A94D2F780FD04C0219790F7B12CF0
:1040F00007C0BC2EB8018C2F0E942E040197A9F393
:104100008B2DDF91CF911F910F91FF90EF90DF905A
:10411000CF90BF900895CF93DF93EC010E94492088
:10412000BE010E942E04DF91CF9108951F93CF937B
:10413000DF93EB0190915B02992321F0CB010E9468
:104140008B2013C0882349F0CB010E944920182FEF
:10415000682FCE010E94F21F04C0CB010E941D20D7
:10416000182FBE01812F0E942E04DF91CF911F9145
:1041700008958091CE0285958595859508958091C5
:10418000CE02877008959091CE02977081E009F475
:1041900080E008958091DA0208959091DA02892BE7
:1041A0008093DA02089580959091DA0289238093B2
:1041B000DA0208951092DA0208959091D902892BBB
:1041C0008093D902089580959091D9028923809394
:1041D000D90208951092D90208959091D802892B9E
:1041E0008093D802089580959091D8028923809376
:1041F000D80208951092D80208958091CF020895B0
:1042000008950C9400210C9401219091CF029817ED
:1042100021F08093CF020C94032108958091CF0266
:10422000882329F01092CF0280E00C940321089596
:10423000E0912801F09129018091DA028083E091D8
:104240002801F091290190818091D902892B8083E6
:10425000E0912801F091290190818091D802892B69
:1042600080838091CF02882381F0E0912801F09132
:1042700029019081892B80838091280190912901C7
:104280000E942B2281110E940E2180912801909181
:1042900029010C9408160C94002198E0899F900144
:1042A0001124262B2093CE020E94541F8091CE020F
:1042B0008595859585950C944B211092CE0280E0D2
:1042C0000C944B212091CE02809582238093CE02C4
:1042D000982F977079F430E0482F082E000C550B7A
:1042E0002417350739F08595859585950E94751FAA
:1042F0000C945D21089580E0089580E090E00E9494
:10430000802B21E08B3E9E4F09F020E0822F089504
:1043100082E090E00C94722B83E090E00C94722B7E
:10432000CF9384E090E00E94722BC82F81E290E04E
:104330000E94722B2C2F30E0A901582BCA01CF917B
:104340000895CF93C92F682F84E090E00E94862BB8
:104350006C2F81E290E0CF910C94862BAB01BC01D5
:104360008FE090E00C94982BAB01BC0183E190E0CE
:104370000C94982B60E070E0CB010C94B42160E0C9
:1043800070E0CB010E94AE210C94BA216BEE7EEF5F
:1043900080E090E00E94A42B60E082E090E00E9428
:1043A000862B60E083E090E00E94862B1092CA0288
:1043B0001092CB021092CC021092CD0260E084E009
:1043C00090E00E94862B60E081E290E00E94862BC4
:1043D00060E085E090E00E94862B60E086E090E05F
:1043E0000E94862B6FEF87E090E00E94862B40E0D2
:1043F00050E0BA0188E090E00E94982B60E08DE0E8
:1044000090E00E94862B40E050E0BA0188E190E005
:104410000E94982B60E087E190E00E94862B40E0AC
:1044200050E0BA018CE190E00E94982B60E080E2BD
:1044300090E00E94862B40E050E0BA0188E190E0D5
:104440000E94982B0C94BF210C94C621682F8EE0FB
:1044500090E00C94862BFC01329697E080E091501E
:1044600029F021912223D9F38F5FF9CF0895662394
:1044700049F0FC01329608962191621729F0E8175D
:10448000F907D1F780E0089581E008959C01FC01CF
:1044900032969FEF80E04191461789F09F3F19F4D3
:1044A000411101C0982F8F5F8630A9F79F3F39F0E7
:1044B000F901E90FF11D97FDFA95628308950895BA
:1044C0009C012A5F3F4FFC014281461301C01282CA
:1044D000019682179307B9F708950C9446220C941D
:1044E0006022029626E0FC0111922A95E9F70895D0
:1044F00008950C9478220C947822CF930E947B220A
:104500000E94F4060E947922C0E08C2F0E941706B8
:10451000811104C0CF5FCA30C1F701C081E0CF91E3
:1045200008950C9478220C94912280913403843065
:1045300049F10E94932280E00E9404041092DC0260
:1045400020E488E190E00FB6F894A895809360008D
:104550000FBE2093600083B7817F846083BF83B7E1
:10456000816083BF7894889583B78E7F83BF0FB6B1
:10457000F894A89580916000886180936000109203
:1045800060000FBE08950C9478220E94FE1A0E94CB
:10459000FC150E9404040C94C3221F920F920FB6C4
:1045A0000F9211248F939F93AF93BF938091DC025E
:1045B000811113C08091260390912703A0912803B5
:1045C000B09129034196A11DB11D809326039093BC
:1045D0002703A0932803B0932903BF91AF919F9124
:1045E0008F910F900FBE0F901F90189582E084BDA1
:1045F00093E095BD9AEF97BD80936E0008952FB715
:10460000F8948091260390912703A0912803B091FC
:1046100029032FBF08952FB7F89460912603709156
:10462000270380912803909129032FBF08959C01AF
:104630004FB7F8948091260390912703A091280307
:10464000B09129034FBF821B930B089578941F925A
:104650000F920FB60F9211248F939F93AF93BF9336
:104660008091260390912703A0912803B0912903FC
:104670000196A11DB11D8093260390932703A0935B
:104680002803B0932903BF91AF919F918F910F9011
:104690000FBE0F901F90189510922A0310922B03B3
:1046A00010922C0310922D030895CF92DF92EF9277
:1046B000FF926B017C010E94BD0781110EC00E9418
:1046C0000B23C61AD70AE80AF90AC0922A03D09225
:1046D0002B03E0922C03F0922D03FF90EF90DF90DC
:1046E000CF9008950F931F930E94BD07882321F058
:1046F0001F910F910C940B230E940B2300912A030E
:1047000010912B0320912C0330912D03600F711F0A
:10471000821F931F1F910F9108950E94BD07811161
:104720000C94FF220E947223CB01089587E797E73C
:1047300090930108809300089AE088E10FB6F894FE
:10474000A895809360000FBE90936000FFCF909378
:10475000D5018093D40108950E947D21811102C06A
:104760000E9424220E9488218093DB020E949021D3
:1047700090932F0380932E030E948C21682F70E06A
:1047800080E090E00E94F41E6091C6027091C70222
:104790008091C8029091C9020C942C1F8091E5026F
:1047A00008950895CF93DF9300D01F92CDB7DEB761
:1047B00090913403943019F589837B836A8382E076
:1047C0008093E9008FEF9091E800815095FD06C03D
:1047D00095ED9A95F1F700008111F5CF8091E800F1
:1047E00085FF0DC040E050E063E070E0CE0101962F
:1047F0000E94D0258091E8008E778093E8000F908A
:104800000F900F90DF91CF910895BC0184E00C943C
:10481000D223BC0183E00C94D223CF93DF9321E019
:104820002093E9002FEF3091E800215035FD06C0BC
:1048300035ED3A95F1F700002111F5CF2091E80010
:1048400025FF14C0EC0140E050E068E070E00E94F9
:10485000D0258091E8008E778093E80088E0FE0103
:10486000ADEDB2E001900D928A95E1F7DF91CF9125
:10487000089580913303811109C00E9461270E942D
:10488000BE278091E20084608093E2000895109238
:104890003303089508950895089542E061EC81E09E
:1048A0000E94DA2642E261EC82E00C94DA268091E2
:1048B0003603833009F460C030F4813071F0823007
:1048C00009F499C008958A3009F485C08B3009F441
:1048D0006BC0893009F0A7C020C080913503813AB0
:1048E00009F0A1C08091E800877F8093E800809163
:1048F000390390913A03892B21F468E08DED92E021
:1049000003C060E080E090E070E00E941B26809190
:10491000E8008B778093E800089580913503813219
:1049200009F081C08091390390913A03029708F011
:104930007AC08091E800877F8093E8008091E8004A
:1049400082FD05C0809134038111F8CF6CC02091A5
:10495000F3008091F20090E0922B029729F480916D
:10496000F1008B7F813021F48091F1008093E5028A
:104970008091E8008B7753C080913503813A09F02C
:1049800052C08091390390913A03892B09F04BC0B2
:104990008091E800877F8093E8008091E80080FFA5
:1049A000FCCF8091340136C0809135038132D9F536
:1049B0008091390390913A03892BA9F58091E80001
:1049C000877F8093E8000E940F27809137038093B0
:1049D00034010C94FE1A80913503813221F58091C7
:1049E000E800877F8093E8000E940F2780913803BA
:1049F0008093E602089580913503813AA1F4809175
:104A0000E800877F8093E8008091E80080FFFCCF7A
:104A10008091E6028093F1008091E8008E77809388
:104A2000E8000C940F27089584B7877F84BF0FB6E2
:104A3000F894A8958091600088618093600010923E
:104A400060000FBE90E080E80FB6F894809361009C
:104A5000909361000FBE0E9468160E9461270E9419
:104A6000BE278091E20084608093E20078940E94E7
:104A7000532A0E9472168AE291E00E94F7158091F3
:104A800034038530A9F480913403853079F40E9491
:104A90009522809132038823B1F30E947D228823DE
:104AA00091F30E94BA250E94FE1AEDCF0E94C52202
:104AB0000E947E160E945C160E945B16E0CF0C944A
:104AC0006125292F332723303105C9F060F42130C7
:104AD000310581F02230310509F044C08BE390E0CC
:104AE0002EE435E043C021323105E1F022323105B8
:104AF00049F138C082E190E029E835E037C09927D4
:104B00008130910549F028F0029761F5EEE1F5E07A
:104B100005C0EAE4F5E002C0EAE2F5E0849190E045
:104B20009F0124C06115710541F061307105D1F418
:104B300089E090E029E735E019C089E090E020E6BF
:104B400035E014C06115710541F06130710551F413
:104B500082E390E02BE935E009C080E490E02DECA1
:104B600035E004C080E090E020E030E0FA013183DD
:104B70002083089580E189BD82E189BD09B400FEEA
:104B8000FDCF8091D8008F7D8093D8008091E00088
:104B900082608093E0008091E00081FDFCCF089569
:104BA000CF92DF92EF92FF920F931F93CF93DF93F9
:104BB000EC018B017A010E942E27811133C0E11490
:104BC000F10439F0F70180819181081B190BC80F9E
:104BD000D91FC12CD12C0115110519F18091E800C4
:104BE00085FD16C08091E8008E778093E800E1147F
:104BF000F10449F0F70180819181C80ED91ED1825C
:104C0000C08285E00FC00E942E27882321F30AC0AE
:104C100089918093F10001501109FFEFCF1ADF0A4B
:104C2000DACF80E0DF91CF911F910F91FF90EF904D
:104C3000DF90CF90089520913B0330913C032617DD
:104C4000370748F06115710539F42091E8002E7797
:104C50002093E80001C0B901FC0120E06115710555
:104C600079F1809134038823F1F18530F1F180915D
:104C7000E80083FD3CC08091E80082FD2EC0809159
:104C8000E80080FFEBCF2091F3008091F20090E0EC
:104C9000922B6115710551F08830910538F42191FE
:104CA0002093F100615071090196F3CF21E008973C
:104CB00009F020E08091E8008E778093E800CECF65
:104CC0002111CFCF0AC080913403882361F0853051
:104CD00061F08091E80083FD0AC08091E80082FFC6
:104CE000F2CF80E0089582E0089583E0089581E0A6
:104CF000089520913B0330913C032617370748F075
:104D00006115710539F42091E8002E772093E800B1
:104D100001C0B901FC0120E06115710591F180919C
:104D20003403882309F440C0853009F43FC08091E2
:104D3000E80083FD3DC08091E80082FD2FC0809196
:104D4000E80080FFE9CF2091F3008091F20090E02D
:104D5000922B6115710559F08830910540F424912A
:104D60002093F1003196615071090196F2CF21E054
:104D7000089709F020E08091E8008E778093E800A2
:104D8000CBCF2111CCCF0AC080913403882361F0AE
:104D9000853061F08091E80083FD0AC08091E800D1
:104DA00082FFF2CF80E0089582E0089583E00895C5
:104DB00081E00895982F973068F59093E90098174F
:104DC00039F07091EC002091ED005091F00003C09B
:104DD000242F762F50E021FD02C09F5FECCF309151
:104DE000EB003E7F3093EB003091ED003D7F309340
:104DF000ED003091EB0031603093EB007093EC00EC
:104E00002093ED005093F0002091EE0027FDE5CFB8
:104E100080E008958F708093E90081E0089580918B
:104E2000350387FF11C08091E80082FD05C08091A5
:104E300034038111F8CF11C08091E8008B770BC04B
:104E400080913403882349F08091E80080FFF8CFF7
:104E50008091E8008E778093E80008952091E40027
:104E60003091E50095E64091EC00842F817040FF81
:104E700023C08091E80080FD1DC080913403882309
:104E800099F0853099F08091EB0085FD11C040913B
:104E9000E4005091E5002417350729F3915011F0F3
:104EA0009A01E1CF84E0089582E0089583E00895B7
:104EB00081E0089580E008954091E80042FFDDCF51
:104EC00008950E94CF270E94D727E0EEF0E080816E
:104ED00081608083E8EDF0E080818F77808319BC6A
:104EE000A7EDB0E08C918E7F8C9380818F7E808344
:104EF0001092330308950F931F93CF93DF930E9473
:104F0000CF270E94D727C8EDD0E088818F7788838C
:104F100088818068888388818F7D888319BC1092FE
:104F2000340310923003109232031092310300EEDA
:104F300010E0F80180818B7F808388818160888385
:104F400042E060E080E00E94DA26E1EEF0E080815D
:104F50008E7F8083E2EEF0E08081816080838081BB
:104F600088608083F80180818E7F80838881806162
:104F70008883DF91CF911F910F910895E8EDF0E0C4
:104F800080818F7E8083E7EDF0E080818160808387
:104F900084E082BF81E0809333030C947B27E8EDAB
:104FA000F0E080818E7F80831092E200089510925D
:104FB000DA001092E10008951F920F920FB60F923F
:104FC00011242F933F934F935F936F937F938F930E
:104FD0009F93AF93BF93EF93FF938091E10082FF84
:104FE0000BC08091E20082FF07C08091E1008B7FBF
:104FF0008093E1000E94522A8091DA0080FF1FC056
:105000008091D80080FF1BC08091DA008E7F809352
:10501000DA008091D90080FF0DC080E189BD82E176
:1050200089BD09B400FEFDCF81E0809334030E9466
:10503000392405C019BC109234030E944724809182
:10504000E10080FF19C08091E20080FF15C08091CF
:10505000E2008E7F8093E2008091E2008061809385
:10506000E2008091D80080628093D80019BC85E06E
:10507000809334030E944B248091E10084FF30C070
:105080008091E20084FF2CC080E189BD82E189BD6E
:1050900009B400FEFDCF8091D8008F7D8093D800A9
:1050A0008091E1008F7E8093E1008091E2008F7E0D
:1050B0008093E2008091E20081608093E200809121
:1050C0003003882311F084E007C08091E30087FD5E
:1050D00002C081E001C083E0809334030E944C242D
:1050E0008091E10083FF29C08091E20083FF25C009
:1050F0008091E100877F8093E10082E08093340318
:10510000109230038091E1008E7F8093E1008091C6
:10511000E2008E7F8093E2008091E20080618093C4
:10512000E20042E060E080E00E94DA268091F00038
:1051300088608093F0000E944A24FF91EF91BF9114
:10514000AF919F918F917F916F915F914F913F911F
:105150002F910F900FBE0F901F9018951F920F92D6
:105160000FB60F9211242F933F934F935F936F933A
:105170007F938F939F93AF93BF93CF93DF93EF93DF
:10518000FF93C091E900CF708091EC00D82FD170CF
:1051900080FDD0E81092E9008091F000877F809335
:1051A000F00078940E94F2281092E9008091F000BB
:1051B00088608093F000CD2BCF70C093E900FF9101
:1051C000EF91DF91CF91BF91AF919F918F917F919F
:1051D0006F915F914F913F912F910F900FBE0F9064
:1051E0001F9018951F93CF93DF93CDB7DEB7AA9783
:1051F0000FB6F894DEBF0FBECDBFE5E3F3E08091BC
:10520000F100819323E0ED33F207C9F70E945724A0
:105210008091E80083FF2EC1809135039091360381
:10522000492F50E04A30510508F024C1FA01E857EF
:10523000FF4F0C94D22A803821F0823809F01AC12D
:1052400008C08091310390913203992389F08260E4
:105250000FC0809139038F70873008F00BC18093A5
:10526000E9008091EB0085FB882780F91092E90026
:105270009091E800977F9093E8008093F10010925E
:10528000F100D1C0282F2D7F09F0F4C0882319F038
:10529000823061F0EFC080913703813009F0EAC0BD
:1052A000933009F080E0809332032EC08091370361
:1052B00081112AC0809139038F702FEF280F26307B
:1052C00008F0D8C08093E9002091EB0020FF1CC0BB
:1052D000933021F48091EB00806214C09091EB0038
:1052E00090619093EB0021E030E0A90102C0440FEF
:1052F000551F8A95E2F74093EA001092EA008091E8
:10530000EB0088608093EB001092E9008091E80048
:10531000877F8093E8000E940F27ACC08111AAC04C
:10532000109137031F778091E3008078812B809361
:10533000E3008091E800877F8093E8000E940F27B8
:105340008091E80080FFFCCF8091E300806880932B
:10535000E300111102C082E001C083E080933403B6
:1053600089C08058823008F085C0809137039091C1
:1053700038038C3D53E0950779F583E08A838AE210
:1053800089834FB7F894DE01139620E03EE051E2A6
:10539000E32FF0E050935700E49120FF03C0E29523
:1053A000EF703F5FEF708E2F90E0EA3010F0C796FD
:1053B00001C0C0968D939D932F5F243149F74FBF55
:1053C0008091E800877F8093E8006AE270E0CE0178
:1053D00001960E941B2616C06091390370913A0312
:1053E000AE014F5F5F4F0E945F25BC01892B09F41E
:1053F00041C09091E800977F9093E80089819A815D
:105400000E9479268091E8008B778093E80032C073
:10541000803881F58091E800877F8093E800809153
:1054200030038093F1008091E8008E7772CF811174
:1054300021C0809137039091380399270297D4F4C3
:105440008091E800877F8093E80080913703809304
:1054500030030E940F2780913003811106C0809194
:10546000E30087FD02C081E001C084E08093340343
:105470000E944D248091E80083FF0AC08091E800DB
:10548000877F8093E8008091EB0080628093EB003F
:10549000AA960FB6F894DEBF0FBECDBFDF91CF91B5
:1054A0001F9108950895CF93809134038823A1F02C
:1054B000C091E900CF709091EC00892F817090FD30
:1054C00080E8C82B1092E9008091E80083FD0E94DB
:1054D000F228CF70C093E900CF910895991B79E02D
:1054E00004C0991F961708F0961B881F7A95C9F774
:1054F0008095089587FB082E062687FD819567FD18
:1055000061950E946E2A0EF4919507FC819508958D
:10551000AA1BBB1B51E107C0AA1FBB1FA617B707D9
:1055200010F0A61BB70B881F991F5A95A9F78095F5
:105530009095BC01CD01089597FB072E16F40094B9
:1055400007D077FD09D00E94882A07FC05D03EF4D9
:10555000909581959F4F0895709561957F4F08951F
:10556000A1E21A2EAA1BBB1BFD010DC0AA1FBB1F67
:10557000EE1FFF1FA217B307E407F50720F0A21BD9
:10558000B30BE40BF50B661F771F881F991F1A9446
:1055900069F760957095809590959B01AC01BD0170
:1055A000CF010895EE0FFF1F0590F491E02D0994AF
:1055B0000E94E02A332312F48A1B9B0B0C94F12ADD
:1055C000A29FB001B39FC001A39F700D811D112444
:1055D000911DB29F700D811D1124911D08950E948F
:1055E000E02AB7FF0895821B930B08950E94E02ADA
:1055F000A59F900DB49F900DA49F800D911D112427
:105600000895B7FF0C94F62A0E94F62A821B930B8A
:1056100008958F929F92AF92BF92CF92DF92EF92B6
:10562000FF92CF93DF93EC01688179818A819B811E
:10563000611571058105910521F464E279ED8BE531
:1056400097E02DE133EF41E050E00E94BA2B490191
:105650005A019B01AC01A7EAB1E40E94F62A6B0152
:105660007C01ACEEB4EFA50194010E94042BDC0197
:10567000CB018C0D9D1DAE1DBF1DB7FF03C0019753
:10568000A109B04888839983AA83BB839F77DF9160
:10569000CF91FF90EF90DF90CF90BF90AF909F9011
:1056A0008F9008950E94092B089580E091E00E9458
:1056B000092B0895A0E0B0E08093000190930101D0
:1056C000A0930201B09303010895FC0141505040A2
:1056D00030F001900616D1F73197CF010895882751
:1056E00099270895F999FECF92BD81BDF89A99271F
:1056F00080B50895A6E1B0E044E050E00C94AC2BF6
:10570000A8E1B0E042E050E00C94AC2B262FF999D0
:10571000FECF92BD81BDF89A019700B4021639F010
:105720001FBA20BD0FB6F894FA9AF99A0FBE0895E1
:105730000396272F0E94872B0E94862B252F0E94DD
:10574000872B242F0C94872B0196272F0E94872BC1
:105750000C94862BDC01CB01FC01F999FECF06C02D
:10576000F2BDE1BDF89A319600B40D92415050401F
:10577000B8F70895052E97FB1EF400940E94D12BD4
:1057800057FD07D00E94B02A07FC03D04EF40C94BA
:10579000D12B50954095309521953F4F4F4F5F4FFE
:1057A000089590958095709561957F4F8F4F9F4F8D
:0657B0000895F894FFCFFC
:1057B6000100000001010102000C000C0C01191A85
:1057C6001B1C1D1E1F2021222C02042D0205310246
:1057D6003602083702000000D002CE230D24D12362
:1057E6000924052401E200E900EA00B500B600B785
:1057F60000CD008301CC008A01920194012102238D
:105806000224022502260227022A02B300B4006FF0
:10581600007000818283F4F5F6F7313332359466F1
:1058260097C63400000000000001020202020606CC
:10583600060909090909090F0F0F0F0F0F1515158D
:10584600181919191919191919191923242525258A
:10585600252525E200E900EA00B500B600B700CD2F
:10586600008301CC008A01920194012102230224C3
:10587600022502260227022A02B300B4006F007036
:045886000081828398
:00000001FF
